{
  "address": "0xe49ebe3Cf0BaA0cae0C03Dd9d19CA855463Cbb41",
  "abi": [
    {
      "inputs": [
        {
          "internalType": "address",
          "name": "owner_",
          "type": "address"
        },
        {
          "internalType": "address",
          "name": "pow1Token_",
          "type": "address"
        },
        {
          "internalType": "address",
          "name": "pow5Token_",
          "type": "address"
        },
        {
          "internalType": "address",
          "name": "lpPow1Token_",
          "type": "address"
        },
        {
          "internalType": "address",
          "name": "lpPow5Token_",
          "type": "address"
        },
        {
          "internalType": "address",
          "name": "noPow5Token_",
          "type": "address"
        },
        {
          "internalType": "address",
          "name": "lpSft_",
          "type": "address"
        }
      ],
      "stateMutability": "nonpayable",
      "type": "constructor"
    },
    {
      "inputs": [],
      "name": "AccessControlBadConfirmation",
      "type": "error"
    },
    {
      "inputs": [
        {
          "internalType": "address",
          "name": "account",
          "type": "address"
        },
        {
          "internalType": "bytes32",
          "name": "neededRole",
          "type": "bytes32"
        }
      ],
      "name": "AccessControlUnauthorizedAccount",
      "type": "error"
    },
    {
      "inputs": [
        {
          "internalType": "address",
          "name": "tokenAddress",
          "type": "address"
        }
      ],
      "name": "LPSFTInvalidAddress",
      "type": "error"
    },
    {
      "inputs": [
        {
          "internalType": "uint256",
          "name": "tokenId",
          "type": "uint256"
        }
      ],
      "name": "LPSFTInvalidToken",
      "type": "error"
    },
    {
      "inputs": [],
      "name": "ReentrancyGuardReentrantCall",
      "type": "error"
    },
    {
      "anonymous": false,
      "inputs": [
        {
          "indexed": true,
          "internalType": "bytes32",
          "name": "role",
          "type": "bytes32"
        },
        {
          "indexed": true,
          "internalType": "bytes32",
          "name": "previousAdminRole",
          "type": "bytes32"
        },
        {
          "indexed": true,
          "internalType": "bytes32",
          "name": "newAdminRole",
          "type": "bytes32"
        }
      ],
      "name": "RoleAdminChanged",
      "type": "event"
    },
    {
      "anonymous": false,
      "inputs": [
        {
          "indexed": true,
          "internalType": "bytes32",
          "name": "role",
          "type": "bytes32"
        },
        {
          "indexed": true,
          "internalType": "address",
          "name": "account",
          "type": "address"
        },
        {
          "indexed": true,
          "internalType": "address",
          "name": "sender",
          "type": "address"
        }
      ],
      "name": "RoleGranted",
      "type": "event"
    },
    {
      "anonymous": false,
      "inputs": [
        {
          "indexed": true,
          "internalType": "bytes32",
          "name": "role",
          "type": "bytes32"
        },
        {
          "indexed": true,
          "internalType": "address",
          "name": "account",
          "type": "address"
        },
        {
          "indexed": true,
          "internalType": "address",
          "name": "sender",
          "type": "address"
        }
      ],
      "name": "RoleRevoked",
      "type": "event"
    },
    {
      "inputs": [],
      "name": "DEFAULT_ADMIN_ROLE",
      "outputs": [
        {
          "internalType": "bytes32",
          "name": "",
          "type": "bytes32"
        }
      ],
      "stateMutability": "view",
      "type": "function"
    },
    {
      "inputs": [],
      "name": "DEFI_OPERATOR_ROLE",
      "outputs": [
        {
          "internalType": "bytes32",
          "name": "",
          "type": "bytes32"
        }
      ],
      "stateMutability": "view",
      "type": "function"
    },
    {
      "inputs": [
        {
          "internalType": "bytes32",
          "name": "role",
          "type": "bytes32"
        }
      ],
      "name": "getRoleAdmin",
      "outputs": [
        {
          "internalType": "bytes32",
          "name": "",
          "type": "bytes32"
        }
      ],
      "stateMutability": "view",
      "type": "function"
    },
    {
      "inputs": [
        {
          "internalType": "bytes32",
          "name": "role",
          "type": "bytes32"
        },
        {
          "internalType": "address",
          "name": "account",
          "type": "address"
        }
      ],
      "name": "grantRole",
      "outputs": [],
      "stateMutability": "nonpayable",
      "type": "function"
    },
    {
      "inputs": [
        {
          "internalType": "bytes32",
          "name": "role",
          "type": "bytes32"
        },
        {
          "internalType": "address",
          "name": "account",
          "type": "address"
        }
      ],
      "name": "hasRole",
      "outputs": [
        {
          "internalType": "bool",
          "name": "",
          "type": "bool"
        }
      ],
      "stateMutability": "view",
      "type": "function"
    },
    {
      "inputs": [
        {
          "internalType": "uint256",
          "name": "tokenId",
          "type": "uint256"
        },
        {
          "internalType": "uint256",
          "name": "amount",
          "type": "uint256"
        },
        {
          "internalType": "address",
          "name": "recipient",
          "type": "address"
        }
      ],
      "name": "issuePow5",
      "outputs": [],
      "stateMutability": "nonpayable",
      "type": "function"
    },
    {
      "inputs": [
        {
          "internalType": "uint256",
          "name": "tokenId",
          "type": "uint256"
        }
      ],
      "name": "lpPow1Balance",
      "outputs": [
        {
          "internalType": "uint256",
          "name": "",
          "type": "uint256"
        }
      ],
      "stateMutability": "view",
      "type": "function"
    },
    {
      "inputs": [
        {
          "internalType": "uint256[]",
          "name": "tokenIds",
          "type": "uint256[]"
        }
      ],
      "name": "lpPow1BalanceBatch",
      "outputs": [
        {
          "internalType": "uint256[]",
          "name": "",
          "type": "uint256[]"
        }
      ],
      "stateMutability": "view",
      "type": "function"
    },
    {
      "inputs": [],
      "name": "lpPow1Token",
      "outputs": [
        {
          "internalType": "contract IERC20Issuable",
          "name": "",
          "type": "address"
        }
      ],
      "stateMutability": "view",
      "type": "function"
    },
    {
      "inputs": [
        {
          "internalType": "uint256",
          "name": "tokenId",
          "type": "uint256"
        }
      ],
      "name": "lpPow5Balance",
      "outputs": [
        {
          "internalType": "uint256",
          "name": "",
          "type": "uint256"
        }
      ],
      "stateMutability": "view",
      "type": "function"
    },
    {
      "inputs": [
        {
          "internalType": "uint256[]",
          "name": "tokenIds",
          "type": "uint256[]"
        }
      ],
      "name": "lpPow5BalanceBatch",
      "outputs": [
        {
          "internalType": "uint256[]",
          "name": "",
          "type": "uint256[]"
        }
      ],
      "stateMutability": "view",
      "type": "function"
    },
    {
      "inputs": [],
      "name": "lpPow5Token",
      "outputs": [
        {
          "internalType": "contract IERC20Issuable",
          "name": "",
          "type": "address"
        }
      ],
      "stateMutability": "view",
      "type": "function"
    },
    {
      "inputs": [],
      "name": "lpSft",
      "outputs": [
        {
          "internalType": "contract ILPSFT",
          "name": "",
          "type": "address"
        }
      ],
      "stateMutability": "view",
      "type": "function"
    },
    {
      "inputs": [
        {
          "internalType": "uint256",
          "name": "tokenId",
          "type": "uint256"
        }
      ],
      "name": "noPow5Balance",
      "outputs": [
        {
          "internalType": "uint256",
          "name": "",
          "type": "uint256"
        }
      ],
      "stateMutability": "view",
      "type": "function"
    },
    {
      "inputs": [
        {
          "internalType": "uint256[]",
          "name": "tokenIds",
          "type": "uint256[]"
        }
      ],
      "name": "noPow5BalanceBatch",
      "outputs": [
        {
          "internalType": "uint256[]",
          "name": "",
          "type": "uint256[]"
        }
      ],
      "stateMutability": "view",
      "type": "function"
    },
    {
      "inputs": [],
      "name": "noPow5Token",
      "outputs": [
        {
          "internalType": "contract IERC20Issuable",
          "name": "",
          "type": "address"
        }
      ],
      "stateMutability": "view",
      "type": "function"
    },
    {
      "inputs": [
        {
          "internalType": "uint256",
          "name": "tokenId",
          "type": "uint256"
        }
      ],
      "name": "pow1Balance",
      "outputs": [
        {
          "internalType": "uint256",
          "name": "",
          "type": "uint256"
        }
      ],
      "stateMutability": "view",
      "type": "function"
    },
    {
      "inputs": [
        {
          "internalType": "uint256[]",
          "name": "tokenIds",
          "type": "uint256[]"
        }
      ],
      "name": "pow1BalanceBatch",
      "outputs": [
        {
          "internalType": "uint256[]",
          "name": "",
          "type": "uint256[]"
        }
      ],
      "stateMutability": "view",
      "type": "function"
    },
    {
      "inputs": [],
      "name": "pow1Token",
      "outputs": [
        {
          "internalType": "contract IERC20",
          "name": "",
          "type": "address"
        }
      ],
      "stateMutability": "view",
      "type": "function"
    },
    {
      "inputs": [
        {
          "internalType": "uint256",
          "name": "tokenId",
          "type": "uint256"
        }
      ],
      "name": "pow5Balance",
      "outputs": [
        {
          "internalType": "uint256",
          "name": "",
          "type": "uint256"
        }
      ],
      "stateMutability": "view",
      "type": "function"
    },
    {
      "inputs": [
        {
          "internalType": "uint256[]",
          "name": "tokenIds",
          "type": "uint256[]"
        }
      ],
      "name": "pow5BalanceBatch",
      "outputs": [
        {
          "internalType": "uint256[]",
          "name": "",
          "type": "uint256[]"
        }
      ],
      "stateMutability": "view",
      "type": "function"
    },
    {
      "inputs": [],
      "name": "pow5Token",
      "outputs": [
        {
          "internalType": "contract IERC20Issuable",
          "name": "",
          "type": "address"
        }
      ],
      "stateMutability": "view",
      "type": "function"
    },
    {
      "inputs": [
        {
          "internalType": "bytes32",
          "name": "role",
          "type": "bytes32"
        },
        {
          "internalType": "address",
          "name": "callerConfirmation",
          "type": "address"
        }
      ],
      "name": "renounceRole",
      "outputs": [],
      "stateMutability": "nonpayable",
      "type": "function"
    },
    {
      "inputs": [
        {
          "internalType": "uint256",
          "name": "tokenId",
          "type": "uint256"
        },
        {
          "internalType": "uint256",
          "name": "amount",
          "type": "uint256"
        }
      ],
      "name": "repayPow5",
      "outputs": [],
      "stateMutability": "nonpayable",
      "type": "function"
    },
    {
      "inputs": [
        {
          "internalType": "bytes32",
          "name": "role",
          "type": "bytes32"
        },
        {
          "internalType": "address",
          "name": "account",
          "type": "address"
        }
      ],
      "name": "revokeRole",
      "outputs": [],
      "stateMutability": "nonpayable",
      "type": "function"
    },
    {
      "inputs": [
        {
          "internalType": "bytes4",
          "name": "interfaceId",
          "type": "bytes4"
        }
      ],
      "name": "supportsInterface",
      "outputs": [
        {
          "internalType": "bool",
          "name": "",
          "type": "bool"
        }
      ],
      "stateMutability": "view",
      "type": "function"
    }
  ],
  "transactionHash": "0xab6b417149162c01ca9b80dd77aa22699f990e185c73a1ef1df183a0a853c404",
  "args": [
    "0x5Eb8d8a368B1F1A9de0c2E489e270d7AFD389C3C",
    "0x3414381EF8d64a2c0E8eC785553534122312787e",
    "0x7b589E244173CE2d11d76878C053e25Dd72Ea610",
    "0xe52cB492ffac292bd555237f13AA43D3f5481851",
    "0x27a32088D0aA4ba5ac342fdD96b75994219609C6",
    "0x0Da4291075032aD1c9D3838c7A2D51bF30d7E000",
    "0xd621853d65eA069370efe04fc07846d0af4E2e78"
  ],
  "numDeployments": 1,
  "solcInputHash": "607dfe4437c93ddfbd36914a2ea77f31",
  "bytecode": "0x61014060405234801561001157600080fd5b5060405161222638038061222683398101604081905261003091610316565b60016000556001600160a01b0387166100805760405162461bcd60e51b815260206004820152600d60248201526c24b73b30b634b21037bbb732b960991b60448201526064015b60405180910390fd5b6001600160a01b0386166100c55760405162461bcd60e51b815260206004820152600c60248201526b496e76616c696420504f573160a01b6044820152606401610077565b6001600160a01b03851661010a5760405162461bcd60e51b815260206004820152600c60248201526b496e76616c696420504f573560a01b6044820152606401610077565b6001600160a01b0384166101515760405162461bcd60e51b815260206004820152600e60248201526d496e76616c6964204c50504f573160901b6044820152606401610077565b6001600160a01b0383166101985760405162461bcd60e51b815260206004820152600e60248201526d496e76616c6964204c50504f573560901b6044820152606401610077565b6001600160a01b0382166101e25760405162461bcd60e51b8152602060048201526011602482015270125b9d985b1a59081413d5cd481919589d607a1b6044820152606401610077565b6001600160a01b0381166102295760405162461bcd60e51b815260206004820152600e60248201526d125b9d985b1a590813140b54d19560921b6044820152606401610077565b610234600088610265565b506001600160a01b0395861660805293851660a05291841660c052831660e05282166101005216610120525061039c565b60008281526001602090815260408083206001600160a01b038516845290915281205460ff166102f05760008381526001602081815260408084206001600160a01b0387168086529252808420805460ff19169093179092559051339286917f2f8788117e7eff1d82e926ec794901d17c78024a50270940304540a733656f0d9190a45060016102f4565b5060005b92915050565b80516001600160a01b038116811461031157600080fd5b919050565b600080600080600080600060e0888a03121561033157600080fd5b61033a886102fa565b9650610348602089016102fa565b9550610356604089016102fa565b9450610364606089016102fa565b9350610372608089016102fa565b925061038060a089016102fa565b915061038e60c089016102fa565b905092959891949750929550565b60805160a05160c05160e0516101005161012051611d776104af60003960008181610368015281816104a1015281816106b90152818161089601528181610a6c01528181610c4201528181610de001528181610f04015281816112500152818161135801528181611460015281816115f101526117800152600081816102c50152818161077701528181611057015281816111c10152818161140e01526118d301526000818161020501528181610d00015261130601526000818161040a01528181610fc50152818161151601526116af01526000818161031201528181610b2a01528181610e960152818161114101526118290152600081816103e30152818161055c01526109540152611d776000f3fe608060405234801561001057600080fd5b506004361061018e5760003560e01c8063949f5d20116100de578063a7f3852211610097578063e029982211610071578063e0299822146103de578063e577046d14610405578063e7827b481461042c578063ebe80a041461043f57600080fd5b8063a7f38522146103a5578063b2954a8c146103b8578063d547741f146103cb57600080fd5b8063949f5d201461030d57806397bbb0da146103345780639c94958014610350578063a1abfd9514610363578063a217fddf1461038a578063a34979581461039257600080fd5b80633a66b8fa1161014b57806373bfc5391161012557806373bfc539146102ad5780637f597920146102c057806391d14854146102e757806393092381146102fa57600080fd5b80633a66b8fa146102675780633c9459c1146102875780635b1bb2d21461029a57600080fd5b806301ffc9a71461019357806308b9f115146101bb578063248a9ca3146101dc57806325e3a1c1146102005780632f2ff15d1461023f57806336568abe14610254575b600080fd5b6101a66101a1366004611acb565b610452565b60405190151581526020015b60405180910390f35b6101ce6101c9366004611af5565b61047e565b6040519081526020016101b2565b6101ce6101ea366004611af5565b6000908152600160208190526040909120015490565b6102277f000000000000000000000000000000000000000000000000000000000000000081565b6040516001600160a01b0390911681526020016101b2565b61025261024d366004611b23565b6105cf565b005b610252610262366004611b23565b6105fb565b61027a610275366004611b69565b610633565b6040516101b29190611c36565b61027a610295366004611b69565b610810565b61027a6102a8366004611b69565b6109e6565b61027a6102bb366004611b69565b610bbc565b6102277f000000000000000000000000000000000000000000000000000000000000000081565b6101a66102f5366004611b23565b610d92565b6101ce610308366004611af5565b610dbd565b6102277f000000000000000000000000000000000000000000000000000000000000000081565b6101ce71444546495f4f50455241544f525f524f4c4560701b81565b61025261035e366004611c79565b610ec5565b6102277f000000000000000000000000000000000000000000000000000000000000000081565b6101ce600081565b6101ce6103a0366004611af5565b61122d565b6101ce6103b3366004611af5565b611335565b6101ce6103c6366004611af5565b61143d565b6102526103d9366004611b23565b611545565b6102277f000000000000000000000000000000000000000000000000000000000000000081565b6102277f000000000000000000000000000000000000000000000000000000000000000081565b61027a61043a366004611b69565b61156b565b61025261044d366004611cb2565b611741565b600061045d82611940565b80610478575063499b8b3f60e11b6001600160e01b03198316145b92915050565b6040516308bb76a560e01b81526004810182905260009081906001600160a01b037f000000000000000000000000000000000000000000000000000000000000000016906308bb76a590602401602060405180830381865afa1580156104e8573d6000803e3d6000fd5b505050506040513d601f19601f8201168201806040525081019061050c9190611cd4565b90506001600160a01b03811661053d5760405163415986a760e01b8152600481018490526024015b60405180910390fd5b6040516370a0823160e01b81526001600160a01b0382811660048301527f000000000000000000000000000000000000000000000000000000000000000016906370a08231906024015b602060405180830381865afa1580156105a4573d6000803e3d6000fd5b505050506040513d601f19601f820116820180604052508101906105c89190611cf1565b9392505050565b600082815260016020819052604090912001546105eb81611975565b6105f58383611982565b50505050565b6001600160a01b03811633146106245760405163334bd91960e11b815260040160405180910390fd5b61062e82826119fb565b505050565b60606000825167ffffffffffffffff81111561065157610651611b53565b60405190808252806020026020018201604052801561067a578160200160208202803683370190505b50905060005b8351811015610809576020808202850101516000906040516308bb76a560e01b8152600481018290529091506000906001600160a01b037f000000000000000000000000000000000000000000000000000000000000000016906308bb76a590602401602060405180830381865afa158015610700573d6000803e3d6000fd5b505050506040513d601f19601f820116820180604052508101906107249190611cd4565b90506001600160a01b038116610758576040516337d7efc760e21b81526001600160a01b0382166004820152602401610534565b6040516370a0823160e01b81526001600160a01b0382811660048301527f000000000000000000000000000000000000000000000000000000000000000016906370a0823190602401602060405180830381865afa1580156107be573d6000803e3d6000fd5b505050506040513d601f19601f820116820180604052508101906107e29190611cf1565b8484815181106107f4576107f4611d0a565b60209081029190910101525050600101610680565b5092915050565b60606000825167ffffffffffffffff81111561082e5761082e611b53565b604051908082528060200260200182016040528015610857578160200160208202803683370190505b50905060005b8351811015610809576020808202850101516000906040516308bb76a560e01b8152600481018290529091506000906001600160a01b037f000000000000000000000000000000000000000000000000000000000000000016906308bb76a590602401602060405180830381865afa1580156108dd573d6000803e3d6000fd5b505050506040513d601f19601f820116820180604052508101906109019190611cd4565b90506001600160a01b038116610935576040516337d7efc760e21b81526001600160a01b0382166004820152602401610534565b6040516370a0823160e01b81526001600160a01b0382811660048301527f000000000000000000000000000000000000000000000000000000000000000016906370a0823190602401602060405180830381865afa15801561099b573d6000803e3d6000fd5b505050506040513d601f19601f820116820180604052508101906109bf9190611cf1565b8484815181106109d1576109d1611d0a565b6020908102919091010152505060010161085d565b60606000825167ffffffffffffffff811115610a0457610a04611b53565b604051908082528060200260200182016040528015610a2d578160200160208202803683370190505b50905060005b8351811015610809576020808202850101516000906040516308bb76a560e01b8152600481018290529091506000906001600160a01b037f000000000000000000000000000000000000000000000000000000000000000016906308bb76a590602401602060405180830381865afa158015610ab3573d6000803e3d6000fd5b505050506040513d601f19601f82011682018060405250810190610ad79190611cd4565b90506001600160a01b038116610b0b576040516337d7efc760e21b81526001600160a01b0382166004820152602401610534565b6040516370a0823160e01b81526001600160a01b0382811660048301527f000000000000000000000000000000000000000000000000000000000000000016906370a0823190602401602060405180830381865afa158015610b71573d6000803e3d6000fd5b505050506040513d601f19601f82011682018060405250810190610b959190611cf1565b848481518110610ba757610ba7611d0a565b60209081029190910101525050600101610a33565b60606000825167ffffffffffffffff811115610bda57610bda611b53565b604051908082528060200260200182016040528015610c03578160200160208202803683370190505b50905060005b8351811015610809576020808202850101516000906040516308bb76a560e01b8152600481018290529091506000906001600160a01b037f000000000000000000000000000000000000000000000000000000000000000016906308bb76a590602401602060405180830381865afa158015610c89573d6000803e3d6000fd5b505050506040513d601f19601f82011682018060405250810190610cad9190611cd4565b90506001600160a01b038116610ce1576040516337d7efc760e21b81526001600160a01b0382166004820152602401610534565b6040516370a0823160e01b81526001600160a01b0382811660048301527f000000000000000000000000000000000000000000000000000000000000000016906370a0823190602401602060405180830381865afa158015610d47573d6000803e3d6000fd5b505050506040513d601f19601f82011682018060405250810190610d6b9190611cf1565b848481518110610d7d57610d7d611d0a565b60209081029190910101525050600101610c09565b60009182526001602090815260408084206001600160a01b0393909316845291905290205460ff1690565b6040516308bb76a560e01b81526004810182905260009081906001600160a01b037f000000000000000000000000000000000000000000000000000000000000000016906308bb76a590602401602060405180830381865afa158015610e27573d6000803e3d6000fd5b505050506040513d601f19601f82011682018060405250810190610e4b9190611cd4565b90506001600160a01b038116610e775760405163415986a760e01b815260048101849052602401610534565b6040516370a0823160e01b81526001600160a01b0382811660048301527f000000000000000000000000000000000000000000000000000000000000000016906370a0823190602401610587565b610ecd611a68565b610eeb71444546495f4f50455241544f525f524f4c4560701b611975565b6040516308bb76a560e01b8152600481018490526000907f00000000000000000000000000000000000000000000000000000000000000006001600160a01b0316906308bb76a590602401602060405180830381865afa158015610f53573d6000803e3d6000fd5b505050506040513d601f19601f82011682018060405250810190610f779190611cd4565b90506001600160a01b038116610fa35760405163415986a760e01b815260048101859052602401610534565b6040516370a0823160e01b81526001600160a01b0382811660048301526000917f0000000000000000000000000000000000000000000000000000000000000000909116906370a0823190602401602060405180830381865afa15801561100e573d6000803e3d6000fd5b505050506040513d601f19601f820116820180604052508101906110329190611cf1565b6040516370a0823160e01b81526001600160a01b0384811660048301529192506000917f000000000000000000000000000000000000000000000000000000000000000016906370a0823190602401602060405180830381865afa15801561109e573d6000803e3d6000fd5b505050506040513d601f19601f820116820180604052508101906110c29190611cf1565b905060006110d08683611d20565b90508281111561111b5760405162461bcd60e51b8152602060048201526016602482015275125b9cdd59999a58d95b9d0818dbdb1b185d195c985b60521b6044820152606401610534565b6040516340c10f1960e01b81526001600160a01b038681166004830152602482018890527f000000000000000000000000000000000000000000000000000000000000000016906340c10f1990604401600060405180830381600087803b15801561118557600080fd5b505af1158015611199573d6000803e3d6000fd5b50506040516340c10f1960e01b81526001600160a01b038781166004830152602482018a90527f00000000000000000000000000000000000000000000000000000000000000001692506340c10f199150604401600060405180830381600087803b15801561120757600080fd5b505af115801561121b573d6000803e3d6000fd5b505050505050505061062e6001600055565b6040516308bb76a560e01b81526004810182905260009081906001600160a01b037f000000000000000000000000000000000000000000000000000000000000000016906308bb76a590602401602060405180830381865afa158015611297573d6000803e3d6000fd5b505050506040513d601f19601f820116820180604052508101906112bb9190611cd4565b90506001600160a01b0381166112e75760405163415986a760e01b815260048101849052602401610534565b6040516370a0823160e01b81526001600160a01b0382811660048301527f000000000000000000000000000000000000000000000000000000000000000016906370a0823190602401610587565b6040516308bb76a560e01b81526004810182905260009081906001600160a01b037f000000000000000000000000000000000000000000000000000000000000000016906308bb76a590602401602060405180830381865afa15801561139f573d6000803e3d6000fd5b505050506040513d601f19601f820116820180604052508101906113c39190611cd4565b90506001600160a01b0381166113ef5760405163415986a760e01b815260048101849052602401610534565b6040516370a0823160e01b81526001600160a01b0382811660048301527f000000000000000000000000000000000000000000000000000000000000000016906370a0823190602401610587565b6040516308bb76a560e01b81526004810182905260009081906001600160a01b037f000000000000000000000000000000000000000000000000000000000000000016906308bb76a590602401602060405180830381865afa1580156114a7573d6000803e3d6000fd5b505050506040513d601f19601f820116820180604052508101906114cb9190611cd4565b90506001600160a01b0381166114f75760405163415986a760e01b815260048101849052602401610534565b6040516370a0823160e01b81526001600160a01b0382811660048301527f000000000000000000000000000000000000000000000000000000000000000016906370a0823190602401610587565b6000828152600160208190526040909120015461156181611975565b6105f583836119fb565b60606000825167ffffffffffffffff81111561158957611589611b53565b6040519080825280602002602001820160405280156115b2578160200160208202803683370190505b50905060005b8351811015610809576020808202850101516000906040516308bb76a560e01b8152600481018290529091506000906001600160a01b037f000000000000000000000000000000000000000000000000000000000000000016906308bb76a590602401602060405180830381865afa158015611638573d6000803e3d6000fd5b505050506040513d601f19601f8201168201806040525081019061165c9190611cd4565b90506001600160a01b038116611690576040516337d7efc760e21b81526001600160a01b0382166004820152602401610534565b6040516370a0823160e01b81526001600160a01b0382811660048301527f000000000000000000000000000000000000000000000000000000000000000016906370a0823190602401602060405180830381865afa1580156116f6573d6000803e3d6000fd5b505050506040513d601f19601f8201168201806040525081019061171a9190611cf1565b84848151811061172c5761172c611d0a565b602090810291909101015250506001016115b8565b611749611a68565b61176771444546495f4f50455241544f525f524f4c4560701b611975565b6040516308bb76a560e01b8152600481018390526000907f00000000000000000000000000000000000000000000000000000000000000006001600160a01b0316906308bb76a590602401602060405180830381865afa1580156117cf573d6000803e3d6000fd5b505050506040513d601f19601f820116820180604052508101906117f39190611cd4565b90506001600160a01b03811661181f5760405163415986a760e01b815260048101849052602401610534565b6001600160a01b037f000000000000000000000000000000000000000000000000000000000000000016639dc29fac336040516001600160e01b031960e084901b1681526001600160a01b03909116600482015260248101859052604401600060405180830381600087803b15801561189757600080fd5b505af11580156118ab573d6000803e3d6000fd5b5050604051632770a7eb60e21b81526001600160a01b038481166004830152602482018690527f0000000000000000000000000000000000000000000000000000000000000000169250639dc29fac9150604401600060405180830381600087803b15801561191957600080fd5b505af115801561192d573d6000803e3d6000fd5b505050505061193c6001600055565b5050565b60006001600160e01b03198216637965db0b60e01b148061047857506301ffc9a760e01b6001600160e01b0319831614610478565b61197f8133611a92565b50565b600061198e8383610d92565b6119f35760008381526001602081815260408084206001600160a01b0387168086529252808420805460ff19169093179092559051339286917f2f8788117e7eff1d82e926ec794901d17c78024a50270940304540a733656f0d9190a4506001610478565b506000610478565b6000611a078383610d92565b156119f35760008381526001602090815260408083206001600160a01b0386168085529252808320805460ff1916905551339286917ff6391f5c32d9c69d2a47ea670b442974b53935d1edc7fd64eb21e047a839171b9190a4506001610478565b600260005403611a8b57604051633ee5aeb560e01b815260040160405180910390fd5b6002600055565b611a9c8282610d92565b61193c5760405163e2517d3f60e01b81526001600160a01b038216600482015260248101839052604401610534565b600060208284031215611add57600080fd5b81356001600160e01b0319811681146105c857600080fd5b600060208284031215611b0757600080fd5b5035919050565b6001600160a01b038116811461197f57600080fd5b60008060408385031215611b3657600080fd5b823591506020830135611b4881611b0e565b809150509250929050565b634e487b7160e01b600052604160045260246000fd5b600060208284031215611b7b57600080fd5b813567ffffffffffffffff811115611b9257600080fd5b8201601f81018413611ba357600080fd5b803567ffffffffffffffff811115611bbd57611bbd611b53565b8060051b604051601f19603f830116810181811067ffffffffffffffff82111715611bea57611bea611b53565b604052918252602081840181019290810187841115611c0857600080fd5b6020850194505b83851015611c2b57843580825260209586019590935001611c0f565b509695505050505050565b602080825282518282018190526000918401906040840190835b81811015611c6e578351835260209384019390920191600101611c50565b509095945050505050565b600080600060608486031215611c8e57600080fd5b83359250602084013591506040840135611ca781611b0e565b809150509250925092565b60008060408385031215611cc557600080fd5b50508035926020909101359150565b600060208284031215611ce657600080fd5b81516105c881611b0e565b600060208284031215611d0357600080fd5b5051919050565b634e487b7160e01b600052603260045260246000fd5b8082018082111561047857634e487b7160e01b600052601160045260246000fdfea2646970667358221220848745d72a5bfe21f5a6ff2a008cfc15d3b2707505e5d40edfc272db03d32a5864736f6c634300081c0033",
  "devdoc": {
    "details": "This class is responsible for managing LP-SFT DeFi operations",
    "errors": {
      "AccessControlBadConfirmation()": [
        {
          "details": "The caller of a function is not the expected one. NOTE: Don't confuse with {AccessControlUnauthorizedAccount}."
        }
      ],
      "AccessControlUnauthorizedAccount(address,bytes32)": [
        {
          "details": "The `account` is missing a role."
        }
      ],
      "LPSFTInvalidAddress(address)": [
        {
          "details": "Error raised if a token address doesn't belong to a token ID"
        }
      ],
      "LPSFTInvalidToken(uint256)": [
        {
          "details": "Error raised if a token doesn't exist",
          "params": {
            "tokenId": "The token ID that doesn't exist"
          }
        }
      ],
      "ReentrancyGuardReentrantCall()": [
        {
          "details": "Unauthorized reentrant call."
        }
      ]
    },
    "events": {
      "RoleAdminChanged(bytes32,bytes32,bytes32)": {
        "details": "Emitted when `newAdminRole` is set as ``role``'s admin role, replacing `previousAdminRole` `DEFAULT_ADMIN_ROLE` is the starting admin for all roles, despite {RoleAdminChanged} not being emitted signaling this."
      },
      "RoleGranted(bytes32,address,address)": {
        "details": "Emitted when `account` is granted `role`. `sender` is the account that originated the contract call. This account bears the admin role (for the granted role). Expected in cases where the role was granted using the internal {AccessControl-_grantRole}."
      },
      "RoleRevoked(bytes32,address,address)": {
        "details": "Emitted when `account` is revoked `role`. `sender` is the account that originated the contract call:   - if using `revokeRole`, it is the admin role bearer   - if using `renounceRole`, it is the role bearer (i.e. `account`)"
      }
    },
    "kind": "dev",
    "methods": {
      "constructor": {
        "details": "Initializes the ERC-1155 contract",
        "params": {
          "lpPow1Token_": "The LPPOW1 token",
          "lpPow5Token_": "The LPPOW5 token",
          "lpSft_": "The LP-SFT contract",
          "noPow5Token_": "The POW5 debt token",
          "owner_": "The owner of the contract",
          "pow1Token_": "The POW1 token",
          "pow5Token_": "The POW5 token"
        }
      },
      "getRoleAdmin(bytes32)": {
        "details": "Returns the admin role that controls `role`. See {grantRole} and {revokeRole}. To change a role's admin, use {_setRoleAdmin}."
      },
      "grantRole(bytes32,address)": {
        "details": "Grants `role` to `account`. If `account` had not been already granted `role`, emits a {RoleGranted} event. Requirements: - the caller must have ``role``'s admin role. May emit a {RoleGranted} event."
      },
      "hasRole(bytes32,address)": {
        "details": "Returns `true` if `account` has been granted `role`."
      },
      "issuePow5(uint256,uint256,address)": {
        "details": "See {IDeFiManager-issuePow5}"
      },
      "lpPow1Balance(uint256)": {
        "details": "See {IDeFiManager-lpPow1Balance}"
      },
      "lpPow1BalanceBatch(uint256[])": {
        "details": "See {IDeFiManager-lpPow1BalanceBatch}"
      },
      "lpPow5Balance(uint256)": {
        "details": "See {IDeFiManager-lpPow5Balance}"
      },
      "lpPow5BalanceBatch(uint256[])": {
        "details": "See {IDeFiManager-lpPow5BalanceBatch}"
      },
      "noPow5Balance(uint256)": {
        "details": "See {IDeFiManager-noPow5Balance}"
      },
      "noPow5BalanceBatch(uint256[])": {
        "details": "See {IDeFiManager-noPow5BalanceBatch}"
      },
      "pow1Balance(uint256)": {
        "details": "See {IDeFiManager-pow1Balance}"
      },
      "pow1BalanceBatch(uint256[])": {
        "details": "See {IDeFiManager-pow1BalanceBatch}"
      },
      "pow5Balance(uint256)": {
        "details": "See {IDeFiManager-pow5Balance}"
      },
      "pow5BalanceBatch(uint256[])": {
        "details": "See {IDeFiManager-pow5BalanceBatch}"
      },
      "renounceRole(bytes32,address)": {
        "details": "Revokes `role` from the calling account. Roles are often managed via {grantRole} and {revokeRole}: this function's purpose is to provide a mechanism for accounts to lose their privileges if they are compromised (such as when a trusted device is misplaced). If the calling account had been revoked `role`, emits a {RoleRevoked} event. Requirements: - the caller must be `callerConfirmation`. May emit a {RoleRevoked} event."
      },
      "repayPow5(uint256,uint256)": {
        "details": "See {IDeFiManager-repayPow5}"
      },
      "revokeRole(bytes32,address)": {
        "details": "Revokes `role` from `account`. If `account` had been granted `role`, emits a {RoleRevoked} event. Requirements: - the caller must have ``role``'s admin role. May emit a {RoleRevoked} event."
      },
      "supportsInterface(bytes4)": {
        "details": "See {IERC165-supportsInterface}"
      }
    },
    "stateVariables": {
      "_tokenIdToBorrower": {
        "details": "The borrowers of LP-SFTs"
      },
      "lpPow1Token": {
        "details": "The LP POW1 token"
      },
      "lpPow5Token": {
        "details": "The LP POW5 token"
      },
      "lpSft": {
        "details": "The LP-SFT contract"
      },
      "noPow5Token": {
        "details": "The POW5 debt token"
      },
      "pow1Token": {
        "details": "The POW1 token"
      },
      "pow5Token": {
        "details": "The POW5 token"
      }
    },
    "title": "LP-SFT Manager",
    "version": 1
  },
  "userdoc": {
    "kind": "user",
    "methods": {},
    "version": 1
  },
  "storageLayout": {
    "storage": [
      {
        "astId": 6439,
        "contract": "contracts/src/defi/DeFiManager.sol:DeFiManager",
        "label": "_status",
        "offset": 0,
        "slot": "0",
        "type": "t_uint256"
      },
      {
        "astId": 2343,
        "contract": "contracts/src/defi/DeFiManager.sol:DeFiManager",
        "label": "_roles",
        "offset": 0,
        "slot": "1",
        "type": "t_mapping(t_bytes32,t_struct(RoleData)2338_storage)"
      },
      {
        "astId": 21150,
        "contract": "contracts/src/defi/DeFiManager.sol:DeFiManager",
        "label": "_tokenIdToBorrower",
        "offset": 0,
        "slot": "2",
        "type": "t_mapping(t_uint256,t_address)"
      }
    ],
    "types": {
      "t_address": {
        "encoding": "inplace",
        "label": "address",
        "numberOfBytes": "20"
      },
      "t_bool": {
        "encoding": "inplace",
        "label": "bool",
        "numberOfBytes": "1"
      },
      "t_bytes32": {
        "encoding": "inplace",
        "label": "bytes32",
        "numberOfBytes": "32"
      },
      "t_mapping(t_address,t_bool)": {
        "encoding": "mapping",
        "key": "t_address",
        "label": "mapping(address => bool)",
        "numberOfBytes": "32",
        "value": "t_bool"
      },
      "t_mapping(t_bytes32,t_struct(RoleData)2338_storage)": {
        "encoding": "mapping",
        "key": "t_bytes32",
        "label": "mapping(bytes32 => struct AccessControl.RoleData)",
        "numberOfBytes": "32",
        "value": "t_struct(RoleData)2338_storage"
      },
      "t_mapping(t_uint256,t_address)": {
        "encoding": "mapping",
        "key": "t_uint256",
        "label": "mapping(uint256 => address)",
        "numberOfBytes": "32",
        "value": "t_address"
      },
      "t_struct(RoleData)2338_storage": {
        "encoding": "inplace",
        "label": "struct AccessControl.RoleData",
        "members": [
          {
            "astId": 2335,
            "contract": "contracts/src/defi/DeFiManager.sol:DeFiManager",
            "label": "hasRole",
            "offset": 0,
            "slot": "0",
            "type": "t_mapping(t_address,t_bool)"
          },
          {
            "astId": 2337,
            "contract": "contracts/src/defi/DeFiManager.sol:DeFiManager",
            "label": "adminRole",
            "offset": 0,
            "slot": "1",
            "type": "t_bytes32"
          }
        ],
        "numberOfBytes": "64"
      },
      "t_uint256": {
        "encoding": "inplace",
        "label": "uint256",
        "numberOfBytes": "32"
      }
    }
  }
}