{
  "address": "0x53394ec5E402bae888e7E9BB46E0AfCDe1eCCedB",
  "abi": [
    {
      "inputs": [
        {
          "internalType": "address",
          "name": "owner_",
          "type": "address"
        },
        {
          "internalType": "address",
          "name": "theReserve_",
          "type": "address"
        }
      ],
      "stateMutability": "nonpayable",
      "type": "constructor"
    },
    {
      "inputs": [],
      "name": "AccessControlBadConfirmation",
      "type": "error"
    },
    {
      "inputs": [
        {
          "internalType": "address",
          "name": "account",
          "type": "address"
        },
        {
          "internalType": "bytes32",
          "name": "neededRole",
          "type": "bytes32"
        }
      ],
      "name": "AccessControlUnauthorizedAccount",
      "type": "error"
    },
    {
      "inputs": [
        {
          "internalType": "uint256",
          "name": "slot",
          "type": "uint256"
        }
      ],
      "name": "AuctionNotEnabled",
      "type": "error"
    },
    {
      "inputs": [],
      "name": "DutchAuctionAlreadyInitialized",
      "type": "error"
    },
    {
      "inputs": [],
      "name": "DutchAuctionNotInitialized",
      "type": "error"
    },
    {
      "inputs": [],
      "name": "ReentrancyGuardReentrantCall",
      "type": "error"
    },
    {
      "inputs": [
        {
          "internalType": "address",
          "name": "token",
          "type": "address"
        }
      ],
      "name": "SafeERC20FailedOperation",
      "type": "error"
    },
    {
      "anonymous": false,
      "inputs": [
        {
          "indexed": false,
          "internalType": "uint256",
          "name": "lpNftTokenId",
          "type": "uint256"
        },
        {
          "indexed": false,
          "internalType": "uint256",
          "name": "gameTokenAmount",
          "type": "uint256"
        },
        {
          "indexed": false,
          "internalType": "uint256",
          "name": "assetTokenAmount",
          "type": "uint256"
        },
        {
          "indexed": true,
          "internalType": "address",
          "name": "initializer",
          "type": "address"
        },
        {
          "indexed": true,
          "internalType": "address",
          "name": "receiver",
          "type": "address"
        }
      ],
      "name": "AuctionInitialized",
      "type": "event"
    },
    {
      "anonymous": false,
      "inputs": [
        {
          "indexed": true,
          "internalType": "bytes32",
          "name": "role",
          "type": "bytes32"
        },
        {
          "indexed": true,
          "internalType": "bytes32",
          "name": "previousAdminRole",
          "type": "bytes32"
        },
        {
          "indexed": true,
          "internalType": "bytes32",
          "name": "newAdminRole",
          "type": "bytes32"
        }
      ],
      "name": "RoleAdminChanged",
      "type": "event"
    },
    {
      "anonymous": false,
      "inputs": [
        {
          "indexed": true,
          "internalType": "bytes32",
          "name": "role",
          "type": "bytes32"
        },
        {
          "indexed": true,
          "internalType": "address",
          "name": "account",
          "type": "address"
        },
        {
          "indexed": true,
          "internalType": "address",
          "name": "sender",
          "type": "address"
        }
      ],
      "name": "RoleGranted",
      "type": "event"
    },
    {
      "anonymous": false,
      "inputs": [
        {
          "indexed": true,
          "internalType": "bytes32",
          "name": "role",
          "type": "bytes32"
        },
        {
          "indexed": true,
          "internalType": "address",
          "name": "account",
          "type": "address"
        },
        {
          "indexed": true,
          "internalType": "address",
          "name": "sender",
          "type": "address"
        }
      ],
      "name": "RoleRevoked",
      "type": "event"
    },
    {
      "inputs": [],
      "name": "DEFAULT_ADMIN_ROLE",
      "outputs": [
        {
          "internalType": "bytes32",
          "name": "",
          "type": "bytes32"
        }
      ],
      "stateMutability": "view",
      "type": "function"
    },
    {
      "inputs": [],
      "name": "getAuctionCount",
      "outputs": [
        {
          "internalType": "uint32",
          "name": "",
          "type": "uint32"
        }
      ],
      "stateMutability": "view",
      "type": "function"
    },
    {
      "inputs": [],
      "name": "getAuctionSettings",
      "outputs": [
        {
          "components": [
            {
              "internalType": "uint256",
              "name": "priceDecayRate",
              "type": "uint256"
            },
            {
              "internalType": "uint256",
              "name": "mintDustAmount",
              "type": "uint256"
            },
            {
              "internalType": "uint256",
              "name": "priceIncrement",
              "type": "uint256"
            },
            {
              "internalType": "uint256",
              "name": "initialPriceBips",
              "type": "uint256"
            },
            {
              "internalType": "uint256",
              "name": "minPriceBips",
              "type": "uint256"
            },
            {
              "internalType": "uint256",
              "name": "maxPriceBips",
              "type": "uint256"
            }
          ],
          "internalType": "struct IDutchAuctionState.AuctionSettings",
          "name": "",
          "type": "tuple"
        }
      ],
      "stateMutability": "view",
      "type": "function"
    },
    {
      "inputs": [
        {
          "internalType": "uint256",
          "name": "lpNftTokenId",
          "type": "uint256"
        }
      ],
      "name": "getAuctionState",
      "outputs": [
        {
          "components": [
            {
              "internalType": "uint256",
              "name": "lpNftTokenId",
              "type": "uint256"
            },
            {
              "internalType": "uint256",
              "name": "startPriceBips",
              "type": "uint256"
            },
            {
              "internalType": "uint256",
              "name": "endPriceBips",
              "type": "uint256"
            },
            {
              "internalType": "uint256",
              "name": "startTime",
              "type": "uint256"
            },
            {
              "internalType": "uint256",
              "name": "salePrice",
              "type": "uint256"
            }
          ],
          "internalType": "struct IDutchAuctionState.AuctionState",
          "name": "",
          "type": "tuple"
        }
      ],
      "stateMutability": "view",
      "type": "function"
    },
    {
      "inputs": [],
      "name": "getBureauState",
      "outputs": [
        {
          "components": [
            {
              "internalType": "uint256",
              "name": "totalAuctions",
              "type": "uint256"
            },
            {
              "internalType": "uint256",
              "name": "lastSalePriceBips",
              "type": "uint256"
            }
          ],
          "internalType": "struct IDutchAuctionState.BureauState",
          "name": "",
          "type": "tuple"
        }
      ],
      "stateMutability": "view",
      "type": "function"
    },
    {
      "inputs": [],
      "name": "getCurrentAuctionCount",
      "outputs": [
        {
          "internalType": "uint256",
          "name": "",
          "type": "uint256"
        }
      ],
      "stateMutability": "view",
      "type": "function"
    },
    {
      "inputs": [],
      "name": "getCurrentAuctionStates",
      "outputs": [
        {
          "components": [
            {
              "internalType": "uint256",
              "name": "lpNftTokenId",
              "type": "uint256"
            },
            {
              "internalType": "uint256",
              "name": "startPriceBips",
              "type": "uint256"
            },
            {
              "internalType": "uint256",
              "name": "endPriceBips",
              "type": "uint256"
            },
            {
              "internalType": "uint256",
              "name": "startTime",
              "type": "uint256"
            },
            {
              "internalType": "uint256",
              "name": "salePrice",
              "type": "uint256"
            }
          ],
          "internalType": "struct IDutchAuctionState.AuctionState[]",
          "name": "",
          "type": "tuple[]"
        }
      ],
      "stateMutability": "view",
      "type": "function"
    },
    {
      "inputs": [],
      "name": "getCurrentAuctions",
      "outputs": [
        {
          "internalType": "uint256[]",
          "name": "",
          "type": "uint256[]"
        }
      ],
      "stateMutability": "view",
      "type": "function"
    },
    {
      "inputs": [
        {
          "internalType": "uint256",
          "name": "lpNftTokenId",
          "type": "uint256"
        }
      ],
      "name": "getCurrentPriceBips",
      "outputs": [
        {
          "internalType": "uint256",
          "name": "currentPriceBips",
          "type": "uint256"
        }
      ],
      "stateMutability": "view",
      "type": "function"
    },
    {
      "inputs": [
        {
          "internalType": "bytes32",
          "name": "role",
          "type": "bytes32"
        }
      ],
      "name": "getRoleAdmin",
      "outputs": [
        {
          "internalType": "bytes32",
          "name": "",
          "type": "bytes32"
        }
      ],
      "stateMutability": "view",
      "type": "function"
    },
    {
      "inputs": [
        {
          "internalType": "uint256",
          "name": "lpNftTokenId",
          "type": "uint256"
        }
      ],
      "name": "getTokenUri",
      "outputs": [
        {
          "internalType": "string",
          "name": "",
          "type": "string"
        }
      ],
      "stateMutability": "view",
      "type": "function"
    },
    {
      "inputs": [
        {
          "internalType": "bytes32",
          "name": "role",
          "type": "bytes32"
        },
        {
          "internalType": "address",
          "name": "account",
          "type": "address"
        }
      ],
      "name": "grantRole",
      "outputs": [],
      "stateMutability": "nonpayable",
      "type": "function"
    },
    {
      "inputs": [
        {
          "internalType": "bytes32",
          "name": "role",
          "type": "bytes32"
        },
        {
          "internalType": "address",
          "name": "account",
          "type": "address"
        }
      ],
      "name": "hasRole",
      "outputs": [
        {
          "internalType": "bool",
          "name": "",
          "type": "bool"
        }
      ],
      "stateMutability": "view",
      "type": "function"
    },
    {
      "inputs": [
        {
          "internalType": "uint256",
          "name": "pow1Amount",
          "type": "uint256"
        },
        {
          "internalType": "uint256",
          "name": "marketTokenAmount",
          "type": "uint256"
        },
        {
          "internalType": "address",
          "name": "receiver",
          "type": "address"
        }
      ],
      "name": "initialize",
      "outputs": [
        {
          "internalType": "uint256",
          "name": "nftTokenId",
          "type": "uint256"
        }
      ],
      "stateMutability": "nonpayable",
      "type": "function"
    },
    {
      "inputs": [],
      "name": "isInitialized",
      "outputs": [
        {
          "internalType": "bool",
          "name": "",
          "type": "bool"
        }
      ],
      "stateMutability": "view",
      "type": "function"
    },
    {
      "inputs": [],
      "name": "lpSft",
      "outputs": [
        {
          "internalType": "contract ILPSFT",
          "name": "",
          "type": "address"
        }
      ],
      "stateMutability": "view",
      "type": "function"
    },
    {
      "inputs": [],
      "name": "marketStableSwapper",
      "outputs": [
        {
          "internalType": "contract IMarketStableSwapper",
          "name": "",
          "type": "address"
        }
      ],
      "stateMutability": "view",
      "type": "function"
    },
    {
      "inputs": [],
      "name": "marketToken",
      "outputs": [
        {
          "internalType": "contract IERC20",
          "name": "",
          "type": "address"
        }
      ],
      "stateMutability": "view",
      "type": "function"
    },
    {
      "inputs": [
        {
          "internalType": "address",
          "name": "",
          "type": "address"
        },
        {
          "internalType": "address",
          "name": "",
          "type": "address"
        },
        {
          "internalType": "uint256[]",
          "name": "",
          "type": "uint256[]"
        },
        {
          "internalType": "uint256[]",
          "name": "",
          "type": "uint256[]"
        },
        {
          "internalType": "bytes",
          "name": "",
          "type": "bytes"
        }
      ],
      "name": "onERC1155BatchReceived",
      "outputs": [
        {
          "internalType": "bytes4",
          "name": "",
          "type": "bytes4"
        }
      ],
      "stateMutability": "nonpayable",
      "type": "function"
    },
    {
      "inputs": [
        {
          "internalType": "address",
          "name": "",
          "type": "address"
        },
        {
          "internalType": "address",
          "name": "",
          "type": "address"
        },
        {
          "internalType": "uint256",
          "name": "",
          "type": "uint256"
        },
        {
          "internalType": "uint256",
          "name": "",
          "type": "uint256"
        },
        {
          "internalType": "bytes",
          "name": "",
          "type": "bytes"
        }
      ],
      "name": "onERC1155Received",
      "outputs": [
        {
          "internalType": "bytes4",
          "name": "",
          "type": "bytes4"
        }
      ],
      "stateMutability": "nonpayable",
      "type": "function"
    },
    {
      "inputs": [
        {
          "internalType": "address",
          "name": "",
          "type": "address"
        },
        {
          "internalType": "address",
          "name": "",
          "type": "address"
        },
        {
          "internalType": "uint256",
          "name": "",
          "type": "uint256"
        },
        {
          "internalType": "bytes",
          "name": "",
          "type": "bytes"
        }
      ],
      "name": "onERC721Received",
      "outputs": [
        {
          "internalType": "bytes4",
          "name": "",
          "type": "bytes4"
        }
      ],
      "stateMutability": "nonpayable",
      "type": "function"
    },
    {
      "inputs": [],
      "name": "pow1LpNftStakeFarm",
      "outputs": [
        {
          "internalType": "contract ILPNFTStakeFarm",
          "name": "",
          "type": "address"
        }
      ],
      "stateMutability": "view",
      "type": "function"
    },
    {
      "inputs": [],
      "name": "pow1MarketPool",
      "outputs": [
        {
          "internalType": "contract IUniswapV3Pool",
          "name": "",
          "type": "address"
        }
      ],
      "stateMutability": "view",
      "type": "function"
    },
    {
      "inputs": [],
      "name": "pow1MarketPooler",
      "outputs": [
        {
          "internalType": "contract IGameTokenPooler",
          "name": "",
          "type": "address"
        }
      ],
      "stateMutability": "view",
      "type": "function"
    },
    {
      "inputs": [],
      "name": "pow1MarketSwapper",
      "outputs": [
        {
          "internalType": "contract IGameTokenSwapper",
          "name": "",
          "type": "address"
        }
      ],
      "stateMutability": "view",
      "type": "function"
    },
    {
      "inputs": [],
      "name": "pow1Token",
      "outputs": [
        {
          "internalType": "contract IERC20",
          "name": "",
          "type": "address"
        }
      ],
      "stateMutability": "view",
      "type": "function"
    },
    {
      "inputs": [],
      "name": "pow5StableSwapper",
      "outputs": [
        {
          "internalType": "contract IGameTokenSwapper",
          "name": "",
          "type": "address"
        }
      ],
      "stateMutability": "view",
      "type": "function"
    },
    {
      "inputs": [],
      "name": "pow5Token",
      "outputs": [
        {
          "internalType": "contract IERC20",
          "name": "",
          "type": "address"
        }
      ],
      "stateMutability": "view",
      "type": "function"
    },
    {
      "inputs": [
        {
          "internalType": "uint256",
          "name": "lpNftTokenId",
          "type": "uint256"
        },
        {
          "internalType": "uint256",
          "name": "pow1Amount",
          "type": "uint256"
        },
        {
          "internalType": "uint256",
          "name": "marketTokenAmount",
          "type": "uint256"
        },
        {
          "internalType": "address",
          "name": "beneficiary",
          "type": "address"
        },
        {
          "internalType": "address",
          "name": "receiver",
          "type": "address"
        }
      ],
      "name": "purchase",
      "outputs": [],
      "stateMutability": "nonpayable",
      "type": "function"
    },
    {
      "inputs": [
        {
          "internalType": "bytes32",
          "name": "role",
          "type": "bytes32"
        },
        {
          "internalType": "address",
          "name": "callerConfirmation",
          "type": "address"
        }
      ],
      "name": "renounceRole",
      "outputs": [],
      "stateMutability": "nonpayable",
      "type": "function"
    },
    {
      "inputs": [
        {
          "internalType": "bytes32",
          "name": "role",
          "type": "bytes32"
        },
        {
          "internalType": "address",
          "name": "account",
          "type": "address"
        }
      ],
      "name": "revokeRole",
      "outputs": [],
      "stateMutability": "nonpayable",
      "type": "function"
    },
    {
      "inputs": [
        {
          "internalType": "uint32",
          "name": "auctionCount",
          "type": "uint32"
        },
        {
          "internalType": "uint256",
          "name": "marketTokenDust",
          "type": "uint256"
        }
      ],
      "name": "setAuctionCount",
      "outputs": [],
      "stateMutability": "nonpayable",
      "type": "function"
    },
    {
      "inputs": [],
      "name": "stableToken",
      "outputs": [
        {
          "internalType": "contract IERC20",
          "name": "",
          "type": "address"
        }
      ],
      "stateMutability": "view",
      "type": "function"
    },
    {
      "inputs": [
        {
          "internalType": "bytes4",
          "name": "interfaceId",
          "type": "bytes4"
        }
      ],
      "name": "supportsInterface",
      "outputs": [
        {
          "internalType": "bool",
          "name": "",
          "type": "bool"
        }
      ],
      "stateMutability": "view",
      "type": "function"
    },
    {
      "inputs": [],
      "name": "uniswapV3NftManager",
      "outputs": [
        {
          "internalType": "contract INonfungiblePositionManager",
          "name": "",
          "type": "address"
        }
      ],
      "stateMutability": "view",
      "type": "function"
    }
  ],
  "transactionHash": "0x668bbba977e337bb867b6ad6fa17f7646d99bd156c678140fd7059fc27007edf",
  "args": [
    "0x5Eb8d8a368B1F1A9de0c2E489e270d7AFD389C3C",
    "0xDa87C152723FA5d88D499D1722a2739c5cDaD9Ac"
  ],
  "numDeployments": 1,
  "solcInputHash": "3966566d2220fd825f86a68ce3f74b57",
  "bytecode": "0x60806040526019805460ff1916905534801561001a57600080fd5b50604051613e0b380380613e0b83398101604081905261003991610406565b81816001600160a01b0316637e9280726040518163ffffffff1660e01b81526004016102e060405180830381865afa158015610079573d6000803e3d6000fd5b505050506040513d601f19601f8201168201806040525081019061009d9190610487565b600180558051600280546001600160a01b03199081166001600160a01b0393841617909155602083015160038054831691841691909117905560408301516004805483169184169190911790556060830151600580548316918416919091179055608083015160068054831691841691909117905560a083015160078054831691841691909117905560c083015160088054831691841691909117905560e0830151600980548316918416919091179055610100830151600a80548316918416919091179055610120830151600b80548316918416919091179055610140830151600c80548316918416919091179055610160830151600d80548316918416919091179055610180830151600e805483169184169190911790556101a0830151600f805483169184169190911790556101c08301516010805483169184169190911790556101e08301516011805483169184169190911790556102008301516012805483169184169190911790556102208301516013805483169184169190911790556102408301516014805483169184169190911790556102608301516015805483169184169190911790556102808301516016805483169184169190911790556102a08301516017805483169184169190911790556102c090920151601880549093169082161790915581166102cb5760405162461bcd60e51b815260206004820152600d60248201526c24b73b30b634b21037bbb732b960991b604482015260640160405180910390fd5b6102d6600082610342565b50506040805160c08101825265af1d364e18008082526103e86020808401829052670de0b6b3a764000094840185905260608401859052655af3107a40006080850181905260a0909401859052601c92909255601d55601e839055601f839055556021555061064a9050565b6000828152602081815260408083206001600160a01b038516845290915281205460ff166103e4576000838152602081815260408083206001600160a01b03861684529091529020805460ff1916600117905561039c3390565b6001600160a01b0316826001600160a01b0316847f2f8788117e7eff1d82e926ec794901d17c78024a50270940304540a733656f0d60405160405180910390a45060016103e8565b5060005b92915050565b6001600160a01b038116811461040357600080fd5b50565b6000806040838503121561041957600080fd5b8251610424816103ee565b6020840151909250610435816103ee565b809150509250929050565b6040516102e081016001600160401b038111828210171561047157634e487b7160e01b600052604160045260246000fd5b60405290565b8051610482816103ee565b919050565b60006102e082840312801561049b57600080fd5b506104a4610440565b6104ad83610477565b81526104bb60208401610477565b60208201526104cc60408401610477565b60408201526104dd60608401610477565b60608201526104ee60808401610477565b60808201526104ff60a08401610477565b60a082015261051060c08401610477565b60c082015261052160e08401610477565b60e08201526105336101008401610477565b6101008201526105466101208401610477565b6101208201526105596101408401610477565b61014082015261056c6101608401610477565b61016082015261057f6101808401610477565b6101808201526105926101a08401610477565b6101a08201526105a56101c08401610477565b6101c08201526105b86101e08401610477565b6101e08201526105cb6102008401610477565b6102008201526105de6102208401610477565b6102208201526105f16102408401610477565b6102408201526106046102608401610477565b6102608201526106176102808401610477565b61028082015261062a6102a08401610477565b6102a082015261063d6102c08401610477565b6102c08201529392505050565b6137b2806106596000396000f3fe608060405234801561001057600080fd5b50600436106102115760003560e01c806392a9178911610125578063c44e6640116100ad578063d58258f21161007c578063d58258f2146104f9578063d92aa38e1461050e578063e029982214610521578063f23a6e6114610532578063f2ac024b1461055157600080fd5b8063c44e6640146104a1578063c81fcc95146104c4578063cbb43836146104d5578063d547741f146104e657600080fd5b8063a6ab36f2116100f4578063a6ab36f21461043a578063a9d75b2b1461044d578063ad48d6111461045e578063bc197c811461046f578063c430694f1461048e57600080fd5b806392a91789146103fd578063949f5d2014610410578063a1abfd9514610421578063a217fddf1461043257600080fd5b80632f2ff15d116101a8578063392e53cd11610177578063392e53cd146103995780633cc7385b146103a45780635be53e74146103b55780638ad91345146103ca57806391d14854146103ea57600080fd5b80632f2ff15d1461034f5780632f8331821461036457806336568abe146103755780633721d4ae1461038857600080fd5b80631753dec7116101e45780631753dec7146102ba57806320bcb25d146102f8578063248a9ca31461030d57806324d7197a1461033e57600080fd5b806301ffc9a714610216578063098810071461023e5780630e07cfca1461025e578063150b7a0214610283575b600080fd5b610229610224366004612e06565b610559565b60405190151581526020015b60405180910390f35b61025161024c366004612e30565b61056a565b6040516102359190612e49565b600b546001600160a01b03165b6040516001600160a01b039091168152602001610235565b6102a1610291366004612f5c565b630a85bd0160e11b949350505050565b6040516001600160e01b03199091168152602001610235565b604080518082018252600080825260209182015281518083018352601a54808252601b54918301918252835190815290519181019190915201610235565b6103006105eb565b6040516102359190612fc8565b61033061031b366004612e30565b60009081526020819052604090206001015490565b604051908152602001610235565b6013546001600160a01b031661026b565b61036261035d36600461300b565b610664565b005b6011546001600160a01b031661026b565b61036261038336600461300b565b61068f565b6010546001600160a01b031661026b565b60195460ff16610229565b600f546001600160a01b031661026b565b6103bd6106c7565b604051610235919061303b565b6103dd6103d8366004612e30565b610760565b60405161023591906130a2565b6102296103f836600461300b565b6107d2565b61036261040b3660046130d5565b6107fb565b6003546001600160a01b031661026b565b6009546001600160a01b031661026b565b610330600081565b61033061044836600461312b565b6111db565b6008546001600160a01b031661026b565b6007546001600160a01b031661026b565b6102a161047d3660046131dd565b63bc197c8160e01b95945050505050565b61036261049c366004613297565b6116d4565b601954610100900463ffffffff1660405163ffffffff9091168152602001610235565b6018546001600160a01b031661026b565b600e546001600160a01b031661026b565b6103626104f436600461300b565b611795565b6105016117ba565b60405161023591906132cc565b61033061051c366004612e30565b6118db565b6002546001600160a01b031661026b565b6102a161054036600461333a565b63f23a6e6160e01b95945050505050565b601a54610330565b600061056482611a80565b92915050565b61059c6040518060a0016040528060008152602001600081526020016000815260200160008152602001600081525090565b50600090815260246020908152604091829020825160a0810184528154815260018201549281019290925260028101549282019290925260038201546060820152600490910154608082015290565b6106246040518060c001604052806000815260200160008152602001600081526020016000815260200160008152602001600081525090565b506040805160c081018252601c548152601d54602080830191909152601e5492820192909252601f5460608201529054608082015260215460a082015290565b60008281526020819052604090206001015461067f81611aab565b6106898383611ab8565b50505050565b6001600160a01b03811633146106b85760405163334bd91960e11b815260040160405180910390fd5b6106c28282611b4a565b505050565b606060006106d56022611bb5565b905060008167ffffffffffffffff8111156106f2576106f2612e97565b60405190808252806020026020018201604052801561071b578160200160208202803683370190505b50905060005b8281101561075957610734602282611bbf565b82828151811061074657610746613397565b6020908102919091010152600101610721565b5092915050565b60185460405163c87b56dd60e01b8152600481018390526060916001600160a01b03169063c87b56dd90602401600060405180830381865afa1580156107aa573d6000803e3d6000fd5b505050506040513d6000823e601f3d908101601f1916820160405261056491908101906133ad565b6000918252602082815260408084206001600160a01b0393909316845291905290205460ff1690565b610803611bcb565b8460000361084c5760405162461bcd60e51b8152602060048201526011602482015270125b9d985b1a590813140b539195081251607a1b60448201526064015b60405180910390fd5b600084118061085b5750600083115b6108995760405162461bcd60e51b815260206004820152600f60248201526e125b9d985b1a59081c185e5b595b9d608a1b6044820152606401610843565b6001600160a01b0382166108e55760405162461bcd60e51b8152602060048201526013602482015272496e76616c69642062656e656669636961727960681b6044820152606401610843565b6001600160a01b03811661092e5760405162461bcd60e51b815260206004820152601060248201526f24b73b30b634b2103932b1b2b4bb32b960811b6044820152606401610843565b600085815260246020526040812080549091036109835760405162461bcd60e51b81526020600482015260136024820152724c502d4e4654206e6f7420666f722073616c6560681b6044820152606401610843565b6004810154156109cc5760405162461bcd60e51b8152602060048201526014602482015273105d58dd1a5bdb88185b1c9958591e481cdbdb1960621b6044820152606401610843565b60006109d7876118db565b601b8190556004830181905590508515610a0357610a03336002546001600160a01b0316903089611bf5565b8415610a2157610a21336007546001600160a01b0316903088611bf5565b85856000670de0b6b3a7640000610a38858561343a565b610a429190613467565b90506000670de0b6b3a7640000610a59868b61343a565b610a639190613467565b90506000821180610a745750600081115b610aaf5760405162461bcd60e51b815260206004820152600c60248201526b496e76616c6964207469707360a01b6044820152606401610843565b8115610ad957600254610acc906001600160a01b03168984611c5c565b610ad68285613489565b93505b8015610b0357600754610af6906001600160a01b03168983611c5c565b610b008184613489565b92505b5050600b546040805163ddca3f4360e01b815290516000926001600160a01b03169163ddca3f439160048083019260209291908290030181865afa158015610b4f573d6000803e3d6000fd5b505050506040513d601f19601f82011682018060405250810190610b7391906134b4565b905082600003610cca57600754600b546040516370a0823160e01b81526001600160a01b03918216600482015260009291909116906370a0823190602401602060405180830381865afa158015610bce573d6000803e3d6000fd5b505050506040513d601f19601f82011682018060405250810190610bf291906134cf565b90506000610c01828585611c8d565b905083811115610c235760405162461bcd60e51b8152600401610843906134e8565b600e54600754610c40916001600160a01b03918216911683611d7b565b600e54604051636aa8f93560e01b8152600481018390523060248201526001600160a01b0390911690636aa8f935906044016020604051808303816000875af1158015610c91573d6000803e3d6000fd5b505050506040513d601f19601f82011682018060405250810190610cb591906134cf565b9450610cc18185613489565b93505050610e1b565b81600003610e1b57600254600b546040516370a0823160e01b81526001600160a01b03918216600482015260009291909116906370a0823190602401602060405180830381865afa158015610d23573d6000803e3d6000fd5b505050506040513d601f19601f82011682018060405250810190610d4791906134cf565b90506000610d56828685611c8d565b905084811115610d785760405162461bcd60e51b8152600401610843906134e8565b600e54600254610d95916001600160a01b03918216911683611d7b565b600e546040516301952d0960e31b8152600481018390523060248201526001600160a01b0390911690630ca96848906044016020604051808303816000875af1158015610de6573d6000803e3d6000fd5b505050506040513d601f19601f82011682018060405250810190610e0a91906134cf565b9350610e168186613489565b945050505b601d548084118015610e2c57508083115b610e6e5760405162461bcd60e51b8152602060048201526013602482015272139bdd08195b9bdd59da08199bdc88191d5cdd606a1b6044820152606401610843565b610e7960228c611e05565b610eb95760405162461bcd60e51b8152602060048201526011602482015270105d58dd1a5bdb881b9bdd08199bdd5b99607a1b6044820152606401610843565b6000610ec58283611e11565b9050610ed0816121d6565b8415610ef357601854600254610ef3916001600160a01b03918216911687611d7b565b8315610f1657601854600754610f16916001600160a01b03918216911686611d7b565b6018546040805160c081019091528d81526007546002546001600160a01b039384169363219f5d1793926020840192908216911610610f555787610f57565b885b81526007546002546020909201916001600160a01b03918216911610610f7d5788610f7f565b875b81526020016000815260200160008152602001428152506040518263ffffffff1660e01b8152600401610fb29190612fc8565b6060604051808303816000875af1158015610fd1573d6000803e3d6000fd5b505050506040513d601f19601f82011682018060405250810190610ff5919061352b565b505050600260160160009054906101000a90046001600160a01b03166001600160a01b031663b88d4fde30600260110160009054906101000a90046001600160a01b03168f6040518463ffffffff1660e01b8152600401611086939291906001600160a01b039384168152919092166020820152604081019190915260806060820181905260009082015260a00190565b600060405180830381600087803b1580156110a057600080fd5b505af11580156110b4573d6000803e3d6000fd5b50505050600260070160009054906101000a90046001600160a01b03166001600160a01b031663f242432a308a8f60016040518563ffffffff1660e01b81526004016111039493929190613560565b600060405180830381600087803b15801561111d57600080fd5b505af1158015611131573d6000803e3d6000fd5b50506007546040516370a0823160e01b8152306004820152600093506001600160a01b0390911691506370a0823190602401602060405180830381865afa158015611180573d6000803e3d6000fd5b505050506040513d601f19601f820116820180604052508101906111a491906134cf565b905080156111c3576007546111c3906001600160a01b03163383611c5c565b50505050505050506111d460018055565b5050505050565b60006111e5611bcb565b6111ef6000611aab565b600084116112355760405162461bcd60e51b8152602060048201526013602482015272125b9d985b1a59081413d5cc48185b5bdd5b9d606a1b6044820152606401610843565b6000831161127d5760405162461bcd60e51b8152602060048201526015602482015274125b9d985b1a59081b585c9ad95d08185b5bdd5b9d605a1b6044820152606401610843565b6001600160a01b0382166112c65760405162461bcd60e51b815260206004820152601060248201526f24b73b30b634b2103932b1b2b4bb32b960811b6044820152606401610843565b60195460ff161561130f5760405162461bcd60e51b8152602060048201526013602482015272105b1c9958591e481a5b9a5d1a585b1a5e9959606a1b6044820152606401610843565b6019805460ff1916600117905561133a6113263390565b6002546001600160a01b0316903087611bf5565b611353335b6007546001600160a01b0316903086611bf5565b601154600254611370916001600160a01b03918216911686611d7b565b60115460075461138d916001600160a01b03918216911685611d7b565b6011546040516326c662b160e11b815260048101869052602481018590523060448201526001600160a01b0390911690634d8cc562906064016020604051808303816000875af11580156113e5573d6000803e3d6000fd5b505050506040513d601f19601f8201168201806040525081019061140991906134cf565b601854601354604051635c46a7ef60e11b81523060048201526001600160a01b039182166024820152604481018490526080606482015260006084820152929350169063b88d4fde9060a401600060405180830381600087803b15801561146f57600080fd5b505af1158015611483573d6000803e3d6000fd5b50506009546040516308bb76a560e01b815260048101859052600093506001600160a01b0390911691506308bb76a590602401602060405180830381865afa1580156114d3573d6000803e3d6000fd5b505050506040513d601f19601f820116820180604052508101906114f791906135a3565b90506001600160a01b0381166115405760405162461bcd60e51b815260206004820152600e60248201526d125b9d985b1a590813140b54d19560921b6044820152606401610843565b6002546040516370a0823160e01b81523060048201526000916001600160a01b0316906370a0823190602401602060405180830381865afa158015611589573d6000803e3d6000fd5b505050506040513d601f19601f820116820180604052508101906115ad91906134cf565b905080156115cc576002546115cc906001600160a01b03168383611c5c565b6007546040516370a0823160e01b81523060048201526000916001600160a01b0316906370a0823190602401602060405180830381865afa158015611615573d6000803e3d6000fd5b505050506040513d601f19601f8201168201806040525081019061163991906134cf565b9050801561165857600754611658906001600160a01b03168683611c5c565b600954604051637921219560e11b81526001600160a01b039091169063f242432a9061168f90309089908990600190600401613560565b600060405180830381600087803b1580156116a957600080fd5b505af11580156116bd573d6000803e3d6000fd5b505050505050506116cd60018055565b9392505050565b6116dc611bcb565b6116e66000611aab565b60195460ff1661172a5760405162461bcd60e51b815260206004820152600f60248201526e139bdd081a5b9a5d1a585b1a5e9959608a1b6044820152606401610843565b6019805463ffffffff84811661010081810264ffffffff001985161790945592909104169081101561178757600061176282856135c0565b905061176d3361133f565b61177d8163ffffffff16846122a1565b61178561256e565b505b5061179160018055565b5050565b6000828152602081905260409020600101546117b081611aab565b6106898383611b4a565b606060006117c86022611bb5565b905060008167ffffffffffffffff8111156117e5576117e5612e97565b60405190808252806020026020018201604052801561184857816020015b6118356040518060a0016040528060008152602001600081526020016000815260200160008152602001600081525090565b8152602001906001900390816118035790505b50905060005b82811015610759576000611863602283611bbf565b9050602460008281526020019081526020016000206040518060a0016040529081600082015481526020016001820154815260200160028201548152602001600382015481526020016004820154815250508383815181106118c7576118c7613397565b60209081029190910101525060010161184e565b6000818152602460209081526040808320815160a0810183528154808252600183015494820194909452600282015492810192909252600381015460608301526004015460808201529083146119695760405162461bcd60e51b81526020600482015260136024820152724c502d4e4654206e6f7420666f722073616c6560681b6044820152606401610843565b6080810151156119b25760405162461bcd60e51b8152602060048201526014602482015273105d58dd1a5bdb88185b1c9958591e481cdbdb1960621b6044820152606401610843565b60008160600151116119fc5760405162461bcd60e51b8152602060048201526013602482015272105d58dd1a5bdb881b9bdd081cdd185c9d1959606a1b6044820152606401610843565b6000816060015142611a0e9190613489565b601c54909150670de0b6b3a76400008202906000611a2c8284612703565b611a35906135dc565b90506000611a4282612736565b60208701519091506000611a568284612703565b604089015190915080821215611a6e57809950611a72565b8199505b505050505050505050919050565b6000611a8b826128df565b8061056457506001600160e01b031982166392a9178960e01b1492915050565b611ab5813361290a565b50565b6000611ac483836107d2565b611b42576000838152602081815260408083206001600160a01b03861684529091529020805460ff19166001179055611afa3390565b6001600160a01b0316826001600160a01b0316847f2f8788117e7eff1d82e926ec794901d17c78024a50270940304540a733656f0d60405160405180910390a4506001610564565b506000610564565b6000611b5683836107d2565b15611b42576000838152602081815260408083206001600160a01b0386168085529252808320805460ff1916905551339286917ff6391f5c32d9c69d2a47ea670b442974b53935d1edc7fd64eb21e047a839171b9190a4506001610564565b6000610564825490565b60006116cd8383612943565b600260015403611bee57604051633ee5aeb560e01b815260040160405180910390fd5b6002600155565b6040516001600160a01b0384811660248301528381166044830152606482018390526106899186918216906323b872dd906084015b604051602081830303815290604052915060e01b6020820180516001600160e01b03838183161783525050505061296d565b6040516001600160a01b038381166024830152604482018390526106c291859182169063a9059cbb90606401611c2a565b6000611ca162ffffff8316620f4240613489565b611cac90600261343a565b84611cbf62ffffff8516621e8480613489565b611cc9919061343a565b611d5f8686611ce062ffffff8816620f4240613489565b611cee620f4240600461343a565b611cf8919061343a565b611d02919061343a565b611d0c919061343a565b8780611d2062ffffff8916621e8480613489565b611d3262ffffff8a16621e8480613489565b611d3c919061343a565b611d46919061343a565b611d50919061343a565b611d5a91906135f8565b6129de565b611d699190613489565b611d739190613467565b949350505050565b604051636eb1769f60e11b81523060048201526001600160a01b0383811660248301526000919085169063dd62ed3e90604401602060405180830381865afa158015611dcb573d6000803e3d6000fd5b505050506040513d601f19601f82011682018060405250810190611def91906134cf565b90506106898484611e0085856135f8565b612b37565b60006116cd8383612bc7565b6000808311611e4c5760405162461bcd60e51b81526020600482015260076024820152664e6f20504f573160c81b6044820152606401610843565b60008211611e8e5760405162461bcd60e51b815260206004820152600f60248201526e27379036b0b935b2ba103a37b5b2b760891b6044820152606401610843565b601154600254611eab916001600160a01b03918216911685611d7b565b601154600754611ec8916001600160a01b03918216911684611d7b565b6011546040516326c662b160e11b815260048101859052602481018490523060448201526001600160a01b0390911690634d8cc562906064016020604051808303816000875af1158015611f20573d6000803e3d6000fd5b505050506040513d601f19601f82011682018060405250810190611f4491906134cf565b6018546040516331a9108f60e11b81526004810183905291925030916001600160a01b0390911690636352211e90602401602060405180830381865afa158015611f92573d6000803e3d6000fd5b505050506040513d601f19601f82011682018060405250810190611fb691906135a3565b6001600160a01b031614611ff85760405162461bcd60e51b81526020600482015260096024820152682737ba1037bbb732b960b91b6044820152606401610843565b60185460405163133f757160e31b8152600481018390526000916001600160a01b0316906399fbab889060240161018060405180830381865afa158015612043573d6000803e3d6000fd5b505050506040513d601f19601f82011682018060405250810190612067919061361d565b50506018546040805160a0810182528e81526001600160801b0386166020820152600081830181905260608201524260808201529051630624e65f60e11b8152949c506001600160a01b039091169a50630c49ccbe99506120d69850965050600490910193506136ff92505050565b60408051808303816000875af11580156120f4573d6000803e3d6000fd5b505050506040513d601f19601f820116820180604052508101906121189190613742565b50506018546040805160808101825284815230602082019081526001600160801b0382840181815260608401828152945163fc6f786560e01b81529351600485015291516001600160a01b0390811660248501529151811660448401529251909216606482015291169063fc6f78659060840160408051808303816000875af11580156121a9573d6000803e3d6000fd5b505050506040513d601f19601f820116820180604052508101906121cd9190613742565b50505092915050565b60006121e0612cba565b6040805160a0810182528481526020808201848152815483850190815242606085019081526000608086018181528a82526024909552958620855181559251600180850191909155915160028401555160038301559151600490910155601a805494955091939092906122549084906135f8565b909155506122659050602284612cf3565b6106c25760405162461bcd60e51b815260206004820152600d60248201526c105b1c9958591e481859191959609a1b6044820152606401610843565b600754600b546040516370a0823160e01b81526001600160a01b03918216600482015260009291909116906370a0823190602401602060405180830381865afa1580156122f2573d6000803e3d6000fd5b505050506040513d601f19601f8201168201806040525081019061231691906134cf565b90506000600260090160009054906101000a90046001600160a01b03166001600160a01b031663ddca3f436040518163ffffffff1660e01b8152600401602060405180830381865afa158015612370573d6000803e3d6000fd5b505050506040513d601f19601f8201168201806040525081019061239491906134b4565b905060006123a3838584611c8d565b9050838111156123c55760405162461bcd60e51b8152600401610843906134e8565b600e546007546123e2916001600160a01b03918216911683611d7b565b600e54604051636aa8f93560e01b8152600481018390523060248201526001600160a01b0390911690636aa8f935906044016020604051808303816000875af1158015612433573d6000803e3d6000fd5b505050506040513d601f19601f8201168201806040525081019061245791906134cf565b5060005b85811015612566576002546040516370a0823160e01b81523060048201526000916001600160a01b0316906370a0823190602401602060405180830381865afa1580156124ac573d6000803e3d6000fd5b505050506040513d601f19601f820116820180604052508101906124d091906134cf565b6007546040516370a0823160e01b81523060048201529192506000916001600160a01b03909116906370a0823190602401602060405180830381865afa15801561251e573d6000803e3d6000fd5b505050506040513d601f19601f8201168201806040525081019061254291906134cf565b905060006125508383611e11565b905061255b816121d6565b50505060010161245b565b505050505050565b6002546040516370a0823160e01b81523060048201526000916001600160a01b0316906370a0823190602401602060405180830381865afa1580156125b7573d6000803e3d6000fd5b505050506040513d601f19601f820116820180604052508101906125db91906134cf565b9050801561267757600e54600254612600916001600160a01b03918216911683611d7b565b600e546040516301952d0960e31b8152600481018390523060248201526001600160a01b0390911690630ca96848906044016020604051808303816000875af1158015612651573d6000803e3d6000fd5b505050506040513d601f19601f8201168201806040525081019061267591906134cf565b505b6007546040516370a0823160e01b81523060048201526000916001600160a01b0316906370a0823190602401602060405180830381865afa1580156126c0573d6000803e3d6000fd5b505050506040513d601f19601f820116820180604052508101906126e491906134cf565b9050801561179157611791336007546001600160a01b03169083611c5c565b81810282158382058314176000198410600160ff1b8413171661272557600080fd5b670de0b6b3a7640000900592915050565b6000680248ce36a70cb26b3e19821361275157506000919050565b680755bf798b4a1bf1e582126127985760405162461bcd60e51b815260206004820152600c60248201526b4558505f4f564552464c4f5760a01b6044820152606401610843565b6503782dace9d9604e83901b059150600060606bb17217f7d1cf79abc9e3b39884821b056001605f1b01901d6bb17217f7d1cf79abc9e3b39881029093036c240c330e9fb2d9cbaf0fd5aafb1981018102606090811d6d0277594991cfc85f6e2461837cd9018202811d6d1a521255e34f6a5061b25ef1c9c319018202811d6db1bbb201f443cf962f1a1d3db4a5018202811d6e02c72388d9f74f51a9331fed693f1419018202811d6e05180bb14799ab47a8a8cb2a527d57016d02d16720577bd19bf614176fe9ea6c10fe68e7fd37d0007b713f765084018402831d9081019084016d01d3967ed30fc4f89c02bab5708119010290911d6e0587f503bb6ea29d25fcb740196450019091026d360d7aeea093263ecc6e0ecb291760621b010574029d9dc38563c32e5c2f6dc192ee70ef65f9978af30260c3939093039290921c92915050565b60006128ea82612cff565b8061056457506001600160e01b031982166309ffb6a360e41b1492915050565b61291482826107d2565b6117915760405163e2517d3f60e01b81526001600160a01b038216600482015260248101839052604401610843565b600082600001828154811061295a5761295a613397565b9060005260206000200154905092915050565b600080602060008451602086016000885af180612990576040513d6000823e3d81fd5b50506000513d915081156129a85780600114156129b5565b6001600160a01b0384163b155b1561068957604051635274afe760e01b81526001600160a01b0385166004820152602401610843565b6000600182116129ec575090565b816001600160801b8210612a055760809190911c9060401b5b680100000000000000008210612a205760409190911c9060201b5b6401000000008210612a375760209190911c9060101b5b620100008210612a4c5760109190911c9060081b5b6101008210612a605760089190911c9060041b5b60108210612a735760049190911c9060021b5b60048210612a7f5760011b5b600302600190811c90818581612a9757612a97613451565b048201901c90506001818581612aaf57612aaf613451565b048201901c90506001818581612ac757612ac7613451565b048201901c90506001818581612adf57612adf613451565b048201901c90506001818581612af757612af7613451565b048201901c90506001818581612b0f57612b0f613451565b048201901c9050612b2e818581612b2857612b28613451565b04821190565b90039392505050565b604080516001600160a01b038416602482015260448082018490528251808303909101815260649091019091526020810180516001600160e01b031663095ea7b360e01b179052612b888482612d1f565b610689576040516001600160a01b03848116602483015260006044830152612bbd91869182169063095ea7b390606401611c2a565b610689848261296d565b60008181526001830160205260408120548015612cb0576000612beb600183613489565b8554909150600090612bff90600190613489565b9050808214612c64576000866000018281548110612c1f57612c1f613397565b9060005260206000200154905080876000018481548110612c4257612c42613397565b6000918252602080832090910192909255918252600188019052604090208390555b8554869080612c7557612c75613766565b600190038181906000526020600020016000905590558560010160008681526020019081526020016000206000905560019350505050610564565b6000915050610564565b601b54600090808203612cd157601f549150612cdf565b612cdc81600261343a565b91505b602154821115612cef5760215491505b5090565b60006116cd8383612d6e565b6000612d0a82612db5565b806105645750506001600160e01b0319161590565b6000806000806020600086516020880160008a5af192503d91506000519050828015612d6457508115612d555780600114612d64565b6000866001600160a01b03163b115b9695505050505050565b6000818152600183016020526040812054611b4257508154600181810184556000848152602080822090930184905584548482528286019093526040902091909155610564565b600063dc9c4ac960e01b6001600160e01b031983161480612de657506001600160e01b03198216630a85bd0160e11b145b8061056457506001600160e01b0319821663115fa89b60e01b1492915050565b600060208284031215612e1857600080fd5b81356001600160e01b0319811681146116cd57600080fd5b600060208284031215612e4257600080fd5b5035919050565b60a08101610564828480518252602081015160208301526040810151604083015260608101516060830152608081015160808301525050565b6001600160a01b0381168114611ab557600080fd5b634e487b7160e01b600052604160045260246000fd5b604051601f8201601f1916810167ffffffffffffffff81118282101715612ed657612ed6612e97565b604052919050565b600067ffffffffffffffff821115612ef857612ef8612e97565b50601f01601f191660200190565b600082601f830112612f1757600080fd5b8135612f2a612f2582612ede565b612ead565b818152846020838601011115612f3f57600080fd5b816020850160208301376000918101602001919091529392505050565b60008060008060808587031215612f7257600080fd5b8435612f7d81612e82565b93506020850135612f8d81612e82565b925060408501359150606085013567ffffffffffffffff811115612fb057600080fd5b612fbc87828801612f06565b91505092959194509250565b60c081016105648284805182526020810151602083015260408101516040830152606081015160608301526080810151608083015260a081015160a08301525050565b6000806040838503121561301e57600080fd5b82359150602083013561303081612e82565b809150509250929050565b602080825282518282018190526000918401906040840190835b81811015613073578351835260209384019390920191600101613055565b509095945050505050565b60005b83811015613099578181015183820152602001613081565b50506000910152565b60208152600082518060208401526130c181604085016020870161307e565b601f01601f19169190910160400192915050565b600080600080600060a086880312156130ed57600080fd5b853594506020860135935060408601359250606086013561310d81612e82565b9150608086013561311d81612e82565b809150509295509295909350565b60008060006060848603121561314057600080fd5b8335925060208401359150604084013561315981612e82565b809150509250925092565b600082601f83011261317557600080fd5b813567ffffffffffffffff81111561318f5761318f612e97565b8060051b61319f60208201612ead565b918252602081850181019290810190868411156131bb57600080fd5b6020860192505b83831015612d645782358252602092830192909101906131c2565b600080600080600060a086880312156131f557600080fd5b853561320081612e82565b9450602086013561321081612e82565b9350604086013567ffffffffffffffff81111561322c57600080fd5b61323888828901613164565b935050606086013567ffffffffffffffff81111561325557600080fd5b61326188828901613164565b925050608086013567ffffffffffffffff81111561327e57600080fd5b61328a88828901612f06565b9150509295509295909350565b600080604083850312156132aa57600080fd5b823563ffffffff811681146132be57600080fd5b946020939093013593505050565b602080825282518282018190526000918401906040840190835b818110156130735761332483855180518252602081015160208301526040810151604083015260608101516060830152608081015160808301525050565b6020939093019260a092909201916001016132e6565b600080600080600060a0868803121561335257600080fd5b853561335d81612e82565b9450602086013561336d81612e82565b93506040860135925060608601359150608086013567ffffffffffffffff81111561327e57600080fd5b634e487b7160e01b600052603260045260246000fd5b6000602082840312156133bf57600080fd5b815167ffffffffffffffff8111156133d657600080fd5b8201601f810184136133e757600080fd5b80516133f5612f2582612ede565b81815285602083850101111561340a57600080fd5b61341b82602083016020860161307e565b95945050505050565b634e487b7160e01b600052601160045260246000fd5b808202811582820484141761056457610564613424565b634e487b7160e01b600052601260045260246000fd5b60008261348457634e487b7160e01b600052601260045260246000fd5b500490565b8181038181111561056457610564613424565b805162ffffff811681146134af57600080fd5b919050565b6000602082840312156134c657600080fd5b6116cd8261349c565b6000602082840312156134e157600080fd5b5051919050565b602080825260129082015271084c2c840d8d2e2ead2c8d2e8f240dac2e8d60731b604082015260600190565b80516001600160801b03811681146134af57600080fd5b60008060006060848603121561354057600080fd5b61354984613514565b602085015160409095015190969495509392505050565b6001600160a01b0394851681529290931660208301526040820152606081019190915260a06080820181905260009082015260c00190565b80516134af81612e82565b6000602082840312156135b557600080fd5b81516116cd81612e82565b63ffffffff828116828216039081111561056457610564613424565b6000600160ff1b82016135f1576135f1613424565b5060000390565b8082018082111561056457610564613424565b8051600281900b81146134af57600080fd5b6000806000806000806000806000806000806101808d8f03121561364057600080fd5b8c516bffffffffffffffffffffffff8116811461365c57600080fd5b9b5061366a60208e01613598565b9a5061367860408e01613598565b995061368660608e01613598565b985061369460808e0161349c565b97506136a260a08e0161360b565b96506136b060c08e0161360b565b95506136be60e08e01613514565b6101008e01516101208f0151919650945092506136de6101408e01613514565b91506136ed6101608e01613514565b90509295989b509295989b509295989b565b600060a082019050825182526001600160801b03602084015116602083015260408301516040830152606083015160608301526080830151608083015292915050565b6000806040838503121561375557600080fd5b505080516020909101519092909150565b634e487b7160e01b600052603160045260246000fdfea264697066735822122011894e91ce73d2dbbebdb36e24d0e77cc06714f46325c5b53bc4fdc3977f7d0764736f6c634300081c0033",
  "devdoc": {
    "errors": {
      "AccessControlBadConfirmation()": [
        {
          "details": "The caller of a function is not the expected one. NOTE: Don't confuse with {AccessControlUnauthorizedAccount}."
        }
      ],
      "AccessControlUnauthorizedAccount(address,bytes32)": [
        {
          "details": "The `account` is missing a role."
        }
      ],
      "ReentrancyGuardReentrantCall()": [
        {
          "details": "Unauthorized reentrant call."
        }
      ],
      "SafeERC20FailedOperation(address)": [
        {
          "details": "An operation with an ERC-20 token failed."
        }
      ]
    },
    "events": {
      "AuctionInitialized(uint256,uint256,uint256,address,address)": {
        "details": "Event to emit when the Bureau of the Dutch Auction is initialized",
        "params": {
          "assetTokenAmount": "The amount of asset tokens used to initialize the pool",
          "gameTokenAmount": "The amount of game tokens used to initialize the pool",
          "lpNftTokenId": "The token ID of the LP-NFT minted in the initialization",
          "receiver": "The address of the receiver of the LP-SFT holding the staked LP-NFT"
        }
      },
      "RoleAdminChanged(bytes32,bytes32,bytes32)": {
        "details": "Emitted when `newAdminRole` is set as ``role``'s admin role, replacing `previousAdminRole` `DEFAULT_ADMIN_ROLE` is the starting admin for all roles, despite {RoleAdminChanged} not being emitted signaling this."
      },
      "RoleGranted(bytes32,address,address)": {
        "details": "Emitted when `account` is granted `role`. `sender` is the account that originated the contract call. This account bears the admin role (for the granted role). Expected in cases where the role was granted using the internal {AccessControl-_grantRole}."
      },
      "RoleRevoked(bytes32,address,address)": {
        "details": "Emitted when `account` is revoked `role`. `sender` is the account that originated the contract call:   - if using `revokeRole`, it is the admin role bearer   - if using `renounceRole`, it is the role bearer (i.e. `account`)"
      }
    },
    "kind": "dev",
    "methods": {
      "constructor": {
        "details": "Initializes the Dutch Auction contract",
        "params": {
          "owner_": "The owner of the Dutch Auction",
          "theReserve_": "The Reserve smart contract"
        }
      },
      "getAuctionCount()": {
        "details": "See {IDutchAuctionAdminActions-getAuctionCount}"
      },
      "getAuctionSettings()": {
        "details": "See {IDutchAuctionState-getAuctionSettings}"
      },
      "getAuctionState(uint256)": {
        "details": "See {IDutchAuctionState-getAuctionState}"
      },
      "getBureauState()": {
        "details": "See {IDutchAuctionState-getBureauState}"
      },
      "getCurrentAuctionCount()": {
        "details": "See {IDutchAuctionState-getCurrentAuctionCount}"
      },
      "getCurrentAuctionStates()": {
        "details": "Returns the auction states of the current auctions",
        "returns": {
          "_0": "An array of AuctionState structs"
        }
      },
      "getCurrentAuctions()": {
        "details": "Returns the list of current LP-NFT token IDs on auction",
        "returns": {
          "_0": "An array of LP-NFT token IDs"
        }
      },
      "getCurrentPriceBips(uint256)": {
        "details": "See {IDutchAuctionState-getCurrentPrice}"
      },
      "getRoleAdmin(bytes32)": {
        "details": "Returns the admin role that controls `role`. See {grantRole} and {revokeRole}. To change a role's admin, use {_setRoleAdmin}."
      },
      "getTokenUri(uint256)": {
        "details": "See {IDutchAuctionState-getTokenUri}"
      },
      "grantRole(bytes32,address)": {
        "details": "Grants `role` to `account`. If `account` had not been already granted `role`, emits a {RoleGranted} event. Requirements: - the caller must have ``role``'s admin role. May emit a {RoleGranted} event."
      },
      "hasRole(bytes32,address)": {
        "details": "Returns `true` if `account` has been granted `role`."
      },
      "initialize(uint256,uint256,address)": {
        "details": "See {IDutchAuction-initialize}"
      },
      "isInitialized()": {
        "details": "See {IDutchAuctionAdminActions-isInitialized}"
      },
      "lpSft()": {
        "details": "See {IDutchAuctionRoutes-lpSft}"
      },
      "marketStableSwapper()": {
        "details": "See {IDutchAuctionRoutes-marketStableSwapper}"
      },
      "marketToken()": {
        "details": "See {IDutchAuctionRoutes-marketToken}"
      },
      "onERC721Received(address,address,uint256,bytes)": {
        "details": "See {IERC721Receiver-onERC721Received}. Always returns `IERC721Receiver.onERC721Received.selector`."
      },
      "pow1LpNftStakeFarm()": {
        "details": "See {IDutchAuctionRoutes-pow1LpNftStakeFarm}"
      },
      "pow1MarketPool()": {
        "details": "See {IDutchAuctionRoutes-pow1MarketPool}"
      },
      "pow1MarketPooler()": {
        "details": "See {IDutchAuctionRoutes-pow1MarketPooler}"
      },
      "pow1MarketSwapper()": {
        "details": "See {IDutchAuctionRoutes-pow1MarketSwapper}"
      },
      "pow1Token()": {
        "details": "See {IDutchAuctionRoutes-pow1Token}"
      },
      "pow5StableSwapper()": {
        "details": "See {IDutchAuctionRoutes-pow5StableSwapper}"
      },
      "pow5Token()": {
        "details": "See {IDutchAuctionRoutes-pow5Token}"
      },
      "purchase(uint256,uint256,uint256,address,address)": {
        "details": "See {IDutchAuctionActions-purchase}"
      },
      "renounceRole(bytes32,address)": {
        "details": "Revokes `role` from the calling account. Roles are often managed via {grantRole} and {revokeRole}: this function's purpose is to provide a mechanism for accounts to lose their privileges if they are compromised (such as when a trusted device is misplaced). If the calling account had been revoked `role`, emits a {RoleRevoked} event. Requirements: - the caller must be `callerConfirmation`. May emit a {RoleRevoked} event."
      },
      "revokeRole(bytes32,address)": {
        "details": "Revokes `role` from `account`. If `account` had been granted `role`, emits a {RoleRevoked} event. Requirements: - the caller must have ``role``'s admin role. May emit a {RoleRevoked} event."
      },
      "setAuctionCount(uint32,uint256)": {
        "details": "See {IDutchAuctionAdminActions-setAuctionCount}"
      },
      "stableToken()": {
        "details": "See {IDutchAuctionRoutes-stableToken}"
      },
      "supportsInterface(bytes4)": {
        "details": "See {IERC165-supportsInterface}"
      },
      "uniswapV3NftManager()": {
        "details": "See {IDutchAuctionRoutes-uniswapV3NftManager}"
      }
    },
    "title": "Bureau of the Dutch Auction",
    "version": 1
  },
  "userdoc": {
    "kind": "user",
    "methods": {},
    "version": 1
  },
  "storageLayout": {
    "storage": [
      {
        "astId": 26,
        "contract": "contracts/src/bureaucracy/dutchAuction/DutchAuction.sol:DutchAuction",
        "label": "_roles",
        "offset": 0,
        "slot": "0",
        "type": "t_mapping(t_bytes32,t_struct(RoleData)21_storage)"
      },
      {
        "astId": 1799,
        "contract": "contracts/src/bureaucracy/dutchAuction/DutchAuction.sol:DutchAuction",
        "label": "_status",
        "offset": 0,
        "slot": "1",
        "type": "t_uint256"
      },
      {
        "astId": 8239,
        "contract": "contracts/src/bureaucracy/dutchAuction/DutchAuction.sol:DutchAuction",
        "label": "_routes",
        "offset": 0,
        "slot": "2",
        "type": "t_struct(Routes)9240_storage"
      },
      {
        "astId": 8467,
        "contract": "contracts/src/bureaucracy/dutchAuction/DutchAuction.sol:DutchAuction",
        "label": "_initialized",
        "offset": 0,
        "slot": "25",
        "type": "t_bool"
      },
      {
        "astId": 8470,
        "contract": "contracts/src/bureaucracy/dutchAuction/DutchAuction.sol:DutchAuction",
        "label": "_targetLpNftCount",
        "offset": 1,
        "slot": "25",
        "type": "t_uint32"
      },
      {
        "astId": 8473,
        "contract": "contracts/src/bureaucracy/dutchAuction/DutchAuction.sol:DutchAuction",
        "label": "_bureauState",
        "offset": 0,
        "slot": "26",
        "type": "t_struct(BureauState)9067_storage"
      },
      {
        "astId": 8476,
        "contract": "contracts/src/bureaucracy/dutchAuction/DutchAuction.sol:DutchAuction",
        "label": "_auctionSettings",
        "offset": 0,
        "slot": "28",
        "type": "t_struct(AuctionSettings)9062_storage"
      },
      {
        "astId": 8479,
        "contract": "contracts/src/bureaucracy/dutchAuction/DutchAuction.sol:DutchAuction",
        "label": "_currentAuctions",
        "offset": 0,
        "slot": "34",
        "type": "t_struct(UintSet)5747_storage"
      },
      {
        "astId": 8484,
        "contract": "contracts/src/bureaucracy/dutchAuction/DutchAuction.sol:DutchAuction",
        "label": "_auctionStates",
        "offset": 0,
        "slot": "36",
        "type": "t_mapping(t_uint256,t_struct(AuctionState)9078_storage)"
      }
    ],
    "types": {
      "t_address": {
        "encoding": "inplace",
        "label": "address",
        "numberOfBytes": "20"
      },
      "t_array(t_bytes32)dyn_storage": {
        "base": "t_bytes32",
        "encoding": "dynamic_array",
        "label": "bytes32[]",
        "numberOfBytes": "32"
      },
      "t_bool": {
        "encoding": "inplace",
        "label": "bool",
        "numberOfBytes": "1"
      },
      "t_bytes32": {
        "encoding": "inplace",
        "label": "bytes32",
        "numberOfBytes": "32"
      },
      "t_contract(IERC20)792": {
        "encoding": "inplace",
        "label": "contract IERC20",
        "numberOfBytes": "20"
      },
      "t_contract(IGameTokenPooler)9827": {
        "encoding": "inplace",
        "label": "contract IGameTokenPooler",
        "numberOfBytes": "20"
      },
      "t_contract(IGameTokenSwapper)9893": {
        "encoding": "inplace",
        "label": "contract IGameTokenSwapper",
        "numberOfBytes": "20"
      },
      "t_contract(ILPNFTStakeFarm)9464": {
        "encoding": "inplace",
        "label": "contract ILPNFTStakeFarm",
        "numberOfBytes": "20"
      },
      "t_contract(ILPSFT)9567": {
        "encoding": "inplace",
        "label": "contract ILPSFT",
        "numberOfBytes": "20"
      },
      "t_contract(ILPSFTLendFarm)9502": {
        "encoding": "inplace",
        "label": "contract ILPSFTLendFarm",
        "numberOfBytes": "20"
      },
      "t_contract(IMarketStableSwapper)9961": {
        "encoding": "inplace",
        "label": "contract IMarketStableSwapper",
        "numberOfBytes": "20"
      },
      "t_contract(INOLPSFT)9583": {
        "encoding": "inplace",
        "label": "contract INOLPSFT",
        "numberOfBytes": "20"
      },
      "t_contract(INonfungiblePositionManager)6641": {
        "encoding": "inplace",
        "label": "contract INonfungiblePositionManager",
        "numberOfBytes": "20"
      },
      "t_contract(IUniV3StakeFarm)9534": {
        "encoding": "inplace",
        "label": "contract IUniV3StakeFarm",
        "numberOfBytes": "20"
      },
      "t_contract(IUniswapV3Factory)5966": {
        "encoding": "inplace",
        "label": "contract IUniswapV3Factory",
        "numberOfBytes": "20"
      },
      "t_contract(IUniswapV3Pool)5988": {
        "encoding": "inplace",
        "label": "contract IUniswapV3Pool",
        "numberOfBytes": "20"
      },
      "t_mapping(t_address,t_bool)": {
        "encoding": "mapping",
        "key": "t_address",
        "label": "mapping(address => bool)",
        "numberOfBytes": "32",
        "value": "t_bool"
      },
      "t_mapping(t_bytes32,t_struct(RoleData)21_storage)": {
        "encoding": "mapping",
        "key": "t_bytes32",
        "label": "mapping(bytes32 => struct AccessControl.RoleData)",
        "numberOfBytes": "32",
        "value": "t_struct(RoleData)21_storage"
      },
      "t_mapping(t_bytes32,t_uint256)": {
        "encoding": "mapping",
        "key": "t_bytes32",
        "label": "mapping(bytes32 => uint256)",
        "numberOfBytes": "32",
        "value": "t_uint256"
      },
      "t_mapping(t_uint256,t_struct(AuctionState)9078_storage)": {
        "encoding": "mapping",
        "key": "t_uint256",
        "label": "mapping(uint256 => struct IDutchAuctionState.AuctionState)",
        "numberOfBytes": "32",
        "value": "t_struct(AuctionState)9078_storage"
      },
      "t_struct(AuctionSettings)9062_storage": {
        "encoding": "inplace",
        "label": "struct IDutchAuctionState.AuctionSettings",
        "members": [
          {
            "astId": 9051,
            "contract": "contracts/src/bureaucracy/dutchAuction/DutchAuction.sol:DutchAuction",
            "label": "priceDecayRate",
            "offset": 0,
            "slot": "0",
            "type": "t_uint256"
          },
          {
            "astId": 9053,
            "contract": "contracts/src/bureaucracy/dutchAuction/DutchAuction.sol:DutchAuction",
            "label": "mintDustAmount",
            "offset": 0,
            "slot": "1",
            "type": "t_uint256"
          },
          {
            "astId": 9055,
            "contract": "contracts/src/bureaucracy/dutchAuction/DutchAuction.sol:DutchAuction",
            "label": "priceIncrement",
            "offset": 0,
            "slot": "2",
            "type": "t_uint256"
          },
          {
            "astId": 9057,
            "contract": "contracts/src/bureaucracy/dutchAuction/DutchAuction.sol:DutchAuction",
            "label": "initialPriceBips",
            "offset": 0,
            "slot": "3",
            "type": "t_uint256"
          },
          {
            "astId": 9059,
            "contract": "contracts/src/bureaucracy/dutchAuction/DutchAuction.sol:DutchAuction",
            "label": "minPriceBips",
            "offset": 0,
            "slot": "4",
            "type": "t_uint256"
          },
          {
            "astId": 9061,
            "contract": "contracts/src/bureaucracy/dutchAuction/DutchAuction.sol:DutchAuction",
            "label": "maxPriceBips",
            "offset": 0,
            "slot": "5",
            "type": "t_uint256"
          }
        ],
        "numberOfBytes": "192"
      },
      "t_struct(AuctionState)9078_storage": {
        "encoding": "inplace",
        "label": "struct IDutchAuctionState.AuctionState",
        "members": [
          {
            "astId": 9069,
            "contract": "contracts/src/bureaucracy/dutchAuction/DutchAuction.sol:DutchAuction",
            "label": "lpNftTokenId",
            "offset": 0,
            "slot": "0",
            "type": "t_uint256"
          },
          {
            "astId": 9071,
            "contract": "contracts/src/bureaucracy/dutchAuction/DutchAuction.sol:DutchAuction",
            "label": "startPriceBips",
            "offset": 0,
            "slot": "1",
            "type": "t_uint256"
          },
          {
            "astId": 9073,
            "contract": "contracts/src/bureaucracy/dutchAuction/DutchAuction.sol:DutchAuction",
            "label": "endPriceBips",
            "offset": 0,
            "slot": "2",
            "type": "t_uint256"
          },
          {
            "astId": 9075,
            "contract": "contracts/src/bureaucracy/dutchAuction/DutchAuction.sol:DutchAuction",
            "label": "startTime",
            "offset": 0,
            "slot": "3",
            "type": "t_uint256"
          },
          {
            "astId": 9077,
            "contract": "contracts/src/bureaucracy/dutchAuction/DutchAuction.sol:DutchAuction",
            "label": "salePrice",
            "offset": 0,
            "slot": "4",
            "type": "t_uint256"
          }
        ],
        "numberOfBytes": "160"
      },
      "t_struct(BureauState)9067_storage": {
        "encoding": "inplace",
        "label": "struct IDutchAuctionState.BureauState",
        "members": [
          {
            "astId": 9064,
            "contract": "contracts/src/bureaucracy/dutchAuction/DutchAuction.sol:DutchAuction",
            "label": "totalAuctions",
            "offset": 0,
            "slot": "0",
            "type": "t_uint256"
          },
          {
            "astId": 9066,
            "contract": "contracts/src/bureaucracy/dutchAuction/DutchAuction.sol:DutchAuction",
            "label": "lastSalePriceBips",
            "offset": 0,
            "slot": "1",
            "type": "t_uint256"
          }
        ],
        "numberOfBytes": "64"
      },
      "t_struct(RoleData)21_storage": {
        "encoding": "inplace",
        "label": "struct AccessControl.RoleData",
        "members": [
          {
            "astId": 18,
            "contract": "contracts/src/bureaucracy/dutchAuction/DutchAuction.sol:DutchAuction",
            "label": "hasRole",
            "offset": 0,
            "slot": "0",
            "type": "t_mapping(t_address,t_bool)"
          },
          {
            "astId": 20,
            "contract": "contracts/src/bureaucracy/dutchAuction/DutchAuction.sol:DutchAuction",
            "label": "adminRole",
            "offset": 0,
            "slot": "1",
            "type": "t_bytes32"
          }
        ],
        "numberOfBytes": "64"
      },
      "t_struct(Routes)9240_storage": {
        "encoding": "inplace",
        "label": "struct ITheReserveRoutes.Routes",
        "members": [
          {
            "astId": 9173,
            "contract": "contracts/src/bureaucracy/dutchAuction/DutchAuction.sol:DutchAuction",
            "label": "pow1Token",
            "offset": 0,
            "slot": "0",
            "type": "t_contract(IERC20)792"
          },
          {
            "astId": 9176,
            "contract": "contracts/src/bureaucracy/dutchAuction/DutchAuction.sol:DutchAuction",
            "label": "pow5Token",
            "offset": 0,
            "slot": "1",
            "type": "t_contract(IERC20)792"
          },
          {
            "astId": 9179,
            "contract": "contracts/src/bureaucracy/dutchAuction/DutchAuction.sol:DutchAuction",
            "label": "lpPow1Token",
            "offset": 0,
            "slot": "2",
            "type": "t_contract(IERC20)792"
          },
          {
            "astId": 9182,
            "contract": "contracts/src/bureaucracy/dutchAuction/DutchAuction.sol:DutchAuction",
            "label": "lpPow5Token",
            "offset": 0,
            "slot": "3",
            "type": "t_contract(IERC20)792"
          },
          {
            "astId": 9185,
            "contract": "contracts/src/bureaucracy/dutchAuction/DutchAuction.sol:DutchAuction",
            "label": "noPow5Token",
            "offset": 0,
            "slot": "4",
            "type": "t_contract(IERC20)792"
          },
          {
            "astId": 9188,
            "contract": "contracts/src/bureaucracy/dutchAuction/DutchAuction.sol:DutchAuction",
            "label": "marketToken",
            "offset": 0,
            "slot": "5",
            "type": "t_contract(IERC20)792"
          },
          {
            "astId": 9191,
            "contract": "contracts/src/bureaucracy/dutchAuction/DutchAuction.sol:DutchAuction",
            "label": "stableToken",
            "offset": 0,
            "slot": "6",
            "type": "t_contract(IERC20)792"
          },
          {
            "astId": 9194,
            "contract": "contracts/src/bureaucracy/dutchAuction/DutchAuction.sol:DutchAuction",
            "label": "lpSft",
            "offset": 0,
            "slot": "7",
            "type": "t_contract(ILPSFT)9567"
          },
          {
            "astId": 9197,
            "contract": "contracts/src/bureaucracy/dutchAuction/DutchAuction.sol:DutchAuction",
            "label": "noLpSft",
            "offset": 0,
            "slot": "8",
            "type": "t_contract(INOLPSFT)9583"
          },
          {
            "astId": 9200,
            "contract": "contracts/src/bureaucracy/dutchAuction/DutchAuction.sol:DutchAuction",
            "label": "pow1MarketPool",
            "offset": 0,
            "slot": "9",
            "type": "t_contract(IUniswapV3Pool)5988"
          },
          {
            "astId": 9203,
            "contract": "contracts/src/bureaucracy/dutchAuction/DutchAuction.sol:DutchAuction",
            "label": "pow5StablePool",
            "offset": 0,
            "slot": "10",
            "type": "t_contract(IUniswapV3Pool)5988"
          },
          {
            "astId": 9206,
            "contract": "contracts/src/bureaucracy/dutchAuction/DutchAuction.sol:DutchAuction",
            "label": "marketStablePool",
            "offset": 0,
            "slot": "11",
            "type": "t_contract(IUniswapV3Pool)5988"
          },
          {
            "astId": 9209,
            "contract": "contracts/src/bureaucracy/dutchAuction/DutchAuction.sol:DutchAuction",
            "label": "pow1MarketSwapper",
            "offset": 0,
            "slot": "12",
            "type": "t_contract(IGameTokenSwapper)9893"
          },
          {
            "astId": 9212,
            "contract": "contracts/src/bureaucracy/dutchAuction/DutchAuction.sol:DutchAuction",
            "label": "pow5StableSwapper",
            "offset": 0,
            "slot": "13",
            "type": "t_contract(IGameTokenSwapper)9893"
          },
          {
            "astId": 9215,
            "contract": "contracts/src/bureaucracy/dutchAuction/DutchAuction.sol:DutchAuction",
            "label": "marketStableSwapper",
            "offset": 0,
            "slot": "14",
            "type": "t_contract(IMarketStableSwapper)9961"
          },
          {
            "astId": 9218,
            "contract": "contracts/src/bureaucracy/dutchAuction/DutchAuction.sol:DutchAuction",
            "label": "pow1MarketPooler",
            "offset": 0,
            "slot": "15",
            "type": "t_contract(IGameTokenPooler)9827"
          },
          {
            "astId": 9221,
            "contract": "contracts/src/bureaucracy/dutchAuction/DutchAuction.sol:DutchAuction",
            "label": "pow5StablePooler",
            "offset": 0,
            "slot": "16",
            "type": "t_contract(IGameTokenPooler)9827"
          },
          {
            "astId": 9224,
            "contract": "contracts/src/bureaucracy/dutchAuction/DutchAuction.sol:DutchAuction",
            "label": "pow1LpNftStakeFarm",
            "offset": 0,
            "slot": "17",
            "type": "t_contract(ILPNFTStakeFarm)9464"
          },
          {
            "astId": 9227,
            "contract": "contracts/src/bureaucracy/dutchAuction/DutchAuction.sol:DutchAuction",
            "label": "pow5LpNftStakeFarm",
            "offset": 0,
            "slot": "18",
            "type": "t_contract(IUniV3StakeFarm)9534"
          },
          {
            "astId": 9230,
            "contract": "contracts/src/bureaucracy/dutchAuction/DutchAuction.sol:DutchAuction",
            "label": "pow1LpSftLendFarm",
            "offset": 0,
            "slot": "19",
            "type": "t_contract(ILPSFTLendFarm)9502"
          },
          {
            "astId": 9233,
            "contract": "contracts/src/bureaucracy/dutchAuction/DutchAuction.sol:DutchAuction",
            "label": "pow5LpSftLendFarm",
            "offset": 0,
            "slot": "20",
            "type": "t_contract(ILPSFTLendFarm)9502"
          },
          {
            "astId": 9236,
            "contract": "contracts/src/bureaucracy/dutchAuction/DutchAuction.sol:DutchAuction",
            "label": "uniswapV3Factory",
            "offset": 0,
            "slot": "21",
            "type": "t_contract(IUniswapV3Factory)5966"
          },
          {
            "astId": 9239,
            "contract": "contracts/src/bureaucracy/dutchAuction/DutchAuction.sol:DutchAuction",
            "label": "uniswapV3NftManager",
            "offset": 0,
            "slot": "22",
            "type": "t_contract(INonfungiblePositionManager)6641"
          }
        ],
        "numberOfBytes": "736"
      },
      "t_struct(Set)5275_storage": {
        "encoding": "inplace",
        "label": "struct EnumerableSet.Set",
        "members": [
          {
            "astId": 5270,
            "contract": "contracts/src/bureaucracy/dutchAuction/DutchAuction.sol:DutchAuction",
            "label": "_values",
            "offset": 0,
            "slot": "0",
            "type": "t_array(t_bytes32)dyn_storage"
          },
          {
            "astId": 5274,
            "contract": "contracts/src/bureaucracy/dutchAuction/DutchAuction.sol:DutchAuction",
            "label": "_positions",
            "offset": 0,
            "slot": "1",
            "type": "t_mapping(t_bytes32,t_uint256)"
          }
        ],
        "numberOfBytes": "64"
      },
      "t_struct(UintSet)5747_storage": {
        "encoding": "inplace",
        "label": "struct EnumerableSet.UintSet",
        "members": [
          {
            "astId": 5746,
            "contract": "contracts/src/bureaucracy/dutchAuction/DutchAuction.sol:DutchAuction",
            "label": "_inner",
            "offset": 0,
            "slot": "0",
            "type": "t_struct(Set)5275_storage"
          }
        ],
        "numberOfBytes": "64"
      },
      "t_uint256": {
        "encoding": "inplace",
        "label": "uint256",
        "numberOfBytes": "32"
      },
      "t_uint32": {
        "encoding": "inplace",
        "label": "uint32",
        "numberOfBytes": "4"
      }
    }
  }
}