{
  "address": "0x7366ED5C79eD26f9bD06ff18dc915e9d70E9651C",
  "abi": [
    {
      "inputs": [
        {
          "internalType": "address",
          "name": "owner_",
          "type": "address"
        },
        {
          "internalType": "address",
          "name": "theReserve_",
          "type": "address"
        }
      ],
      "stateMutability": "nonpayable",
      "type": "constructor"
    },
    {
      "inputs": [],
      "name": "AccessControlBadConfirmation",
      "type": "error"
    },
    {
      "inputs": [
        {
          "internalType": "address",
          "name": "account",
          "type": "address"
        },
        {
          "internalType": "bytes32",
          "name": "neededRole",
          "type": "bytes32"
        }
      ],
      "name": "AccessControlUnauthorizedAccount",
      "type": "error"
    },
    {
      "inputs": [
        {
          "internalType": "uint256",
          "name": "slot",
          "type": "uint256"
        }
      ],
      "name": "AuctionNotEnabled",
      "type": "error"
    },
    {
      "inputs": [],
      "name": "DutchAuctionAlreadyInitialized",
      "type": "error"
    },
    {
      "inputs": [],
      "name": "DutchAuctionNotInitialized",
      "type": "error"
    },
    {
      "inputs": [],
      "name": "ReentrancyGuardReentrantCall",
      "type": "error"
    },
    {
      "inputs": [
        {
          "internalType": "address",
          "name": "token",
          "type": "address"
        }
      ],
      "name": "SafeERC20FailedOperation",
      "type": "error"
    },
    {
      "anonymous": false,
      "inputs": [
        {
          "indexed": false,
          "internalType": "uint256",
          "name": "lpNftTokenId",
          "type": "uint256"
        },
        {
          "indexed": false,
          "internalType": "uint256",
          "name": "gameTokenAmount",
          "type": "uint256"
        },
        {
          "indexed": false,
          "internalType": "uint256",
          "name": "assetTokenAmount",
          "type": "uint256"
        },
        {
          "indexed": true,
          "internalType": "address",
          "name": "initializer",
          "type": "address"
        },
        {
          "indexed": true,
          "internalType": "address",
          "name": "receiver",
          "type": "address"
        }
      ],
      "name": "AuctionInitialized",
      "type": "event"
    },
    {
      "anonymous": false,
      "inputs": [
        {
          "indexed": true,
          "internalType": "bytes32",
          "name": "role",
          "type": "bytes32"
        },
        {
          "indexed": true,
          "internalType": "bytes32",
          "name": "previousAdminRole",
          "type": "bytes32"
        },
        {
          "indexed": true,
          "internalType": "bytes32",
          "name": "newAdminRole",
          "type": "bytes32"
        }
      ],
      "name": "RoleAdminChanged",
      "type": "event"
    },
    {
      "anonymous": false,
      "inputs": [
        {
          "indexed": true,
          "internalType": "bytes32",
          "name": "role",
          "type": "bytes32"
        },
        {
          "indexed": true,
          "internalType": "address",
          "name": "account",
          "type": "address"
        },
        {
          "indexed": true,
          "internalType": "address",
          "name": "sender",
          "type": "address"
        }
      ],
      "name": "RoleGranted",
      "type": "event"
    },
    {
      "anonymous": false,
      "inputs": [
        {
          "indexed": true,
          "internalType": "bytes32",
          "name": "role",
          "type": "bytes32"
        },
        {
          "indexed": true,
          "internalType": "address",
          "name": "account",
          "type": "address"
        },
        {
          "indexed": true,
          "internalType": "address",
          "name": "sender",
          "type": "address"
        }
      ],
      "name": "RoleRevoked",
      "type": "event"
    },
    {
      "inputs": [],
      "name": "DEFAULT_ADMIN_ROLE",
      "outputs": [
        {
          "internalType": "bytes32",
          "name": "",
          "type": "bytes32"
        }
      ],
      "stateMutability": "view",
      "type": "function"
    },
    {
      "inputs": [],
      "name": "getAuctionCount",
      "outputs": [
        {
          "internalType": "uint32",
          "name": "",
          "type": "uint32"
        }
      ],
      "stateMutability": "view",
      "type": "function"
    },
    {
      "inputs": [],
      "name": "getAuctionSettings",
      "outputs": [
        {
          "components": [
            {
              "internalType": "uint256",
              "name": "priceDecayRate",
              "type": "uint256"
            },
            {
              "internalType": "uint256",
              "name": "mintDustAmount",
              "type": "uint256"
            },
            {
              "internalType": "uint256",
              "name": "priceIncrement",
              "type": "uint256"
            },
            {
              "internalType": "uint256",
              "name": "initialPriceBips",
              "type": "uint256"
            },
            {
              "internalType": "uint256",
              "name": "minPriceBips",
              "type": "uint256"
            },
            {
              "internalType": "uint256",
              "name": "maxPriceBips",
              "type": "uint256"
            }
          ],
          "internalType": "struct IDutchAuctionState.AuctionSettings",
          "name": "",
          "type": "tuple"
        }
      ],
      "stateMutability": "view",
      "type": "function"
    },
    {
      "inputs": [
        {
          "internalType": "uint256",
          "name": "lpNftTokenId",
          "type": "uint256"
        }
      ],
      "name": "getAuctionState",
      "outputs": [
        {
          "components": [
            {
              "internalType": "uint256",
              "name": "lpNftTokenId",
              "type": "uint256"
            },
            {
              "internalType": "uint256",
              "name": "startPriceBips",
              "type": "uint256"
            },
            {
              "internalType": "uint256",
              "name": "endPriceBips",
              "type": "uint256"
            },
            {
              "internalType": "uint256",
              "name": "startTime",
              "type": "uint256"
            },
            {
              "internalType": "uint256",
              "name": "salePrice",
              "type": "uint256"
            }
          ],
          "internalType": "struct IDutchAuctionState.AuctionState",
          "name": "",
          "type": "tuple"
        }
      ],
      "stateMutability": "view",
      "type": "function"
    },
    {
      "inputs": [],
      "name": "getBureauState",
      "outputs": [
        {
          "components": [
            {
              "internalType": "uint256",
              "name": "totalAuctions",
              "type": "uint256"
            },
            {
              "internalType": "uint256",
              "name": "lastSalePriceBips",
              "type": "uint256"
            }
          ],
          "internalType": "struct IDutchAuctionState.BureauState",
          "name": "",
          "type": "tuple"
        }
      ],
      "stateMutability": "view",
      "type": "function"
    },
    {
      "inputs": [],
      "name": "getCurrentAuctionCount",
      "outputs": [
        {
          "internalType": "uint256",
          "name": "",
          "type": "uint256"
        }
      ],
      "stateMutability": "view",
      "type": "function"
    },
    {
      "inputs": [],
      "name": "getCurrentAuctionStates",
      "outputs": [
        {
          "components": [
            {
              "internalType": "uint256",
              "name": "lpNftTokenId",
              "type": "uint256"
            },
            {
              "internalType": "uint256",
              "name": "startPriceBips",
              "type": "uint256"
            },
            {
              "internalType": "uint256",
              "name": "endPriceBips",
              "type": "uint256"
            },
            {
              "internalType": "uint256",
              "name": "startTime",
              "type": "uint256"
            },
            {
              "internalType": "uint256",
              "name": "salePrice",
              "type": "uint256"
            }
          ],
          "internalType": "struct IDutchAuctionState.AuctionState[]",
          "name": "",
          "type": "tuple[]"
        }
      ],
      "stateMutability": "view",
      "type": "function"
    },
    {
      "inputs": [],
      "name": "getCurrentAuctions",
      "outputs": [
        {
          "internalType": "uint256[]",
          "name": "",
          "type": "uint256[]"
        }
      ],
      "stateMutability": "view",
      "type": "function"
    },
    {
      "inputs": [
        {
          "internalType": "uint256",
          "name": "lpNftTokenId",
          "type": "uint256"
        }
      ],
      "name": "getCurrentPriceBips",
      "outputs": [
        {
          "internalType": "uint256",
          "name": "currentPriceBips",
          "type": "uint256"
        }
      ],
      "stateMutability": "view",
      "type": "function"
    },
    {
      "inputs": [
        {
          "internalType": "bytes32",
          "name": "role",
          "type": "bytes32"
        }
      ],
      "name": "getRoleAdmin",
      "outputs": [
        {
          "internalType": "bytes32",
          "name": "",
          "type": "bytes32"
        }
      ],
      "stateMutability": "view",
      "type": "function"
    },
    {
      "inputs": [
        {
          "internalType": "bytes32",
          "name": "role",
          "type": "bytes32"
        },
        {
          "internalType": "address",
          "name": "account",
          "type": "address"
        }
      ],
      "name": "grantRole",
      "outputs": [],
      "stateMutability": "nonpayable",
      "type": "function"
    },
    {
      "inputs": [
        {
          "internalType": "bytes32",
          "name": "role",
          "type": "bytes32"
        },
        {
          "internalType": "address",
          "name": "account",
          "type": "address"
        }
      ],
      "name": "hasRole",
      "outputs": [
        {
          "internalType": "bool",
          "name": "",
          "type": "bool"
        }
      ],
      "stateMutability": "view",
      "type": "function"
    },
    {
      "inputs": [
        {
          "internalType": "uint256",
          "name": "pow1Amount",
          "type": "uint256"
        },
        {
          "internalType": "uint256",
          "name": "marketTokenAmount",
          "type": "uint256"
        },
        {
          "internalType": "address",
          "name": "receiver",
          "type": "address"
        }
      ],
      "name": "initialize",
      "outputs": [
        {
          "internalType": "uint256",
          "name": "nftTokenId",
          "type": "uint256"
        }
      ],
      "stateMutability": "nonpayable",
      "type": "function"
    },
    {
      "inputs": [],
      "name": "isInitialized",
      "outputs": [
        {
          "internalType": "bool",
          "name": "",
          "type": "bool"
        }
      ],
      "stateMutability": "view",
      "type": "function"
    },
    {
      "inputs": [],
      "name": "lpSft",
      "outputs": [
        {
          "internalType": "contract ILPSFT",
          "name": "",
          "type": "address"
        }
      ],
      "stateMutability": "view",
      "type": "function"
    },
    {
      "inputs": [],
      "name": "marketStableSwapper",
      "outputs": [
        {
          "internalType": "contract IMarketStableSwapper",
          "name": "",
          "type": "address"
        }
      ],
      "stateMutability": "view",
      "type": "function"
    },
    {
      "inputs": [],
      "name": "marketToken",
      "outputs": [
        {
          "internalType": "contract IERC20",
          "name": "",
          "type": "address"
        }
      ],
      "stateMutability": "view",
      "type": "function"
    },
    {
      "inputs": [
        {
          "internalType": "address",
          "name": "",
          "type": "address"
        },
        {
          "internalType": "address",
          "name": "",
          "type": "address"
        },
        {
          "internalType": "uint256[]",
          "name": "",
          "type": "uint256[]"
        },
        {
          "internalType": "uint256[]",
          "name": "",
          "type": "uint256[]"
        },
        {
          "internalType": "bytes",
          "name": "",
          "type": "bytes"
        }
      ],
      "name": "onERC1155BatchReceived",
      "outputs": [
        {
          "internalType": "bytes4",
          "name": "",
          "type": "bytes4"
        }
      ],
      "stateMutability": "nonpayable",
      "type": "function"
    },
    {
      "inputs": [
        {
          "internalType": "address",
          "name": "",
          "type": "address"
        },
        {
          "internalType": "address",
          "name": "",
          "type": "address"
        },
        {
          "internalType": "uint256",
          "name": "",
          "type": "uint256"
        },
        {
          "internalType": "uint256",
          "name": "",
          "type": "uint256"
        },
        {
          "internalType": "bytes",
          "name": "",
          "type": "bytes"
        }
      ],
      "name": "onERC1155Received",
      "outputs": [
        {
          "internalType": "bytes4",
          "name": "",
          "type": "bytes4"
        }
      ],
      "stateMutability": "nonpayable",
      "type": "function"
    },
    {
      "inputs": [
        {
          "internalType": "address",
          "name": "",
          "type": "address"
        },
        {
          "internalType": "address",
          "name": "",
          "type": "address"
        },
        {
          "internalType": "uint256",
          "name": "",
          "type": "uint256"
        },
        {
          "internalType": "bytes",
          "name": "",
          "type": "bytes"
        }
      ],
      "name": "onERC721Received",
      "outputs": [
        {
          "internalType": "bytes4",
          "name": "",
          "type": "bytes4"
        }
      ],
      "stateMutability": "nonpayable",
      "type": "function"
    },
    {
      "inputs": [],
      "name": "pow1LpNftStakeFarm",
      "outputs": [
        {
          "internalType": "contract ILPNFTStakeFarm",
          "name": "",
          "type": "address"
        }
      ],
      "stateMutability": "view",
      "type": "function"
    },
    {
      "inputs": [],
      "name": "pow1MarketPool",
      "outputs": [
        {
          "internalType": "contract IUniswapV3Pool",
          "name": "",
          "type": "address"
        }
      ],
      "stateMutability": "view",
      "type": "function"
    },
    {
      "inputs": [],
      "name": "pow1MarketPooler",
      "outputs": [
        {
          "internalType": "contract IGameTokenPooler",
          "name": "",
          "type": "address"
        }
      ],
      "stateMutability": "view",
      "type": "function"
    },
    {
      "inputs": [],
      "name": "pow1MarketSwapper",
      "outputs": [
        {
          "internalType": "contract IGameTokenSwapper",
          "name": "",
          "type": "address"
        }
      ],
      "stateMutability": "view",
      "type": "function"
    },
    {
      "inputs": [],
      "name": "pow1Token",
      "outputs": [
        {
          "internalType": "contract IERC20",
          "name": "",
          "type": "address"
        }
      ],
      "stateMutability": "view",
      "type": "function"
    },
    {
      "inputs": [],
      "name": "pow5StableSwapper",
      "outputs": [
        {
          "internalType": "contract IGameTokenSwapper",
          "name": "",
          "type": "address"
        }
      ],
      "stateMutability": "view",
      "type": "function"
    },
    {
      "inputs": [],
      "name": "pow5Token",
      "outputs": [
        {
          "internalType": "contract IERC20",
          "name": "",
          "type": "address"
        }
      ],
      "stateMutability": "view",
      "type": "function"
    },
    {
      "inputs": [
        {
          "internalType": "uint256",
          "name": "lpNftTokenId",
          "type": "uint256"
        },
        {
          "internalType": "uint256",
          "name": "pow1Amount",
          "type": "uint256"
        },
        {
          "internalType": "uint256",
          "name": "marketTokenAmount",
          "type": "uint256"
        },
        {
          "internalType": "address",
          "name": "beneficiary",
          "type": "address"
        },
        {
          "internalType": "address",
          "name": "receiver",
          "type": "address"
        }
      ],
      "name": "purchase",
      "outputs": [],
      "stateMutability": "nonpayable",
      "type": "function"
    },
    {
      "inputs": [
        {
          "internalType": "bytes32",
          "name": "role",
          "type": "bytes32"
        },
        {
          "internalType": "address",
          "name": "callerConfirmation",
          "type": "address"
        }
      ],
      "name": "renounceRole",
      "outputs": [],
      "stateMutability": "nonpayable",
      "type": "function"
    },
    {
      "inputs": [
        {
          "internalType": "bytes32",
          "name": "role",
          "type": "bytes32"
        },
        {
          "internalType": "address",
          "name": "account",
          "type": "address"
        }
      ],
      "name": "revokeRole",
      "outputs": [],
      "stateMutability": "nonpayable",
      "type": "function"
    },
    {
      "inputs": [
        {
          "internalType": "uint32",
          "name": "auctionCount",
          "type": "uint32"
        },
        {
          "internalType": "uint256",
          "name": "marketTokenDust",
          "type": "uint256"
        }
      ],
      "name": "setAuctionCount",
      "outputs": [],
      "stateMutability": "nonpayable",
      "type": "function"
    },
    {
      "inputs": [],
      "name": "stableToken",
      "outputs": [
        {
          "internalType": "contract IERC20",
          "name": "",
          "type": "address"
        }
      ],
      "stateMutability": "view",
      "type": "function"
    },
    {
      "inputs": [
        {
          "internalType": "bytes4",
          "name": "interfaceId",
          "type": "bytes4"
        }
      ],
      "name": "supportsInterface",
      "outputs": [
        {
          "internalType": "bool",
          "name": "",
          "type": "bool"
        }
      ],
      "stateMutability": "view",
      "type": "function"
    },
    {
      "inputs": [],
      "name": "uniswapV3NftManager",
      "outputs": [
        {
          "internalType": "contract INonfungiblePositionManager",
          "name": "",
          "type": "address"
        }
      ],
      "stateMutability": "view",
      "type": "function"
    }
  ],
  "transactionHash": "0xfd2ef0cdc1193b8435d830709e1be110c3e5fd9fe40c698f687127166ca360a0",
  "args": [
    "0x5Eb8d8a368B1F1A9de0c2E489e270d7AFD389C3C",
    "0xDa87C152723FA5d88D499D1722a2739c5cDaD9Ac"
  ],
  "numDeployments": 1,
  "solcInputHash": "9eaa9fa15edb9065feab4ae045ea31f5",
  "bytecode": "0x60806040526019805460ff1916905534801561001a57600080fd5b50604051613cb3380380613cb383398101604081905261003991610411565b81816001600160a01b0316637e9280726040518163ffffffff1660e01b81526004016102e060405180830381865afa158015610079573d6000803e3d6000fd5b505050506040513d601f19601f8201168201806040525081019061009d9190610492565b600180558051600280546001600160a01b03199081166001600160a01b0393841617909155602083015160038054831691841691909117905560408301516004805483169184169190911790556060830151600580548316918416919091179055608083015160068054831691841691909117905560a083015160078054831691841691909117905560c083015160088054831691841691909117905560e0830151600980548316918416919091179055610100830151600a80548316918416919091179055610120830151600b80548316918416919091179055610140830151600c80548316918416919091179055610160830151600d80548316918416919091179055610180830151600e805483169184169190911790556101a0830151600f805483169184169190911790556101c08301516010805483169184169190911790556101e08301516011805483169184169190911790556102008301516012805483169184169190911790556102208301516013805483169184169190911790556102408301516014805483169184169190911790556102608301516015805483169184169190911790556102808301516016805483169184169190911790556102a08301516017805483169184169190911790556102c090920151601880549093169082161790915581166102cb5760405162461bcd60e51b815260206004820152600d60248201526c24b73b30b634b21037bbb732b960991b604482015260640160405180910390fd5b6102d660008261034d565b50506040805160c08101825265af1d364e18008082526103e86020808401829052670de0b6b3a764000094840185905265b5e620f4800060608501819052655af3107a40006080860181905260a0909501869052601c93909355601d91909155601e849055601f9190915555602155506106559050565b6000828152602081815260408083206001600160a01b038516845290915281205460ff166103ef576000838152602081815260408083206001600160a01b03861684529091529020805460ff191660011790556103a73390565b6001600160a01b0316826001600160a01b0316847f2f8788117e7eff1d82e926ec794901d17c78024a50270940304540a733656f0d60405160405180910390a45060016103f3565b5060005b92915050565b6001600160a01b038116811461040e57600080fd5b50565b6000806040838503121561042457600080fd5b825161042f816103f9565b6020840151909250610440816103f9565b809150509250929050565b6040516102e081016001600160401b038111828210171561047c57634e487b7160e01b600052604160045260246000fd5b60405290565b805161048d816103f9565b919050565b60006102e08284031280156104a657600080fd5b506104af61044b565b6104b883610482565b81526104c660208401610482565b60208201526104d760408401610482565b60408201526104e860608401610482565b60608201526104f960808401610482565b608082015261050a60a08401610482565b60a082015261051b60c08401610482565b60c082015261052c60e08401610482565b60e082015261053e6101008401610482565b6101008201526105516101208401610482565b6101208201526105646101408401610482565b6101408201526105776101608401610482565b61016082015261058a6101808401610482565b61018082015261059d6101a08401610482565b6101a08201526105b06101c08401610482565b6101c08201526105c36101e08401610482565b6101e08201526105d66102008401610482565b6102008201526105e96102208401610482565b6102208201526105fc6102408401610482565b61024082015261060f6102608401610482565b6102608201526106226102808401610482565b6102808201526106356102a08401610482565b6102a08201526106486102c08401610482565b6102c08201529392505050565b61364f806106646000396000f3fe608060405234801561001057600080fd5b50600436106102065760003560e01c8063949f5d201161011a578063c44e6640116100ad578063d58258f21161007c578063d58258f2146104ce578063d92aa38e146104e3578063e0299822146104f6578063f23a6e6114610507578063f2ac024b1461052657600080fd5b8063c44e664014610476578063c81fcc9514610499578063cbb43836146104aa578063d547741f146104bb57600080fd5b8063a9d75b2b116100e9578063a9d75b2b14610422578063ad48d61114610433578063bc197c8114610444578063c430694f1461046357600080fd5b8063949f5d20146103e5578063a1abfd95146103f6578063a217fddf14610407578063a6ab36f21461040f57600080fd5b80632f2ff15d1161019d578063392e53cd1161016c578063392e53cd1461038e5780633cc7385b146103995780635be53e74146103aa57806391d14854146103bf57806392a91789146103d257600080fd5b80632f2ff15d146103445780632f8331821461035957806336568abe1461036a5780633721d4ae1461037d57600080fd5b80631753dec7116101d95780631753dec7146102af57806320bcb25d146102ed578063248a9ca31461030257806324d7197a1461033357600080fd5b806301ffc9a71461020b57806309881007146102335780630e07cfca14610253578063150b7a0214610278575b600080fd5b61021e610219366004612d7f565b61052e565b60405190151581526020015b60405180910390f35b610246610241366004612da9565b61053f565b60405161022a9190612dc2565b600b546001600160a01b03165b6040516001600160a01b03909116815260200161022a565b610296610286366004612ec7565b630a85bd0160e11b949350505050565b6040516001600160e01b0319909116815260200161022a565b604080518082018252600080825260209182015281518083018352601a54808252601b5491830191825283519081529051918101919091520161022a565b6102f56105c0565b60405161022a9190612f33565b610325610310366004612da9565b60009081526020819052604090206001015490565b60405190815260200161022a565b6013546001600160a01b0316610260565b610357610352366004612f76565b610639565b005b6011546001600160a01b0316610260565b610357610378366004612f76565b610664565b6010546001600160a01b0316610260565b60195460ff1661021e565b600f546001600160a01b0316610260565b6103b261069c565b60405161022a9190612fa6565b61021e6103cd366004612f76565b610735565b6103576103e0366004612fe9565b61075e565b6003546001600160a01b0316610260565b6009546001600160a01b0316610260565b610325600081565b61032561041d36600461303f565b61113e565b6008546001600160a01b0316610260565b6007546001600160a01b0316610260565b6102966104523660046130f1565b63bc197c8160e01b95945050505050565b6103576104713660046131ab565b611637565b601954610100900463ffffffff1660405163ffffffff909116815260200161022a565b6018546001600160a01b0316610260565b600e546001600160a01b0316610260565b6103576104c9366004612f76565b6116e0565b6104d6611705565b60405161022a91906131e0565b6103256104f1366004612da9565b611826565b6002546001600160a01b0316610260565b61029661051536600461324e565b63f23a6e6160e01b95945050505050565b601a54610325565b6000610539826119cb565b92915050565b6105716040518060a0016040528060008152602001600081526020016000815260200160008152602001600081525090565b50600090815260246020908152604091829020825160a0810184528154815260018201549281019290925260028101549282019290925260038201546060820152600490910154608082015290565b6105f96040518060c001604052806000815260200160008152602001600081526020016000815260200160008152602001600081525090565b506040805160c081018252601c548152601d54602080830191909152601e5492820192909252601f5460608201529054608082015260215460a082015290565b600082815260208190526040902060010154610654816119f6565b61065e8383611a03565b50505050565b6001600160a01b038116331461068d5760405163334bd91960e11b815260040160405180910390fd5b6106978282611a95565b505050565b606060006106aa6022611b00565b905060008167ffffffffffffffff8111156106c7576106c7612e10565b6040519080825280602002602001820160405280156106f0578160200160208202803683370190505b50905060005b8281101561072e57610709602282611b0a565b82828151811061071b5761071b6132ab565b60209081029190910101526001016106f6565b5092915050565b6000918252602082815260408084206001600160a01b0393909316845291905290205460ff1690565b610766611b16565b846000036107af5760405162461bcd60e51b8152602060048201526011602482015270125b9d985b1a590813140b539195081251607a1b60448201526064015b60405180910390fd5b60008411806107be5750600083115b6107fc5760405162461bcd60e51b815260206004820152600f60248201526e125b9d985b1a59081c185e5b595b9d608a1b60448201526064016107a6565b6001600160a01b0382166108485760405162461bcd60e51b8152602060048201526013602482015272496e76616c69642062656e656669636961727960681b60448201526064016107a6565b6001600160a01b0381166108915760405162461bcd60e51b815260206004820152601060248201526f24b73b30b634b2103932b1b2b4bb32b960811b60448201526064016107a6565b600085815260246020526040812080549091036108e65760405162461bcd60e51b81526020600482015260136024820152724c502d4e4654206e6f7420666f722073616c6560681b60448201526064016107a6565b60048101541561092f5760405162461bcd60e51b8152602060048201526014602482015273105d58dd1a5bdb88185b1c9958591e481cdbdb1960621b60448201526064016107a6565b600061093a87611826565b601b819055600483018190559050851561096657610966336002546001600160a01b0316903089611b40565b841561098457610984336007546001600160a01b0316903088611b40565b85856000670de0b6b3a764000061099b85856132d7565b6109a59190613304565b90506000670de0b6b3a76400006109bc868b6132d7565b6109c69190613304565b905060008211806109d75750600081115b610a125760405162461bcd60e51b815260206004820152600c60248201526b496e76616c6964207469707360a01b60448201526064016107a6565b8115610a3c57600254610a2f906001600160a01b03168984611ba7565b610a398285613326565b93505b8015610a6657600754610a59906001600160a01b03168983611ba7565b610a638184613326565b92505b5050600b546040805163ddca3f4360e01b815290516000926001600160a01b03169163ddca3f439160048083019260209291908290030181865afa158015610ab2573d6000803e3d6000fd5b505050506040513d601f19601f82011682018060405250810190610ad69190613351565b905082600003610c2d57600754600b546040516370a0823160e01b81526001600160a01b03918216600482015260009291909116906370a0823190602401602060405180830381865afa158015610b31573d6000803e3d6000fd5b505050506040513d601f19601f82011682018060405250810190610b55919061336c565b90506000610b64828585611bd8565b905083811115610b865760405162461bcd60e51b81526004016107a690613385565b600e54600754610ba3916001600160a01b03918216911683611cc6565b600e54604051636aa8f93560e01b8152600481018390523060248201526001600160a01b0390911690636aa8f935906044016020604051808303816000875af1158015610bf4573d6000803e3d6000fd5b505050506040513d601f19601f82011682018060405250810190610c18919061336c565b9450610c248185613326565b93505050610d7e565b81600003610d7e57600254600b546040516370a0823160e01b81526001600160a01b03918216600482015260009291909116906370a0823190602401602060405180830381865afa158015610c86573d6000803e3d6000fd5b505050506040513d601f19601f82011682018060405250810190610caa919061336c565b90506000610cb9828685611bd8565b905084811115610cdb5760405162461bcd60e51b81526004016107a690613385565b600e54600254610cf8916001600160a01b03918216911683611cc6565b600e546040516301952d0960e31b8152600481018390523060248201526001600160a01b0390911690630ca96848906044016020604051808303816000875af1158015610d49573d6000803e3d6000fd5b505050506040513d601f19601f82011682018060405250810190610d6d919061336c565b9350610d798186613326565b945050505b601d548084118015610d8f57508083115b610dd15760405162461bcd60e51b8152602060048201526013602482015272139bdd08195b9bdd59da08199bdc88191d5cdd606a1b60448201526064016107a6565b610ddc60228c611d50565b610e1c5760405162461bcd60e51b8152602060048201526011602482015270105d58dd1a5bdb881b9bdd08199bdd5b99607a1b60448201526064016107a6565b6000610e288283611d5c565b9050610e3381612121565b8415610e5657601854600254610e56916001600160a01b03918216911687611cc6565b8315610e7957601854600754610e79916001600160a01b03918216911686611cc6565b6018546040805160c081019091528d81526007546002546001600160a01b039384169363219f5d1793926020840192908216911610610eb85787610eba565b885b81526007546002546020909201916001600160a01b03918216911610610ee05788610ee2565b875b81526020016000815260200160008152602001428152506040518263ffffffff1660e01b8152600401610f159190612f33565b6060604051808303816000875af1158015610f34573d6000803e3d6000fd5b505050506040513d601f19601f82011682018060405250810190610f5891906133c8565b505050600260160160009054906101000a90046001600160a01b03166001600160a01b031663b88d4fde30600260110160009054906101000a90046001600160a01b03168f6040518463ffffffff1660e01b8152600401610fe9939291906001600160a01b039384168152919092166020820152604081019190915260806060820181905260009082015260a00190565b600060405180830381600087803b15801561100357600080fd5b505af1158015611017573d6000803e3d6000fd5b50505050600260070160009054906101000a90046001600160a01b03166001600160a01b031663f242432a308a8f60016040518563ffffffff1660e01b815260040161106694939291906133fd565b600060405180830381600087803b15801561108057600080fd5b505af1158015611094573d6000803e3d6000fd5b50506007546040516370a0823160e01b8152306004820152600093506001600160a01b0390911691506370a0823190602401602060405180830381865afa1580156110e3573d6000803e3d6000fd5b505050506040513d601f19601f82011682018060405250810190611107919061336c565b9050801561112657600754611126906001600160a01b03163383611ba7565b505050505050505061113760018055565b5050505050565b6000611148611b16565b61115260006119f6565b600084116111985760405162461bcd60e51b8152602060048201526013602482015272125b9d985b1a59081413d5cc48185b5bdd5b9d606a1b60448201526064016107a6565b600083116111e05760405162461bcd60e51b8152602060048201526015602482015274125b9d985b1a59081b585c9ad95d08185b5bdd5b9d605a1b60448201526064016107a6565b6001600160a01b0382166112295760405162461bcd60e51b815260206004820152601060248201526f24b73b30b634b2103932b1b2b4bb32b960811b60448201526064016107a6565b60195460ff16156112725760405162461bcd60e51b8152602060048201526013602482015272105b1c9958591e481a5b9a5d1a585b1a5e9959606a1b60448201526064016107a6565b6019805460ff1916600117905561129d6112893390565b6002546001600160a01b0316903087611b40565b6112b6335b6007546001600160a01b0316903086611b40565b6011546002546112d3916001600160a01b03918216911686611cc6565b6011546007546112f0916001600160a01b03918216911685611cc6565b6011546040516326c662b160e11b815260048101869052602481018590523060448201526001600160a01b0390911690634d8cc562906064016020604051808303816000875af1158015611348573d6000803e3d6000fd5b505050506040513d601f19601f8201168201806040525081019061136c919061336c565b601854601354604051635c46a7ef60e11b81523060048201526001600160a01b039182166024820152604481018490526080606482015260006084820152929350169063b88d4fde9060a401600060405180830381600087803b1580156113d257600080fd5b505af11580156113e6573d6000803e3d6000fd5b50506009546040516308bb76a560e01b815260048101859052600093506001600160a01b0390911691506308bb76a590602401602060405180830381865afa158015611436573d6000803e3d6000fd5b505050506040513d601f19601f8201168201806040525081019061145a9190613440565b90506001600160a01b0381166114a35760405162461bcd60e51b815260206004820152600e60248201526d125b9d985b1a590813140b54d19560921b60448201526064016107a6565b6002546040516370a0823160e01b81523060048201526000916001600160a01b0316906370a0823190602401602060405180830381865afa1580156114ec573d6000803e3d6000fd5b505050506040513d601f19601f82011682018060405250810190611510919061336c565b9050801561152f5760025461152f906001600160a01b03168383611ba7565b6007546040516370a0823160e01b81523060048201526000916001600160a01b0316906370a0823190602401602060405180830381865afa158015611578573d6000803e3d6000fd5b505050506040513d601f19601f8201168201806040525081019061159c919061336c565b905080156115bb576007546115bb906001600160a01b03168683611ba7565b600954604051637921219560e11b81526001600160a01b039091169063f242432a906115f2903090899089906001906004016133fd565b600060405180830381600087803b15801561160c57600080fd5b505af1158015611620573d6000803e3d6000fd5b5050505050505061163060018055565b9392505050565b61164160006119f6565b60195460ff166116855760405162461bcd60e51b815260206004820152600f60248201526e139bdd081a5b9a5d1a585b1a5e9959608a1b60448201526064016107a6565b6019805463ffffffff84811661010081810264ffffffff00198516179094559290910416908110156106975760006116bd828561345d565b90506116c8336112a2565b6116d88163ffffffff16846121ec565b61065e6124b9565b6000828152602081905260409020600101546116fb816119f6565b61065e8383611a95565b606060006117136022611b00565b905060008167ffffffffffffffff81111561173057611730612e10565b60405190808252806020026020018201604052801561179357816020015b6117806040518060a0016040528060008152602001600081526020016000815260200160008152602001600081525090565b81526020019060019003908161174e5790505b50905060005b8281101561072e5760006117ae602283611b0a565b9050602460008281526020019081526020016000206040518060a001604052908160008201548152602001600182015481526020016002820154815260200160038201548152602001600482015481525050838381518110611812576118126132ab565b602090810291909101015250600101611799565b6000818152602460209081526040808320815160a0810183528154808252600183015494820194909452600282015492810192909252600381015460608301526004015460808201529083146118b45760405162461bcd60e51b81526020600482015260136024820152724c502d4e4654206e6f7420666f722073616c6560681b60448201526064016107a6565b6080810151156118fd5760405162461bcd60e51b8152602060048201526014602482015273105d58dd1a5bdb88185b1c9958591e481cdbdb1960621b60448201526064016107a6565b60008160600151116119475760405162461bcd60e51b8152602060048201526013602482015272105d58dd1a5bdb881b9bdd081cdd185c9d1959606a1b60448201526064016107a6565b60008160600151426119599190613326565b601c54909150670de0b6b3a764000082029060006119778284612652565b61198090613479565b9050600061198d82612685565b602087015190915060006119a18284612652565b6040890151909150808212156119b9578099506119bd565b8199505b505050505050505050919050565b60006119d68261282e565b8061053957506001600160e01b031982166392a9178960e01b1492915050565b611a008133612859565b50565b6000611a0f8383610735565b611a8d576000838152602081815260408083206001600160a01b03861684529091529020805460ff19166001179055611a453390565b6001600160a01b0316826001600160a01b0316847f2f8788117e7eff1d82e926ec794901d17c78024a50270940304540a733656f0d60405160405180910390a4506001610539565b506000610539565b6000611aa18383610735565b15611a8d576000838152602081815260408083206001600160a01b0386168085529252808320805460ff1916905551339286917ff6391f5c32d9c69d2a47ea670b442974b53935d1edc7fd64eb21e047a839171b9190a4506001610539565b6000610539825490565b60006116308383612892565b600260015403611b3957604051633ee5aeb560e01b815260040160405180910390fd5b6002600155565b6040516001600160a01b03848116602483015283811660448301526064820183905261065e9186918216906323b872dd906084015b604051602081830303815290604052915060e01b6020820180516001600160e01b0383818316178352505050506128bc565b6040516001600160a01b0383811660248301526044820183905261069791859182169063a9059cbb90606401611b75565b6000611bec62ffffff8316620f4240613326565b611bf79060026132d7565b84611c0a62ffffff8516621e8480613326565b611c1491906132d7565b611caa8686611c2b62ffffff8816620f4240613326565b611c39620f424060046132d7565b611c4391906132d7565b611c4d91906132d7565b611c5791906132d7565b8780611c6b62ffffff8916621e8480613326565b611c7d62ffffff8a16621e8480613326565b611c8791906132d7565b611c9191906132d7565b611c9b91906132d7565b611ca59190613495565b61292d565b611cb49190613326565b611cbe9190613304565b949350505050565b604051636eb1769f60e11b81523060048201526001600160a01b0383811660248301526000919085169063dd62ed3e90604401602060405180830381865afa158015611d16573d6000803e3d6000fd5b505050506040513d601f19601f82011682018060405250810190611d3a919061336c565b905061065e8484611d4b8585613495565b612a86565b60006116308383612b16565b6000808311611d975760405162461bcd60e51b81526020600482015260076024820152664e6f20504f573160c81b60448201526064016107a6565b60008211611dd95760405162461bcd60e51b815260206004820152600f60248201526e27379036b0b935b2ba103a37b5b2b760891b60448201526064016107a6565b601154600254611df6916001600160a01b03918216911685611cc6565b601154600754611e13916001600160a01b03918216911684611cc6565b6011546040516326c662b160e11b815260048101859052602481018490523060448201526001600160a01b0390911690634d8cc562906064016020604051808303816000875af1158015611e6b573d6000803e3d6000fd5b505050506040513d601f19601f82011682018060405250810190611e8f919061336c565b6018546040516331a9108f60e11b81526004810183905291925030916001600160a01b0390911690636352211e90602401602060405180830381865afa158015611edd573d6000803e3d6000fd5b505050506040513d601f19601f82011682018060405250810190611f019190613440565b6001600160a01b031614611f435760405162461bcd60e51b81526020600482015260096024820152682737ba1037bbb732b960b91b60448201526064016107a6565b60185460405163133f757160e31b8152600481018390526000916001600160a01b0316906399fbab889060240161018060405180830381865afa158015611f8e573d6000803e3d6000fd5b505050506040513d601f19601f82011682018060405250810190611fb291906134ba565b50506018546040805160a0810182528e81526001600160801b0386166020820152600081830181905260608201524260808201529051630624e65f60e11b8152949c506001600160a01b039091169a50630c49ccbe995061202198509650506004909101935061359c92505050565b60408051808303816000875af115801561203f573d6000803e3d6000fd5b505050506040513d601f19601f8201168201806040525081019061206391906135df565b50506018546040805160808101825284815230602082019081526001600160801b0382840181815260608401828152945163fc6f786560e01b81529351600485015291516001600160a01b0390811660248501529151811660448401529251909216606482015291169063fc6f78659060840160408051808303816000875af11580156120f4573d6000803e3d6000fd5b505050506040513d601f19601f8201168201806040525081019061211891906135df565b50505092915050565b600061212b612c09565b6040805160a0810182528481526020808201848152815483850190815242606085019081526000608086018181528a82526024909552958620855181559251600180850191909155915160028401555160038301559151600490910155601a8054949550919390929061219f908490613495565b909155506121b09050602284612c42565b6106975760405162461bcd60e51b815260206004820152600d60248201526c105b1c9958591e481859191959609a1b60448201526064016107a6565b600754600b546040516370a0823160e01b81526001600160a01b03918216600482015260009291909116906370a0823190602401602060405180830381865afa15801561223d573d6000803e3d6000fd5b505050506040513d601f19601f82011682018060405250810190612261919061336c565b90506000600260090160009054906101000a90046001600160a01b03166001600160a01b031663ddca3f436040518163ffffffff1660e01b8152600401602060405180830381865afa1580156122bb573d6000803e3d6000fd5b505050506040513d601f19601f820116820180604052508101906122df9190613351565b905060006122ee838584611bd8565b9050838111156123105760405162461bcd60e51b81526004016107a690613385565b600e5460075461232d916001600160a01b03918216911683611cc6565b600e54604051636aa8f93560e01b8152600481018390523060248201526001600160a01b0390911690636aa8f935906044016020604051808303816000875af115801561237e573d6000803e3d6000fd5b505050506040513d601f19601f820116820180604052508101906123a2919061336c565b5060005b858110156124b1576002546040516370a0823160e01b81523060048201526000916001600160a01b0316906370a0823190602401602060405180830381865afa1580156123f7573d6000803e3d6000fd5b505050506040513d601f19601f8201168201806040525081019061241b919061336c565b6007546040516370a0823160e01b81523060048201529192506000916001600160a01b03909116906370a0823190602401602060405180830381865afa158015612469573d6000803e3d6000fd5b505050506040513d601f19601f8201168201806040525081019061248d919061336c565b9050600061249b8383611d5c565b90506124a681612121565b5050506001016123a6565b505050505050565b6002546040516370a0823160e01b81523060048201526000916001600160a01b0316906370a0823190602401602060405180830381865afa158015612502573d6000803e3d6000fd5b505050506040513d601f19601f82011682018060405250810190612526919061336c565b905080156125c257600e5460025461254b916001600160a01b03918216911683611cc6565b600e546040516301952d0960e31b8152600481018390523060248201526001600160a01b0390911690630ca96848906044016020604051808303816000875af115801561259c573d6000803e3d6000fd5b505050506040513d601f19601f820116820180604052508101906125c0919061336c565b505b6007546040516370a0823160e01b81523060048201526000916001600160a01b0316906370a0823190602401602060405180830381865afa15801561260b573d6000803e3d6000fd5b505050506040513d601f19601f8201168201806040525081019061262f919061336c565b9050801561264e5761264e336007546001600160a01b03169083611ba7565b5050565b81810282158382058314176000198410600160ff1b8413171661267457600080fd5b670de0b6b3a7640000900592915050565b6000680248ce36a70cb26b3e1982136126a057506000919050565b680755bf798b4a1bf1e582126126e75760405162461bcd60e51b815260206004820152600c60248201526b4558505f4f564552464c4f5760a01b60448201526064016107a6565b6503782dace9d9604e83901b059150600060606bb17217f7d1cf79abc9e3b39884821b056001605f1b01901d6bb17217f7d1cf79abc9e3b39881029093036c240c330e9fb2d9cbaf0fd5aafb1981018102606090811d6d0277594991cfc85f6e2461837cd9018202811d6d1a521255e34f6a5061b25ef1c9c319018202811d6db1bbb201f443cf962f1a1d3db4a5018202811d6e02c72388d9f74f51a9331fed693f1419018202811d6e05180bb14799ab47a8a8cb2a527d57016d02d16720577bd19bf614176fe9ea6c10fe68e7fd37d0007b713f765084018402831d9081019084016d01d3967ed30fc4f89c02bab5708119010290911d6e0587f503bb6ea29d25fcb740196450019091026d360d7aeea093263ecc6e0ecb291760621b010574029d9dc38563c32e5c2f6dc192ee70ef65f9978af30260c3939093039290921c92915050565b600061283982612c4e565b8061053957506001600160e01b031982166309ffb6a360e41b1492915050565b6128638282610735565b61264e5760405163e2517d3f60e01b81526001600160a01b0382166004820152602481018390526044016107a6565b60008260000182815481106128a9576128a96132ab565b9060005260206000200154905092915050565b600080602060008451602086016000885af1806128df576040513d6000823e3d81fd5b50506000513d915081156128f7578060011415612904565b6001600160a01b0384163b155b1561065e57604051635274afe760e01b81526001600160a01b03851660048201526024016107a6565b60006001821161293b575090565b816001600160801b82106129545760809190911c9060401b5b68010000000000000000821061296f5760409190911c9060201b5b64010000000082106129865760209190911c9060101b5b62010000821061299b5760109190911c9060081b5b61010082106129af5760089190911c9060041b5b601082106129c25760049190911c9060021b5b600482106129ce5760011b5b600302600190811c908185816129e6576129e66132ee565b048201901c905060018185816129fe576129fe6132ee565b048201901c90506001818581612a1657612a166132ee565b048201901c90506001818581612a2e57612a2e6132ee565b048201901c90506001818581612a4657612a466132ee565b048201901c90506001818581612a5e57612a5e6132ee565b048201901c9050612a7d818581612a7757612a776132ee565b04821190565b90039392505050565b604080516001600160a01b038416602482015260448082018490528251808303909101815260649091019091526020810180516001600160e01b031663095ea7b360e01b179052612ad78482612c6e565b61065e576040516001600160a01b03848116602483015260006044830152612b0c91869182169063095ea7b390606401611b75565b61065e84826128bc565b60008181526001830160205260408120548015612bff576000612b3a600183613326565b8554909150600090612b4e90600190613326565b9050808214612bb3576000866000018281548110612b6e57612b6e6132ab565b9060005260206000200154905080876000018481548110612b9157612b916132ab565b6000918252602080832090910192909255918252600188019052604090208390555b8554869080612bc457612bc4613603565b600190038181906000526020600020016000905590558560010160008681526020019081526020016000206000905560019350505050610539565b6000915050610539565b601b54600090808203612c2057601f549150612c2e565b612c2b8160026132d7565b91505b602154821115612c3e5760215491505b5090565b60006116308383612cbd565b6000612c5982612d04565b806105395750506001600160e01b0319161590565b6000806000806020600086516020880160008a5af192503d91506000519050828015612cb357508115612ca45780600114612cb3565b6000866001600160a01b03163b115b9695505050505050565b6000818152600183016020526040812054611a8d57508154600181810184556000848152602080822090930184905584548482528286019093526040902091909155610539565b6000612d0f82612d4a565b80612d2a57506001600160e01b03198216630a85bd0160e11b145b8061053957506001600160e01b03198216634dc35def60e11b1492915050565b60006001600160e01b03198216630271189760e51b1480610539575063dc9c4ac960e01b6001600160e01b0319831614610539565b600060208284031215612d9157600080fd5b81356001600160e01b03198116811461163057600080fd5b600060208284031215612dbb57600080fd5b5035919050565b60a08101610539828480518252602081015160208301526040810151604083015260608101516060830152608081015160808301525050565b6001600160a01b0381168114611a0057600080fd5b634e487b7160e01b600052604160045260246000fd5b604051601f8201601f1916810167ffffffffffffffff81118282101715612e4f57612e4f612e10565b604052919050565b600082601f830112612e6857600080fd5b813567ffffffffffffffff811115612e8257612e82612e10565b612e95601f8201601f1916602001612e26565b818152846020838601011115612eaa57600080fd5b816020850160208301376000918101602001919091529392505050565b60008060008060808587031215612edd57600080fd5b8435612ee881612dfb565b93506020850135612ef881612dfb565b925060408501359150606085013567ffffffffffffffff811115612f1b57600080fd5b612f2787828801612e57565b91505092959194509250565b60c081016105398284805182526020810151602083015260408101516040830152606081015160608301526080810151608083015260a081015160a08301525050565b60008060408385031215612f8957600080fd5b823591506020830135612f9b81612dfb565b809150509250929050565b602080825282518282018190526000918401906040840190835b81811015612fde578351835260209384019390920191600101612fc0565b509095945050505050565b600080600080600060a0868803121561300157600080fd5b853594506020860135935060408601359250606086013561302181612dfb565b9150608086013561303181612dfb565b809150509295509295909350565b60008060006060848603121561305457600080fd5b8335925060208401359150604084013561306d81612dfb565b809150509250925092565b600082601f83011261308957600080fd5b813567ffffffffffffffff8111156130a3576130a3612e10565b8060051b6130b360208201612e26565b918252602081850181019290810190868411156130cf57600080fd5b6020860192505b83831015612cb35782358252602092830192909101906130d6565b600080600080600060a0868803121561310957600080fd5b853561311481612dfb565b9450602086013561312481612dfb565b9350604086013567ffffffffffffffff81111561314057600080fd5b61314c88828901613078565b935050606086013567ffffffffffffffff81111561316957600080fd5b61317588828901613078565b925050608086013567ffffffffffffffff81111561319257600080fd5b61319e88828901612e57565b9150509295509295909350565b600080604083850312156131be57600080fd5b823563ffffffff811681146131d257600080fd5b946020939093013593505050565b602080825282518282018190526000918401906040840190835b81811015612fde5761323883855180518252602081015160208301526040810151604083015260608101516060830152608081015160808301525050565b6020939093019260a092909201916001016131fa565b600080600080600060a0868803121561326657600080fd5b853561327181612dfb565b9450602086013561328181612dfb565b93506040860135925060608601359150608086013567ffffffffffffffff81111561319257600080fd5b634e487b7160e01b600052603260045260246000fd5b634e487b7160e01b600052601160045260246000fd5b8082028115828204841417610539576105396132c1565b634e487b7160e01b600052601260045260246000fd5b60008261332157634e487b7160e01b600052601260045260246000fd5b500490565b81810381811115610539576105396132c1565b805162ffffff8116811461334c57600080fd5b919050565b60006020828403121561336357600080fd5b61163082613339565b60006020828403121561337e57600080fd5b5051919050565b602080825260129082015271084c2c840d8d2e2ead2c8d2e8f240dac2e8d60731b604082015260600190565b80516001600160801b038116811461334c57600080fd5b6000806000606084860312156133dd57600080fd5b6133e6846133b1565b602085015160409095015190969495509392505050565b6001600160a01b0394851681529290931660208301526040820152606081019190915260a06080820181905260009082015260c00190565b805161334c81612dfb565b60006020828403121561345257600080fd5b815161163081612dfb565b63ffffffff8281168282160390811115610539576105396132c1565b6000600160ff1b820161348e5761348e6132c1565b5060000390565b80820180821115610539576105396132c1565b8051600281900b811461334c57600080fd5b6000806000806000806000806000806000806101808d8f0312156134dd57600080fd5b8c516bffffffffffffffffffffffff811681146134f957600080fd5b9b5061350760208e01613435565b9a5061351560408e01613435565b995061352360608e01613435565b985061353160808e01613339565b975061353f60a08e016134a8565b965061354d60c08e016134a8565b955061355b60e08e016133b1565b6101008e01516101208f01519196509450925061357b6101408e016133b1565b915061358a6101608e016133b1565b90509295989b509295989b509295989b565b600060a082019050825182526001600160801b03602084015116602083015260408301516040830152606083015160608301526080830151608083015292915050565b600080604083850312156135f257600080fd5b505080516020909101519092909150565b634e487b7160e01b600052603160045260246000fdfea26469706673582212200f6c61aa6876b3fa1ba7828aeee5006ce2c99c155e7ee7f6466d1470b4fee33e64736f6c634300081c0033",
  "devdoc": {
    "errors": {
      "AccessControlBadConfirmation()": [
        {
          "details": "The caller of a function is not the expected one. NOTE: Don't confuse with {AccessControlUnauthorizedAccount}."
        }
      ],
      "AccessControlUnauthorizedAccount(address,bytes32)": [
        {
          "details": "The `account` is missing a role."
        }
      ],
      "ReentrancyGuardReentrantCall()": [
        {
          "details": "Unauthorized reentrant call."
        }
      ],
      "SafeERC20FailedOperation(address)": [
        {
          "details": "An operation with an ERC-20 token failed."
        }
      ]
    },
    "events": {
      "AuctionInitialized(uint256,uint256,uint256,address,address)": {
        "details": "Event to emit when the Bureau of the Dutch Auction is initialized",
        "params": {
          "assetTokenAmount": "The amount of asset tokens used to initialize the pool",
          "gameTokenAmount": "The amount of game tokens used to initialize the pool",
          "lpNftTokenId": "The token ID of the LP-NFT minted in the initialization",
          "receiver": "The address of the receiver of the LP-SFT holding the staked LP-NFT"
        }
      },
      "RoleAdminChanged(bytes32,bytes32,bytes32)": {
        "details": "Emitted when `newAdminRole` is set as ``role``'s admin role, replacing `previousAdminRole` `DEFAULT_ADMIN_ROLE` is the starting admin for all roles, despite {RoleAdminChanged} not being emitted signaling this."
      },
      "RoleGranted(bytes32,address,address)": {
        "details": "Emitted when `account` is granted `role`. `sender` is the account that originated the contract call. This account bears the admin role (for the granted role). Expected in cases where the role was granted using the internal {AccessControl-_grantRole}."
      },
      "RoleRevoked(bytes32,address,address)": {
        "details": "Emitted when `account` is revoked `role`. `sender` is the account that originated the contract call:   - if using `revokeRole`, it is the admin role bearer   - if using `renounceRole`, it is the role bearer (i.e. `account`)"
      }
    },
    "kind": "dev",
    "methods": {
      "constructor": {
        "details": "Initializes the Dutch Auction contract",
        "params": {
          "owner_": "The owner of the Dutch Auction",
          "theReserve_": "The Reserve smart contract"
        }
      },
      "getAuctionCount()": {
        "details": "See {IDutchAuctionAdminActions-getAuctionCount}"
      },
      "getAuctionSettings()": {
        "details": "See {IDutchAuctionState-getAuctionSettings}"
      },
      "getAuctionState(uint256)": {
        "details": "See {IDutchAuctionState-getAuctionState}"
      },
      "getBureauState()": {
        "details": "See {IDutchAuctionState-getBureauState}"
      },
      "getCurrentAuctionCount()": {
        "details": "See {IDutchAuctionState-getCurrentAuctionCount}"
      },
      "getCurrentAuctionStates()": {
        "details": "Returns the auction states of the current auctions",
        "returns": {
          "_0": "An array of AuctionState structs"
        }
      },
      "getCurrentAuctions()": {
        "details": "Returns the list of current LP-NFT token IDs on auction",
        "returns": {
          "_0": "An array of LP-NFT token IDs"
        }
      },
      "getCurrentPriceBips(uint256)": {
        "details": "See {IDutchAuctionState-getCurrentPrice}"
      },
      "getRoleAdmin(bytes32)": {
        "details": "Returns the admin role that controls `role`. See {grantRole} and {revokeRole}. To change a role's admin, use {_setRoleAdmin}."
      },
      "grantRole(bytes32,address)": {
        "details": "Grants `role` to `account`. If `account` had not been already granted `role`, emits a {RoleGranted} event. Requirements: - the caller must have ``role``'s admin role. May emit a {RoleGranted} event."
      },
      "hasRole(bytes32,address)": {
        "details": "Returns `true` if `account` has been granted `role`."
      },
      "initialize(uint256,uint256,address)": {
        "details": "See {IDutchAuction-initialize}"
      },
      "isInitialized()": {
        "details": "See {IDutchAuctionAdminActions-isInitialized}"
      },
      "lpSft()": {
        "details": "See {IDutchAuctionRoutes-lpSft}"
      },
      "marketStableSwapper()": {
        "details": "See {IDutchAuctionRoutes-marketStableSwapper}"
      },
      "marketToken()": {
        "details": "See {IDutchAuctionRoutes-marketToken}"
      },
      "onERC721Received(address,address,uint256,bytes)": {
        "details": "See {IERC721Receiver-onERC721Received}. Always returns `IERC721Receiver.onERC721Received.selector`."
      },
      "pow1LpNftStakeFarm()": {
        "details": "See {IDutchAuctionRoutes-pow1LpNftStakeFarm}"
      },
      "pow1MarketPool()": {
        "details": "See {IDutchAuctionRoutes-pow1MarketPool}"
      },
      "pow1MarketPooler()": {
        "details": "See {IDutchAuctionRoutes-pow1MarketPooler}"
      },
      "pow1MarketSwapper()": {
        "details": "See {IDutchAuctionRoutes-pow1MarketSwapper}"
      },
      "pow1Token()": {
        "details": "See {IDutchAuctionRoutes-pow1Token}"
      },
      "pow5StableSwapper()": {
        "details": "See {IDutchAuctionRoutes-pow5StableSwapper}"
      },
      "pow5Token()": {
        "details": "See {IDutchAuctionRoutes-pow5Token}"
      },
      "purchase(uint256,uint256,uint256,address,address)": {
        "details": "See {IDutchAuctionActions-purchase}"
      },
      "renounceRole(bytes32,address)": {
        "details": "Revokes `role` from the calling account. Roles are often managed via {grantRole} and {revokeRole}: this function's purpose is to provide a mechanism for accounts to lose their privileges if they are compromised (such as when a trusted device is misplaced). If the calling account had been revoked `role`, emits a {RoleRevoked} event. Requirements: - the caller must be `callerConfirmation`. May emit a {RoleRevoked} event."
      },
      "revokeRole(bytes32,address)": {
        "details": "Revokes `role` from `account`. If `account` had been granted `role`, emits a {RoleRevoked} event. Requirements: - the caller must have ``role``'s admin role. May emit a {RoleRevoked} event."
      },
      "setAuctionCount(uint32,uint256)": {
        "details": "See {IDutchAuctionAdminActions-setAuctionCount}"
      },
      "stableToken()": {
        "details": "See {IDutchAuctionRoutes-stableToken}"
      },
      "supportsInterface(bytes4)": {
        "details": "See {IERC165-supportsInterface}"
      },
      "uniswapV3NftManager()": {
        "details": "See {IDutchAuctionRoutes-uniswapV3NftManager}"
      }
    },
    "title": "Bureau of the Dutch Auction",
    "version": 1
  },
  "userdoc": {
    "kind": "user",
    "methods": {},
    "version": 1
  },
  "storageLayout": {
    "storage": [
      {
        "astId": 2343,
        "contract": "contracts/src/bureaucracy/dutchAuction/DutchAuction.sol:DutchAuction",
        "label": "_roles",
        "offset": 0,
        "slot": "0",
        "type": "t_mapping(t_bytes32,t_struct(RoleData)2338_storage)"
      },
      {
        "astId": 6439,
        "contract": "contracts/src/bureaucracy/dutchAuction/DutchAuction.sol:DutchAuction",
        "label": "_status",
        "offset": 0,
        "slot": "1",
        "type": "t_uint256"
      },
      {
        "astId": 19097,
        "contract": "contracts/src/bureaucracy/dutchAuction/DutchAuction.sol:DutchAuction",
        "label": "_routes",
        "offset": 0,
        "slot": "2",
        "type": "t_struct(Routes)24273_storage"
      },
      {
        "astId": 19321,
        "contract": "contracts/src/bureaucracy/dutchAuction/DutchAuction.sol:DutchAuction",
        "label": "_initialized",
        "offset": 0,
        "slot": "25",
        "type": "t_bool"
      },
      {
        "astId": 19324,
        "contract": "contracts/src/bureaucracy/dutchAuction/DutchAuction.sol:DutchAuction",
        "label": "_targetLpNftCount",
        "offset": 1,
        "slot": "25",
        "type": "t_uint32"
      },
      {
        "astId": 19327,
        "contract": "contracts/src/bureaucracy/dutchAuction/DutchAuction.sol:DutchAuction",
        "label": "_bureauState",
        "offset": 0,
        "slot": "26",
        "type": "t_struct(BureauState)24097_storage"
      },
      {
        "astId": 19330,
        "contract": "contracts/src/bureaucracy/dutchAuction/DutchAuction.sol:DutchAuction",
        "label": "_auctionSettings",
        "offset": 0,
        "slot": "28",
        "type": "t_struct(AuctionSettings)24092_storage"
      },
      {
        "astId": 19333,
        "contract": "contracts/src/bureaucracy/dutchAuction/DutchAuction.sol:DutchAuction",
        "label": "_currentAuctions",
        "offset": 0,
        "slot": "34",
        "type": "t_struct(UintSet)10641_storage"
      },
      {
        "astId": 19338,
        "contract": "contracts/src/bureaucracy/dutchAuction/DutchAuction.sol:DutchAuction",
        "label": "_auctionStates",
        "offset": 0,
        "slot": "36",
        "type": "t_mapping(t_uint256,t_struct(AuctionState)24108_storage)"
      }
    ],
    "types": {
      "t_address": {
        "encoding": "inplace",
        "label": "address",
        "numberOfBytes": "20"
      },
      "t_array(t_bytes32)dyn_storage": {
        "base": "t_bytes32",
        "encoding": "dynamic_array",
        "label": "bytes32[]",
        "numberOfBytes": "32"
      },
      "t_bool": {
        "encoding": "inplace",
        "label": "bool",
        "numberOfBytes": "1"
      },
      "t_bytes32": {
        "encoding": "inplace",
        "label": "bytes32",
        "numberOfBytes": "32"
      },
      "t_contract(IERC20)4496": {
        "encoding": "inplace",
        "label": "contract IERC20",
        "numberOfBytes": "20"
      },
      "t_contract(IGameTokenPooler)25132": {
        "encoding": "inplace",
        "label": "contract IGameTokenPooler",
        "numberOfBytes": "20"
      },
      "t_contract(IGameTokenSwapper)25198": {
        "encoding": "inplace",
        "label": "contract IGameTokenSwapper",
        "numberOfBytes": "20"
      },
      "t_contract(ILPNFTStakeFarm)24659": {
        "encoding": "inplace",
        "label": "contract ILPNFTStakeFarm",
        "numberOfBytes": "20"
      },
      "t_contract(ILPSFT)24844": {
        "encoding": "inplace",
        "label": "contract ILPSFT",
        "numberOfBytes": "20"
      },
      "t_contract(ILPSFTLendFarm)24697": {
        "encoding": "inplace",
        "label": "contract ILPSFTLendFarm",
        "numberOfBytes": "20"
      },
      "t_contract(IMarketStableSwapper)25266": {
        "encoding": "inplace",
        "label": "contract IMarketStableSwapper",
        "numberOfBytes": "20"
      },
      "t_contract(INOLPSFT)24860": {
        "encoding": "inplace",
        "label": "contract INOLPSFT",
        "numberOfBytes": "20"
      },
      "t_contract(INonfungiblePositionManager)16087": {
        "encoding": "inplace",
        "label": "contract INonfungiblePositionManager",
        "numberOfBytes": "20"
      },
      "t_contract(IUniV3StakeFarm)24729": {
        "encoding": "inplace",
        "label": "contract IUniV3StakeFarm",
        "numberOfBytes": "20"
      },
      "t_contract(IUniswapV3Factory)15337": {
        "encoding": "inplace",
        "label": "contract IUniswapV3Factory",
        "numberOfBytes": "20"
      },
      "t_contract(IUniswapV3Pool)15359": {
        "encoding": "inplace",
        "label": "contract IUniswapV3Pool",
        "numberOfBytes": "20"
      },
      "t_mapping(t_address,t_bool)": {
        "encoding": "mapping",
        "key": "t_address",
        "label": "mapping(address => bool)",
        "numberOfBytes": "32",
        "value": "t_bool"
      },
      "t_mapping(t_bytes32,t_struct(RoleData)2338_storage)": {
        "encoding": "mapping",
        "key": "t_bytes32",
        "label": "mapping(bytes32 => struct AccessControl.RoleData)",
        "numberOfBytes": "32",
        "value": "t_struct(RoleData)2338_storage"
      },
      "t_mapping(t_bytes32,t_uint256)": {
        "encoding": "mapping",
        "key": "t_bytes32",
        "label": "mapping(bytes32 => uint256)",
        "numberOfBytes": "32",
        "value": "t_uint256"
      },
      "t_mapping(t_uint256,t_struct(AuctionState)24108_storage)": {
        "encoding": "mapping",
        "key": "t_uint256",
        "label": "mapping(uint256 => struct IDutchAuctionState.AuctionState)",
        "numberOfBytes": "32",
        "value": "t_struct(AuctionState)24108_storage"
      },
      "t_struct(AuctionSettings)24092_storage": {
        "encoding": "inplace",
        "label": "struct IDutchAuctionState.AuctionSettings",
        "members": [
          {
            "astId": 24081,
            "contract": "contracts/src/bureaucracy/dutchAuction/DutchAuction.sol:DutchAuction",
            "label": "priceDecayRate",
            "offset": 0,
            "slot": "0",
            "type": "t_uint256"
          },
          {
            "astId": 24083,
            "contract": "contracts/src/bureaucracy/dutchAuction/DutchAuction.sol:DutchAuction",
            "label": "mintDustAmount",
            "offset": 0,
            "slot": "1",
            "type": "t_uint256"
          },
          {
            "astId": 24085,
            "contract": "contracts/src/bureaucracy/dutchAuction/DutchAuction.sol:DutchAuction",
            "label": "priceIncrement",
            "offset": 0,
            "slot": "2",
            "type": "t_uint256"
          },
          {
            "astId": 24087,
            "contract": "contracts/src/bureaucracy/dutchAuction/DutchAuction.sol:DutchAuction",
            "label": "initialPriceBips",
            "offset": 0,
            "slot": "3",
            "type": "t_uint256"
          },
          {
            "astId": 24089,
            "contract": "contracts/src/bureaucracy/dutchAuction/DutchAuction.sol:DutchAuction",
            "label": "minPriceBips",
            "offset": 0,
            "slot": "4",
            "type": "t_uint256"
          },
          {
            "astId": 24091,
            "contract": "contracts/src/bureaucracy/dutchAuction/DutchAuction.sol:DutchAuction",
            "label": "maxPriceBips",
            "offset": 0,
            "slot": "5",
            "type": "t_uint256"
          }
        ],
        "numberOfBytes": "192"
      },
      "t_struct(AuctionState)24108_storage": {
        "encoding": "inplace",
        "label": "struct IDutchAuctionState.AuctionState",
        "members": [
          {
            "astId": 24099,
            "contract": "contracts/src/bureaucracy/dutchAuction/DutchAuction.sol:DutchAuction",
            "label": "lpNftTokenId",
            "offset": 0,
            "slot": "0",
            "type": "t_uint256"
          },
          {
            "astId": 24101,
            "contract": "contracts/src/bureaucracy/dutchAuction/DutchAuction.sol:DutchAuction",
            "label": "startPriceBips",
            "offset": 0,
            "slot": "1",
            "type": "t_uint256"
          },
          {
            "astId": 24103,
            "contract": "contracts/src/bureaucracy/dutchAuction/DutchAuction.sol:DutchAuction",
            "label": "endPriceBips",
            "offset": 0,
            "slot": "2",
            "type": "t_uint256"
          },
          {
            "astId": 24105,
            "contract": "contracts/src/bureaucracy/dutchAuction/DutchAuction.sol:DutchAuction",
            "label": "startTime",
            "offset": 0,
            "slot": "3",
            "type": "t_uint256"
          },
          {
            "astId": 24107,
            "contract": "contracts/src/bureaucracy/dutchAuction/DutchAuction.sol:DutchAuction",
            "label": "salePrice",
            "offset": 0,
            "slot": "4",
            "type": "t_uint256"
          }
        ],
        "numberOfBytes": "160"
      },
      "t_struct(BureauState)24097_storage": {
        "encoding": "inplace",
        "label": "struct IDutchAuctionState.BureauState",
        "members": [
          {
            "astId": 24094,
            "contract": "contracts/src/bureaucracy/dutchAuction/DutchAuction.sol:DutchAuction",
            "label": "totalAuctions",
            "offset": 0,
            "slot": "0",
            "type": "t_uint256"
          },
          {
            "astId": 24096,
            "contract": "contracts/src/bureaucracy/dutchAuction/DutchAuction.sol:DutchAuction",
            "label": "lastSalePriceBips",
            "offset": 0,
            "slot": "1",
            "type": "t_uint256"
          }
        ],
        "numberOfBytes": "64"
      },
      "t_struct(RoleData)2338_storage": {
        "encoding": "inplace",
        "label": "struct AccessControl.RoleData",
        "members": [
          {
            "astId": 2335,
            "contract": "contracts/src/bureaucracy/dutchAuction/DutchAuction.sol:DutchAuction",
            "label": "hasRole",
            "offset": 0,
            "slot": "0",
            "type": "t_mapping(t_address,t_bool)"
          },
          {
            "astId": 2337,
            "contract": "contracts/src/bureaucracy/dutchAuction/DutchAuction.sol:DutchAuction",
            "label": "adminRole",
            "offset": 0,
            "slot": "1",
            "type": "t_bytes32"
          }
        ],
        "numberOfBytes": "64"
      },
      "t_struct(Routes)24273_storage": {
        "encoding": "inplace",
        "label": "struct ITheReserveRoutes.Routes",
        "members": [
          {
            "astId": 24206,
            "contract": "contracts/src/bureaucracy/dutchAuction/DutchAuction.sol:DutchAuction",
            "label": "pow1Token",
            "offset": 0,
            "slot": "0",
            "type": "t_contract(IERC20)4496"
          },
          {
            "astId": 24209,
            "contract": "contracts/src/bureaucracy/dutchAuction/DutchAuction.sol:DutchAuction",
            "label": "pow5Token",
            "offset": 0,
            "slot": "1",
            "type": "t_contract(IERC20)4496"
          },
          {
            "astId": 24212,
            "contract": "contracts/src/bureaucracy/dutchAuction/DutchAuction.sol:DutchAuction",
            "label": "lpPow1Token",
            "offset": 0,
            "slot": "2",
            "type": "t_contract(IERC20)4496"
          },
          {
            "astId": 24215,
            "contract": "contracts/src/bureaucracy/dutchAuction/DutchAuction.sol:DutchAuction",
            "label": "lpPow5Token",
            "offset": 0,
            "slot": "3",
            "type": "t_contract(IERC20)4496"
          },
          {
            "astId": 24218,
            "contract": "contracts/src/bureaucracy/dutchAuction/DutchAuction.sol:DutchAuction",
            "label": "noPow5Token",
            "offset": 0,
            "slot": "4",
            "type": "t_contract(IERC20)4496"
          },
          {
            "astId": 24221,
            "contract": "contracts/src/bureaucracy/dutchAuction/DutchAuction.sol:DutchAuction",
            "label": "marketToken",
            "offset": 0,
            "slot": "5",
            "type": "t_contract(IERC20)4496"
          },
          {
            "astId": 24224,
            "contract": "contracts/src/bureaucracy/dutchAuction/DutchAuction.sol:DutchAuction",
            "label": "stableToken",
            "offset": 0,
            "slot": "6",
            "type": "t_contract(IERC20)4496"
          },
          {
            "astId": 24227,
            "contract": "contracts/src/bureaucracy/dutchAuction/DutchAuction.sol:DutchAuction",
            "label": "lpSft",
            "offset": 0,
            "slot": "7",
            "type": "t_contract(ILPSFT)24844"
          },
          {
            "astId": 24230,
            "contract": "contracts/src/bureaucracy/dutchAuction/DutchAuction.sol:DutchAuction",
            "label": "noLpSft",
            "offset": 0,
            "slot": "8",
            "type": "t_contract(INOLPSFT)24860"
          },
          {
            "astId": 24233,
            "contract": "contracts/src/bureaucracy/dutchAuction/DutchAuction.sol:DutchAuction",
            "label": "pow1MarketPool",
            "offset": 0,
            "slot": "9",
            "type": "t_contract(IUniswapV3Pool)15359"
          },
          {
            "astId": 24236,
            "contract": "contracts/src/bureaucracy/dutchAuction/DutchAuction.sol:DutchAuction",
            "label": "pow5StablePool",
            "offset": 0,
            "slot": "10",
            "type": "t_contract(IUniswapV3Pool)15359"
          },
          {
            "astId": 24239,
            "contract": "contracts/src/bureaucracy/dutchAuction/DutchAuction.sol:DutchAuction",
            "label": "marketStablePool",
            "offset": 0,
            "slot": "11",
            "type": "t_contract(IUniswapV3Pool)15359"
          },
          {
            "astId": 24242,
            "contract": "contracts/src/bureaucracy/dutchAuction/DutchAuction.sol:DutchAuction",
            "label": "pow1MarketSwapper",
            "offset": 0,
            "slot": "12",
            "type": "t_contract(IGameTokenSwapper)25198"
          },
          {
            "astId": 24245,
            "contract": "contracts/src/bureaucracy/dutchAuction/DutchAuction.sol:DutchAuction",
            "label": "pow5StableSwapper",
            "offset": 0,
            "slot": "13",
            "type": "t_contract(IGameTokenSwapper)25198"
          },
          {
            "astId": 24248,
            "contract": "contracts/src/bureaucracy/dutchAuction/DutchAuction.sol:DutchAuction",
            "label": "marketStableSwapper",
            "offset": 0,
            "slot": "14",
            "type": "t_contract(IMarketStableSwapper)25266"
          },
          {
            "astId": 24251,
            "contract": "contracts/src/bureaucracy/dutchAuction/DutchAuction.sol:DutchAuction",
            "label": "pow1MarketPooler",
            "offset": 0,
            "slot": "15",
            "type": "t_contract(IGameTokenPooler)25132"
          },
          {
            "astId": 24254,
            "contract": "contracts/src/bureaucracy/dutchAuction/DutchAuction.sol:DutchAuction",
            "label": "pow5StablePooler",
            "offset": 0,
            "slot": "16",
            "type": "t_contract(IGameTokenPooler)25132"
          },
          {
            "astId": 24257,
            "contract": "contracts/src/bureaucracy/dutchAuction/DutchAuction.sol:DutchAuction",
            "label": "pow1LpNftStakeFarm",
            "offset": 0,
            "slot": "17",
            "type": "t_contract(ILPNFTStakeFarm)24659"
          },
          {
            "astId": 24260,
            "contract": "contracts/src/bureaucracy/dutchAuction/DutchAuction.sol:DutchAuction",
            "label": "pow5LpNftStakeFarm",
            "offset": 0,
            "slot": "18",
            "type": "t_contract(IUniV3StakeFarm)24729"
          },
          {
            "astId": 24263,
            "contract": "contracts/src/bureaucracy/dutchAuction/DutchAuction.sol:DutchAuction",
            "label": "pow1LpSftLendFarm",
            "offset": 0,
            "slot": "19",
            "type": "t_contract(ILPSFTLendFarm)24697"
          },
          {
            "astId": 24266,
            "contract": "contracts/src/bureaucracy/dutchAuction/DutchAuction.sol:DutchAuction",
            "label": "pow5LpSftLendFarm",
            "offset": 0,
            "slot": "20",
            "type": "t_contract(ILPSFTLendFarm)24697"
          },
          {
            "astId": 24269,
            "contract": "contracts/src/bureaucracy/dutchAuction/DutchAuction.sol:DutchAuction",
            "label": "uniswapV3Factory",
            "offset": 0,
            "slot": "21",
            "type": "t_contract(IUniswapV3Factory)15337"
          },
          {
            "astId": 24272,
            "contract": "contracts/src/bureaucracy/dutchAuction/DutchAuction.sol:DutchAuction",
            "label": "uniswapV3NftManager",
            "offset": 0,
            "slot": "22",
            "type": "t_contract(INonfungiblePositionManager)16087"
          }
        ],
        "numberOfBytes": "736"
      },
      "t_struct(Set)10169_storage": {
        "encoding": "inplace",
        "label": "struct EnumerableSet.Set",
        "members": [
          {
            "astId": 10164,
            "contract": "contracts/src/bureaucracy/dutchAuction/DutchAuction.sol:DutchAuction",
            "label": "_values",
            "offset": 0,
            "slot": "0",
            "type": "t_array(t_bytes32)dyn_storage"
          },
          {
            "astId": 10168,
            "contract": "contracts/src/bureaucracy/dutchAuction/DutchAuction.sol:DutchAuction",
            "label": "_positions",
            "offset": 0,
            "slot": "1",
            "type": "t_mapping(t_bytes32,t_uint256)"
          }
        ],
        "numberOfBytes": "64"
      },
      "t_struct(UintSet)10641_storage": {
        "encoding": "inplace",
        "label": "struct EnumerableSet.UintSet",
        "members": [
          {
            "astId": 10640,
            "contract": "contracts/src/bureaucracy/dutchAuction/DutchAuction.sol:DutchAuction",
            "label": "_inner",
            "offset": 0,
            "slot": "0",
            "type": "t_struct(Set)10169_storage"
          }
        ],
        "numberOfBytes": "64"
      },
      "t_uint256": {
        "encoding": "inplace",
        "label": "uint256",
        "numberOfBytes": "32"
      },
      "t_uint32": {
        "encoding": "inplace",
        "label": "uint32",
        "numberOfBytes": "4"
      }
    }
  }
}