{
  "address": "0xf72b17ACAAe37617D16F40a23eD9e26CDe9ba561",
  "abi": [
    {
      "inputs": [
        {
          "internalType": "address",
          "name": "theReserve_",
          "type": "address"
        },
        {
          "internalType": "address",
          "name": "defiManager_",
          "type": "address"
        },
        {
          "internalType": "address",
          "name": "yieldHarvest_",
          "type": "address"
        },
        {
          "internalType": "address",
          "name": "erc20InterestFarm_",
          "type": "address"
        }
      ],
      "stateMutability": "nonpayable",
      "type": "constructor"
    },
    {
      "inputs": [],
      "name": "ReentrancyGuardReentrantCall",
      "type": "error"
    },
    {
      "inputs": [
        {
          "internalType": "address",
          "name": "token",
          "type": "address"
        }
      ],
      "name": "SafeERC20FailedOperation",
      "type": "error"
    },
    {
      "inputs": [
        {
          "internalType": "uint256",
          "name": "tokenId",
          "type": "uint256"
        },
        {
          "internalType": "uint256",
          "name": "amount",
          "type": "uint256"
        },
        {
          "internalType": "address",
          "name": "receiver",
          "type": "address"
        }
      ],
      "name": "borrowPow5",
      "outputs": [],
      "stateMutability": "nonpayable",
      "type": "function"
    },
    {
      "inputs": [],
      "name": "defiManager",
      "outputs": [
        {
          "internalType": "contract IDeFiManager",
          "name": "",
          "type": "address"
        }
      ],
      "stateMutability": "view",
      "type": "function"
    },
    {
      "inputs": [],
      "name": "erc20InterestFarm",
      "outputs": [
        {
          "internalType": "contract IERC20InterestFarm",
          "name": "",
          "type": "address"
        }
      ],
      "stateMutability": "view",
      "type": "function"
    },
    {
      "inputs": [],
      "name": "lpSft",
      "outputs": [
        {
          "internalType": "contract ILPSFT",
          "name": "",
          "type": "address"
        }
      ],
      "stateMutability": "view",
      "type": "function"
    },
    {
      "inputs": [],
      "name": "noLpSft",
      "outputs": [
        {
          "internalType": "contract IERC1155Enumerable",
          "name": "",
          "type": "address"
        }
      ],
      "stateMutability": "view",
      "type": "function"
    },
    {
      "inputs": [],
      "name": "pow5Token",
      "outputs": [
        {
          "internalType": "contract IERC20",
          "name": "",
          "type": "address"
        }
      ],
      "stateMutability": "view",
      "type": "function"
    },
    {
      "inputs": [
        {
          "internalType": "uint256",
          "name": "tokenId",
          "type": "uint256"
        },
        {
          "internalType": "uint256",
          "name": "amount",
          "type": "uint256"
        }
      ],
      "name": "repayPow5",
      "outputs": [],
      "stateMutability": "nonpayable",
      "type": "function"
    },
    {
      "inputs": [
        {
          "internalType": "bytes4",
          "name": "interfaceId",
          "type": "bytes4"
        }
      ],
      "name": "supportsInterface",
      "outputs": [
        {
          "internalType": "bool",
          "name": "",
          "type": "bool"
        }
      ],
      "stateMutability": "pure",
      "type": "function"
    },
    {
      "inputs": [],
      "name": "theReserve",
      "outputs": [
        {
          "internalType": "contract ITheReserve",
          "name": "",
          "type": "address"
        }
      ],
      "stateMutability": "view",
      "type": "function"
    },
    {
      "inputs": [],
      "name": "yieldHarvest",
      "outputs": [
        {
          "internalType": "contract IYieldHarvest",
          "name": "",
          "type": "address"
        }
      ],
      "stateMutability": "view",
      "type": "function"
    }
  ],
  "transactionHash": "0xda7175729a62bc2b76d118146ab10d2207cf7add04da45b8674b9c878f6102f8",
  "args": [
    "0xDa87C152723FA5d88D499D1722a2739c5cDaD9Ac",
    "0xe49ebe3Cf0BaA0cae0C03Dd9d19CA855463Cbb41",
    "0x7d49d84221468D1ED0BaB162402EbA19F90e2992",
    "0xbE8178365C88851CA1BdB326E13CBA2A3bdc64c1"
  ],
  "numDeployments": 1,
  "solcInputHash": "607dfe4437c93ddfbd36914a2ea77f31",
  "bytecode": "0x61014060405234801561001157600080fd5b50604051610d7f380380610d7f833981016040819052610030916102d9565b60016000556001600160a01b0383166100855760405162461bcd60e51b815260206004820152601260248201527124b73b30b634b210262816a9a32a1036b3b960711b60448201526064015b60405180910390fd5b6001600160a01b0382166100db5760405162461bcd60e51b815260206004820152601560248201527f496e76616c6964207969656c6420686172766573740000000000000000000000604482015260640161007c565b6001600160a01b0381166101315760405162461bcd60e51b815260206004820152601560248201527f496e76616c696420696e746572657374206661726d0000000000000000000000604482015260640161007c565b6001600160a01b03841660808190526040805163a1abfd9560e01b8152905163a1abfd95916004808201926020929091908290030181865afa15801561017b573d6000803e3d6000fd5b505050506040513d601f19601f8201168201806040525081019061019f9190610338565b6001600160a01b031660a0816001600160a01b031681525050836001600160a01b03166311e806626040518163ffffffff1660e01b8152600401602060405180830381865afa1580156101f6573d6000803e3d6000fd5b505050506040513d601f19601f8201168201806040525081019061021a9190610338565b6001600160a01b0390811660c052600180546001600160a01b031916858316179055604080516304a4fae960e51b815290519186169163949f5d20916004808201926020929091908290030181865afa15801561027b573d6000803e3d6000fd5b505050506040513d601f19601f8201168201806040525081019061029f9190610338565b6001600160a01b0390811660e0529182166101005216610120525061035c9050565b6001600160a01b03811681146102d657600080fd5b50565b600080600080608085870312156102ef57600080fd5b84516102fa816102c1565b602086015190945061030b816102c1565b604086015190935061031c816102c1565b606086015190925061032d816102c1565b939692955090935050565b60006020828403121561034a57600080fd5b8151610355816102c1565b9392505050565b60805160a05160c05160e05161010051610120516109a46103db600039600081816101f7015281816103f901526106e20152600061016f015260008181610196015261068c01526000818160e10152818161024401526104fd0152600081816101bd0152818161031701526105cb0152600061014801526109a46000f3fe608060405234801561001057600080fd5b506004361061009e5760003560e01c80638a686255116100665780638a6862551461016a578063949f5d2014610191578063a1abfd95146101b8578063ebe80a04146101df578063ef49456b146101f257600080fd5b806301ffc9a7146100a357806311e80662146100dc5780632600aa811461011b5780633542422414610130578063459213a114610143575b600080fd5b6100c76100b13660046108ad565b6001600160e01b03191663cde8a08560e01b1490565b60405190151581526020015b60405180910390f35b6101037f000000000000000000000000000000000000000000000000000000000000000081565b6040516001600160a01b0390911681526020016100d3565b61012e6101293660046108f6565b610219565b005b600154610103906001600160a01b031681565b6101037f000000000000000000000000000000000000000000000000000000000000000081565b6101037f000000000000000000000000000000000000000000000000000000000000000081565b6101037f000000000000000000000000000000000000000000000000000000000000000081565b6101037f000000000000000000000000000000000000000000000000000000000000000081565b61012e6101ed36600461092f565b6104d2565b6101037f000000000000000000000000000000000000000000000000000000000000000081565b6102216107b2565b336040516331a9108f60e11b8152600481018590526001600160a01b03918216917f00000000000000000000000000000000000000000000000000000000000000001690636352211e90602401602060405180830381865afa15801561028b573d6000803e3d6000fd5b505050506040513d601f19601f820116820180604052508101906102af9190610951565b6001600160a01b0316146102fe5760405162461bcd60e51b81526020600482015260116024820152702737ba102727a62829a32a1037bbb732b960791b60448201526064015b60405180910390fd5b6040516308bb76a560e01b8152600481018490526000907f00000000000000000000000000000000000000000000000000000000000000006001600160a01b0316906308bb76a590602401602060405180830381865afa158015610366573d6000803e3d6000fd5b505050506040513d601f19601f8201168201806040525081019061038a9190610951565b90506001600160a01b0381166103d35760405162461bcd60e51b815260206004820152600e60248201526d125b9d985b1a590813140b54d19560921b60448201526064016102f5565b604051631922bb6f60e01b81526001600160a01b038281166004830152602482018590527f00000000000000000000000000000000000000000000000000000000000000001690631922bb6f90604401600060405180830381600087803b15801561043d57600080fd5b505af1158015610451573d6000803e3d6000fd5b5050600154604051630139292b60e71b815260048101889052602481018790526001600160a01b0386811660448301529091169250639c9495809150606401600060405180830381600087803b1580156104aa57600080fd5b505af11580156104be573d6000803e3d6000fd5b50505050506104cd6001600055565b505050565b6104da6107b2565b336040516331a9108f60e11b8152600481018490526001600160a01b03918216917f00000000000000000000000000000000000000000000000000000000000000001690636352211e90602401602060405180830381865afa158015610544573d6000803e3d6000fd5b505050506040513d601f19601f820116820180604052508101906105689190610951565b6001600160a01b0316146105b25760405162461bcd60e51b81526020600482015260116024820152702737ba102727a62829a32a1037bbb732b960791b60448201526064016102f5565b6040516308bb76a560e01b8152600481018390526000907f00000000000000000000000000000000000000000000000000000000000000006001600160a01b0316906308bb76a590602401602060405180830381865afa15801561061a573d6000803e3d6000fd5b505050506040513d601f19601f8201168201806040525081019061063e9190610951565b90506001600160a01b0381166106875760405162461bcd60e51b815260206004820152600e60248201526d125b9d985b1a590813140b54d19560921b60448201526064016102f5565b6106bc7f00000000000000000000000000000000000000000000000000000000000000006001600160a01b03163330856107dc565b60405163047387bf60e31b81526001600160a01b038281166004830152602482018490527f0000000000000000000000000000000000000000000000000000000000000000169063239c3df890604401600060405180830381600087803b15801561072657600080fd5b505af115801561073a573d6000803e3d6000fd5b5050600154604051633afa028160e21b815260048101879052602481018690526001600160a01b03909116925063ebe80a049150604401600060405180830381600087803b15801561078b57600080fd5b505af115801561079f573d6000803e3d6000fd5b50505050506107ae6001600055565b5050565b6002600054036107d557604051633ee5aeb560e01b815260040160405180910390fd5b6002600055565b604080516001600160a01b0385811660248301528416604482015260648082018490528251808303909101815260849091019091526020810180516001600160e01b03166323b872dd60e01b17905261083690859061083c565b50505050565b600080602060008451602086016000885af18061085f576040513d6000823e3d81fd5b50506000513d91508115610877578060011415610884565b6001600160a01b0384163b155b1561083657604051635274afe760e01b81526001600160a01b03851660048201526024016102f5565b6000602082840312156108bf57600080fd5b81356001600160e01b0319811681146108d757600080fd5b9392505050565b6001600160a01b03811681146108f357600080fd5b50565b60008060006060848603121561090b57600080fd5b83359250602084013591506040840135610924816108de565b809150509250925092565b6000806040838503121561094257600080fd5b50508035926020909101359150565b60006020828403121561096357600080fd5b81516108d7816108de56fea264697066735822122000266405111dea3882727e01c6f707eb3500318a4c2d7f0c98c76eed7928b30e64736f6c634300081c0033",
  "devdoc": {
    "errors": {
      "ReentrancyGuardReentrantCall()": [
        {
          "details": "Unauthorized reentrant call."
        }
      ],
      "SafeERC20FailedOperation(address)": [
        {
          "details": "An operation with an ERC-20 token failed."
        }
      ]
    },
    "kind": "dev",
    "methods": {
      "borrowPow5(uint256,uint256,address)": {
        "details": "See {ILiquidityForge-borrowPow5}"
      },
      "constructor": {
        "details": "Initializes the Liquidity Forge contract",
        "params": {
          "defiManager_": "The LP-SFT manager contract",
          "erc20InterestFarm_": "The ERC20 interest farm",
          "theReserve_": "The Reserve smart contract address",
          "yieldHarvest_": "The Yield Harvest contract"
        }
      },
      "repayPow5(uint256,uint256)": {
        "details": "See {ILiquidityForge-repayPow5}"
      },
      "supportsInterface(bytes4)": {
        "details": "See {IERC165-supportsInterface}"
      }
    },
    "stateVariables": {
      "defiManager": {
        "details": "The LP-SFT manager contract"
      },
      "erc20InterestFarm": {
        "details": "The ERC20 interest farm"
      },
      "lpSft": {
        "details": "The LP-SFT token contract"
      },
      "noLpSft": {
        "details": "The LP-SFT debt contract"
      },
      "pow5Token": {
        "details": "The POW5 token contract"
      },
      "theReserve": {
        "details": "The Reserve smart contract"
      },
      "yieldHarvest": {
        "details": "The Liquidity Forge contract"
      }
    },
    "title": "Bureau of the Liquidity Forge",
    "version": 1
  },
  "userdoc": {
    "kind": "user",
    "methods": {},
    "version": 1
  },
  "storageLayout": {
    "storage": [
      {
        "astId": 6439,
        "contract": "contracts/src/bureaucracy/LiquidityForge.sol:LiquidityForge",
        "label": "_status",
        "offset": 0,
        "slot": "0",
        "type": "t_uint256"
      },
      {
        "astId": 17102,
        "contract": "contracts/src/bureaucracy/LiquidityForge.sol:LiquidityForge",
        "label": "defiManager",
        "offset": 0,
        "slot": "1",
        "type": "t_contract(IDeFiManager)25257"
      }
    ],
    "types": {
      "t_contract(IDeFiManager)25257": {
        "encoding": "inplace",
        "label": "contract IDeFiManager",
        "numberOfBytes": "20"
      },
      "t_uint256": {
        "encoding": "inplace",
        "label": "uint256",
        "numberOfBytes": "32"
      }
    }
  }
}