{
  "address": "0x9Fc651b7bA57A1A12AA53f309F4476d1c7c95F44",
  "abi": [
    {
      "inputs": [
        {
          "internalType": "address",
          "name": "pow1Token_",
          "type": "address"
        },
        {
          "internalType": "address",
          "name": "pow5Token_",
          "type": "address"
        },
        {
          "internalType": "address",
          "name": "lpPow1Token_",
          "type": "address"
        },
        {
          "internalType": "address",
          "name": "lpPow5Token_",
          "type": "address"
        },
        {
          "internalType": "address",
          "name": "noPow5Token_",
          "type": "address"
        },
        {
          "internalType": "address",
          "name": "uniswapV3NftManager_",
          "type": "address"
        }
      ],
      "stateMutability": "nonpayable",
      "type": "constructor"
    },
    {
      "inputs": [],
      "name": "AccessControlBadConfirmation",
      "type": "error"
    },
    {
      "inputs": [
        {
          "internalType": "address",
          "name": "account",
          "type": "address"
        },
        {
          "internalType": "bytes32",
          "name": "neededRole",
          "type": "bytes32"
        }
      ],
      "name": "AccessControlUnauthorizedAccount",
      "type": "error"
    },
    {
      "inputs": [],
      "name": "InvalidInitialization",
      "type": "error"
    },
    {
      "inputs": [
        {
          "internalType": "uint256",
          "name": "tokenId",
          "type": "uint256"
        }
      ],
      "name": "LPNFTInvalidPool",
      "type": "error"
    },
    {
      "inputs": [],
      "name": "LPNFTInvalidTokenID",
      "type": "error"
    },
    {
      "inputs": [],
      "name": "NotInitializing",
      "type": "error"
    },
    {
      "inputs": [
        {
          "internalType": "address",
          "name": "token",
          "type": "address"
        }
      ],
      "name": "SafeERC20FailedOperation",
      "type": "error"
    },
    {
      "anonymous": false,
      "inputs": [
        {
          "indexed": false,
          "internalType": "uint64",
          "name": "version",
          "type": "uint64"
        }
      ],
      "name": "Initialized",
      "type": "event"
    },
    {
      "anonymous": false,
      "inputs": [
        {
          "indexed": true,
          "internalType": "bytes32",
          "name": "role",
          "type": "bytes32"
        },
        {
          "indexed": true,
          "internalType": "bytes32",
          "name": "previousAdminRole",
          "type": "bytes32"
        },
        {
          "indexed": true,
          "internalType": "bytes32",
          "name": "newAdminRole",
          "type": "bytes32"
        }
      ],
      "name": "RoleAdminChanged",
      "type": "event"
    },
    {
      "anonymous": false,
      "inputs": [
        {
          "indexed": true,
          "internalType": "bytes32",
          "name": "role",
          "type": "bytes32"
        },
        {
          "indexed": true,
          "internalType": "address",
          "name": "account",
          "type": "address"
        },
        {
          "indexed": true,
          "internalType": "address",
          "name": "sender",
          "type": "address"
        }
      ],
      "name": "RoleGranted",
      "type": "event"
    },
    {
      "anonymous": false,
      "inputs": [
        {
          "indexed": true,
          "internalType": "bytes32",
          "name": "role",
          "type": "bytes32"
        },
        {
          "indexed": true,
          "internalType": "address",
          "name": "account",
          "type": "address"
        },
        {
          "indexed": true,
          "internalType": "address",
          "name": "sender",
          "type": "address"
        }
      ],
      "name": "RoleRevoked",
      "type": "event"
    },
    {
      "inputs": [],
      "name": "DEFAULT_ADMIN_ROLE",
      "outputs": [
        {
          "internalType": "bytes32",
          "name": "",
          "type": "bytes32"
        }
      ],
      "stateMutability": "view",
      "type": "function"
    },
    {
      "inputs": [
        {
          "internalType": "address",
          "name": "beneficiary",
          "type": "address"
        }
      ],
      "name": "deinitialize",
      "outputs": [],
      "stateMutability": "nonpayable",
      "type": "function"
    },
    {
      "inputs": [
        {
          "internalType": "bytes32",
          "name": "role",
          "type": "bytes32"
        }
      ],
      "name": "getRoleAdmin",
      "outputs": [
        {
          "internalType": "bytes32",
          "name": "",
          "type": "bytes32"
        }
      ],
      "stateMutability": "view",
      "type": "function"
    },
    {
      "inputs": [
        {
          "internalType": "bytes32",
          "name": "role",
          "type": "bytes32"
        },
        {
          "internalType": "address",
          "name": "account",
          "type": "address"
        }
      ],
      "name": "grantRole",
      "outputs": [],
      "stateMutability": "nonpayable",
      "type": "function"
    },
    {
      "inputs": [
        {
          "internalType": "bytes32",
          "name": "role",
          "type": "bytes32"
        },
        {
          "internalType": "address",
          "name": "account",
          "type": "address"
        }
      ],
      "name": "hasRole",
      "outputs": [
        {
          "internalType": "bool",
          "name": "",
          "type": "bool"
        }
      ],
      "stateMutability": "view",
      "type": "function"
    },
    {
      "inputs": [
        {
          "internalType": "uint256",
          "name": "lpNftTokenId",
          "type": "uint256"
        }
      ],
      "name": "initialize",
      "outputs": [],
      "stateMutability": "nonpayable",
      "type": "function"
    },
    {
      "inputs": [],
      "name": "lpPow1Balance",
      "outputs": [
        {
          "internalType": "uint256",
          "name": "",
          "type": "uint256"
        }
      ],
      "stateMutability": "view",
      "type": "function"
    },
    {
      "inputs": [],
      "name": "lpPow1Token",
      "outputs": [
        {
          "internalType": "contract IERC20",
          "name": "",
          "type": "address"
        }
      ],
      "stateMutability": "view",
      "type": "function"
    },
    {
      "inputs": [],
      "name": "lpPow5Balance",
      "outputs": [
        {
          "internalType": "uint256",
          "name": "",
          "type": "uint256"
        }
      ],
      "stateMutability": "view",
      "type": "function"
    },
    {
      "inputs": [],
      "name": "lpPow5Token",
      "outputs": [
        {
          "internalType": "contract IERC20",
          "name": "",
          "type": "address"
        }
      ],
      "stateMutability": "view",
      "type": "function"
    },
    {
      "inputs": [],
      "name": "noPow5Balance",
      "outputs": [
        {
          "internalType": "uint256",
          "name": "",
          "type": "uint256"
        }
      ],
      "stateMutability": "view",
      "type": "function"
    },
    {
      "inputs": [],
      "name": "noPow5Token",
      "outputs": [
        {
          "internalType": "contract IERC20",
          "name": "",
          "type": "address"
        }
      ],
      "stateMutability": "view",
      "type": "function"
    },
    {
      "inputs": [],
      "name": "pool",
      "outputs": [
        {
          "internalType": "enum ILPNFT.Pool",
          "name": "",
          "type": "uint8"
        }
      ],
      "stateMutability": "view",
      "type": "function"
    },
    {
      "inputs": [],
      "name": "pow1Balance",
      "outputs": [
        {
          "internalType": "uint256",
          "name": "",
          "type": "uint256"
        }
      ],
      "stateMutability": "view",
      "type": "function"
    },
    {
      "inputs": [],
      "name": "pow1Token",
      "outputs": [
        {
          "internalType": "contract IERC20",
          "name": "",
          "type": "address"
        }
      ],
      "stateMutability": "view",
      "type": "function"
    },
    {
      "inputs": [],
      "name": "pow5Balance",
      "outputs": [
        {
          "internalType": "uint256",
          "name": "",
          "type": "uint256"
        }
      ],
      "stateMutability": "view",
      "type": "function"
    },
    {
      "inputs": [],
      "name": "pow5Token",
      "outputs": [
        {
          "internalType": "contract IERC20",
          "name": "",
          "type": "address"
        }
      ],
      "stateMutability": "view",
      "type": "function"
    },
    {
      "inputs": [
        {
          "internalType": "bytes32",
          "name": "role",
          "type": "bytes32"
        },
        {
          "internalType": "address",
          "name": "callerConfirmation",
          "type": "address"
        }
      ],
      "name": "renounceRole",
      "outputs": [],
      "stateMutability": "nonpayable",
      "type": "function"
    },
    {
      "inputs": [
        {
          "internalType": "bytes32",
          "name": "role",
          "type": "bytes32"
        },
        {
          "internalType": "address",
          "name": "account",
          "type": "address"
        }
      ],
      "name": "revokeRole",
      "outputs": [],
      "stateMutability": "nonpayable",
      "type": "function"
    },
    {
      "inputs": [
        {
          "internalType": "bytes4",
          "name": "interfaceId",
          "type": "bytes4"
        }
      ],
      "name": "supportsInterface",
      "outputs": [
        {
          "internalType": "bool",
          "name": "",
          "type": "bool"
        }
      ],
      "stateMutability": "view",
      "type": "function"
    },
    {
      "inputs": [],
      "name": "tokenId",
      "outputs": [
        {
          "internalType": "uint256",
          "name": "",
          "type": "uint256"
        }
      ],
      "stateMutability": "view",
      "type": "function"
    },
    {
      "inputs": [],
      "name": "uniswapV3NftManager",
      "outputs": [
        {
          "internalType": "contract INonfungiblePositionManager",
          "name": "",
          "type": "address"
        }
      ],
      "stateMutability": "view",
      "type": "function"
    },
    {
      "inputs": [],
      "name": "uri",
      "outputs": [
        {
          "internalType": "string",
          "name": "",
          "type": "string"
        }
      ],
      "stateMutability": "view",
      "type": "function"
    }
  ],
  "transactionHash": "0x3fc95cd334d7613e21881272983353ab250ece90e8b42fc07b7f8dedb271d2e5",
  "args": [
    "0x3414381EF8d64a2c0E8eC785553534122312787e",
    "0x7b589E244173CE2d11d76878C053e25Dd72Ea610",
    "0xe52cB492ffac292bd555237f13AA43D3f5481851",
    "0x27a32088D0aA4ba5ac342fdD96b75994219609C6",
    "0x0Da4291075032aD1c9D3838c7A2D51bF30d7E000",
    "0x17af5Dd8e9a37cF78E9949C7E25D805937cDfbFB"
  ],
  "numDeployments": 1,
  "solcInputHash": "607dfe4437c93ddfbd36914a2ea77f31",
  "bytecode": "0x61014060405260006001556002805460ff1916905534801561002057600080fd5b5060405161168238038061168283398101604081905261003f916102f0565b6001600160a01b0386166100895760405162461bcd60e51b815260206004820152600c60248201526b496e76616c696420504f573160a01b60448201526064015b60405180910390fd5b6001600160a01b0385166100ce5760405162461bcd60e51b815260206004820152600c60248201526b496e76616c696420504f573560a01b6044820152606401610080565b6001600160a01b0384166101155760405162461bcd60e51b815260206004820152600e60248201526d496e76616c6964204c50504f573160901b6044820152606401610080565b6001600160a01b03831661015c5760405162461bcd60e51b815260206004820152600e60248201526d496e76616c6964204c50504f573560901b6044820152606401610080565b6001600160a01b0382166101a35760405162461bcd60e51b815260206004820152600e60248201526d496e76616c6964204e4f504f573560901b6044820152606401610080565b6001600160a01b0381166101eb5760405162461bcd60e51b815260206004820152600f60248201526e24b73b30b634b21027232a1036b3b960891b6044820152606401610080565b6101f3610222565b6001600160a01b0395861660805293851660a05291841660c052831660e0528216610100521661012052610364565b7ff0c57e16840df040f15088dc2f81fe391c3923bec73e23a9662efc9c229c6a00805468010000000000000000900460ff16156102725760405163f92ee8a960e01b815260040160405180910390fd5b80546001600160401b03908116146102d15780546001600160401b0319166001600160401b0390811782556040519081527fc7f505b2f371ae2175ee4913f4499e1f2633a7b5936321eed1cdaeb6115181d29060200160405180910390a15b50565b80516001600160a01b03811681146102eb57600080fd5b919050565b60008060008060008060c0878903121561030957600080fd5b610312876102d4565b9550610320602088016102d4565b945061032e604088016102d4565b935061033c606088016102d4565b925061034a608088016102d4565b915061035860a088016102d4565b90509295509295509295565b60805160a05160c05160e051610100516101205161126661041c600039600081816102d6015281816109130152610a9001526000818161025201526105080152600081816101d3015261055701526000818161033701526103c501526000818161028c015281816105cf015281816107ee0152818161087601528181610ba30152610bde0152600081816103100152818161048101528181610727015281816107af01528181610b0f0152610b4f01526112666000f3fe608060405234801561001057600080fd5b506004361061014d5760003560e01c80637f597920116100c3578063c81fcc951161007c578063c81fcc95146102d1578063d547741f146102f8578063e02998221461030b578063e577046d14610332578063eac989f814610359578063fe4b84df1461036e57600080fd5b80637f5979201461024d57806391d1485414610274578063949f5d201461028757806395b599db146102ae578063a217fddf146102b6578063c55093ba146102be57600080fd5b806325e3a1c11161011557806325e3a1c1146101ce5780632f2ff15d1461020d578063334dc3a41461022257806336568abe1461022a578063416e29191461023d578063478738731461024557600080fd5b806301ffc9a7146101525780630b2491221461017a57806316f0115b1461019057806317d70f7c146101a3578063248a9ca3146101ab575b600080fd5b610165610160366004610ed4565b610381565b60405190151581526020015b60405180910390f35b6101826103ad565b604051908152602001610171565b60025460ff166040516101719190610f1b565b600154610182565b6101826101b9366004610f43565b60009081526020819052604090206001015490565b6101f57f000000000000000000000000000000000000000000000000000000000000000081565b6040516001600160a01b039091168152602001610171565b61022061021b366004610f71565b61043e565b005b610182610469565b610220610238366004610f71565b6104b8565b6101826104f0565b61018261053f565b6101f57f000000000000000000000000000000000000000000000000000000000000000081565b610165610282366004610f71565b61058e565b6101f57f000000000000000000000000000000000000000000000000000000000000000081565b6101826105b7565b610182600081565b6102206102cc366004610fa1565b610606565b6101f57f000000000000000000000000000000000000000000000000000000000000000081565b610220610306366004610f71565b6108af565b6101f57f000000000000000000000000000000000000000000000000000000000000000081565b6101f57f000000000000000000000000000000000000000000000000000000000000000081565b6103616108d4565b6040516101719190610fe2565b61022061037c366004610f43565b61098a565b600061038c82610c95565b806103a757506001600160e01b03198216637bc05a8d60e01b145b92915050565b6040516370a0823160e01b81523060048201526000907f00000000000000000000000000000000000000000000000000000000000000006001600160a01b0316906370a08231906024015b602060405180830381865afa158015610415573d6000803e3d6000fd5b505050506040513d601f19601f820116820180604052508101906104399190611015565b905090565b60008281526020819052604090206001015461045981610cca565b6104638383610cd7565b50505050565b6040516370a0823160e01b81523060048201526000907f00000000000000000000000000000000000000000000000000000000000000006001600160a01b0316906370a08231906024016103f8565b6001600160a01b03811633146104e15760405163334bd91960e11b815260040160405180910390fd5b6104eb8282610d69565b505050565b6040516370a0823160e01b81523060048201526000907f00000000000000000000000000000000000000000000000000000000000000006001600160a01b0316906370a08231906024016103f8565b6040516370a0823160e01b81523060048201526000907f00000000000000000000000000000000000000000000000000000000000000006001600160a01b0316906370a08231906024016103f8565b6000918252602082815260408084206001600160a01b0393909316845291905290205460ff1690565b6040516370a0823160e01b81523060048201526000907f00000000000000000000000000000000000000000000000000000000000000006001600160a01b0316906370a08231906024016103f8565b6106106000610cca565b6001600160a01b0381166106615760405162461bcd60e51b8152602060048201526013602482015272496e76616c69642062656e656669636961727960681b60448201526064015b60405180910390fd5b600154600003610684576040516333204a0160e11b815260040160405180910390fd5b60006002805460ff169081111561069d5761069d610f05565b036106c15760015460405163ae45177f60e01b815260040161065891815260200190565b60006001556002805460ff1916905547801561070f576040516001600160a01b0383169082156108fc029083906000818181858888f1935050505015801561070d573d6000803e3d6000fd5b505b6040516370a0823160e01b81523060048201526000907f00000000000000000000000000000000000000000000000000000000000000006001600160a01b0316906370a0823190602401602060405180830381865afa158015610776573d6000803e3d6000fd5b505050506040513d601f19601f8201168201806040525081019061079a9190611015565b905080156107d6576107d66001600160a01b037f0000000000000000000000000000000000000000000000000000000000000000168483610dd4565b6040516370a0823160e01b81523060048201526000907f00000000000000000000000000000000000000000000000000000000000000006001600160a01b0316906370a0823190602401602060405180830381865afa15801561083d573d6000803e3d6000fd5b505050506040513d601f19601f820116820180604052508101906108619190611015565b9050801561089d5761089d6001600160a01b037f0000000000000000000000000000000000000000000000000000000000000000168583610dd4565b6108a8600033610d69565b5050505050565b6000828152602081905260409020600101546108ca81610cca565b6104638383610d69565b60606001546000036108f9576040516333204a0160e11b815260040160405180910390fd5b60015460405163c87b56dd60e01b815260048101919091527f00000000000000000000000000000000000000000000000000000000000000006001600160a01b03169063c87b56dd90602401600060405180830381865afa158015610962573d6000803e3d6000fd5b505050506040513d6000823e601f3d908101601f191682016040526104399190810190611044565b7ff0c57e16840df040f15088dc2f81fe391c3923bec73e23a9662efc9c229c6a008054600160401b810460ff16159067ffffffffffffffff166000811580156109d05750825b905060008267ffffffffffffffff1660011480156109ed5750303b155b9050811580156109fb575080155b15610a195760405163f92ee8a960e01b815260040160405180910390fd5b845467ffffffffffffffff191660011785558315610a4357845460ff60401b1916600160401b1785555b85600003610a64576040516333204a0160e11b815260040160405180910390fd5b610a6f600033610cd7565b50600186905560405163133f757160e31b81526004810187905260009081907f00000000000000000000000000000000000000000000000000000000000000006001600160a01b0316906399fbab889060240161018060405180830381865afa158015610ae0573d6000803e3d6000fd5b505050506040513d601f19601f82011682018060405250810190610b04919061114e565b50979b5095995050507f00000000000000000000000000000000000000000000000000000000000000006001600160a01b03908116908a16149650869550610b8394505050505057507f00000000000000000000000000000000000000000000000000000000000000006001600160a01b0316816001600160a01b0316145b15610ba157600280546001919060ff191682805b0217905550610c45565b7f00000000000000000000000000000000000000000000000000000000000000006001600160a01b0316826001600160a01b03161480610c1257507f00000000000000000000000000000000000000000000000000000000000000006001600160a01b0316816001600160a01b0316145b15610c295760028054819060ff1916600182610b97565b60405163ae45177f60e01b815260048101899052602401610658565b50508315610c8d57845460ff60401b19168555604051600181527fc7f505b2f371ae2175ee4913f4499e1f2633a7b5936321eed1cdaeb6115181d29060200160405180910390a15b505050505050565b60006001600160e01b03198216637965db0b60e01b14806103a757506301ffc9a760e01b6001600160e01b03198316146103a7565b610cd48133610e26565b50565b6000610ce3838361058e565b610d61576000838152602081815260408083206001600160a01b03861684529091529020805460ff19166001179055610d193390565b6001600160a01b0316826001600160a01b0316847f2f8788117e7eff1d82e926ec794901d17c78024a50270940304540a733656f0d60405160405180910390a45060016103a7565b5060006103a7565b6000610d75838361058e565b15610d61576000838152602081815260408083206001600160a01b0386168085529252808320805460ff1916905551339286917ff6391f5c32d9c69d2a47ea670b442974b53935d1edc7fd64eb21e047a839171b9190a45060016103a7565b604080516001600160a01b038416602482015260448082018490528251808303909101815260649091019091526020810180516001600160e01b031663a9059cbb60e01b1790526104eb908490610e63565b610e30828261058e565b610e5f5760405163e2517d3f60e01b81526001600160a01b038216600482015260248101839052604401610658565b5050565b600080602060008451602086016000885af180610e86576040513d6000823e3d81fd5b50506000513d91508115610e9e578060011415610eab565b6001600160a01b0384163b155b1561046357604051635274afe760e01b81526001600160a01b0385166004820152602401610658565b600060208284031215610ee657600080fd5b81356001600160e01b031981168114610efe57600080fd5b9392505050565b634e487b7160e01b600052602160045260246000fd5b6020810160038310610f3d57634e487b7160e01b600052602160045260246000fd5b91905290565b600060208284031215610f5557600080fd5b5035919050565b6001600160a01b0381168114610cd457600080fd5b60008060408385031215610f8457600080fd5b823591506020830135610f9681610f5c565b809150509250929050565b600060208284031215610fb357600080fd5b8135610efe81610f5c565b60005b83811015610fd9578181015183820152602001610fc1565b50506000910152565b6020815260008251806020840152611001816040850160208701610fbe565b601f01601f19169190910160400192915050565b60006020828403121561102757600080fd5b5051919050565b634e487b7160e01b600052604160045260246000fd5b60006020828403121561105657600080fd5b815167ffffffffffffffff81111561106d57600080fd5b8201601f8101841361107e57600080fd5b805167ffffffffffffffff8111156110985761109861102e565b604051601f8201601f19908116603f0116810167ffffffffffffffff811182821017156110c7576110c761102e565b6040528181528282016020018610156110df57600080fd5b6110f0826020830160208601610fbe565b95945050505050565b805161110481610f5c565b919050565b805162ffffff8116811461110457600080fd5b8051600281900b811461110457600080fd5b80516fffffffffffffffffffffffffffffffff8116811461110457600080fd5b6000806000806000806000806000806000806101808d8f03121561117157600080fd5b8c516bffffffffffffffffffffffff8116811461118d57600080fd5b9b5061119b60208e016110f9565b9a506111a960408e016110f9565b99506111b760608e016110f9565b98506111c560808e01611109565b97506111d360a08e0161111c565b96506111e160c08e0161111c565b95506111ef60e08e0161112e565b6101008e01516101208f01519196509450925061120f6101408e0161112e565b915061121e6101608e0161112e565b90509295989b509295989b509295989b56fea26469706673582212203ecf48d6e12c1ef09cd3b6aabeec6d06574aa5ba99f635d8d8aa353c0564857964736f6c634300081c0033",
  "devdoc": {
    "errors": {
      "AccessControlBadConfirmation()": [
        {
          "details": "The caller of a function is not the expected one. NOTE: Don't confuse with {AccessControlUnauthorizedAccount}."
        }
      ],
      "AccessControlUnauthorizedAccount(address,bytes32)": [
        {
          "details": "The `account` is missing a role."
        }
      ],
      "InvalidInitialization()": [
        {
          "details": "The contract is already initialized."
        }
      ],
      "LPNFTInvalidPool(uint256)": [
        {
          "details": "Error raised if the LP-NFT is for neither LPPOW1 nor LPPOW5 pools",
          "params": {
            "tokenId": "The token ID of the LP-NFT"
          }
        }
      ],
      "LPNFTInvalidTokenID()": [
        {
          "details": "Error raised if a token ID is 0 Uniswap V3 LP-NFTs start with ID 1, so a token ID of 0 is used to indicate an invalid ID."
        }
      ],
      "NotInitializing()": [
        {
          "details": "The contract is not initializing."
        }
      ],
      "SafeERC20FailedOperation(address)": [
        {
          "details": "An operation with an ERC-20 token failed."
        }
      ]
    },
    "events": {
      "Initialized(uint64)": {
        "details": "Triggered when the contract has been initialized or reinitialized."
      },
      "RoleAdminChanged(bytes32,bytes32,bytes32)": {
        "details": "Emitted when `newAdminRole` is set as ``role``'s admin role, replacing `previousAdminRole` `DEFAULT_ADMIN_ROLE` is the starting admin for all roles, despite {RoleAdminChanged} not being emitted signaling this."
      },
      "RoleGranted(bytes32,address,address)": {
        "details": "Emitted when `account` is granted `role`. `sender` is the account that originated the contract call. This account bears the admin role (for the granted role). Expected in cases where the role was granted using the internal {AccessControl-_grantRole}."
      },
      "RoleRevoked(bytes32,address,address)": {
        "details": "Emitted when `account` is revoked `role`. `sender` is the account that originated the contract call:   - if using `revokeRole`, it is the admin role bearer   - if using `renounceRole`, it is the role bearer (i.e. `account`)"
      }
    },
    "kind": "dev",
    "methods": {
      "constructor": {
        "details": "Initializes the LP-NFT template",
        "params": {
          "lpPow1Token_": "The LPPOW1 token",
          "lpPow5Token_": "The LPPOW5 token",
          "noPow5Token_": "The NOPOW5 token",
          "pow1Token_": "The POW1 token",
          "pow5Token_": "The POW5 token",
          "uniswapV3NftManager_": "The Uniswap V3 NFT manager"
        }
      },
      "deinitialize(address)": {
        "details": "See {ILPNFT-deinitialize}"
      },
      "getRoleAdmin(bytes32)": {
        "details": "Returns the admin role that controls `role`. See {grantRole} and {revokeRole}. To change a role's admin, use {_setRoleAdmin}."
      },
      "grantRole(bytes32,address)": {
        "details": "Grants `role` to `account`. If `account` had not been already granted `role`, emits a {RoleGranted} event. Requirements: - the caller must have ``role``'s admin role. May emit a {RoleGranted} event."
      },
      "hasRole(bytes32,address)": {
        "details": "Returns `true` if `account` has been granted `role`."
      },
      "initialize(uint256)": {
        "details": "See {ILPNFT-initialize}"
      },
      "lpPow1Balance()": {
        "details": "See {ILPNFT-lpPow1Balance}"
      },
      "lpPow5Balance()": {
        "details": "See {ILPNFT-lpPow5Balance}"
      },
      "noPow5Balance()": {
        "details": "See {ILPNFT-noPow5Balance}"
      },
      "pool()": {
        "details": "See {ILPNFT-pool}"
      },
      "pow1Balance()": {
        "details": "See {ILPNFT-pow1Balance}"
      },
      "pow5Balance()": {
        "details": "See {ILPNFT-pow5Balance}"
      },
      "renounceRole(bytes32,address)": {
        "details": "Revokes `role` from the calling account. Roles are often managed via {grantRole} and {revokeRole}: this function's purpose is to provide a mechanism for accounts to lose their privileges if they are compromised (such as when a trusted device is misplaced). If the calling account had been revoked `role`, emits a {RoleRevoked} event. Requirements: - the caller must be `callerConfirmation`. May emit a {RoleRevoked} event."
      },
      "revokeRole(bytes32,address)": {
        "details": "Revokes `role` from `account`. If `account` had been granted `role`, emits a {RoleRevoked} event. Requirements: - the caller must have ``role``'s admin role. May emit a {RoleRevoked} event."
      },
      "supportsInterface(bytes4)": {
        "details": "See {IERC165-supportsInterface}"
      },
      "tokenId()": {
        "details": "See {ILPNFT-tokenId}"
      },
      "uri()": {
        "details": "See {ILPNFT-uri}"
      }
    },
    "stateVariables": {
      "_pool": {
        "details": "Enum for which pool the LP-NFT belongs to, either LPPOW1 or LPPOW5"
      },
      "_tokenId": {
        "details": "The LP-NFT's token ID"
      },
      "lpPow1Token": {
        "details": "The LPPOW1 token contract"
      },
      "lpPow5Token": {
        "details": "The LPPOW5 token contract"
      },
      "noPow5Token": {
        "details": "The NOPOW5 token contract"
      },
      "pow1Token": {
        "details": "The POW1 token contract"
      },
      "pow5Token": {
        "details": "The POW5 token contract"
      },
      "uniswapV3NftManager": {
        "details": "The Uniswap V3 NFT manager"
      }
    },
    "title": "LP-NFT: Liquidity Pool Non-Fungible Token",
    "version": 1
  },
  "userdoc": {
    "kind": "user",
    "methods": {},
    "version": 1
  },
  "storageLayout": {
    "storage": [
      {
        "astId": 2343,
        "contract": "contracts/src/token/ERC1155/LPNFT.sol:LPNFT",
        "label": "_roles",
        "offset": 0,
        "slot": "0",
        "type": "t_mapping(t_bytes32,t_struct(RoleData)2338_storage)"
      },
      {
        "astId": 26009,
        "contract": "contracts/src/token/ERC1155/LPNFT.sol:LPNFT",
        "label": "_tokenId",
        "offset": 0,
        "slot": "1",
        "type": "t_uint256"
      },
      {
        "astId": 26015,
        "contract": "contracts/src/token/ERC1155/LPNFT.sol:LPNFT",
        "label": "_pool",
        "offset": 0,
        "slot": "2",
        "type": "t_enum(Pool)25429"
      }
    ],
    "types": {
      "t_address": {
        "encoding": "inplace",
        "label": "address",
        "numberOfBytes": "20"
      },
      "t_bool": {
        "encoding": "inplace",
        "label": "bool",
        "numberOfBytes": "1"
      },
      "t_bytes32": {
        "encoding": "inplace",
        "label": "bytes32",
        "numberOfBytes": "32"
      },
      "t_enum(Pool)25429": {
        "encoding": "inplace",
        "label": "enum ILPNFT.Pool",
        "numberOfBytes": "1"
      },
      "t_mapping(t_address,t_bool)": {
        "encoding": "mapping",
        "key": "t_address",
        "label": "mapping(address => bool)",
        "numberOfBytes": "32",
        "value": "t_bool"
      },
      "t_mapping(t_bytes32,t_struct(RoleData)2338_storage)": {
        "encoding": "mapping",
        "key": "t_bytes32",
        "label": "mapping(bytes32 => struct AccessControl.RoleData)",
        "numberOfBytes": "32",
        "value": "t_struct(RoleData)2338_storage"
      },
      "t_struct(RoleData)2338_storage": {
        "encoding": "inplace",
        "label": "struct AccessControl.RoleData",
        "members": [
          {
            "astId": 2335,
            "contract": "contracts/src/token/ERC1155/LPNFT.sol:LPNFT",
            "label": "hasRole",
            "offset": 0,
            "slot": "0",
            "type": "t_mapping(t_address,t_bool)"
          },
          {
            "astId": 2337,
            "contract": "contracts/src/token/ERC1155/LPNFT.sol:LPNFT",
            "label": "adminRole",
            "offset": 0,
            "slot": "1",
            "type": "t_bytes32"
          }
        ],
        "numberOfBytes": "64"
      },
      "t_uint256": {
        "encoding": "inplace",
        "label": "uint256",
        "numberOfBytes": "32"
      }
    }
  }
}