{
  "address": "0xe52cB492ffac292bd555237f13AA43D3f5481851",
  "abi": [
    {
      "inputs": [
        {
          "internalType": "address",
          "name": "owner_",
          "type": "address"
        }
      ],
      "stateMutability": "nonpayable",
      "type": "constructor"
    },
    {
      "inputs": [],
      "name": "AccessControlBadConfirmation",
      "type": "error"
    },
    {
      "inputs": [
        {
          "internalType": "address",
          "name": "account",
          "type": "address"
        },
        {
          "internalType": "bytes32",
          "name": "neededRole",
          "type": "bytes32"
        }
      ],
      "name": "AccessControlUnauthorizedAccount",
      "type": "error"
    },
    {
      "inputs": [
        {
          "internalType": "address",
          "name": "spender",
          "type": "address"
        },
        {
          "internalType": "uint256",
          "name": "allowance",
          "type": "uint256"
        },
        {
          "internalType": "uint256",
          "name": "needed",
          "type": "uint256"
        }
      ],
      "name": "ERC20InsufficientAllowance",
      "type": "error"
    },
    {
      "inputs": [
        {
          "internalType": "address",
          "name": "sender",
          "type": "address"
        },
        {
          "internalType": "uint256",
          "name": "balance",
          "type": "uint256"
        },
        {
          "internalType": "uint256",
          "name": "needed",
          "type": "uint256"
        }
      ],
      "name": "ERC20InsufficientBalance",
      "type": "error"
    },
    {
      "inputs": [
        {
          "internalType": "address",
          "name": "approver",
          "type": "address"
        }
      ],
      "name": "ERC20InvalidApprover",
      "type": "error"
    },
    {
      "inputs": [
        {
          "internalType": "address",
          "name": "receiver",
          "type": "address"
        }
      ],
      "name": "ERC20InvalidReceiver",
      "type": "error"
    },
    {
      "inputs": [
        {
          "internalType": "address",
          "name": "sender",
          "type": "address"
        }
      ],
      "name": "ERC20InvalidSender",
      "type": "error"
    },
    {
      "inputs": [
        {
          "internalType": "address",
          "name": "spender",
          "type": "address"
        }
      ],
      "name": "ERC20InvalidSpender",
      "type": "error"
    },
    {
      "inputs": [
        {
          "internalType": "address",
          "name": "from",
          "type": "address"
        },
        {
          "internalType": "address",
          "name": "to",
          "type": "address"
        },
        {
          "internalType": "uint256",
          "name": "value",
          "type": "uint256"
        }
      ],
      "name": "ERC20TransferAttempted",
      "type": "error"
    },
    {
      "inputs": [],
      "name": "InvalidInitialization",
      "type": "error"
    },
    {
      "inputs": [],
      "name": "NotInitializing",
      "type": "error"
    },
    {
      "anonymous": false,
      "inputs": [
        {
          "indexed": true,
          "internalType": "address",
          "name": "owner",
          "type": "address"
        },
        {
          "indexed": true,
          "internalType": "address",
          "name": "spender",
          "type": "address"
        },
        {
          "indexed": false,
          "internalType": "uint256",
          "name": "value",
          "type": "uint256"
        }
      ],
      "name": "Approval",
      "type": "event"
    },
    {
      "anonymous": false,
      "inputs": [
        {
          "indexed": false,
          "internalType": "uint64",
          "name": "version",
          "type": "uint64"
        }
      ],
      "name": "Initialized",
      "type": "event"
    },
    {
      "anonymous": false,
      "inputs": [
        {
          "indexed": true,
          "internalType": "bytes32",
          "name": "role",
          "type": "bytes32"
        },
        {
          "indexed": true,
          "internalType": "bytes32",
          "name": "previousAdminRole",
          "type": "bytes32"
        },
        {
          "indexed": true,
          "internalType": "bytes32",
          "name": "newAdminRole",
          "type": "bytes32"
        }
      ],
      "name": "RoleAdminChanged",
      "type": "event"
    },
    {
      "anonymous": false,
      "inputs": [
        {
          "indexed": true,
          "internalType": "bytes32",
          "name": "role",
          "type": "bytes32"
        },
        {
          "indexed": true,
          "internalType": "address",
          "name": "account",
          "type": "address"
        },
        {
          "indexed": true,
          "internalType": "address",
          "name": "sender",
          "type": "address"
        }
      ],
      "name": "RoleGranted",
      "type": "event"
    },
    {
      "anonymous": false,
      "inputs": [
        {
          "indexed": true,
          "internalType": "bytes32",
          "name": "role",
          "type": "bytes32"
        },
        {
          "indexed": true,
          "internalType": "address",
          "name": "account",
          "type": "address"
        },
        {
          "indexed": true,
          "internalType": "address",
          "name": "sender",
          "type": "address"
        }
      ],
      "name": "RoleRevoked",
      "type": "event"
    },
    {
      "anonymous": false,
      "inputs": [
        {
          "indexed": true,
          "internalType": "address",
          "name": "from",
          "type": "address"
        },
        {
          "indexed": true,
          "internalType": "address",
          "name": "to",
          "type": "address"
        },
        {
          "indexed": false,
          "internalType": "uint256",
          "name": "value",
          "type": "uint256"
        }
      ],
      "name": "Transfer",
      "type": "event"
    },
    {
      "inputs": [],
      "name": "DEFAULT_ADMIN_ROLE",
      "outputs": [
        {
          "internalType": "bytes32",
          "name": "",
          "type": "bytes32"
        }
      ],
      "stateMutability": "view",
      "type": "function"
    },
    {
      "inputs": [],
      "name": "ERC20_ISSUER_ROLE",
      "outputs": [
        {
          "internalType": "bytes32",
          "name": "",
          "type": "bytes32"
        }
      ],
      "stateMutability": "view",
      "type": "function"
    },
    {
      "inputs": [
        {
          "internalType": "address",
          "name": "owner",
          "type": "address"
        },
        {
          "internalType": "address",
          "name": "spender",
          "type": "address"
        }
      ],
      "name": "allowance",
      "outputs": [
        {
          "internalType": "uint256",
          "name": "",
          "type": "uint256"
        }
      ],
      "stateMutability": "view",
      "type": "function"
    },
    {
      "inputs": [
        {
          "internalType": "address",
          "name": "spender",
          "type": "address"
        },
        {
          "internalType": "uint256",
          "name": "value",
          "type": "uint256"
        }
      ],
      "name": "approve",
      "outputs": [
        {
          "internalType": "bool",
          "name": "",
          "type": "bool"
        }
      ],
      "stateMutability": "nonpayable",
      "type": "function"
    },
    {
      "inputs": [
        {
          "internalType": "address",
          "name": "account",
          "type": "address"
        }
      ],
      "name": "balanceOf",
      "outputs": [
        {
          "internalType": "uint256",
          "name": "",
          "type": "uint256"
        }
      ],
      "stateMutability": "view",
      "type": "function"
    },
    {
      "inputs": [
        {
          "internalType": "address",
          "name": "account",
          "type": "address"
        },
        {
          "internalType": "uint256",
          "name": "amount",
          "type": "uint256"
        }
      ],
      "name": "burn",
      "outputs": [],
      "stateMutability": "nonpayable",
      "type": "function"
    },
    {
      "inputs": [],
      "name": "decimals",
      "outputs": [
        {
          "internalType": "uint8",
          "name": "",
          "type": "uint8"
        }
      ],
      "stateMutability": "pure",
      "type": "function"
    },
    {
      "inputs": [
        {
          "internalType": "bytes32",
          "name": "role",
          "type": "bytes32"
        }
      ],
      "name": "getRoleAdmin",
      "outputs": [
        {
          "internalType": "bytes32",
          "name": "",
          "type": "bytes32"
        }
      ],
      "stateMutability": "view",
      "type": "function"
    },
    {
      "inputs": [
        {
          "internalType": "bytes32",
          "name": "role",
          "type": "bytes32"
        },
        {
          "internalType": "address",
          "name": "account",
          "type": "address"
        }
      ],
      "name": "grantRole",
      "outputs": [],
      "stateMutability": "nonpayable",
      "type": "function"
    },
    {
      "inputs": [
        {
          "internalType": "bytes32",
          "name": "role",
          "type": "bytes32"
        },
        {
          "internalType": "address",
          "name": "account",
          "type": "address"
        }
      ],
      "name": "hasRole",
      "outputs": [
        {
          "internalType": "bool",
          "name": "",
          "type": "bool"
        }
      ],
      "stateMutability": "view",
      "type": "function"
    },
    {
      "inputs": [
        {
          "internalType": "address",
          "name": "owner_",
          "type": "address"
        }
      ],
      "name": "initialize",
      "outputs": [],
      "stateMutability": "nonpayable",
      "type": "function"
    },
    {
      "inputs": [
        {
          "internalType": "address",
          "name": "to",
          "type": "address"
        },
        {
          "internalType": "uint256",
          "name": "amount",
          "type": "uint256"
        }
      ],
      "name": "mint",
      "outputs": [],
      "stateMutability": "nonpayable",
      "type": "function"
    },
    {
      "inputs": [],
      "name": "name",
      "outputs": [
        {
          "internalType": "string",
          "name": "",
          "type": "string"
        }
      ],
      "stateMutability": "view",
      "type": "function"
    },
    {
      "inputs": [
        {
          "internalType": "bytes32",
          "name": "role",
          "type": "bytes32"
        },
        {
          "internalType": "address",
          "name": "callerConfirmation",
          "type": "address"
        }
      ],
      "name": "renounceRole",
      "outputs": [],
      "stateMutability": "nonpayable",
      "type": "function"
    },
    {
      "inputs": [
        {
          "internalType": "bytes32",
          "name": "role",
          "type": "bytes32"
        },
        {
          "internalType": "address",
          "name": "account",
          "type": "address"
        }
      ],
      "name": "revokeRole",
      "outputs": [],
      "stateMutability": "nonpayable",
      "type": "function"
    },
    {
      "inputs": [
        {
          "internalType": "bytes4",
          "name": "interfaceId",
          "type": "bytes4"
        }
      ],
      "name": "supportsInterface",
      "outputs": [
        {
          "internalType": "bool",
          "name": "",
          "type": "bool"
        }
      ],
      "stateMutability": "view",
      "type": "function"
    },
    {
      "inputs": [],
      "name": "symbol",
      "outputs": [
        {
          "internalType": "string",
          "name": "",
          "type": "string"
        }
      ],
      "stateMutability": "view",
      "type": "function"
    },
    {
      "inputs": [],
      "name": "totalSupply",
      "outputs": [
        {
          "internalType": "uint256",
          "name": "",
          "type": "uint256"
        }
      ],
      "stateMutability": "view",
      "type": "function"
    },
    {
      "inputs": [
        {
          "internalType": "address",
          "name": "to",
          "type": "address"
        },
        {
          "internalType": "uint256",
          "name": "value",
          "type": "uint256"
        }
      ],
      "name": "transfer",
      "outputs": [
        {
          "internalType": "bool",
          "name": "",
          "type": "bool"
        }
      ],
      "stateMutability": "nonpayable",
      "type": "function"
    },
    {
      "inputs": [
        {
          "internalType": "address",
          "name": "from",
          "type": "address"
        },
        {
          "internalType": "address",
          "name": "to",
          "type": "address"
        },
        {
          "internalType": "uint256",
          "name": "value",
          "type": "uint256"
        }
      ],
      "name": "transferFrom",
      "outputs": [
        {
          "internalType": "bool",
          "name": "",
          "type": "bool"
        }
      ],
      "stateMutability": "nonpayable",
      "type": "function"
    }
  ],
  "transactionHash": "0x19553043d7ee659872714527f8cb2e6a673c9ce4856512044f4e9c0942fe7f8a",
  "args": [
    "0x5Eb8d8a368B1F1A9de0c2E489e270d7AFD389C3C"
  ],
  "numDeployments": 1,
  "solcInputHash": "9eaa9fa15edb9065feab4ae045ea31f5",
  "bytecode": "0x608060405234801561001057600080fd5b506040516116a13803806116a183398101604081905261002f916103a9565b6100388161003e565b50610536565b7ff0c57e16840df040f15088dc2f81fe391c3923bec73e23a9662efc9c229c6a00805468010000000000000000810460ff1615906001600160401b03166000811580156100885750825b90506000826001600160401b031660011480156100a45750303b155b9050811580156100b2575080155b156100d05760405163f92ee8a960e01b815260040160405180910390fd5b84546001600160401b031916600117855583156100fe57845460ff60401b1916680100000000000000001785555b6001600160a01b0386166101485760405162461bcd60e51b815260206004820152600d60248201526c24b73b30b634b21037bbb732b960991b604482015260640160405180910390fd5b610150610201565b6101a7604051806040016040528060118152602001704c5020506f77656c6c2050656e6e69657360781b815250604051806040016040528060068152602001654c50504f573160d01b81525061020b60201b60201c565b6101b2600087610221565b5083156101f957845460ff60401b19168555604051600181527fc7f505b2f371ae2175ee4913f4499e1f2633a7b5936321eed1cdaeb6115181d29060200160405180910390a15b505050505050565b6102096102f2565b565b6102136102f2565b61021d8282610340565b5050565b60008281527f02dd7bc7dec4dceedda775e58dd541e08a116c6c53815c0bd028192f7b626800602081815260408084206001600160a01b038616855290915282205460ff166102e6576000848152602082815260408083206001600160a01b03871684529091529020805460ff1916600117905561029c3390565b6001600160a01b0316836001600160a01b0316857f2f8788117e7eff1d82e926ec794901d17c78024a50270940304540a733656f0d60405160405180910390a460019150506102ec565b60009150505b92915050565b7ff0c57e16840df040f15088dc2f81fe391c3923bec73e23a9662efc9c229c6a005468010000000000000000900460ff1661020957604051631afcd79f60e31b815260040160405180910390fd5b6103486102f2565b7f52c63247e1f47db19d5ce0460030c497f067ca4cebf71ba98eeadabe20bace007f52c63247e1f47db19d5ce0460030c497f067ca4cebf71ba98eeadabe20bace036103948482610478565b50600481016103a38382610478565b50505050565b6000602082840312156103bb57600080fd5b81516001600160a01b03811681146103d257600080fd5b9392505050565b634e487b7160e01b600052604160045260246000fd5b600181811c9082168061040357607f821691505b60208210810361042357634e487b7160e01b600052602260045260246000fd5b50919050565b601f82111561047357806000526020600020601f840160051c810160208510156104505750805b601f840160051c820191505b81811015610470576000815560010161045c565b50505b505050565b81516001600160401b03811115610491576104916103d9565b6104a58161049f84546103ef565b84610429565b6020601f8211600181146104d957600083156104c15750848201515b600019600385901b1c1916600184901b178455610470565b600084815260208120601f198516915b8281101561050957878501518255602094850194600190920191016104e9565b50848210156105275786840151600019600387901b60f8161c191681555b50505050600190811b01905550565b61115c806105456000396000f3fe608060405234801561001057600080fd5b506004361061012c5760003560e01c806340c10f19116100ad578063a217fddf11610071578063a217fddf146102a5578063a9059cbb146102ad578063c4d66de8146102c0578063d547741f146102d3578063dd62ed3e146102e657600080fd5b806340c10f191461022e57806370a082311461024157806391d148541461027757806395d89b411461028a5780639dc29fac1461029257600080fd5b806323b872dd116100f457806323b872dd146101d1578063248a9ca3146101e45780632f2ff15d146101f7578063313ce5671461020c57806336568abe1461021b57600080fd5b806301ffc9a71461013157806306fdde0314610159578063095ea7b31461016e57806317bef7161461018157806318160ddd146101aa575b600080fd5b61014461013f366004610de3565b6102f9565b60405190151581526020015b60405180910390f35b61016161035b565b6040516101509190610e14565b61014461017c366004610e7e565b61041e565b61019c7045524332305f4953535545525f524f4c4560781b81565b604051908152602001610150565b7f52c63247e1f47db19d5ce0460030c497f067ca4cebf71ba98eeadabe20bace025461019c565b6101446101df366004610ea8565b610436565b61019c6101f2366004610ee5565b61045a565b61020a610205366004610efe565b61047c565b005b60405160108152602001610150565b61020a610229366004610efe565b61049e565b61020a61023c366004610e7e565b6104d6565b61019c61024f366004610f2a565b6001600160a01b031660009081526000805160206110e7833981519152602052604090205490565b610144610285366004610efe565b610501565b610161610539565b61020a6102a0366004610e7e565b610578565b61019c600081565b6101446102bb366004610e7e565b61059f565b61020a6102ce366004610f2a565b6105ad565b61020a6102e1366004610efe565b610764565b61019c6102f4366004610f45565b610780565b6000610304826107ca565b8061031f57506001600160e01b031982166336372b0760e01b145b8061033a57506001600160e01b0319821663a219a02560e01b145b8061035557506001600160e01b0319821663dd0390b560e01b145b92915050565b7f52c63247e1f47db19d5ce0460030c497f067ca4cebf71ba98eeadabe20bace0380546060916000805160206110e78339815191529161039a90610f6f565b80601f01602080910402602001604051908101604052809291908181526020018280546103c690610f6f565b80156104135780601f106103e857610100808354040283529160200191610413565b820191906000526020600020905b8154815290600101906020018083116103f657829003601f168201915b505050505091505090565b60003361042c8185856107ff565b5060019392505050565b60003361044485828561080c565b61044f85858561086c565b506001949350505050565b6000908152600080516020611107833981519152602052604090206001015490565b6104858261045a565b61048e816108cb565b61049883836108d8565b50505050565b6001600160a01b03811633146104c75760405163334bd91960e11b815260040160405180910390fd5b6104d1828261097d565b505050565b6104f37045524332305f4953535545525f524f4c4560781b6108cb565b6104fd82826109f9565b5050565b6000918252600080516020611107833981519152602090815260408084206001600160a01b0393909316845291905290205460ff1690565b7f52c63247e1f47db19d5ce0460030c497f067ca4cebf71ba98eeadabe20bace0480546060916000805160206110e78339815191529161039a90610f6f565b6105957045524332305f4953535545525f524f4c4560781b6108cb565b6104fd8282610a2f565b60003361042c81858561086c565b7ff0c57e16840df040f15088dc2f81fe391c3923bec73e23a9662efc9c229c6a008054600160401b810460ff16159067ffffffffffffffff166000811580156105f35750825b905060008267ffffffffffffffff1660011480156106105750303b155b90508115801561061e575080155b1561063c5760405163f92ee8a960e01b815260040160405180910390fd5b845467ffffffffffffffff19166001178555831561066657845460ff60401b1916600160401b1785555b6001600160a01b0386166106b15760405162461bcd60e51b815260206004820152600d60248201526c24b73b30b634b21037bbb732b960991b60448201526064015b60405180910390fd5b6106b9610a65565b61070a604051806040016040528060118152602001704c5020506f77656c6c2050656e6e69657360781b815250604051806040016040528060068152602001654c50504f573160d01b815250610a6f565b6107156000876108d8565b50831561075c57845460ff60401b19168555604051600181527fc7f505b2f371ae2175ee4913f4499e1f2633a7b5936321eed1cdaeb6115181d29060200160405180910390a15b505050505050565b61076d8261045a565b610776816108cb565b610498838361097d565b6001600160a01b0391821660009081527f52c63247e1f47db19d5ce0460030c497f067ca4cebf71ba98eeadabe20bace016020908152604080832093909416825291909152205490565b60006001600160e01b03198216637965db0b60e01b148061035557506301ffc9a760e01b6001600160e01b0319831614610355565b6104d18383836001610a81565b60006108188484610780565b90506000198114610498578181101561085d57604051637dc7a0d960e11b81526001600160a01b038416600482015260248101829052604481018390526064016106a8565b61049884848484036000610a81565b6001600160a01b03831661089657604051634b637e8f60e11b8152600060048201526024016106a8565b6001600160a01b0382166108c05760405163ec442f0560e01b8152600060048201526024016106a8565b6104d1838383610b69565b6108d58133610b74565b50565b60006000805160206111078339815191526108f38484610501565b610973576000848152602082815260408083206001600160a01b03871684529091529020805460ff191660011790556109293390565b6001600160a01b0316836001600160a01b0316857f2f8788117e7eff1d82e926ec794901d17c78024a50270940304540a733656f0d60405160405180910390a46001915050610355565b6000915050610355565b60006000805160206111078339815191526109988484610501565b15610973576000848152602082815260408083206001600160a01b0387168085529252808320805460ff1916905551339287917ff6391f5c32d9c69d2a47ea670b442974b53935d1edc7fd64eb21e047a839171b9190a46001915050610355565b6001600160a01b038216610a235760405163ec442f0560e01b8152600060048201526024016106a8565b6104fd60008383610b69565b6001600160a01b038216610a5957604051634b637e8f60e11b8152600060048201526024016106a8565b6104fd82600083610b69565b610a6d610bad565b565b610a77610bad565b6104fd8282610bf6565b6000805160206110e78339815191526001600160a01b038516610aba5760405163e602df0560e01b8152600060048201526024016106a8565b6001600160a01b038416610ae457604051634a1406b160e11b8152600060048201526024016106a8565b6001600160a01b03808616600090815260018301602090815260408083209388168352929052208390558115610b6257836001600160a01b0316856001600160a01b03167f8c5be1e5ebec7d5bd14f71427d1e84f3dd0314c0f7b2291e5b200ac8c7c3b92585604051610b5991815260200190565b60405180910390a35b5050505050565b6104d1838383610c47565b610b7e8282610501565b6104fd5760405163e2517d3f60e01b81526001600160a01b0382166004820152602481018390526044016106a8565b7ff0c57e16840df040f15088dc2f81fe391c3923bec73e23a9662efc9c229c6a0054600160401b900460ff16610a6d57604051631afcd79f60e31b815260040160405180910390fd5b610bfe610bad565b6000805160206110e78339815191527f52c63247e1f47db19d5ce0460030c497f067ca4cebf71ba98eeadabe20bace03610c388482611006565b50600481016104988382611006565b6001600160a01b03831615801590610c6757506001600160a01b03821615155b15610c9f57604051634fc2012d60e11b81526001600160a01b03808516600483015283166024820152604481018290526064016106a8565b6104d18383836000805160206110e78339815191526001600160a01b038416610ce15781816002016000828254610cd691906110c5565b90915550610d539050565b6001600160a01b03841660009081526020829052604090205482811015610d345760405163391434e360e21b81526001600160a01b038616600482015260248101829052604481018490526064016106a8565b6001600160a01b03851660009081526020839052604090209083900390555b6001600160a01b038316610d71576002810180548390039055610d90565b6001600160a01b03831660009081526020829052604090208054830190555b826001600160a01b0316846001600160a01b03167fddf252ad1be2c89b69c2b068fc378daa952ba7f163c4a11628f55a4df523b3ef84604051610dd591815260200190565b60405180910390a350505050565b600060208284031215610df557600080fd5b81356001600160e01b031981168114610e0d57600080fd5b9392505050565b602081526000825180602084015260005b81811015610e425760208186018101516040868401015201610e25565b506000604082850101526040601f19601f83011684010191505092915050565b80356001600160a01b0381168114610e7957600080fd5b919050565b60008060408385031215610e9157600080fd5b610e9a83610e62565b946020939093013593505050565b600080600060608486031215610ebd57600080fd5b610ec684610e62565b9250610ed460208501610e62565b929592945050506040919091013590565b600060208284031215610ef757600080fd5b5035919050565b60008060408385031215610f1157600080fd5b82359150610f2160208401610e62565b90509250929050565b600060208284031215610f3c57600080fd5b610e0d82610e62565b60008060408385031215610f5857600080fd5b610f6183610e62565b9150610f2160208401610e62565b600181811c90821680610f8357607f821691505b602082108103610fa357634e487b7160e01b600052602260045260246000fd5b50919050565b634e487b7160e01b600052604160045260246000fd5b601f8211156104d157806000526020600020601f840160051c81016020851015610fe65750805b601f840160051c820191505b81811015610b625760008155600101610ff2565b815167ffffffffffffffff81111561102057611020610fa9565b6110348161102e8454610f6f565b84610fbf565b6020601f82116001811461106857600083156110505750848201515b600019600385901b1c1916600184901b178455610b62565b600084815260208120601f198516915b828110156110985787850151825560209485019460019092019101611078565b50848210156110b65786840151600019600387901b60f8161c191681555b50505050600190811b01905550565b8082018082111561035557634e487b7160e01b600052601160045260246000fdfe52c63247e1f47db19d5ce0460030c497f067ca4cebf71ba98eeadabe20bace0002dd7bc7dec4dceedda775e58dd541e08a116c6c53815c0bd028192f7b626800a264697066735822122032d9715e9c81ebacf21e88f6f7090ac5fc3a0284e86a300b7e0545e5ece3a25e64736f6c634300081c0033",
  "devdoc": {
    "details": "See https://eips.ethereum.org/EIPS/eip-20",
    "errors": {
      "AccessControlBadConfirmation()": [
        {
          "details": "The caller of a function is not the expected one. NOTE: Don't confuse with {AccessControlUnauthorizedAccount}."
        }
      ],
      "AccessControlUnauthorizedAccount(address,bytes32)": [
        {
          "details": "The `account` is missing a role."
        }
      ],
      "ERC20InsufficientAllowance(address,uint256,uint256)": [
        {
          "details": "Indicates a failure with the `spender`s `allowance`. Used in transfers.",
          "params": {
            "allowance": "Amount of tokens a `spender` is allowed to operate with.",
            "needed": "Minimum amount required to perform a transfer.",
            "spender": "Address that may be allowed to operate on tokens without being their owner."
          }
        }
      ],
      "ERC20InsufficientBalance(address,uint256,uint256)": [
        {
          "details": "Indicates an error related to the current `balance` of a `sender`. Used in transfers.",
          "params": {
            "balance": "Current balance for the interacting account.",
            "needed": "Minimum amount required to perform a transfer.",
            "sender": "Address whose tokens are being transferred."
          }
        }
      ],
      "ERC20InvalidApprover(address)": [
        {
          "details": "Indicates a failure with the `approver` of a token to be approved. Used in approvals.",
          "params": {
            "approver": "Address initiating an approval operation."
          }
        }
      ],
      "ERC20InvalidReceiver(address)": [
        {
          "details": "Indicates a failure with the token `receiver`. Used in transfers.",
          "params": {
            "receiver": "Address to which tokens are being transferred."
          }
        }
      ],
      "ERC20InvalidSender(address)": [
        {
          "details": "Indicates a failure with the token `sender`. Used in transfers.",
          "params": {
            "sender": "Address whose tokens are being transferred."
          }
        }
      ],
      "ERC20InvalidSpender(address)": [
        {
          "details": "Indicates a failure with the `spender` to be approved. Used in approvals.",
          "params": {
            "spender": "Address that may be allowed to operate on tokens without being their owner."
          }
        }
      ],
      "ERC20TransferAttempted(address,address,uint256)": [
        {
          "details": "Emitted when a transfer is attempted",
          "params": {
            "from": "The sender",
            "to": "The recipient",
            "value": "The amount"
          }
        }
      ],
      "InvalidInitialization()": [
        {
          "details": "The contract is already initialized."
        }
      ],
      "NotInitializing()": [
        {
          "details": "The contract is not initializing."
        }
      ]
    },
    "events": {
      "Approval(address,address,uint256)": {
        "details": "Emitted when the allowance of a `spender` for an `owner` is set by a call to {approve}. `value` is the new allowance."
      },
      "Initialized(uint64)": {
        "details": "Triggered when the contract has been initialized or reinitialized."
      },
      "RoleAdminChanged(bytes32,bytes32,bytes32)": {
        "details": "Emitted when `newAdminRole` is set as ``role``'s admin role, replacing `previousAdminRole` `DEFAULT_ADMIN_ROLE` is the starting admin for all roles, despite {RoleAdminChanged} not being emitted signaling this."
      },
      "RoleGranted(bytes32,address,address)": {
        "details": "Emitted when `account` is granted `role`. `sender` is the account that originated the contract call. This account bears the admin role (for the granted role). Expected in cases where the role was granted using the internal {AccessControl-_grantRole}."
      },
      "RoleRevoked(bytes32,address,address)": {
        "details": "Emitted when `account` is revoked `role`. `sender` is the account that originated the contract call:   - if using `revokeRole`, it is the admin role bearer   - if using `renounceRole`, it is the role bearer (i.e. `account`)"
      },
      "Transfer(address,address,uint256)": {
        "details": "Emitted when `value` tokens are moved from one account (`from`) to another (`to`). Note that `value` may be zero."
      }
    },
    "kind": "dev",
    "methods": {
      "allowance(address,address)": {
        "details": "See {IERC20-allowance}."
      },
      "approve(address,uint256)": {
        "details": "See {IERC20-approve}. NOTE: If `value` is the maximum `uint256`, the allowance is not updated on `transferFrom`. This is semantically equivalent to an infinite approval. Requirements: - `spender` cannot be the zero address."
      },
      "balanceOf(address)": {
        "details": "See {IERC20-balanceOf}."
      },
      "burn(address,uint256)": {
        "details": "See {IERC20Issuable-burn}"
      },
      "constructor": {
        "details": "Constructor"
      },
      "decimals()": {
        "details": "See {IERC20Metadata-decimals}"
      },
      "getRoleAdmin(bytes32)": {
        "details": "Returns the admin role that controls `role`. See {grantRole} and {revokeRole}. To change a role's admin, use {_setRoleAdmin}."
      },
      "grantRole(bytes32,address)": {
        "details": "Grants `role` to `account`. If `account` had not been already granted `role`, emits a {RoleGranted} event. Requirements: - the caller must have ``role``'s admin role. May emit a {RoleGranted} event."
      },
      "hasRole(bytes32,address)": {
        "details": "Returns `true` if `account` has been granted `role`."
      },
      "initialize(address)": {
        "details": "Initializes the ERC-20 token with a name and symbol",
        "params": {
          "owner_": "The owner of the token"
        }
      },
      "mint(address,uint256)": {
        "details": "See {IERC20Issuable-mint}"
      },
      "name()": {
        "details": "Returns the name of the token."
      },
      "renounceRole(bytes32,address)": {
        "details": "Revokes `role` from the calling account. Roles are often managed via {grantRole} and {revokeRole}: this function's purpose is to provide a mechanism for accounts to lose their privileges if they are compromised (such as when a trusted device is misplaced). If the calling account had been revoked `role`, emits a {RoleRevoked} event. Requirements: - the caller must be `callerConfirmation`. May emit a {RoleRevoked} event."
      },
      "revokeRole(bytes32,address)": {
        "details": "Revokes `role` from `account`. If `account` had been granted `role`, emits a {RoleRevoked} event. Requirements: - the caller must have ``role``'s admin role. May emit a {RoleRevoked} event."
      },
      "supportsInterface(bytes4)": {
        "details": "See {IERC165-supportsInterface}"
      },
      "symbol()": {
        "details": "Returns the symbol of the token, usually a shorter version of the name."
      },
      "totalSupply()": {
        "details": "See {IERC20-totalSupply}."
      },
      "transfer(address,uint256)": {
        "details": "See {IERC20-transfer}. Requirements: - `to` cannot be the zero address. - the caller must have a balance of at least `value`."
      },
      "transferFrom(address,address,uint256)": {
        "details": "See {IERC20-transferFrom}. Skips emitting an {Approval} event indicating an allowance update. This is not required by the ERC. See {xref-ERC20-_approve-address-address-uint256-bool-}[_approve]. NOTE: Does not update the allowance if the current allowance is the maximum `uint256`. Requirements: - `from` and `to` cannot be the zero address. - `from` must have a balance of at least `value`. - the caller must have allowance for ``from``'s tokens of at least `value`."
      }
    },
    "stateVariables": {
      "DECIMALS": {
        "details": "The number of decimal places to which the token is divisible"
      },
      "TOKEN_NAME": {
        "details": "The ERC 20 token name used by wallets to identify the token"
      },
      "TOKEN_SYMBOL": {
        "details": "The ERC 20 token symbol used as an abbreviation of the token, such as BTC, ETH, AUG or SJCX."
      }
    },
    "title": "ERC-20: Token Standard implementation",
    "version": 1
  },
  "userdoc": {
    "kind": "user",
    "methods": {},
    "version": 1
  },
  "storageLayout": {
    "storage": [],
    "types": null
  }
}