{
  "address": "0xd621853d65eA069370efe04fc07846d0af4E2e78",
  "abi": [
    {
      "inputs": [
        {
          "internalType": "address",
          "name": "owner_",
          "type": "address"
        },
        {
          "internalType": "address",
          "name": "lpNftTemplate_",
          "type": "address"
        },
        {
          "internalType": "address",
          "name": "pow1Token_",
          "type": "address"
        },
        {
          "internalType": "address",
          "name": "pow5Token_",
          "type": "address"
        },
        {
          "internalType": "address",
          "name": "lpPow1Token_",
          "type": "address"
        },
        {
          "internalType": "address",
          "name": "lpPow5Token_",
          "type": "address"
        },
        {
          "internalType": "address",
          "name": "uniswapV3NftManager_",
          "type": "address"
        }
      ],
      "stateMutability": "nonpayable",
      "type": "constructor"
    },
    {
      "inputs": [],
      "name": "AccessControlBadConfirmation",
      "type": "error"
    },
    {
      "inputs": [
        {
          "internalType": "address",
          "name": "account",
          "type": "address"
        },
        {
          "internalType": "bytes32",
          "name": "neededRole",
          "type": "bytes32"
        }
      ],
      "name": "AccessControlUnauthorizedAccount",
      "type": "error"
    },
    {
      "inputs": [
        {
          "internalType": "uint256",
          "name": "tokenId",
          "type": "uint256"
        },
        {
          "internalType": "uint256",
          "name": "amount",
          "type": "uint256"
        }
      ],
      "name": "ERC1155EnumerableInvalidAmount",
      "type": "error"
    },
    {
      "inputs": [
        {
          "internalType": "address",
          "name": "sender",
          "type": "address"
        },
        {
          "internalType": "uint256",
          "name": "balance",
          "type": "uint256"
        },
        {
          "internalType": "uint256",
          "name": "needed",
          "type": "uint256"
        },
        {
          "internalType": "uint256",
          "name": "tokenId",
          "type": "uint256"
        }
      ],
      "name": "ERC1155InsufficientBalance",
      "type": "error"
    },
    {
      "inputs": [
        {
          "internalType": "address",
          "name": "approver",
          "type": "address"
        }
      ],
      "name": "ERC1155InvalidApprover",
      "type": "error"
    },
    {
      "inputs": [
        {
          "internalType": "uint256",
          "name": "idsLength",
          "type": "uint256"
        },
        {
          "internalType": "uint256",
          "name": "valuesLength",
          "type": "uint256"
        }
      ],
      "name": "ERC1155InvalidArrayLength",
      "type": "error"
    },
    {
      "inputs": [
        {
          "internalType": "address",
          "name": "operator",
          "type": "address"
        }
      ],
      "name": "ERC1155InvalidOperator",
      "type": "error"
    },
    {
      "inputs": [
        {
          "internalType": "address",
          "name": "receiver",
          "type": "address"
        }
      ],
      "name": "ERC1155InvalidReceiver",
      "type": "error"
    },
    {
      "inputs": [
        {
          "internalType": "address",
          "name": "sender",
          "type": "address"
        }
      ],
      "name": "ERC1155InvalidSender",
      "type": "error"
    },
    {
      "inputs": [
        {
          "internalType": "address",
          "name": "operator",
          "type": "address"
        },
        {
          "internalType": "address",
          "name": "owner",
          "type": "address"
        }
      ],
      "name": "ERC1155MissingApprovalForAll",
      "type": "error"
    },
    {
      "inputs": [],
      "name": "FailedDeployment",
      "type": "error"
    },
    {
      "inputs": [
        {
          "internalType": "uint256",
          "name": "balance",
          "type": "uint256"
        },
        {
          "internalType": "uint256",
          "name": "needed",
          "type": "uint256"
        }
      ],
      "name": "InsufficientBalance",
      "type": "error"
    },
    {
      "inputs": [],
      "name": "InvalidInitialization",
      "type": "error"
    },
    {
      "inputs": [],
      "name": "LPNFTInvalidTokenID",
      "type": "error"
    },
    {
      "inputs": [],
      "name": "LPSFTEmptyArray",
      "type": "error"
    },
    {
      "inputs": [
        {
          "internalType": "address",
          "name": "tokenAddress",
          "type": "address"
        }
      ],
      "name": "LPSFTInvalidAddress",
      "type": "error"
    },
    {
      "inputs": [
        {
          "internalType": "uint256",
          "name": "tokenId",
          "type": "uint256"
        }
      ],
      "name": "LPSFTInvalidToken",
      "type": "error"
    },
    {
      "inputs": [],
      "name": "NotInitializing",
      "type": "error"
    },
    {
      "inputs": [
        {
          "internalType": "string",
          "name": "interfaceId",
          "type": "string"
        }
      ],
      "name": "ReentrantCall",
      "type": "error"
    },
    {
      "inputs": [
        {
          "internalType": "address",
          "name": "token",
          "type": "address"
        }
      ],
      "name": "SafeERC20FailedOperation",
      "type": "error"
    },
    {
      "anonymous": false,
      "inputs": [
        {
          "indexed": true,
          "internalType": "address",
          "name": "account",
          "type": "address"
        },
        {
          "indexed": true,
          "internalType": "address",
          "name": "operator",
          "type": "address"
        },
        {
          "indexed": false,
          "internalType": "bool",
          "name": "approved",
          "type": "bool"
        }
      ],
      "name": "ApprovalForAll",
      "type": "event"
    },
    {
      "anonymous": false,
      "inputs": [
        {
          "indexed": false,
          "internalType": "uint64",
          "name": "version",
          "type": "uint64"
        }
      ],
      "name": "Initialized",
      "type": "event"
    },
    {
      "anonymous": false,
      "inputs": [
        {
          "indexed": true,
          "internalType": "bytes32",
          "name": "role",
          "type": "bytes32"
        },
        {
          "indexed": true,
          "internalType": "bytes32",
          "name": "previousAdminRole",
          "type": "bytes32"
        },
        {
          "indexed": true,
          "internalType": "bytes32",
          "name": "newAdminRole",
          "type": "bytes32"
        }
      ],
      "name": "RoleAdminChanged",
      "type": "event"
    },
    {
      "anonymous": false,
      "inputs": [
        {
          "indexed": true,
          "internalType": "bytes32",
          "name": "role",
          "type": "bytes32"
        },
        {
          "indexed": true,
          "internalType": "address",
          "name": "account",
          "type": "address"
        },
        {
          "indexed": true,
          "internalType": "address",
          "name": "sender",
          "type": "address"
        }
      ],
      "name": "RoleGranted",
      "type": "event"
    },
    {
      "anonymous": false,
      "inputs": [
        {
          "indexed": true,
          "internalType": "bytes32",
          "name": "role",
          "type": "bytes32"
        },
        {
          "indexed": true,
          "internalType": "address",
          "name": "account",
          "type": "address"
        },
        {
          "indexed": true,
          "internalType": "address",
          "name": "sender",
          "type": "address"
        }
      ],
      "name": "RoleRevoked",
      "type": "event"
    },
    {
      "anonymous": false,
      "inputs": [
        {
          "indexed": true,
          "internalType": "address",
          "name": "operator",
          "type": "address"
        },
        {
          "indexed": true,
          "internalType": "address",
          "name": "from",
          "type": "address"
        },
        {
          "indexed": true,
          "internalType": "address",
          "name": "to",
          "type": "address"
        },
        {
          "indexed": false,
          "internalType": "uint256[]",
          "name": "ids",
          "type": "uint256[]"
        },
        {
          "indexed": false,
          "internalType": "uint256[]",
          "name": "values",
          "type": "uint256[]"
        }
      ],
      "name": "TransferBatch",
      "type": "event"
    },
    {
      "anonymous": false,
      "inputs": [
        {
          "indexed": true,
          "internalType": "address",
          "name": "operator",
          "type": "address"
        },
        {
          "indexed": true,
          "internalType": "address",
          "name": "from",
          "type": "address"
        },
        {
          "indexed": true,
          "internalType": "address",
          "name": "to",
          "type": "address"
        },
        {
          "indexed": false,
          "internalType": "uint256",
          "name": "id",
          "type": "uint256"
        },
        {
          "indexed": false,
          "internalType": "uint256",
          "name": "value",
          "type": "uint256"
        }
      ],
      "name": "TransferSingle",
      "type": "event"
    },
    {
      "anonymous": false,
      "inputs": [
        {
          "indexed": false,
          "internalType": "string",
          "name": "value",
          "type": "string"
        },
        {
          "indexed": true,
          "internalType": "uint256",
          "name": "id",
          "type": "uint256"
        }
      ],
      "name": "URI",
      "type": "event"
    },
    {
      "inputs": [],
      "name": "DEFAULT_ADMIN_ROLE",
      "outputs": [
        {
          "internalType": "bytes32",
          "name": "",
          "type": "bytes32"
        }
      ],
      "stateMutability": "view",
      "type": "function"
    },
    {
      "inputs": [],
      "name": "LPSFT_ISSUER_ROLE",
      "outputs": [
        {
          "internalType": "bytes32",
          "name": "",
          "type": "bytes32"
        }
      ],
      "stateMutability": "view",
      "type": "function"
    },
    {
      "inputs": [
        {
          "internalType": "address",
          "name": "tokenAddress",
          "type": "address"
        }
      ],
      "name": "addressToTokenId",
      "outputs": [
        {
          "internalType": "uint256",
          "name": "",
          "type": "uint256"
        }
      ],
      "stateMutability": "view",
      "type": "function"
    },
    {
      "inputs": [
        {
          "internalType": "address[]",
          "name": "tokenAddresses",
          "type": "address[]"
        }
      ],
      "name": "addressesToTokenIds",
      "outputs": [
        {
          "internalType": "uint256[]",
          "name": "",
          "type": "uint256[]"
        }
      ],
      "stateMutability": "view",
      "type": "function"
    },
    {
      "inputs": [
        {
          "internalType": "address",
          "name": "account",
          "type": "address"
        },
        {
          "internalType": "uint256",
          "name": "id",
          "type": "uint256"
        }
      ],
      "name": "balanceOf",
      "outputs": [
        {
          "internalType": "uint256",
          "name": "",
          "type": "uint256"
        }
      ],
      "stateMutability": "view",
      "type": "function"
    },
    {
      "inputs": [
        {
          "internalType": "address[]",
          "name": "accounts",
          "type": "address[]"
        },
        {
          "internalType": "uint256[]",
          "name": "ids",
          "type": "uint256[]"
        }
      ],
      "name": "balanceOfBatch",
      "outputs": [
        {
          "internalType": "uint256[]",
          "name": "",
          "type": "uint256[]"
        }
      ],
      "stateMutability": "view",
      "type": "function"
    },
    {
      "inputs": [
        {
          "internalType": "address",
          "name": "from",
          "type": "address"
        },
        {
          "internalType": "uint256",
          "name": "sftTokenId",
          "type": "uint256"
        }
      ],
      "name": "burn",
      "outputs": [],
      "stateMutability": "nonpayable",
      "type": "function"
    },
    {
      "inputs": [
        {
          "internalType": "address",
          "name": "from",
          "type": "address"
        },
        {
          "internalType": "uint256[]",
          "name": "sftTokenIds",
          "type": "uint256[]"
        }
      ],
      "name": "burnBatch",
      "outputs": [],
      "stateMutability": "nonpayable",
      "type": "function"
    },
    {
      "inputs": [
        {
          "internalType": "bytes32",
          "name": "role",
          "type": "bytes32"
        }
      ],
      "name": "getRoleAdmin",
      "outputs": [
        {
          "internalType": "bytes32",
          "name": "",
          "type": "bytes32"
        }
      ],
      "stateMutability": "view",
      "type": "function"
    },
    {
      "inputs": [
        {
          "internalType": "address",
          "name": "account",
          "type": "address"
        }
      ],
      "name": "getTokenIds",
      "outputs": [
        {
          "internalType": "uint256[]",
          "name": "tokenIds",
          "type": "uint256[]"
        }
      ],
      "stateMutability": "view",
      "type": "function"
    },
    {
      "inputs": [
        {
          "internalType": "bytes32",
          "name": "role",
          "type": "bytes32"
        },
        {
          "internalType": "address",
          "name": "account",
          "type": "address"
        }
      ],
      "name": "grantRole",
      "outputs": [],
      "stateMutability": "nonpayable",
      "type": "function"
    },
    {
      "inputs": [
        {
          "internalType": "bytes32",
          "name": "role",
          "type": "bytes32"
        },
        {
          "internalType": "address",
          "name": "account",
          "type": "address"
        }
      ],
      "name": "hasRole",
      "outputs": [
        {
          "internalType": "bool",
          "name": "",
          "type": "bool"
        }
      ],
      "stateMutability": "view",
      "type": "function"
    },
    {
      "inputs": [
        {
          "internalType": "address",
          "name": "owner_",
          "type": "address"
        },
        {
          "internalType": "address",
          "name": "lpNftTemplate_",
          "type": "address"
        },
        {
          "internalType": "address",
          "name": "pow1Token_",
          "type": "address"
        },
        {
          "internalType": "address",
          "name": "pow5Token_",
          "type": "address"
        },
        {
          "internalType": "address",
          "name": "lpPow1Token_",
          "type": "address"
        },
        {
          "internalType": "address",
          "name": "lpPow5Token_",
          "type": "address"
        },
        {
          "internalType": "address",
          "name": "uniswapV3NftManager_",
          "type": "address"
        }
      ],
      "name": "initialize",
      "outputs": [],
      "stateMutability": "nonpayable",
      "type": "function"
    },
    {
      "inputs": [
        {
          "internalType": "address",
          "name": "account",
          "type": "address"
        },
        {
          "internalType": "address",
          "name": "operator",
          "type": "address"
        }
      ],
      "name": "isApprovedForAll",
      "outputs": [
        {
          "internalType": "bool",
          "name": "",
          "type": "bool"
        }
      ],
      "stateMutability": "view",
      "type": "function"
    },
    {
      "inputs": [],
      "name": "lpNftTemplate",
      "outputs": [
        {
          "internalType": "contract ILPNFT",
          "name": "",
          "type": "address"
        }
      ],
      "stateMutability": "view",
      "type": "function"
    },
    {
      "inputs": [],
      "name": "lpPow1Token",
      "outputs": [
        {
          "internalType": "contract IERC20Issuable",
          "name": "",
          "type": "address"
        }
      ],
      "stateMutability": "view",
      "type": "function"
    },
    {
      "inputs": [],
      "name": "lpPow5Token",
      "outputs": [
        {
          "internalType": "contract IERC20Issuable",
          "name": "",
          "type": "address"
        }
      ],
      "stateMutability": "view",
      "type": "function"
    },
    {
      "inputs": [
        {
          "internalType": "address",
          "name": "to",
          "type": "address"
        },
        {
          "internalType": "uint256",
          "name": "sftTokenId",
          "type": "uint256"
        },
        {
          "internalType": "bytes",
          "name": "data",
          "type": "bytes"
        }
      ],
      "name": "mint",
      "outputs": [],
      "stateMutability": "nonpayable",
      "type": "function"
    },
    {
      "inputs": [
        {
          "internalType": "address",
          "name": "to",
          "type": "address"
        },
        {
          "internalType": "uint256[]",
          "name": "sftTokenIds",
          "type": "uint256[]"
        },
        {
          "internalType": "bytes",
          "name": "data",
          "type": "bytes"
        }
      ],
      "name": "mintBatch",
      "outputs": [],
      "stateMutability": "nonpayable",
      "type": "function"
    },
    {
      "inputs": [
        {
          "internalType": "uint256",
          "name": "tokenId",
          "type": "uint256"
        }
      ],
      "name": "ownerOf",
      "outputs": [
        {
          "internalType": "address",
          "name": "owner",
          "type": "address"
        }
      ],
      "stateMutability": "view",
      "type": "function"
    },
    {
      "inputs": [],
      "name": "pow1Token",
      "outputs": [
        {
          "internalType": "contract IERC20",
          "name": "",
          "type": "address"
        }
      ],
      "stateMutability": "view",
      "type": "function"
    },
    {
      "inputs": [],
      "name": "pow5Token",
      "outputs": [
        {
          "internalType": "contract IERC20",
          "name": "",
          "type": "address"
        }
      ],
      "stateMutability": "view",
      "type": "function"
    },
    {
      "inputs": [
        {
          "internalType": "bytes32",
          "name": "role",
          "type": "bytes32"
        },
        {
          "internalType": "address",
          "name": "callerConfirmation",
          "type": "address"
        }
      ],
      "name": "renounceRole",
      "outputs": [],
      "stateMutability": "nonpayable",
      "type": "function"
    },
    {
      "inputs": [
        {
          "internalType": "bytes32",
          "name": "role",
          "type": "bytes32"
        },
        {
          "internalType": "address",
          "name": "account",
          "type": "address"
        }
      ],
      "name": "revokeRole",
      "outputs": [],
      "stateMutability": "nonpayable",
      "type": "function"
    },
    {
      "inputs": [
        {
          "internalType": "address",
          "name": "from",
          "type": "address"
        },
        {
          "internalType": "address",
          "name": "to",
          "type": "address"
        },
        {
          "internalType": "uint256[]",
          "name": "ids",
          "type": "uint256[]"
        },
        {
          "internalType": "uint256[]",
          "name": "values",
          "type": "uint256[]"
        },
        {
          "internalType": "bytes",
          "name": "data",
          "type": "bytes"
        }
      ],
      "name": "safeBatchTransferFrom",
      "outputs": [],
      "stateMutability": "nonpayable",
      "type": "function"
    },
    {
      "inputs": [
        {
          "internalType": "address",
          "name": "from",
          "type": "address"
        },
        {
          "internalType": "address",
          "name": "to",
          "type": "address"
        },
        {
          "internalType": "uint256",
          "name": "id",
          "type": "uint256"
        },
        {
          "internalType": "uint256",
          "name": "value",
          "type": "uint256"
        },
        {
          "internalType": "bytes",
          "name": "data",
          "type": "bytes"
        }
      ],
      "name": "safeTransferFrom",
      "outputs": [],
      "stateMutability": "nonpayable",
      "type": "function"
    },
    {
      "inputs": [
        {
          "internalType": "address",
          "name": "operator",
          "type": "address"
        },
        {
          "internalType": "bool",
          "name": "approved",
          "type": "bool"
        }
      ],
      "name": "setApprovalForAll",
      "outputs": [],
      "stateMutability": "nonpayable",
      "type": "function"
    },
    {
      "inputs": [
        {
          "internalType": "bytes4",
          "name": "interfaceId",
          "type": "bytes4"
        }
      ],
      "name": "supportsInterface",
      "outputs": [
        {
          "internalType": "bool",
          "name": "",
          "type": "bool"
        }
      ],
      "stateMutability": "view",
      "type": "function"
    },
    {
      "inputs": [
        {
          "internalType": "uint256",
          "name": "tokenId",
          "type": "uint256"
        }
      ],
      "name": "tokenIdToAddress",
      "outputs": [
        {
          "internalType": "address",
          "name": "",
          "type": "address"
        }
      ],
      "stateMutability": "view",
      "type": "function"
    },
    {
      "inputs": [
        {
          "internalType": "uint256[]",
          "name": "tokenIds",
          "type": "uint256[]"
        }
      ],
      "name": "tokenIdsToAddresses",
      "outputs": [
        {
          "internalType": "address[]",
          "name": "",
          "type": "address[]"
        }
      ],
      "stateMutability": "view",
      "type": "function"
    },
    {
      "inputs": [],
      "name": "totalSupply",
      "outputs": [
        {
          "internalType": "uint256",
          "name": "",
          "type": "uint256"
        }
      ],
      "stateMutability": "view",
      "type": "function"
    },
    {
      "inputs": [],
      "name": "uniswapV3NftManager",
      "outputs": [
        {
          "internalType": "contract INonfungiblePositionManager",
          "name": "",
          "type": "address"
        }
      ],
      "stateMutability": "view",
      "type": "function"
    },
    {
      "inputs": [
        {
          "internalType": "uint256",
          "name": "id",
          "type": "uint256"
        }
      ],
      "name": "uri",
      "outputs": [
        {
          "internalType": "string",
          "name": "",
          "type": "string"
        }
      ],
      "stateMutability": "view",
      "type": "function"
    }
  ],
  "transactionHash": "0xaaab05dae25fa402baae441eb8b4903d39c3674bf6765ec3ab5a1f6b97f17636",
  "args": [
    "0x5Eb8d8a368B1F1A9de0c2E489e270d7AFD389C3C",
    "0x9Fc651b7bA57A1A12AA53f309F4476d1c7c95F44",
    "0x3414381EF8d64a2c0E8eC785553534122312787e",
    "0x7b589E244173CE2d11d76878C053e25Dd72Ea610",
    "0xe52cB492ffac292bd555237f13AA43D3f5481851",
    "0x27a32088D0aA4ba5ac342fdD96b75994219609C6",
    "0x17af5Dd8e9a37cF78E9949C7E25D805937cDfbFB"
  ],
  "numDeployments": 1,
  "solcInputHash": "607dfe4437c93ddfbd36914a2ea77f31",
  "bytecode": "0x608060405234801561001057600080fd5b506040516142e93803806142e983398101604081905261002f9161060e565b61003e8787878787878761004a565b505050505050506107f0565b7ff0c57e16840df040f15088dc2f81fe391c3923bec73e23a9662efc9c229c6a00805468010000000000000000810460ff1615906001600160401b03166000811580156100945750825b90506000826001600160401b031660011480156100b05750303b155b9050811580156100be575080155b156100dc5760405163f92ee8a960e01b815260040160405180910390fd5b84546001600160401b0319166001178555831561010a57845460ff60401b1916680100000000000000001785555b6001600160a01b038c166101555760405162461bcd60e51b815260206004820152600d60248201526c24b73b30b634b21037bbb732b960991b60448201526064015b60405180910390fd5b6001600160a01b038b1661019b5760405162461bcd60e51b815260206004820152600d60248201526c125b9d985b1a59081314139195609a1b604482015260640161014c565b6001600160a01b038a166101e05760405162461bcd60e51b815260206004820152600c60248201526b496e76616c696420504f573160a01b604482015260640161014c565b6001600160a01b0389166102255760405162461bcd60e51b815260206004820152600c60248201526b496e76616c696420504f573560a01b604482015260640161014c565b6001600160a01b03881661026c5760405162461bcd60e51b815260206004820152600e60248201526d496e76616c6964204c50504f573160901b604482015260640161014c565b6001600160a01b0387166102b35760405162461bcd60e51b815260206004820152600e60248201526d496e76616c6964204c50504f573560901b604482015260640161014c565b6001600160a01b0386166103095760405162461bcd60e51b815260206004820152601e60248201527f496e76616c696420556e6973776170205633204e4654206d616e616765720000604482015260640161014c565b6103116103e8565b604080516020810190915260008152610329906103f2565b6103328b610406565b61033d60008d610476565b50600a80546001600160a01b03199081166001600160a01b038d811691909117909255600b805482168c8416179055600c805482168b8416179055600d805482168a8416179055600e805490911691881691909117905583156103da57845460ff60401b19168555604051600181527fc7f505b2f371ae2175ee4913f4499e1f2633a7b5936321eed1cdaeb6115181d29060200160405180910390a15b505050505050505050505050565b6103f0610547565b565b6103fa610547565b61040381610595565b50565b61040e610547565b6001600160a01b0381166104545760405162461bcd60e51b815260206004820152600d60248201526c125b9d985b1a59081314139195609a1b604482015260640161014c565b600780546001600160a01b0319166001600160a01b0392909216919091179055565b60008281527f02dd7bc7dec4dceedda775e58dd541e08a116c6c53815c0bd028192f7b626800602081815260408084206001600160a01b038616855290915282205460ff1661053b576000848152602082815260408083206001600160a01b03871684529091529020805460ff191660011790556104f13390565b6001600160a01b0316836001600160a01b0316857f2f8788117e7eff1d82e926ec794901d17c78024a50270940304540a733656f0d60405160405180910390a46001915050610541565b60009150505b92915050565b7ff0c57e16840df040f15088dc2f81fe391c3923bec73e23a9662efc9c229c6a005468010000000000000000900460ff166103f057604051631afcd79f60e31b815260040160405180910390fd5b61059d610547565b610403817f88be536d5240c274a3b1d3a1be54482fd9caa294f08c62a7cde569f49a3c45007f88be536d5240c274a3b1d3a1be54482fd9caa294f08c62a7cde569f49a3c45026105ed8382610732565b505050565b80516001600160a01b038116811461060957600080fd5b919050565b600080600080600080600060e0888a03121561062957600080fd5b610632886105f2565b9650610640602089016105f2565b955061064e604089016105f2565b945061065c606089016105f2565b935061066a608089016105f2565b925061067860a089016105f2565b915061068660c089016105f2565b905092959891949750929550565b634e487b7160e01b600052604160045260246000fd5b600181811c908216806106be57607f821691505b6020821081036106de57634e487b7160e01b600052602260045260246000fd5b50919050565b601f8211156105ed57806000526020600020601f840160051c8101602085101561070b5750805b601f840160051c820191505b8181101561072b5760008155600101610717565b5050505050565b81516001600160401b0381111561074b5761074b610694565b61075f8161075984546106aa565b846106e4565b6020601f821160018114610793576000831561077b5750848201515b600019600385901b1c1916600184901b17845561072b565b600084815260208120601f198516915b828110156107c357878501518255602094850194600190920191016107a3565b50848210156107e15786840151600019600387901b60f8161c191681555b50505050600190811b01905550565b613aea806107ff6000396000f3fe608060405234801561001057600080fd5b50600436106101fa5760003560e01c806391d148541161011a578063b5d73021116100ad578063d547741f1161007c578063d547741f1461047f578063e029982214610492578063e577046d146104a5578063e985e9c5146104b8578063f242432a146104cb57600080fd5b8063b5d730211461041e578063b9cda10f14610439578063c81fcc9514610459578063d004b0361461046c57600080fd5b8063a217fddf116100e9578063a217fddf146103dd578063a22cb465146103e5578063b1394f9c146103f8578063b2dc5dc31461040b57600080fd5b806391d1485414610391578063949f5d20146103a457806394d008ef146103b75780639dc29fac146103ca57600080fd5b80632eb2c2d6116101925780634983a4cd116101615780634983a4cd146103225780634e1273f4146103355780636352211e146103555780636511bf2e1461037e57600080fd5b80632eb2c2d6146102d65780632f2ff15d146102e957806335876476146102fc57806336568abe1461030f57600080fd5b806318160ddd116101ce57806318160ddd14610293578063228624821461029b578063248a9ca3146102b057806325e3a1c1146102c357600080fd5b8062fdd58e146101ff57806301ffc9a71461022557806308bb76a5146102485780630e89341c14610273575b600080fd5b61021261020d366004612e58565b6104de565b6040519081526020015b60405180910390f35b610238610233366004612e9a565b610515565b604051901515815260200161021c565b61025b610256366004612eb7565b610535565b6040516001600160a01b03909116815260200161021c565b610286610281366004612eb7565b610574565b60405161021c9190612f20565b600454610212565b6102ae6102a9366004613081565b610642565b005b6102126102be366004612eb7565b61071a565b600d5461025b906001600160a01b031681565b6102ae6102e43660046130fa565b61073c565b6102ae6102f73660046131b1565b6107a3565b6102ae61030a3660046131e1565b6107c5565b6102ae61031d3660046131b1565b610b35565b60075461025b906001600160a01b031681565b6103486103433660046132de565b610b68565b60405161021c9190613381565b61025b610363366004612eb7565b6000908152600560205260409020546001600160a01b031690565b61021261038c366004613394565b610c34565b61023861039f3660046131b1565b610c84565b600b5461025b906001600160a01b031681565b6102ae6103c53660046133b1565b610cbc565b6102ae6103d8366004612e58565b610d5f565b610212600081565b6102ae6103f33660046133f3565b610dfb565b610348610406366004613426565b610e06565b6102ae610419366004613462565b610ef9565b610212704c505346545f4953535545525f524f4c4560781b81565b61044c61044736600461349b565b610fc1565b60405161021c91906134cf565b600e5461025b906001600160a01b031681565b61034861047a366004613394565b6110a6565b6102ae61048d3660046131b1565b6110ca565b600a5461025b906001600160a01b031681565b600c5461025b906001600160a01b031681565b6102386104c636600461351b565b6110e6565b6102ae6104d9366004613549565b611133565b6000818152600080516020613a35833981519152602090815260408083206001600160a01b03861684529091529020545b92915050565b600061052082611192565b8061050f5750506001600160e01b0319161590565b600081600003610558576040516333204a0160e11b815260040160405180910390fd5b506000908152600860205260409020546001600160a01b031690565b606081600003610597576040516333204a0160e11b815260040160405180910390fd5b6000828152600860205260409020546001600160a01b0316806105d55760405163415986a760e01b8152600481018490526024015b60405180910390fd5b806001600160a01b031663eac989f86040518163ffffffff1660e01b8152600401600060405180830381865afa158015610613573d6000803e3d6000fd5b505050506040513d6000823e601f3d908101601f1916820160405261063b91908101906135a5565b9392505050565b61065b6002600080516020613a958339815191526111bd565b610678704c505346545f4953535545525f524f4c4560781b611211565b6001600160a01b0383166106aa57604051632bfa23e760e11b81526001600160a01b03841660048201526024016105cc565b81516000036106cc576040516310bce2b960e31b815260040160405180910390fd5b60006106d8835161121e565b90506106e68484838561129f565b50600080516020613a9583398151915260005260026020526001600080516020613a5583398151915255505050565b505050565b6000908152600080516020613a75833981519152602052604090206001015490565b336001600160a01b038616811480159061075d575061075b86826110e6565b155b1561078e5760405163711bec9160e11b81526001600160a01b038083166004830152871660248201526044016105cc565b61079b86868686866112d7565b505050505050565b6107ac8261071a565b6107b581611211565b6107bf838361133e565b50505050565b7ff0c57e16840df040f15088dc2f81fe391c3923bec73e23a9662efc9c229c6a008054600160401b810460ff1615906001600160401b031660008115801561080a5750825b90506000826001600160401b031660011480156108265750303b155b905081158015610834575080155b156108525760405163f92ee8a960e01b815260040160405180910390fd5b845467ffffffffffffffff19166001178555831561087c57845460ff60401b1916600160401b1785555b6001600160a01b038c166108a25760405162461bcd60e51b81526004016105cc9061361b565b6001600160a01b038b166108e85760405162461bcd60e51b815260206004820152600d60248201526c125b9d985b1a59081314139195609a1b60448201526064016105cc565b6001600160a01b038a1661092d5760405162461bcd60e51b815260206004820152600c60248201526b496e76616c696420504f573160a01b60448201526064016105cc565b6001600160a01b0389166109725760405162461bcd60e51b815260206004820152600c60248201526b496e76616c696420504f573560a01b60448201526064016105cc565b6001600160a01b0388166109b95760405162461bcd60e51b815260206004820152600e60248201526d496e76616c6964204c50504f573160901b60448201526064016105cc565b6001600160a01b038716610a005760405162461bcd60e51b815260206004820152600e60248201526d496e76616c6964204c50504f573560901b60448201526064016105cc565b6001600160a01b038616610a565760405162461bcd60e51b815260206004820152601e60248201527f496e76616c696420556e6973776170205633204e4654206d616e61676572000060448201526064016105cc565b610a5e6113e3565b610a76604051806020016040528060008152506113ed565b610a7f8b6113fe565b610a8a60008d61133e565b50600a80546001600160a01b03199081166001600160a01b038d811691909117909255600b805482168c8416179055600c805482168b8416179055600d805482168a8416179055600e80549091169188169190911790558315610b2757845460ff60401b19168555604051600181527fc7f505b2f371ae2175ee4913f4499e1f2633a7b5936321eed1cdaeb6115181d29060200160405180910390a15b505050505050505050505050565b6001600160a01b0381163314610b5e5760405163334bd91960e11b815260040160405180910390fd5b610715828261146e565b60608151835114610b995781518351604051635b05999160e01b8152600481019290925260248201526044016105cc565b600083516001600160401b03811115610bb457610bb4612f33565b604051908082528060200260200182016040528015610bdd578160200160208202803683370190505b50905060005b8451811015610c2c57602080820286010151610c07906020808402870101516104de565b828281518110610c1957610c19613642565b6020908102919091010152600101610be3565b509392505050565b60006001600160a01b038216610c68576040516337d7efc760e21b81526001600160a01b03831660048201526024016105cc565b506001600160a01b031660009081526009602052604090205490565b6000918252600080516020613a75833981519152602090815260408084206001600160a01b0393909316845291905290205460ff1690565b610cd56002600080516020613a958339815191526111bd565b610cf2704c505346545f4953535545525f524f4c4560781b611211565b6001600160a01b038316610d2457604051632bfa23e760e11b81526001600160a01b03841660048201526024016105cc565b610d3183836001846114ea565b600080516020613a9583398151915260005260026020526001600080516020613a5583398151915255505050565b610d786002600080516020613a958339815191526111bd565b610d95704c505346545f4953535545525f524f4c4560781b611211565b6001600160a01b038216610dbe57604051626a0d4560e21b8152600060048201526024016105cc565b610dca82826001611547565b600080516020613a9583398151915260005260026020526001600080516020613a55833981519152555050565b5050565b610df73383836115af565b80516060906000816001600160401b03811115610e2557610e25612f33565b604051908082528060200260200182016040528015610e4e578160200160208202803683370190505b50905060005b82811015610c2c576000858281518110610e7057610e70613642565b6020026020010151905060006001600160a01b0316816001600160a01b031603610eb8576040516337d7efc760e21b81526001600160a01b03821660048201526024016105cc565b6001600160a01b0381166000908152600960205260409020548351849084908110610ee557610ee5613642565b602090810291909101015250600101610e54565b610f126002600080516020613a958339815191526111bd565b610f2f704c505346545f4953535545525f524f4c4560781b611211565b6001600160a01b038216610f5857604051626a0d4560e21b8152600060048201526024016105cc565b8051600003610f7a576040516310bce2b960e31b815260040160405180910390fd5b6000610f86825161121e565b9050610f93838383611657565b50600080516020613a9583398151915260005260026020526001600080516020613a55833981519152555050565b80516060906000816001600160401b03811115610fe057610fe0612f33565b604051908082528060200260200182016040528015611009578160200160208202803683370190505b50905060005b82811015610c2c57600085828151811061102b5761102b613642565b6020026020010151905080600003611056576040516333204a0160e11b815260040160405180910390fd5b60008181526008602052604090205483516001600160a01b039091169084908490811061108557611085613642565b6001600160a01b03909216602092830291909101909101525060010161100f565b6001600160a01b038116600090815260066020526040902060609061063b8161169d565b6110d38261071a565b6110dc81611211565b6107bf838361146e565b6001600160a01b0391821660009081527f88be536d5240c274a3b1d3a1be54482fd9caa294f08c62a7cde569f49a3c45016020908152604080832093909416825291909152205460ff1690565b336001600160a01b0386168114801590611154575061115286826110e6565b155b156111855760405163711bec9160e11b81526001600160a01b038083166004830152871660248201526044016105cc565b61079b86868686866116aa565b600061119d82611738565b8061050f57506001600160e01b03198216634ca4770160e11b1492915050565b600081815260208390526040902054600119016111fc5760006111df82611763565b90508060405163b0cd348560e01b81526004016105cc9190612f20565b60009081526020919091526040902060029055565b61121b813361185b565b50565b60606000826001600160401b0381111561123a5761123a612f33565b604051908082528060200260200182016040528015611263578160200160208202803683370190505b50905060005b8381101561129857600182828151811061128557611285613642565b6020908102919091010152600101611269565b5092915050565b6001600160a01b0384166112c957604051632bfa23e760e11b8152600060048201526024016105cc565b6107bf600085858585611894565b6001600160a01b03841661130157604051632bfa23e760e11b8152600060048201526024016105cc565b6001600160a01b03851661132a57604051626a0d4560e21b8152600060048201526024016105cc565b6113378585858585611894565b5050505050565b6000600080516020613a758339815191526113598484610c84565b6113d9576000848152602082815260408083206001600160a01b03871684529091529020805460ff1916600117905561138f3390565b6001600160a01b0316836001600160a01b0316857f2f8788117e7eff1d82e926ec794901d17c78024a50270940304540a733656f0d60405160405180910390a4600191505061050f565b600091505061050f565b6113eb6118e7565b565b6113f56118e7565b61121b81611930565b6114066118e7565b6001600160a01b03811661144c5760405162461bcd60e51b815260206004820152600d60248201526c125b9d985b1a59081314139195609a1b60448201526064016105cc565b600780546001600160a01b0319166001600160a01b0392909216919091179055565b6000600080516020613a758339815191526114898484610c84565b156113d9576000848152602082815260408083206001600160a01b0387168085529252808320805460ff1916905551339287917ff6391f5c32d9c69d2a47ea670b442974b53935d1edc7fd64eb21e047a839171b9190a4600191505061050f565b6001600160a01b03841661151457604051632bfa23e760e11b8152600060048201526024016105cc565b6040805160018082526020820186905281830190815260608201859052608082019092529061079b600087848487611894565b6001600160a01b03831661157057604051626a0d4560e21b8152600060048201526024016105cc565b604080516001808252602082018590528183019081526060820184905260a0820190925260006080820181815291929161133791879185908590611894565b600080516020613a358339815191526001600160a01b0383166115e75760405162ced3e160e81b8152600060048201526024016105cc565b6001600160a01b038481166000818152600184016020908152604080832094881680845294825291829020805460ff191687151590811790915591519182527f17307eab39ab6107e8899845ad3d59bd9653f200f220920489ca2b5937696c31910160405180910390a350505050565b6001600160a01b03831661168057604051626a0d4560e21b8152600060048201526024016105cc565b610715836000848460405180602001604052806000815250611894565b6060600061063b83611941565b6001600160a01b0384166116d457604051632bfa23e760e11b8152600060048201526024016105cc565b6001600160a01b0385166116fd57604051626a0d4560e21b8152600060048201526024016105cc565b6040805160018082526020820186905281830190815260608201859052608082019092529061172f8787848487611894565b50505050505050565b60006117438261199d565b8061050f57506001600160e01b03198216630cabc4e360e31b1492915050565b606060005b60208160ff1610801561179c5750828160ff166020811061178b5761178b613642565b1a60f81b6001600160f81b03191615155b156117b357806117ab8161366e565b915050611768565b60008160ff166001600160401b038111156117d0576117d0612f33565b6040519080825280601f01601f1916602001820160405280156117fa576020820181803683370190505b50905060005b8260ff168160ff161015610c2c57848160ff166020811061182357611823613642565b1a60f81b828260ff168151811061183c5761183c613642565b60200101906001600160f81b031916908160001a905350600101611800565b6118658282610c84565b610df75760405163e2517d3f60e01b81526001600160a01b0382166004820152602481018390526044016105cc565b6118a0858585856119c2565b6001600160a01b0384161561133757825133906001036118d957602084810151908401516118d2838989858589611fc1565b505061079b565b61079b8187878787876120e5565b7ff0c57e16840df040f15088dc2f81fe391c3923bec73e23a9662efc9c229c6a0054600160401b900460ff166113eb57604051631afcd79f60e31b815260040160405180910390fd5b6119386118e7565b61121b816121ce565b60608160000180548060200260200160405190810160405280929190818152602001828054801561199157602002820191906000526020600020905b81548152602001906001019080831161197d575b50505050509050919050565b60006001600160e01b0319821663ab409cf560e01b148061050f575061050f82612208565b6119e1600370131414d195139bdb9499595b9d1c985b9d607a1b6111bd565b81516001600160a01b038416611c0d5760005b81811015611c0b576020808202850101516000611a1082610535565b90506001600160a01b038116611a3c5760405163415986a760e01b8152600481018390526024016105cc565b600c546040516370a0823160e01b81526001600160a01b03838116600483015260009216906370a0823190602401602060405180830381865afa158015611a87573d6000803e3d6000fd5b505050506040513d601f19601f82011682018060405250810190611aab919061368d565b600d546040516370a0823160e01b81526001600160a01b038581166004830152929350600092909116906370a0823190602401602060405180830381865afa158015611afb573d6000803e3d6000fd5b505050506040513d601f19601f82011682018060405250810190611b1f919061368d565b90508115611b8e57600c54604051632770a7eb60e21b81526001600160a01b0385811660048301526024820185905290911690639dc29fac90604401600060405180830381600087803b158015611b7557600080fd5b505af1158015611b89573d6000803e3d6000fd5b505050505b8015611bfb57600d54604051632770a7eb60e21b81526001600160a01b0385811660048301526024820184905290911690639dc29fac90604401600060405180830381600087803b158015611be257600080fd5b505af1158015611bf6573d6000803e3d6000fd5b505050505b5050600190920191506119f49050565b505b611c1985858585612248565b6001600160a01b038516611e4e5760005b81811015611e4c576020808202850101516000611c4682610535565b90506001600160a01b038116611c725760405163415986a760e01b8152600481018390526024016105cc565b600e5460405163133f757160e31b815260048101849052600091829182916001600160a01b0316906399fbab889060240161018060405180830381865afa158015611cc1573d6000803e3d6000fd5b505050506040513d601f19601f82011682018060405250810190611ce591906136f2565b5050600a54979c50959a5090985050506001600160a01b03808a169416939093149450849350611d26925050505750600a546001600160a01b038381169116145b15611d9e57600c546040516340c10f1960e01b81526001600160a01b0386811660048301526001600160801b0384166024830152909116906340c10f1990604401600060405180830381600087803b158015611d8157600080fd5b505af1158015611d95573d6000803e3d6000fd5b50505050611e3b565b600b546001600160a01b0384811691161480611dc75750600b546001600160a01b038381169116145b15611e3b57600d546040516340c10f1960e01b81526001600160a01b0386811660048301526001600160801b0384166024830152909116906340c10f1990604401600060405180830381600087803b158015611e2257600080fd5b505af1158015611e36573d6000803e3d6000fd5b505050505b505060019093019250611c2a915050565b505b6001600160a01b038416611f7a57600a546040516370a0823160e01b81523060048201526000916001600160a01b0316906370a0823190602401602060405180830381865afa158015611ea5573d6000803e3d6000fd5b505050506040513d601f19601f82011682018060405250810190611ec9919061368d565b600b546040516370a0823160e01b81523060048201529192506000916001600160a01b03909116906370a0823190602401602060405180830381865afa158015611f17573d6000803e3d6000fd5b505050506040513d601f19601f82011682018060405250810190611f3b919061368d565b90508115611f5a57600a54611f5a906001600160a01b031688846124b2565b8015611f7757600b54611f77906001600160a01b031688836124b2565b50505b5070131414d195139bdb9499595b9d1c985b9d607a1b600052600360205260017f41aa602ed4efb48217ca6217e77469fb9f314dd921110e329aecb996e27c1fa7556107bf565b6001600160a01b0384163b1561079b5760405163f23a6e6160e01b81526001600160a01b0385169063f23a6e619061200590899089908890889088906004016137d4565b6020604051808303816000875af1925050508015612040575060408051601f3d908101601f1916820190925261203d91810190613819565b60015b6120a9573d80801561206e576040519150601f19603f3d011682016040523d82523d6000602084013e612073565b606091505b5080516000036120a157604051632bfa23e760e11b81526001600160a01b03861660048201526024016105cc565b805181602001fd5b6001600160e01b0319811663f23a6e6160e01b1461172f57604051632bfa23e760e11b81526001600160a01b03861660048201526024016105cc565b6001600160a01b0384163b1561079b5760405163bc197c8160e01b81526001600160a01b0385169063bc197c81906121299089908990889088908890600401613836565b6020604051808303816000875af1925050508015612164575060408051601f3d908101601f1916820190925261216191810190613819565b60015b612192573d80801561206e576040519150601f19603f3d011682016040523d82523d6000602084013e612073565b6001600160e01b0319811663bc197c8160e01b1461172f57604051632bfa23e760e11b81526001600160a01b03861660048201526024016105cc565b600080516020613a358339815191527f88be536d5240c274a3b1d3a1be54482fd9caa294f08c62a7cde569f49a3c45026107158382613915565b60006001600160e01b03198216636cdb3d1360e11b148061223957506001600160e01b031982166303a24d0760e21b145b8061050f575061050f82612504565b61226d6001761314139195121bdb19195c939bdb9499595b9d1c985b9d604a1b6111bd565b6122778282612539565b815160005b81811015612458576020808202850101516001600160a01b03871661237e576000818152600860205260409020546001600160a01b031680156122d55760405163415986a760e01b8152600481018390526024016105cc565b6007546000906122ed906001600160a01b03166125b9565b600084815260086020908152604080832080546001600160a01b0319166001600160a01b038616908117909155808452600990925291829020869055905163fe4b84df60e01b8152600481018690529192509063fe4b84df90602401600060405180830381600087803b15801561236357600080fd5b505af1158015612377573d6000803e3d6000fd5b5050505050505b6001600160a01b03861661244f576000818152600860205260409020546001600160a01b0316806123c55760405163415986a760e01b8152600481018390526024016105cc565b600082815260086020908152604080832080546001600160a01b03191690556001600160a01b03848116808552600990935281842093909355516362a849dd60e11b8152918a1660048301529063c55093ba90602401600060405180830381600087803b15801561243557600080fd5b505af1158015612449573d6000803e3d6000fd5b50505050505b5060010161227c565b50612465858585856125c6565b50761314139195121bdb19195c939bdb9499595b9d1c985b9d604a1b600052600160208190527fb5acfd0d046d737e28bd7d1d2d10df601284f0ca8557551802172fa8e4ee6f0a556107bf565b604080516001600160a01b038416602482015260448082018490528251808303909101815260649091019091526020810180516001600160e01b031663a9059cbb60e01b1790526107159084906129c7565b60006001600160e01b03198216637965db0b60e01b148061050f57506301ffc9a760e01b6001600160e01b031983161461050f565b8151815180821461256757604051635b05999160e01b815260048101839052602481018290526044016105cc565b60005b8281101561133757602080820285010151806001146125b057602080830287010151604051631a796ab760e31b81526004810191909152602481018290526044016105cc565b5060010161256a565b600061050f826000612a38565b6125f160007f45524331313535456e756d657261626c654e6f6e5265656e7472616e740000006111bd565b6125fb8282612539565b815160005b81811015612967576020808202850101516001600160a01b038716612709576000818152600560205260409020546001600160a01b0316156126755760405162461bcd60e51b815260206004820152600e60248201526d105b1c9958591e481b5a5b9d195960921b60448201526064016105cc565b60016004600082825461268891906139d3565b9091555050600081815260056020908152604080832080546001600160a01b0319166001600160a01b038b169081179091558352600690915290206126cd9082612ace565b6127095760405162461bcd60e51b815260206004820152600d60248201526c105b1c9958591e481859191959609a1b60448201526064016105cc565b6001600160a01b0387161580159061272957506001600160a01b03861615155b15612847576000818152600560205260409020546001600160a01b038881169116146127675760405162461bcd60e51b81526004016105cc9061361b565b600081815260056020908152604080832080546001600160a01b0319166001600160a01b038b8116919091179091558a168352600690915290206127ab9082612ada565b6127e95760405162461bcd60e51b815260206004820152600f60248201526e105b1c9958591e481c995b5bdd9959608a1b60448201526064016105cc565b6001600160a01b038616600090815260066020526040902061280b9082612ace565b6128475760405162461bcd60e51b815260206004820152600d60248201526c105b1c9958591e481859191959609a1b60448201526064016105cc565b6001600160a01b03861661295e576000600454116128935760405162461bcd60e51b81526020600482015260096024820152684e6f20746f6b656e7360b81b60448201526064016105cc565b6000818152600560205260409020546001600160a01b038881169116146128cc5760405162461bcd60e51b81526004016105cc9061361b565b6001600460008282546128df91906139e6565b9091555050600081815260056020908152604080832080546001600160a01b03191690556001600160a01b038a168352600690915290206129209082612ada565b61295e5760405162461bcd60e51b815260206004820152600f60248201526e105b1c9958591e481c995b5bdd9959608a1b60448201526064016105cc565b50600101612600565b5061297485858585612ae6565b507f45524331313535456e756d657261626c654e6f6e5265656e7472616e74000000600090815260205260017f796c34628e8c9d17cc016a24fb742dff526bf48eaf46be1d6dc5bc628f518bf9556107bf565b600080602060008451602086016000885af1806129ea576040513d6000823e3d81fd5b50506000513d91508115612a02578060011415612a0f565b6001600160a01b0384163b155b156107bf57604051635274afe760e01b81526001600160a01b03851660048201526024016105cc565b600081471015612a645760405163cf47918160e01b8152476004820152602481018390526044016105cc565b763d602d80600a3d3981f3363d3d373d3d3d363d730000008360601b60e81c176000526e5af43d82803e903d91602b57fd5bf38360781b176020526037600983f090506001600160a01b03811661050f5760405163b06ebf3d60e01b815260040160405180910390fd5b600061063b8383612d0b565b600061063b8383612d5a565b80518251600080516020613a358339815191529114612b255782518251604051635b05999160e01b8152600481019290925260248201526044016105cc565b3360005b8451811015612c2b576020818102868101820151908601909101516001600160a01b03891615612bdc576000828152602086815260408083206001600160a01b038d16845290915290205481811015612bb5576040516303dee4c560e01b81526001600160a01b038b1660048201526024810182905260448101839052606481018490526084016105cc565b6000838152602087815260408083206001600160a01b038e16845290915290209082900390555b6001600160a01b03881615612c21576000828152602086815260408083206001600160a01b038c16845290915281208054839290612c1b9084906139d3565b90915550505b5050600101612b29565b508351600103612cac5760208401516000906020850151909150866001600160a01b0316886001600160a01b0316846001600160a01b03167fc3d58168c5ae7397731d063d5bbf3d657854427343f4c083240f7aacaa2d0f628585604051612c9d929190918252602082015260400190565b60405180910390a4505061079b565b846001600160a01b0316866001600160a01b0316826001600160a01b03167f4a39dc06d4c0dbc64b70af90fd698a233a518aa5d07e595d983b8c0526c8f7fb8787604051612cfb9291906139f9565b60405180910390a4505050505050565b6000818152600183016020526040812054612d525750815460018181018455600084815260208082209093018490558454848252828601909352604090209190915561050f565b50600061050f565b600081815260018301602052604081205480156113d9576000612d7e6001836139e6565b8554909150600090612d92906001906139e6565b9050808214612df7576000866000018281548110612db257612db2613642565b9060005260206000200154905080876000018481548110612dd557612dd5613642565b6000918252602080832090910192909255918252600188019052604090208390555b8554869080612e0857612e08613a1e565b60019003818190600052602060002001600090559055856001016000868152602001908152602001600020600090556001935050505061050f565b6001600160a01b038116811461121b57600080fd5b60008060408385031215612e6b57600080fd5b8235612e7681612e43565b946020939093013593505050565b6001600160e01b03198116811461121b57600080fd5b600060208284031215612eac57600080fd5b813561063b81612e84565b600060208284031215612ec957600080fd5b5035919050565b60005b83811015612eeb578181015183820152602001612ed3565b50506000910152565b60008151808452612f0c816020860160208601612ed0565b601f01601f19169290920160200192915050565b60208152600061063b6020830184612ef4565b634e487b7160e01b600052604160045260246000fd5b604051601f8201601f191681016001600160401b0381118282101715612f7157612f71612f33565b604052919050565b60006001600160401b03821115612f9257612f92612f33565b5060051b60200190565b600082601f830112612fad57600080fd5b8135612fc0612fbb82612f79565b612f49565b8082825260208201915060208360051b860101925085831115612fe257600080fd5b602085015b83811015612fff578035835260209283019201612fe7565b5095945050505050565b60006001600160401b0382111561302257613022612f33565b50601f01601f191660200190565b600082601f83011261304157600080fd5b813561304f612fbb82613009565b81815284602083860101111561306457600080fd5b816020850160208301376000918101602001919091529392505050565b60008060006060848603121561309657600080fd5b83356130a181612e43565b925060208401356001600160401b038111156130bc57600080fd5b6130c886828701612f9c565b92505060408401356001600160401b038111156130e457600080fd5b6130f086828701613030565b9150509250925092565b600080600080600060a0868803121561311257600080fd5b853561311d81612e43565b9450602086013561312d81612e43565b935060408601356001600160401b0381111561314857600080fd5b61315488828901612f9c565b93505060608601356001600160401b0381111561317057600080fd5b61317c88828901612f9c565b92505060808601356001600160401b0381111561319857600080fd5b6131a488828901613030565b9150509295509295909350565b600080604083850312156131c457600080fd5b8235915060208301356131d681612e43565b809150509250929050565b600080600080600080600060e0888a0312156131fc57600080fd5b873561320781612e43565b9650602088013561321781612e43565b9550604088013561322781612e43565b9450606088013561323781612e43565b9350608088013561324781612e43565b925060a088013561325781612e43565b915060c088013561326781612e43565b8091505092959891949750929550565b600082601f83011261328857600080fd5b8135613296612fbb82612f79565b8082825260208201915060208360051b8601019250858311156132b857600080fd5b602085015b83811015612fff5780356132d081612e43565b8352602092830192016132bd565b600080604083850312156132f157600080fd5b82356001600160401b0381111561330757600080fd5b61331385828601613277565b92505060208301356001600160401b0381111561332f57600080fd5b61333b85828601612f9c565b9150509250929050565b600081518084526020840193506020830160005b82811015613377578151865260209586019590910190600101613359565b5093949350505050565b60208152600061063b6020830184613345565b6000602082840312156133a657600080fd5b813561063b81612e43565b6000806000606084860312156133c657600080fd5b83356133d181612e43565b92506020840135915060408401356001600160401b038111156130e457600080fd5b6000806040838503121561340657600080fd5b823561341181612e43565b9150602083013580151581146131d657600080fd5b60006020828403121561343857600080fd5b81356001600160401b0381111561344e57600080fd5b61345a84828501613277565b949350505050565b6000806040838503121561347557600080fd5b823561348081612e43565b915060208301356001600160401b0381111561332f57600080fd5b6000602082840312156134ad57600080fd5b81356001600160401b038111156134c357600080fd5b61345a84828501612f9c565b602080825282518282018190526000918401906040840190835b818110156135105783516001600160a01b03168352602093840193909201916001016134e9565b509095945050505050565b6000806040838503121561352e57600080fd5b823561353981612e43565b915060208301356131d681612e43565b600080600080600060a0868803121561356157600080fd5b853561356c81612e43565b9450602086013561357c81612e43565b9350604086013592506060860135915060808601356001600160401b0381111561319857600080fd5b6000602082840312156135b757600080fd5b81516001600160401b038111156135cd57600080fd5b8201601f810184136135de57600080fd5b80516135ec612fbb82613009565b81815285602083850101111561360157600080fd5b613612826020830160208601612ed0565b95945050505050565b6020808252600d908201526c24b73b30b634b21037bbb732b960991b604082015260600190565b634e487b7160e01b600052603260045260246000fd5b634e487b7160e01b600052601160045260246000fd5b600060ff821660ff810361368457613684613658565b60010192915050565b60006020828403121561369f57600080fd5b5051919050565b80516136b181612e43565b919050565b805162ffffff811681146136b157600080fd5b8051600281900b81146136b157600080fd5b80516001600160801b03811681146136b157600080fd5b6000806000806000806000806000806000806101808d8f03121561371557600080fd5b8c516bffffffffffffffffffffffff8116811461373157600080fd5b9b5061373f60208e016136a6565b9a5061374d60408e016136a6565b995061375b60608e016136a6565b985061376960808e016136b6565b975061377760a08e016136c9565b965061378560c08e016136c9565b955061379360e08e016136db565b6101008e01516101208f0151919650945092506137b36101408e016136db565b91506137c26101608e016136db565b90509295989b509295989b509295989b565b6001600160a01b03868116825285166020820152604081018490526060810183905260a06080820181905260009061380e90830184612ef4565b979650505050505050565b60006020828403121561382b57600080fd5b815161063b81612e84565b6001600160a01b0386811682528516602082015260a06040820181905260009061386290830186613345565b82810360608401526138748186613345565b905082810360808401526138888185612ef4565b98975050505050505050565b600181811c908216806138a857607f821691505b6020821081036138c857634e487b7160e01b600052602260045260246000fd5b50919050565b601f82111561071557806000526020600020601f840160051c810160208510156138f55750805b601f840160051c820191505b818110156113375760008155600101613901565b81516001600160401b0381111561392e5761392e612f33565b6139428161393c8454613894565b846138ce565b6020601f821160018114613976576000831561395e5750848201515b600019600385901b1c1916600184901b178455611337565b600084815260208120601f198516915b828110156139a65787850151825560209485019460019092019101613986565b50848210156139c45786840151600019600387901b60f8161c191681555b50505050600190811b01905550565b8082018082111561050f5761050f613658565b8181038181111561050f5761050f613658565b604081526000613a0c6040830185613345565b82810360208401526136128185613345565b634e487b7160e01b600052603160045260246000fdfe88be536d5240c274a3b1d3a1be54482fd9caa294f08c62a7cde569f49a3c4500acb6199a2ec40f6894d5f8aed79cbe5284a65cc986eb05dfbbffcc8a70ff544102dd7bc7dec4dceedda775e58dd541e08a116c6c53815c0bd028192f7b6268004c505346544973737561626c654e6f6e5265656e7472616e7400000000000000a264697066735822122028cf070fa2c385319d427e59d6c05be556a7bd882c8e10a6215fcdb2947aefa264736f6c634300081c0033",
  "devdoc": {
    "details": "See https://eips.ethereum.org/EIPS/eip-1155",
    "errors": {
      "AccessControlBadConfirmation()": [
        {
          "details": "The caller of a function is not the expected one. NOTE: Don't confuse with {AccessControlUnauthorizedAccount}."
        }
      ],
      "AccessControlUnauthorizedAccount(address,bytes32)": [
        {
          "details": "The `account` is missing a role."
        }
      ],
      "ERC1155EnumerableInvalidAmount(uint256,uint256)": [
        {
          "details": "Error raised if the amount of an NFT is not 1",
          "params": {
            "amount": "The amount of the NFT token",
            "tokenId": "The ID of the NFT token with an invalid amount"
          }
        }
      ],
      "ERC1155InsufficientBalance(address,uint256,uint256,uint256)": [
        {
          "details": "Indicates an error related to the current `balance` of a `sender`. Used in transfers.",
          "params": {
            "balance": "Current balance for the interacting account.",
            "needed": "Minimum amount required to perform a transfer.",
            "sender": "Address whose tokens are being transferred.",
            "tokenId": "Identifier number of a token."
          }
        }
      ],
      "ERC1155InvalidApprover(address)": [
        {
          "details": "Indicates a failure with the `approver` of a token to be approved. Used in approvals.",
          "params": {
            "approver": "Address initiating an approval operation."
          }
        }
      ],
      "ERC1155InvalidArrayLength(uint256,uint256)": [
        {
          "details": "Indicates an array length mismatch between ids and values in a safeBatchTransferFrom operation. Used in batch transfers.",
          "params": {
            "idsLength": "Length of the array of token identifiers",
            "valuesLength": "Length of the array of token amounts"
          }
        }
      ],
      "ERC1155InvalidOperator(address)": [
        {
          "details": "Indicates a failure with the `operator` to be approved. Used in approvals.",
          "params": {
            "operator": "Address that may be allowed to operate on tokens without being their owner."
          }
        }
      ],
      "ERC1155InvalidReceiver(address)": [
        {
          "details": "Indicates a failure with the token `receiver`. Used in transfers.",
          "params": {
            "receiver": "Address to which tokens are being transferred."
          }
        }
      ],
      "ERC1155InvalidSender(address)": [
        {
          "details": "Indicates a failure with the token `sender`. Used in transfers.",
          "params": {
            "sender": "Address whose tokens are being transferred."
          }
        }
      ],
      "ERC1155MissingApprovalForAll(address,address)": [
        {
          "details": "Indicates a failure with the `operator`s approval. Used in transfers.",
          "params": {
            "operator": "Address that may be allowed to operate on tokens without being their owner.",
            "owner": "Address of the current owner of a token."
          }
        }
      ],
      "FailedDeployment()": [
        {
          "details": "The deployment failed."
        }
      ],
      "InsufficientBalance(uint256,uint256)": [
        {
          "details": "The ETH balance of the account is not enough to perform the operation."
        }
      ],
      "InvalidInitialization()": [
        {
          "details": "The contract is already initialized."
        }
      ],
      "LPNFTInvalidTokenID()": [
        {
          "details": "Error raised if a token ID is 0 Uniswap V3 LP-NFTs start with ID 1, so a token ID of 0 is used to indicate an invalid ID."
        }
      ],
      "LPSFTEmptyArray()": [
        {
          "details": "Indicates an array of length zero was passed for token IDs Used to avoid unnecessary transactions."
        }
      ],
      "LPSFTInvalidAddress(address)": [
        {
          "details": "Error raised if a token address doesn't belong to a token ID"
        }
      ],
      "LPSFTInvalidToken(uint256)": [
        {
          "details": "Error raised if a token doesn't exist",
          "params": {
            "tokenId": "The token ID that doesn't exist"
          }
        }
      ],
      "NotInitializing()": [
        {
          "details": "The contract is not initializing."
        }
      ],
      "ReentrantCall(string)": [
        {
          "details": "Error for reentrant calls",
          "params": {
            "interfaceId": "The unique identifier for the interface being reentered"
          }
        }
      ],
      "SafeERC20FailedOperation(address)": [
        {
          "details": "An operation with an ERC-20 token failed."
        }
      ]
    },
    "events": {
      "ApprovalForAll(address,address,bool)": {
        "details": "Emitted when `account` grants or revokes permission to `operator` to transfer their tokens, according to `approved`."
      },
      "Initialized(uint64)": {
        "details": "Triggered when the contract has been initialized or reinitialized."
      },
      "RoleAdminChanged(bytes32,bytes32,bytes32)": {
        "details": "Emitted when `newAdminRole` is set as ``role``'s admin role, replacing `previousAdminRole` `DEFAULT_ADMIN_ROLE` is the starting admin for all roles, despite {RoleAdminChanged} not being emitted signaling this."
      },
      "RoleGranted(bytes32,address,address)": {
        "details": "Emitted when `account` is granted `role`. `sender` is the account that originated the contract call. This account bears the admin role (for the granted role). Expected in cases where the role was granted using the internal {AccessControl-_grantRole}."
      },
      "RoleRevoked(bytes32,address,address)": {
        "details": "Emitted when `account` is revoked `role`. `sender` is the account that originated the contract call:   - if using `revokeRole`, it is the admin role bearer   - if using `renounceRole`, it is the role bearer (i.e. `account`)"
      },
      "TransferBatch(address,address,address,uint256[],uint256[])": {
        "details": "Equivalent to multiple {TransferSingle} events, where `operator`, `from` and `to` are the same for all transfers."
      },
      "TransferSingle(address,address,address,uint256,uint256)": {
        "details": "Emitted when `value` amount of tokens of type `id` are transferred from `from` to `to` by `operator`."
      },
      "URI(string,uint256)": {
        "details": "Emitted when the URI for token type `id` changes to `value`, if it is a non-programmatic URI. If an {URI} event was emitted for `id`, the standard https://eips.ethereum.org/EIPS/eip-1155#metadata-extensions[guarantees] that `value` will equal the value returned by {IERC1155MetadataURI-uri}."
      }
    },
    "kind": "dev",
    "methods": {
      "addressToTokenId(address)": {
        "details": "See {ILPNFTHolder-addressToTokenId}"
      },
      "addressesToTokenIds(address[])": {
        "details": "See {ILPNFTHolder-addressesToTokenIds}"
      },
      "balanceOf(address,uint256)": {
        "details": "See {IERC1155-balanceOf}."
      },
      "balanceOfBatch(address[],uint256[])": {
        "details": "See {IERC1155-balanceOfBatch}. Requirements: - `accounts` and `ids` must have the same length."
      },
      "burn(address,uint256)": {
        "details": "See {ILPSFTIssuable-burn}"
      },
      "burnBatch(address,uint256[])": {
        "details": "See {ILPSFTIssuable-burnBatch}"
      },
      "constructor": {
        "details": "Constructor"
      },
      "getRoleAdmin(bytes32)": {
        "details": "Returns the admin role that controls `role`. See {grantRole} and {revokeRole}. To change a role's admin, use {_setRoleAdmin}."
      },
      "getTokenIds(address)": {
        "details": "See {IERC1155Enumerable-getTokenIds}"
      },
      "grantRole(bytes32,address)": {
        "details": "Grants `role` to `account`. If `account` had not been already granted `role`, emits a {RoleGranted} event. Requirements: - the caller must have ``role``'s admin role. May emit a {RoleGranted} event."
      },
      "hasRole(bytes32,address)": {
        "details": "Returns `true` if `account` has been granted `role`."
      },
      "initialize(address,address,address,address,address,address,address)": {
        "details": "Initializes the ERC-1155 contract",
        "params": {
          "lpNftTemplate_": "The LP-NFT contract used for clones",
          "lpPow1Token_": "The LPPOW1 token",
          "lpPow5Token_": "The LPPOW5 token",
          "owner_": "The owner of the ERC-1155 contract",
          "pow1Token_": "The POW1 token",
          "pow5Token_": "The POW5 token",
          "uniswapV3NftManager_": "The Uniswap V3 NFT manager"
        }
      },
      "isApprovedForAll(address,address)": {
        "details": "See {IERC1155-isApprovedForAll}."
      },
      "mint(address,uint256,bytes)": {
        "details": "See {ILPSFTIssuable-mint}"
      },
      "mintBatch(address,uint256[],bytes)": {
        "details": "See {ILPSFTIssuable-mintBatch}"
      },
      "ownerOf(uint256)": {
        "details": "See {IERC1155Enumerable-ownerOf}"
      },
      "renounceRole(bytes32,address)": {
        "details": "Revokes `role` from the calling account. Roles are often managed via {grantRole} and {revokeRole}: this function's purpose is to provide a mechanism for accounts to lose their privileges if they are compromised (such as when a trusted device is misplaced). If the calling account had been revoked `role`, emits a {RoleRevoked} event. Requirements: - the caller must be `callerConfirmation`. May emit a {RoleRevoked} event."
      },
      "revokeRole(bytes32,address)": {
        "details": "Revokes `role` from `account`. If `account` had been granted `role`, emits a {RoleRevoked} event. Requirements: - the caller must have ``role``'s admin role. May emit a {RoleRevoked} event."
      },
      "safeBatchTransferFrom(address,address,uint256[],uint256[],bytes)": {
        "details": "See {IERC1155-safeBatchTransferFrom}."
      },
      "safeTransferFrom(address,address,uint256,uint256,bytes)": {
        "details": "See {IERC1155-safeTransferFrom}."
      },
      "setApprovalForAll(address,bool)": {
        "details": "See {IERC1155-setApprovalForAll}."
      },
      "supportsInterface(bytes4)": {
        "details": "See {IERC165-supportsInterface}"
      },
      "tokenIdToAddress(uint256)": {
        "details": "See {ILPNFTHolder-tokenIdToAddress}"
      },
      "tokenIdsToAddresses(uint256[])": {
        "details": "See {ILPNFTHolder-tokenIdsToAddresses}"
      },
      "totalSupply()": {
        "details": "See {IERC1155Enumerable-totalSupply}"
      },
      "uri(uint256)": {
        "details": "See {IERC1155MetadataURI-uri}"
      }
    },
    "stateVariables": {
      "lpPow1Token": {
        "details": "The LP POW1 token"
      },
      "lpPow5Token": {
        "details": "The LP POW5 token"
      },
      "pow1Token": {
        "details": "The POW1 token"
      },
      "pow5Token": {
        "details": "The POW5 token"
      },
      "uniswapV3NftManager": {
        "details": "The Uniswap V3 NFT manager"
      }
    },
    "title": "ERC-1155: Multi Token Standard implementation",
    "version": 1
  },
  "userdoc": {
    "kind": "user",
    "methods": {},
    "version": 1
  },
  "storageLayout": {
    "storage": [
      {
        "astId": 31692,
        "contract": "contracts/src/token/ERC1155/LPSFT.sol:LPSFT",
        "label": "_reentrancyStatus",
        "offset": 0,
        "slot": "0",
        "type": "t_struct(ReentrancyStatus)31876_storage"
      },
      {
        "astId": 31740,
        "contract": "contracts/src/token/ERC1155/LPSFT.sol:LPSFT",
        "label": "_reentrancyStatus",
        "offset": 0,
        "slot": "1",
        "type": "t_struct(ReentrancyStatus)31876_storage"
      },
      {
        "astId": 31788,
        "contract": "contracts/src/token/ERC1155/LPSFT.sol:LPSFT",
        "label": "_reentrancyStatus",
        "offset": 0,
        "slot": "2",
        "type": "t_struct(ReentrancyStatus)31876_storage"
      },
      {
        "astId": 31836,
        "contract": "contracts/src/token/ERC1155/LPSFT.sol:LPSFT",
        "label": "_reentrancyStatus",
        "offset": 0,
        "slot": "3",
        "type": "t_struct(ReentrancyStatus)31876_storage"
      },
      {
        "astId": 27246,
        "contract": "contracts/src/token/ERC1155/LPSFT.sol:LPSFT",
        "label": "_totalSupply",
        "offset": 0,
        "slot": "4",
        "type": "t_uint256"
      },
      {
        "astId": 27251,
        "contract": "contracts/src/token/ERC1155/LPSFT.sol:LPSFT",
        "label": "_tokenOwner",
        "offset": 0,
        "slot": "5",
        "type": "t_mapping(t_uint256,t_address)"
      },
      {
        "astId": 27257,
        "contract": "contracts/src/token/ERC1155/LPSFT.sol:LPSFT",
        "label": "_ownedTokens",
        "offset": 0,
        "slot": "6",
        "type": "t_mapping(t_address,t_struct(UintSet)10641_storage)"
      },
      {
        "astId": 27592,
        "contract": "contracts/src/token/ERC1155/LPSFT.sol:LPSFT",
        "label": "lpNftTemplate",
        "offset": 0,
        "slot": "7",
        "type": "t_contract(ILPNFT)25499"
      },
      {
        "astId": 27598,
        "contract": "contracts/src/token/ERC1155/LPSFT.sol:LPSFT",
        "label": "_tokenIdToToken",
        "offset": 0,
        "slot": "8",
        "type": "t_mapping(t_uint256,t_contract(ILPNFT)25499)"
      },
      {
        "astId": 27604,
        "contract": "contracts/src/token/ERC1155/LPSFT.sol:LPSFT",
        "label": "_tokenToTokenId",
        "offset": 0,
        "slot": "9",
        "type": "t_mapping(t_contract(ILPNFT)25499,t_uint256)"
      },
      {
        "astId": 26533,
        "contract": "contracts/src/token/ERC1155/LPSFT.sol:LPSFT",
        "label": "pow1Token",
        "offset": 0,
        "slot": "10",
        "type": "t_contract(IERC20)4496"
      },
      {
        "astId": 26537,
        "contract": "contracts/src/token/ERC1155/LPSFT.sol:LPSFT",
        "label": "pow5Token",
        "offset": 0,
        "slot": "11",
        "type": "t_contract(IERC20)4496"
      },
      {
        "astId": 26541,
        "contract": "contracts/src/token/ERC1155/LPSFT.sol:LPSFT",
        "label": "lpPow1Token",
        "offset": 0,
        "slot": "12",
        "type": "t_contract(IERC20Issuable)25716"
      },
      {
        "astId": 26545,
        "contract": "contracts/src/token/ERC1155/LPSFT.sol:LPSFT",
        "label": "lpPow5Token",
        "offset": 0,
        "slot": "13",
        "type": "t_contract(IERC20Issuable)25716"
      },
      {
        "astId": 26549,
        "contract": "contracts/src/token/ERC1155/LPSFT.sol:LPSFT",
        "label": "uniswapV3NftManager",
        "offset": 0,
        "slot": "14",
        "type": "t_contract(INonfungiblePositionManager)16750"
      }
    ],
    "types": {
      "t_address": {
        "encoding": "inplace",
        "label": "address",
        "numberOfBytes": "20"
      },
      "t_array(t_bytes32)dyn_storage": {
        "base": "t_bytes32",
        "encoding": "dynamic_array",
        "label": "bytes32[]",
        "numberOfBytes": "32"
      },
      "t_bytes32": {
        "encoding": "inplace",
        "label": "bytes32",
        "numberOfBytes": "32"
      },
      "t_contract(IERC20)4496": {
        "encoding": "inplace",
        "label": "contract IERC20",
        "numberOfBytes": "20"
      },
      "t_contract(IERC20Issuable)25716": {
        "encoding": "inplace",
        "label": "contract IERC20Issuable",
        "numberOfBytes": "20"
      },
      "t_contract(ILPNFT)25499": {
        "encoding": "inplace",
        "label": "contract ILPNFT",
        "numberOfBytes": "20"
      },
      "t_contract(INonfungiblePositionManager)16750": {
        "encoding": "inplace",
        "label": "contract INonfungiblePositionManager",
        "numberOfBytes": "20"
      },
      "t_mapping(t_address,t_struct(UintSet)10641_storage)": {
        "encoding": "mapping",
        "key": "t_address",
        "label": "mapping(address => struct EnumerableSet.UintSet)",
        "numberOfBytes": "32",
        "value": "t_struct(UintSet)10641_storage"
      },
      "t_mapping(t_bytes32,t_uint256)": {
        "encoding": "mapping",
        "key": "t_bytes32",
        "label": "mapping(bytes32 => uint256)",
        "numberOfBytes": "32",
        "value": "t_uint256"
      },
      "t_mapping(t_contract(ILPNFT)25499,t_uint256)": {
        "encoding": "mapping",
        "key": "t_contract(ILPNFT)25499",
        "label": "mapping(contract ILPNFT => uint256)",
        "numberOfBytes": "32",
        "value": "t_uint256"
      },
      "t_mapping(t_uint256,t_address)": {
        "encoding": "mapping",
        "key": "t_uint256",
        "label": "mapping(uint256 => address)",
        "numberOfBytes": "32",
        "value": "t_address"
      },
      "t_mapping(t_uint256,t_contract(ILPNFT)25499)": {
        "encoding": "mapping",
        "key": "t_uint256",
        "label": "mapping(uint256 => contract ILPNFT)",
        "numberOfBytes": "32",
        "value": "t_contract(ILPNFT)25499"
      },
      "t_struct(ReentrancyStatus)31876_storage": {
        "encoding": "inplace",
        "label": "struct ReentrancyLibrary.ReentrancyStatus",
        "members": [
          {
            "astId": 31875,
            "contract": "contracts/src/token/ERC1155/LPSFT.sol:LPSFT",
            "label": "status",
            "offset": 0,
            "slot": "0",
            "type": "t_mapping(t_bytes32,t_uint256)"
          }
        ],
        "numberOfBytes": "32"
      },
      "t_struct(Set)10169_storage": {
        "encoding": "inplace",
        "label": "struct EnumerableSet.Set",
        "members": [
          {
            "astId": 10164,
            "contract": "contracts/src/token/ERC1155/LPSFT.sol:LPSFT",
            "label": "_values",
            "offset": 0,
            "slot": "0",
            "type": "t_array(t_bytes32)dyn_storage"
          },
          {
            "astId": 10168,
            "contract": "contracts/src/token/ERC1155/LPSFT.sol:LPSFT",
            "label": "_positions",
            "offset": 0,
            "slot": "1",
            "type": "t_mapping(t_bytes32,t_uint256)"
          }
        ],
        "numberOfBytes": "64"
      },
      "t_struct(UintSet)10641_storage": {
        "encoding": "inplace",
        "label": "struct EnumerableSet.UintSet",
        "members": [
          {
            "astId": 10640,
            "contract": "contracts/src/token/ERC1155/LPSFT.sol:LPSFT",
            "label": "_inner",
            "offset": 0,
            "slot": "0",
            "type": "t_struct(Set)10169_storage"
          }
        ],
        "numberOfBytes": "64"
      },
      "t_uint256": {
        "encoding": "inplace",
        "label": "uint256",
        "numberOfBytes": "32"
      }
    }
  }
}