{
  "address": "0x9774d42AEC62Fc310b7f9f76275A01436872F623",
  "abi": [
    {
      "inputs": [
        {
          "internalType": "address",
          "name": "marketToken_",
          "type": "address"
        },
        {
          "internalType": "address",
          "name": "stableToken_",
          "type": "address"
        },
        {
          "internalType": "address",
          "name": "marketStablePool_",
          "type": "address"
        }
      ],
      "stateMutability": "nonpayable",
      "type": "constructor"
    },
    {
      "inputs": [],
      "name": "ReentrancyGuardReentrantCall",
      "type": "error"
    },
    {
      "inputs": [
        {
          "internalType": "int256",
          "name": "value",
          "type": "int256"
        }
      ],
      "name": "SafeCastOverflowedIntToUint",
      "type": "error"
    },
    {
      "inputs": [
        {
          "internalType": "uint256",
          "name": "value",
          "type": "uint256"
        }
      ],
      "name": "SafeCastOverflowedUintToInt",
      "type": "error"
    },
    {
      "inputs": [
        {
          "internalType": "address",
          "name": "token",
          "type": "address"
        }
      ],
      "name": "SafeERC20FailedOperation",
      "type": "error"
    },
    {
      "anonymous": false,
      "inputs": [
        {
          "indexed": true,
          "internalType": "address",
          "name": "sender",
          "type": "address"
        },
        {
          "indexed": true,
          "internalType": "address",
          "name": "recipient",
          "type": "address"
        },
        {
          "indexed": true,
          "internalType": "address",
          "name": "marketTokenAddress",
          "type": "address"
        },
        {
          "indexed": false,
          "internalType": "address",
          "name": "stableTokenAddress",
          "type": "address"
        },
        {
          "indexed": false,
          "internalType": "uint256",
          "name": "stableTokenAmount",
          "type": "uint256"
        },
        {
          "indexed": false,
          "internalType": "uint256",
          "name": "marketTokenReturned",
          "type": "uint256"
        }
      ],
      "name": "MarketTokenBought",
      "type": "event"
    },
    {
      "anonymous": false,
      "inputs": [
        {
          "indexed": true,
          "internalType": "address",
          "name": "sender",
          "type": "address"
        },
        {
          "indexed": true,
          "internalType": "address",
          "name": "recipient",
          "type": "address"
        },
        {
          "indexed": true,
          "internalType": "address",
          "name": "marketTokenAddress",
          "type": "address"
        },
        {
          "indexed": false,
          "internalType": "address",
          "name": "stableTokenAddress",
          "type": "address"
        },
        {
          "indexed": false,
          "internalType": "uint256",
          "name": "marketTokenAmount",
          "type": "uint256"
        },
        {
          "indexed": false,
          "internalType": "uint256",
          "name": "stableTokenReturned",
          "type": "uint256"
        }
      ],
      "name": "MarketTokenSold",
      "type": "event"
    },
    {
      "inputs": [
        {
          "internalType": "uint256",
          "name": "stableTokenAmount",
          "type": "uint256"
        },
        {
          "internalType": "address",
          "name": "recipient",
          "type": "address"
        }
      ],
      "name": "buyMarketToken",
      "outputs": [
        {
          "internalType": "uint256",
          "name": "marketTokenReturned",
          "type": "uint256"
        }
      ],
      "stateMutability": "nonpayable",
      "type": "function"
    },
    {
      "inputs": [],
      "name": "exit",
      "outputs": [
        {
          "internalType": "uint256",
          "name": "marketTokenAmount",
          "type": "uint256"
        },
        {
          "internalType": "uint256",
          "name": "stableTokenReturned",
          "type": "uint256"
        }
      ],
      "stateMutability": "nonpayable",
      "type": "function"
    },
    {
      "inputs": [],
      "name": "marketIsToken0",
      "outputs": [
        {
          "internalType": "bool",
          "name": "",
          "type": "bool"
        }
      ],
      "stateMutability": "view",
      "type": "function"
    },
    {
      "inputs": [
        {
          "internalType": "uint256",
          "name": "marketTokenAmount",
          "type": "uint256"
        },
        {
          "internalType": "address",
          "name": "recipient",
          "type": "address"
        }
      ],
      "name": "sellMarketToken",
      "outputs": [
        {
          "internalType": "uint256",
          "name": "stableTokenReturned",
          "type": "uint256"
        }
      ],
      "stateMutability": "nonpayable",
      "type": "function"
    },
    {
      "inputs": [
        {
          "internalType": "int256",
          "name": "amount0Delta",
          "type": "int256"
        },
        {
          "internalType": "int256",
          "name": "amount1Delta",
          "type": "int256"
        },
        {
          "internalType": "bytes",
          "name": "",
          "type": "bytes"
        }
      ],
      "name": "uniswapV3SwapCallback",
      "outputs": [],
      "stateMutability": "nonpayable",
      "type": "function"
    }
  ],
  "transactionHash": "0x1dc4e6d29072bfeaa5c54e6032c2aa8bc889bf76e599f2d370699b2653c5c343",
  "args": [
    "0x0d600145B104542a2F77944fbF43624d72033741",
    "0xfFa7B6120aeA3981C53F2e57AD1f92Af370c9439",
    "0xA6f1CB939ae89b0a44702bebBE4Cd925c9591028"
  ],
  "numDeployments": 1,
  "solcInputHash": "607dfe4437c93ddfbd36914a2ea77f31",
  "bytecode": "0x61010060405234801561001157600080fd5b5060405161156838038061156883398101604081905261003091610460565b60016000558282826001600160a01b0383166100875760405162461bcd60e51b815260206004820152601160248201527024b73b30b634b210373ab6b2b930ba37b960791b60448201526064015b60405180910390fd5b6001600160a01b0382166100dd5760405162461bcd60e51b815260206004820152601360248201527f496e76616c69642064656e6f6d696e61746f7200000000000000000000000000604482015260640161007e565b6001600160a01b0381166101225760405162461bcd60e51b815260206004820152600c60248201526b125b9d985b1a59081c1bdbdb60a21b604482015260640161007e565b6000816001600160a01b0316630dfe16816040518163ffffffff1660e01b8152600401602060405180830381865afa158015610162573d6000803e3d6000fd5b505050506040513d601f19601f8201168201806040525081019061018691906104a3565b90506000826001600160a01b031663d21220a76040518163ffffffff1660e01b8152600401602060405180830381865afa1580156101c8573d6000803e3d6000fd5b505050506040513d601f19601f820116820180604052508101906101ec91906104a3565b90506001600160a01b0382166102355760405162461bcd60e51b815260206004820152600e60248201526d0496e76616c696420746f6b656e360941b604482015260640161007e565b6001600160a01b03811661027c5760405162461bcd60e51b815260206004820152600e60248201526d496e76616c696420746f6b656e3160901b604482015260640161007e565b6001600160a01b0385811690831614801561035857856001600160a01b0316836001600160a01b0316146102f25760405162461bcd60e51b815260206004820152601660248201527f496e76616c696420746f6b656e3020666f72206e756d00000000000000000000604482015260640161007e565b846001600160a01b0316826001600160a01b0316146103535760405162461bcd60e51b815260206004820152601860248201527f496e76616c696420746f6b656e3120666f722064656e6f6d0000000000000000604482015260640161007e565b61041a565b846001600160a01b0316836001600160a01b0316146103b95760405162461bcd60e51b815260206004820152601860248201527f496e76616c696420746f6b656e3020666f722064656e6f6d0000000000000000604482015260640161007e565b856001600160a01b0316826001600160a01b03161461041a5760405162461bcd60e51b815260206004820152601660248201527f496e76616c696420746f6b656e3120666f72206e756d00000000000000000000604482015260640161007e565b6001600160a01b0395861660805293851660a052505090911660c052151560e052506104c5915050565b80516001600160a01b038116811461045b57600080fd5b919050565b60008060006060848603121561047557600080fd5b61047e84610444565b925061048c60208501610444565b915061049a60408501610444565b90509250925092565b6000602082840312156104b557600080fd5b6104be82610444565b9392505050565b60805160a05160c05160e051610fd861059060003960008181609a01528181610764015281816107d201528181610890015281816109b101528181610a1f0152610add0152600081816103400152818161073b015281816107980152818161098801526109e5015260008181610156015281816101df0152818161029c015281816106d7015281816107190152610b2b01526000818161010f01528181610209015281816102df015281816105c8015281816108f10152818161092701526109660152610fd86000f3fe608060405234801561001057600080fd5b50600436106100575760003560e01c806338433c051461005c57806396e2809614610082578063e84413c414610095578063e9fad8ee146100c5578063fa461e33146100e2575b600080fd5b61006f61006a366004610dd1565b6100f7565b6040519081526020015b60405180910390f35b61006f610090366004610dd1565b6101c7565b6040517f000000000000000000000000000000000000000000000000000000000000000015158152602001610079565b6100cd610283565b60408051928352602083019190915201610079565b6100f56100f0366004610e01565b61033d565b005b600061010161047d565b61010b83836104a7565b90507f00000000000000000000000000000000000000000000000000000000000000006001600160a01b0316826001600160a01b03166101483390565b604080516001600160a01b037f000000000000000000000000000000000000000000000000000000000000000081168252602082018990529181018690529116907fd5dce96aee9269961408189d00a2b6057eb1458c973456be4d7190e2ba31f58c906060015b60405180910390a46101c16001600055565b92915050565b60006101d161047d565b6101db8383610511565b90507f00000000000000000000000000000000000000000000000000000000000000006001600160a01b03167f00000000000000000000000000000000000000000000000000000000000000006001600160a01b03166102383390565b604080516001600160a01b038781168252602082018990529181018690529116907fea1ee50f71b72ada8bdd90776051b843fadf69bcf758eb73e3dec92533fa9e6a906060016101af565b60008061028e61047d565b6102966105bb565b604080517f00000000000000000000000000000000000000000000000000000000000000006001600160a01b0390811682526020820185905281830184905291519395509193507f00000000000000000000000000000000000000000000000000000000000000001691339182917fea1ee50f71b72ada8bdd90776051b843fadf69bcf758eb73e3dec92533fa9e6a9181900360600190a4906103396001600055565b9091565b337f00000000000000000000000000000000000000000000000000000000000000006001600160a01b0316146103ab5760405162461bcd60e51b815260206004820152600e60248201526d24b73b30b634b21031b0b63632b960911b60448201526064015b60405180910390fd5b600084131561042b5761042b3385336001600160a01b0316630dfe16816040518163ffffffff1660e01b8152600401602060405180830381865afa1580156103f7573d6000803e3d6000fd5b505050506040513d601f19601f8201168201806040525081019061041b9190610e84565b6001600160a01b03169190610668565b6000831315610477576104773384336001600160a01b031663d21220a76040518163ffffffff1660e01b8152600401602060405180830381865afa1580156103f7573d6000803e3d6000fd5b50505050565b6002600054036104a057604051633ee5aeb560e01b815260040160405180910390fd5b6002600055565b60006001600160a01b0382166104f35760405162461bcd60e51b8152602060048201526011602482015270125b9d985b1a59081c9958da5c1a595b9d607a1b60448201526064016103a2565b6104fc836106cc565b6105058361070a565b90506101c181836108de565b60008083116105535760405162461bcd60e51b815260206004820152600e60248201526d125b9d985b1a5908185b5bdd5b9d60921b60448201526064016103a2565b6001600160a01b03821661059d5760405162461bcd60e51b8152602060048201526011602482015270125b9d985b1a59081c9958da5c1a595b9d607a1b60448201526064016103a2565b6105a68361091c565b6105af83610957565b90506101c18183610b18565b6000806001600160a01b037f0000000000000000000000000000000000000000000000000000000000000000166370a08231336040516001600160e01b031960e084901b1681526001600160a01b039091166004820152602401602060405180830381865afa158015610632573d6000803e3d6000fd5b505050506040513d601f19601f820116820180604052508101906106569190610ea8565b91506106628233610511565b90509091565b6040516001600160a01b038381166024830152604482018390526106c791859182169063a9059cbb906064015b604051602081830303815290604052915060e01b6020820180516001600160e01b038381831617835250505050610b52565b505050565b8015610707576107077f00000000000000000000000000000000000000000000000000000000000000006001600160a01b0316333084610bc3565b50565b60006107606001600160a01b037f0000000000000000000000000000000000000000000000000000000000000000167f000000000000000000000000000000000000000000000000000000000000000084610bfc565b60007f000000000000000000000000000000000000000000000000000000000000000061078e576001610791565b60005b90506000807f00000000000000000000000000000000000000000000000000000000000000006001600160a01b031663128acb0830856107d089610c86565b7f000000000000000000000000000000000000000000000000000000000000000061080a576108056401000276a36001610ed7565b610829565b610829600173fffd8963efd1fc6a506488495d951d5263988d26610ef6565b6040518563ffffffff1660e01b81526004016108489493929190610f15565b60408051808303816000875af1158015610866573d6000803e3d6000fd5b505050506040513d601f19601f8201168201806040525081019061088a9190610f4f565b915091507f00000000000000000000000000000000000000000000000000000000000000006108c9576108c46108bf82610f73565b610cb7565b6108d5565b6108d56108bf83610f73565b95945050505050565b8115610918576109186001600160a01b037f0000000000000000000000000000000000000000000000000000000000000000168284610668565b5050565b8015610707576107077f00000000000000000000000000000000000000000000000000000000000000006001600160a01b0316333084610bc3565b60006109ad6001600160a01b037f0000000000000000000000000000000000000000000000000000000000000000167f000000000000000000000000000000000000000000000000000000000000000084610bfc565b60007f00000000000000000000000000000000000000000000000000000000000000006109db5760006109de565b60015b90506000807f00000000000000000000000000000000000000000000000000000000000000006001600160a01b031663128acb083085610a1d89610c86565b7f0000000000000000000000000000000000000000000000000000000000000000610a6657610a61600173fffd8963efd1fc6a506488495d951d5263988d26610ef6565b610a76565b610a766401000276a36001610ed7565b6040518563ffffffff1660e01b8152600401610a959493929190610f15565b60408051808303816000875af1158015610ab3573d6000803e3d6000fd5b505050506040513d601f19601f82011682018060405250810190610ad79190610f4f565b915091507f0000000000000000000000000000000000000000000000000000000000000000610b0c576108c46108bf83610f73565b6108d56108bf82610f73565b8115610918576109186001600160a01b037f0000000000000000000000000000000000000000000000000000000000000000168284610668565b600080602060008451602086016000885af180610b75576040513d6000823e3d81fd5b50506000513d91508115610b8d578060011415610b9a565b6001600160a01b0384163b155b1561047757604051635274afe760e01b81526001600160a01b03851660048201526024016103a2565b6040516001600160a01b0384811660248301528381166044830152606482018390526104779186918216906323b872dd90608401610695565b604051636eb1769f60e11b81523060048201526001600160a01b0383811660248301526000919085169063dd62ed3e90604401602060405180830381865afa158015610c4c573d6000803e3d6000fd5b505050506040513d601f19601f82011682018060405250810190610c709190610ea8565b90506104778484610c818585610f8f565b610cdd565b60006001600160ff1b03821115610cb35760405163123baf0360e11b8152600481018390526024016103a2565b5090565b600080821215610cb357604051635467221960e11b8152600481018390526024016103a2565b604080516001600160a01b038416602482015260448082018490528251808303909101815260649091019091526020810180516001600160e01b031663095ea7b360e01b179052610d2e8482610d6d565b610477576040516001600160a01b03848116602483015260006044830152610d6391869182169063095ea7b390606401610695565b6104778482610b52565b6000806000806020600086516020880160008a5af192503d91506000519050828015610db257508115610da35780600114610db2565b6000866001600160a01b03163b115b9695505050505050565b6001600160a01b038116811461070757600080fd5b60008060408385031215610de457600080fd5b823591506020830135610df681610dbc565b809150509250929050565b60008060008060608587031215610e1757600080fd5b8435935060208501359250604085013567ffffffffffffffff811115610e3c57600080fd5b8501601f81018713610e4d57600080fd5b803567ffffffffffffffff811115610e6457600080fd5b876020828401011115610e7657600080fd5b949793965060200194505050565b600060208284031215610e9657600080fd5b8151610ea181610dbc565b9392505050565b600060208284031215610eba57600080fd5b5051919050565b634e487b7160e01b600052601160045260246000fd5b6001600160a01b0381811683821601908111156101c1576101c1610ec1565b6001600160a01b0382811682821603908111156101c1576101c1610ec1565b6001600160a01b03948516815292151560208401526040830191909152909116606082015260a06080820181905260009082015260c00190565b60008060408385031215610f6257600080fd5b505080516020909101519092909150565b6000600160ff1b8201610f8857610f88610ec1565b5060000390565b808201808211156101c1576101c1610ec156fea26469706673582212204381cec2c61f370859efebe79976a460e0a22761991343542765f48ff807162d64736f6c634300081c0033",
  "devdoc": {
    "details": "Token router to swap between the market token and the stable token",
    "errors": {
      "ReentrancyGuardReentrantCall()": [
        {
          "details": "Unauthorized reentrant call."
        }
      ],
      "SafeCastOverflowedIntToUint(int256)": [
        {
          "details": "An int value doesn't fit in an uint of `bits` size."
        }
      ],
      "SafeCastOverflowedUintToInt(uint256)": [
        {
          "details": "An uint value doesn't fit in an int of `bits` size."
        }
      ],
      "SafeERC20FailedOperation(address)": [
        {
          "details": "An operation with an ERC-20 token failed."
        }
      ]
    },
    "events": {
      "MarketTokenBought(address,address,address,address,uint256,uint256)": {
        "details": "Emitted when the market token is purchased for the stable token",
        "params": {
          "marketTokenAddress": "The address of the market token contract",
          "marketTokenReturned": "The amount of the market token received",
          "recipient": "The address of the recipient of the market token",
          "sender": "The sender of the stable token",
          "stableTokenAddress": "The amount of the stable token being spent",
          "stableTokenAmount": "The amount of the stable token being spent"
        }
      },
      "MarketTokenSold(address,address,address,address,uint256,uint256)": {
        "details": "Emitted when the market token is sold for the stable token",
        "params": {
          "marketTokenAddress": "The address of the market token contract",
          "marketTokenAmount": "The amount of the market token spent",
          "recipient": "The address of the recipient of the stable token",
          "sender": "The sender of the market token",
          "stableTokenReturned": "The amount of the stable token received"
        }
      }
    },
    "kind": "dev",
    "methods": {
      "buyMarketToken(uint256,address)": {
        "details": "See {IMarketStableSwapper-buyMarketToken}"
      },
      "constructor": {
        "details": "Initializes the contract",
        "params": {
          "marketStablePool_": "The address of the pool contract for the token        pair",
          "marketToken_": "The address of the POW1 token",
          "stableToken_": "The address of the stable token"
        }
      },
      "exit()": {
        "details": "See {IMarketStableSwapper-exit}"
      },
      "marketIsToken0()": {
        "details": "See {IMarketStableSwapper-marketIsToken0}"
      },
      "sellMarketToken(uint256,address)": {
        "details": "See {IMarketStableSwapper-sellMarketToken}"
      },
      "uniswapV3SwapCallback(int256,int256,bytes)": {
        "details": "See {IUniswapV3SwapCallback-uniswapV3SwapCallback} This function is called to the sender after a swap is executed on Uniswap V3. The pool tokens owed for the swap must be payed. The caller of this method must be checked to be a UniswapV3Pool deployed by the canonical UniswapV3Factory. amount0Delta and amount1Delta can both be 0 if no tokens were swapped."
      }
    },
    "version": 1
  },
  "userdoc": {
    "kind": "user",
    "methods": {},
    "version": 1
  },
  "storageLayout": {
    "storage": [
      {
        "astId": 6439,
        "contract": "contracts/src/token/routes/MarketStableSwapper.sol:MarketStableSwapper",
        "label": "_status",
        "offset": 0,
        "slot": "0",
        "type": "t_uint256"
      }
    ],
    "types": {
      "t_uint256": {
        "encoding": "inplace",
        "label": "uint256",
        "numberOfBytes": "32"
      }
    }
  }
}