{
  "address": "0xEF311FB81a7A7834B19d4d5EC6C560CE6f35ddB9",
  "abi": [
    {
      "inputs": [
        {
          "internalType": "address",
          "name": "owner_",
          "type": "address"
        },
        {
          "internalType": "address",
          "name": "lpSft_",
          "type": "address"
        }
      ],
      "stateMutability": "nonpayable",
      "type": "constructor"
    },
    {
      "inputs": [],
      "name": "AccessControlBadConfirmation",
      "type": "error"
    },
    {
      "inputs": [
        {
          "internalType": "address",
          "name": "account",
          "type": "address"
        },
        {
          "internalType": "bytes32",
          "name": "neededRole",
          "type": "bytes32"
        }
      ],
      "name": "AccessControlUnauthorizedAccount",
      "type": "error"
    },
    {
      "inputs": [
        {
          "internalType": "uint256",
          "name": "tokenId",
          "type": "uint256"
        },
        {
          "internalType": "uint256",
          "name": "amount",
          "type": "uint256"
        }
      ],
      "name": "ERC1155EnumerableInvalidAmount",
      "type": "error"
    },
    {
      "inputs": [
        {
          "internalType": "address",
          "name": "sender",
          "type": "address"
        },
        {
          "internalType": "uint256",
          "name": "balance",
          "type": "uint256"
        },
        {
          "internalType": "uint256",
          "name": "needed",
          "type": "uint256"
        },
        {
          "internalType": "uint256",
          "name": "tokenId",
          "type": "uint256"
        }
      ],
      "name": "ERC1155InsufficientBalance",
      "type": "error"
    },
    {
      "inputs": [
        {
          "internalType": "address",
          "name": "approver",
          "type": "address"
        }
      ],
      "name": "ERC1155InvalidApprover",
      "type": "error"
    },
    {
      "inputs": [
        {
          "internalType": "uint256",
          "name": "idsLength",
          "type": "uint256"
        },
        {
          "internalType": "uint256",
          "name": "valuesLength",
          "type": "uint256"
        }
      ],
      "name": "ERC1155InvalidArrayLength",
      "type": "error"
    },
    {
      "inputs": [
        {
          "internalType": "address",
          "name": "operator",
          "type": "address"
        }
      ],
      "name": "ERC1155InvalidOperator",
      "type": "error"
    },
    {
      "inputs": [
        {
          "internalType": "address",
          "name": "receiver",
          "type": "address"
        }
      ],
      "name": "ERC1155InvalidReceiver",
      "type": "error"
    },
    {
      "inputs": [
        {
          "internalType": "address",
          "name": "sender",
          "type": "address"
        }
      ],
      "name": "ERC1155InvalidSender",
      "type": "error"
    },
    {
      "inputs": [
        {
          "internalType": "address",
          "name": "operator",
          "type": "address"
        },
        {
          "internalType": "address",
          "name": "owner",
          "type": "address"
        }
      ],
      "name": "ERC1155MissingApprovalForAll",
      "type": "error"
    },
    {
      "inputs": [],
      "name": "InvalidInitialization",
      "type": "error"
    },
    {
      "inputs": [],
      "name": "LPSFTEmptyArray",
      "type": "error"
    },
    {
      "inputs": [],
      "name": "NotInitializing",
      "type": "error"
    },
    {
      "inputs": [
        {
          "internalType": "string",
          "name": "interfaceId",
          "type": "string"
        }
      ],
      "name": "ReentrantCall",
      "type": "error"
    },
    {
      "anonymous": false,
      "inputs": [
        {
          "indexed": true,
          "internalType": "address",
          "name": "account",
          "type": "address"
        },
        {
          "indexed": true,
          "internalType": "address",
          "name": "operator",
          "type": "address"
        },
        {
          "indexed": false,
          "internalType": "bool",
          "name": "approved",
          "type": "bool"
        }
      ],
      "name": "ApprovalForAll",
      "type": "event"
    },
    {
      "anonymous": false,
      "inputs": [
        {
          "indexed": false,
          "internalType": "uint64",
          "name": "version",
          "type": "uint64"
        }
      ],
      "name": "Initialized",
      "type": "event"
    },
    {
      "anonymous": false,
      "inputs": [
        {
          "indexed": true,
          "internalType": "bytes32",
          "name": "role",
          "type": "bytes32"
        },
        {
          "indexed": true,
          "internalType": "bytes32",
          "name": "previousAdminRole",
          "type": "bytes32"
        },
        {
          "indexed": true,
          "internalType": "bytes32",
          "name": "newAdminRole",
          "type": "bytes32"
        }
      ],
      "name": "RoleAdminChanged",
      "type": "event"
    },
    {
      "anonymous": false,
      "inputs": [
        {
          "indexed": true,
          "internalType": "bytes32",
          "name": "role",
          "type": "bytes32"
        },
        {
          "indexed": true,
          "internalType": "address",
          "name": "account",
          "type": "address"
        },
        {
          "indexed": true,
          "internalType": "address",
          "name": "sender",
          "type": "address"
        }
      ],
      "name": "RoleGranted",
      "type": "event"
    },
    {
      "anonymous": false,
      "inputs": [
        {
          "indexed": true,
          "internalType": "bytes32",
          "name": "role",
          "type": "bytes32"
        },
        {
          "indexed": true,
          "internalType": "address",
          "name": "account",
          "type": "address"
        },
        {
          "indexed": true,
          "internalType": "address",
          "name": "sender",
          "type": "address"
        }
      ],
      "name": "RoleRevoked",
      "type": "event"
    },
    {
      "anonymous": false,
      "inputs": [
        {
          "indexed": true,
          "internalType": "address",
          "name": "operator",
          "type": "address"
        },
        {
          "indexed": true,
          "internalType": "address",
          "name": "from",
          "type": "address"
        },
        {
          "indexed": true,
          "internalType": "address",
          "name": "to",
          "type": "address"
        },
        {
          "indexed": false,
          "internalType": "uint256[]",
          "name": "ids",
          "type": "uint256[]"
        },
        {
          "indexed": false,
          "internalType": "uint256[]",
          "name": "values",
          "type": "uint256[]"
        }
      ],
      "name": "TransferBatch",
      "type": "event"
    },
    {
      "anonymous": false,
      "inputs": [
        {
          "indexed": true,
          "internalType": "address",
          "name": "operator",
          "type": "address"
        },
        {
          "indexed": true,
          "internalType": "address",
          "name": "from",
          "type": "address"
        },
        {
          "indexed": true,
          "internalType": "address",
          "name": "to",
          "type": "address"
        },
        {
          "indexed": false,
          "internalType": "uint256",
          "name": "id",
          "type": "uint256"
        },
        {
          "indexed": false,
          "internalType": "uint256",
          "name": "value",
          "type": "uint256"
        }
      ],
      "name": "TransferSingle",
      "type": "event"
    },
    {
      "anonymous": false,
      "inputs": [
        {
          "indexed": false,
          "internalType": "string",
          "name": "value",
          "type": "string"
        },
        {
          "indexed": true,
          "internalType": "uint256",
          "name": "id",
          "type": "uint256"
        }
      ],
      "name": "URI",
      "type": "event"
    },
    {
      "inputs": [],
      "name": "DEFAULT_ADMIN_ROLE",
      "outputs": [
        {
          "internalType": "bytes32",
          "name": "",
          "type": "bytes32"
        }
      ],
      "stateMutability": "view",
      "type": "function"
    },
    {
      "inputs": [],
      "name": "LPSFT_ISSUER_ROLE",
      "outputs": [
        {
          "internalType": "bytes32",
          "name": "",
          "type": "bytes32"
        }
      ],
      "stateMutability": "view",
      "type": "function"
    },
    {
      "inputs": [
        {
          "internalType": "address",
          "name": "account",
          "type": "address"
        },
        {
          "internalType": "uint256",
          "name": "id",
          "type": "uint256"
        }
      ],
      "name": "balanceOf",
      "outputs": [
        {
          "internalType": "uint256",
          "name": "",
          "type": "uint256"
        }
      ],
      "stateMutability": "view",
      "type": "function"
    },
    {
      "inputs": [
        {
          "internalType": "address[]",
          "name": "accounts",
          "type": "address[]"
        },
        {
          "internalType": "uint256[]",
          "name": "ids",
          "type": "uint256[]"
        }
      ],
      "name": "balanceOfBatch",
      "outputs": [
        {
          "internalType": "uint256[]",
          "name": "",
          "type": "uint256[]"
        }
      ],
      "stateMutability": "view",
      "type": "function"
    },
    {
      "inputs": [
        {
          "internalType": "address",
          "name": "from",
          "type": "address"
        },
        {
          "internalType": "uint256",
          "name": "sftTokenId",
          "type": "uint256"
        }
      ],
      "name": "burn",
      "outputs": [],
      "stateMutability": "nonpayable",
      "type": "function"
    },
    {
      "inputs": [
        {
          "internalType": "address",
          "name": "from",
          "type": "address"
        },
        {
          "internalType": "uint256[]",
          "name": "sftTokenIds",
          "type": "uint256[]"
        }
      ],
      "name": "burnBatch",
      "outputs": [],
      "stateMutability": "nonpayable",
      "type": "function"
    },
    {
      "inputs": [
        {
          "internalType": "bytes32",
          "name": "role",
          "type": "bytes32"
        }
      ],
      "name": "getRoleAdmin",
      "outputs": [
        {
          "internalType": "bytes32",
          "name": "",
          "type": "bytes32"
        }
      ],
      "stateMutability": "view",
      "type": "function"
    },
    {
      "inputs": [
        {
          "internalType": "address",
          "name": "account",
          "type": "address"
        }
      ],
      "name": "getTokenIds",
      "outputs": [
        {
          "internalType": "uint256[]",
          "name": "tokenIds",
          "type": "uint256[]"
        }
      ],
      "stateMutability": "view",
      "type": "function"
    },
    {
      "inputs": [
        {
          "internalType": "bytes32",
          "name": "role",
          "type": "bytes32"
        },
        {
          "internalType": "address",
          "name": "account",
          "type": "address"
        }
      ],
      "name": "grantRole",
      "outputs": [],
      "stateMutability": "nonpayable",
      "type": "function"
    },
    {
      "inputs": [
        {
          "internalType": "bytes32",
          "name": "role",
          "type": "bytes32"
        },
        {
          "internalType": "address",
          "name": "account",
          "type": "address"
        }
      ],
      "name": "hasRole",
      "outputs": [
        {
          "internalType": "bool",
          "name": "",
          "type": "bool"
        }
      ],
      "stateMutability": "view",
      "type": "function"
    },
    {
      "inputs": [
        {
          "internalType": "address",
          "name": "owner_",
          "type": "address"
        },
        {
          "internalType": "address",
          "name": "lpSft_",
          "type": "address"
        }
      ],
      "name": "initialize",
      "outputs": [],
      "stateMutability": "nonpayable",
      "type": "function"
    },
    {
      "inputs": [
        {
          "internalType": "address",
          "name": "account",
          "type": "address"
        },
        {
          "internalType": "address",
          "name": "operator",
          "type": "address"
        }
      ],
      "name": "isApprovedForAll",
      "outputs": [
        {
          "internalType": "bool",
          "name": "",
          "type": "bool"
        }
      ],
      "stateMutability": "view",
      "type": "function"
    },
    {
      "inputs": [],
      "name": "lpSft",
      "outputs": [
        {
          "internalType": "contract IERC1155MetadataURI",
          "name": "",
          "type": "address"
        }
      ],
      "stateMutability": "view",
      "type": "function"
    },
    {
      "inputs": [
        {
          "internalType": "address",
          "name": "to",
          "type": "address"
        },
        {
          "internalType": "uint256",
          "name": "sftTokenId",
          "type": "uint256"
        },
        {
          "internalType": "bytes",
          "name": "data",
          "type": "bytes"
        }
      ],
      "name": "mint",
      "outputs": [],
      "stateMutability": "nonpayable",
      "type": "function"
    },
    {
      "inputs": [
        {
          "internalType": "address",
          "name": "to",
          "type": "address"
        },
        {
          "internalType": "uint256[]",
          "name": "sftTokenIds",
          "type": "uint256[]"
        },
        {
          "internalType": "bytes",
          "name": "data",
          "type": "bytes"
        }
      ],
      "name": "mintBatch",
      "outputs": [],
      "stateMutability": "nonpayable",
      "type": "function"
    },
    {
      "inputs": [
        {
          "internalType": "uint256",
          "name": "tokenId",
          "type": "uint256"
        }
      ],
      "name": "ownerOf",
      "outputs": [
        {
          "internalType": "address",
          "name": "owner",
          "type": "address"
        }
      ],
      "stateMutability": "view",
      "type": "function"
    },
    {
      "inputs": [
        {
          "internalType": "bytes32",
          "name": "role",
          "type": "bytes32"
        },
        {
          "internalType": "address",
          "name": "callerConfirmation",
          "type": "address"
        }
      ],
      "name": "renounceRole",
      "outputs": [],
      "stateMutability": "nonpayable",
      "type": "function"
    },
    {
      "inputs": [
        {
          "internalType": "bytes32",
          "name": "role",
          "type": "bytes32"
        },
        {
          "internalType": "address",
          "name": "account",
          "type": "address"
        }
      ],
      "name": "revokeRole",
      "outputs": [],
      "stateMutability": "nonpayable",
      "type": "function"
    },
    {
      "inputs": [
        {
          "internalType": "address",
          "name": "from",
          "type": "address"
        },
        {
          "internalType": "address",
          "name": "to",
          "type": "address"
        },
        {
          "internalType": "uint256[]",
          "name": "ids",
          "type": "uint256[]"
        },
        {
          "internalType": "uint256[]",
          "name": "values",
          "type": "uint256[]"
        },
        {
          "internalType": "bytes",
          "name": "data",
          "type": "bytes"
        }
      ],
      "name": "safeBatchTransferFrom",
      "outputs": [],
      "stateMutability": "nonpayable",
      "type": "function"
    },
    {
      "inputs": [
        {
          "internalType": "address",
          "name": "from",
          "type": "address"
        },
        {
          "internalType": "address",
          "name": "to",
          "type": "address"
        },
        {
          "internalType": "uint256",
          "name": "id",
          "type": "uint256"
        },
        {
          "internalType": "uint256",
          "name": "value",
          "type": "uint256"
        },
        {
          "internalType": "bytes",
          "name": "data",
          "type": "bytes"
        }
      ],
      "name": "safeTransferFrom",
      "outputs": [],
      "stateMutability": "nonpayable",
      "type": "function"
    },
    {
      "inputs": [
        {
          "internalType": "address",
          "name": "operator",
          "type": "address"
        },
        {
          "internalType": "bool",
          "name": "approved",
          "type": "bool"
        }
      ],
      "name": "setApprovalForAll",
      "outputs": [],
      "stateMutability": "nonpayable",
      "type": "function"
    },
    {
      "inputs": [
        {
          "internalType": "bytes4",
          "name": "interfaceId",
          "type": "bytes4"
        }
      ],
      "name": "supportsInterface",
      "outputs": [
        {
          "internalType": "bool",
          "name": "",
          "type": "bool"
        }
      ],
      "stateMutability": "view",
      "type": "function"
    },
    {
      "inputs": [],
      "name": "totalSupply",
      "outputs": [
        {
          "internalType": "uint256",
          "name": "",
          "type": "uint256"
        }
      ],
      "stateMutability": "view",
      "type": "function"
    },
    {
      "inputs": [
        {
          "internalType": "uint256",
          "name": "id",
          "type": "uint256"
        }
      ],
      "name": "uri",
      "outputs": [
        {
          "internalType": "string",
          "name": "",
          "type": "string"
        }
      ],
      "stateMutability": "view",
      "type": "function"
    }
  ],
  "transactionHash": "0x054e18e14ff170654192046986f4005bdcb6aa5cbdd45d17468cdc4b82d3cd93",
  "args": [
    "0x5Eb8d8a368B1F1A9de0c2E489e270d7AFD389C3C",
    "0xd621853d65eA069370efe04fc07846d0af4E2e78"
  ],
  "numDeployments": 1,
  "solcInputHash": "607dfe4437c93ddfbd36914a2ea77f31",
  "bytecode": "0x608060405234801561001057600080fd5b5060405161293b38038061293b83398101604081905261002f916102f5565b6100398282610040565b5050610328565b7ff0c57e16840df040f15088dc2f81fe391c3923bec73e23a9662efc9c229c6a00805468010000000000000000810460ff1615906001600160401b031660008115801561008a5750825b90506000826001600160401b031660011480156100a65750303b155b9050811580156100b4575080155b156100d25760405163f92ee8a960e01b815260040160405180910390fd5b84546001600160401b0319166001178555831561010057845460ff60401b1916680100000000000000001785555b6001600160a01b03871661014b5760405162461bcd60e51b815260206004820152600d60248201526c24b73b30b634b21037bbb732b960991b60448201526064015b60405180910390fd5b6001600160a01b0386166101925760405162461bcd60e51b815260206004820152600e60248201526d125b9d985b1a590813140b54d19560921b6044820152606401610142565b61019d600088610208565b50600780546001600160a01b0319166001600160a01b03881617905583156101ff57845460ff60401b19168555604051600181527fc7f505b2f371ae2175ee4913f4499e1f2633a7b5936321eed1cdaeb6115181d29060200160405180910390a15b50505050505050565b60008281527f02dd7bc7dec4dceedda775e58dd541e08a116c6c53815c0bd028192f7b626800602081815260408084206001600160a01b038616855290915282205460ff166102cd576000848152602082815260408083206001600160a01b03871684529091529020805460ff191660011790556102833390565b6001600160a01b0316836001600160a01b0316857f2f8788117e7eff1d82e926ec794901d17c78024a50270940304540a733656f0d60405160405180910390a460019150506102d3565b60009150505b92915050565b80516001600160a01b03811681146102f057600080fd5b919050565b6000806040838503121561030857600080fd5b610311836102d9565b915061031f602084016102d9565b90509250929050565b612604806103376000396000f3fe608060405234801561001057600080fd5b50600436106101575760003560e01c806391d14854116100c3578063b2dc5dc31161007c578063b2dc5dc314610309578063b5d730211461031c578063d004b03614610337578063d547741f1461034a578063e985e9c51461035d578063f242432a1461037057600080fd5b806391d14854146102a257806394d008ef146102b55780639dc29fac146102c8578063a1abfd95146102db578063a217fddf146102ee578063a22cb465146102f657600080fd5b80632eb2c2d6116101155780632eb2c2d6146101f55780632f2ff15d1461020857806336568abe1461021b578063485cc9551461022e5780634e1273f4146102415780636352211e1461026157600080fd5b8062fdd58e1461015c57806301ffc9a7146101825780630e89341c146101a557806318160ddd146101c557806322862482146101cd578063248a9ca3146101e2575b600080fd5b61016f61016a366004611d82565b610383565b6040519081526020015b60405180910390f35b610195610190366004611dc2565b6103cc565b6040519015158152602001610179565b6101b86101b3366004611ddf565b6103d7565b6040516101799190611e48565b60045461016f565b6101e06101db366004611fa9565b610449565b005b61016f6101f0366004611ddf565b610526565b6101e0610203366004612020565b610548565b6101e06102163660046120d3565b6105af565b6101e06102293660046120d3565b6105d1565b6101e061023c3660046120ff565b610604565b61025461024f366004612129565b61079e565b604051610179919061222c565b61028a61026f366004611ddf565b6000908152600560205260409020546001600160a01b031690565b6040516001600160a01b039091168152602001610179565b6101956102b03660046120d3565b61086a565b6101e06102c336600461223f565b6108a2565b6101e06102d6366004611d82565b610945565b60075461028a906001600160a01b031681565b61016f600081565b6101e061030436600461227f565b6109e1565b6101e06103173660046122bb565b6109ec565b61016f704c505346545f4953535545525f524f4c4560781b81565b6102546103453660046122f2565b610ab4565b6101e06103583660046120d3565b610adf565b61019561036b3660046120ff565b610afb565b6101e061037e36600461230d565b610b48565b60008181527f88be536d5240c274a3b1d3a1be54482fd9caa294f08c62a7cde569f49a3c4500602090815260408083206001600160a01b03861684529091529020545b92915050565b60006103c682610ba7565b6007546040516303a24d0760e21b8152600481018390526060916001600160a01b031690630e89341c90602401600060405180830381865afa158015610421573d6000803e3d6000fd5b505050506040513d6000823e601f3d908101601f191682016040526103c69190810190612365565b61046260026000805160206125af833981519152610bd2565b61047f704c505346545f4953535545525f524f4c4560781b610c26565b6001600160a01b0383166104b657604051632bfa23e760e11b81526001600160a01b03841660048201526024015b60405180910390fd5b81516000036104d8576040516310bce2b960e31b815260040160405180910390fd5b60006104e48351610c33565b90506104f284848385610cb4565b506000805160206125af8339815191526000526002602052600160008051602061256f83398151915255505050565b505050565b600090815260008051602061258f833981519152602052604090206001015490565b336001600160a01b038616811480159061056957506105678682610afb565b155b1561059a5760405163711bec9160e11b81526001600160a01b038083166004830152871660248201526044016104ad565b6105a78686868686610cec565b505050505050565b6105b882610526565b6105c181610c26565b6105cb8383610d53565b50505050565b6001600160a01b03811633146105fa5760405163334bd91960e11b815260040160405180910390fd5b6105218282610df8565b7ff0c57e16840df040f15088dc2f81fe391c3923bec73e23a9662efc9c229c6a008054600160401b810460ff1615906001600160401b03166000811580156106495750825b90506000826001600160401b031660011480156106655750303b155b905081158015610673575080155b156106915760405163f92ee8a960e01b815260040160405180910390fd5b845467ffffffffffffffff1916600117855583156106bb57845460ff60401b1916600160401b1785555b6001600160a01b0387166106e15760405162461bcd60e51b81526004016104ad906123db565b6001600160a01b0386166107285760405162461bcd60e51b815260206004820152600e60248201526d125b9d985b1a590813140b54d19560921b60448201526064016104ad565b610733600088610d53565b50600780546001600160a01b0319166001600160a01b038816179055831561079557845460ff60401b19168555604051600181527fc7f505b2f371ae2175ee4913f4499e1f2633a7b5936321eed1cdaeb6115181d29060200160405180910390a15b50505050505050565b606081518351146107cf5781518351604051635b05999160e01b8152600481019290925260248201526044016104ad565b600083516001600160401b038111156107ea576107ea611e5b565b604051908082528060200260200182016040528015610813578160200160208202803683370190505b50905060005b84518110156108625760208082028601015161083d90602080840287010151610383565b82828151811061084f5761084f612402565b6020908102919091010152600101610819565b509392505050565b600091825260008051602061258f833981519152602090815260408084206001600160a01b0393909316845291905290205460ff1690565b6108bb60026000805160206125af833981519152610bd2565b6108d8704c505346545f4953535545525f524f4c4560781b610c26565b6001600160a01b03831661090a57604051632bfa23e760e11b81526001600160a01b03841660048201526024016104ad565b6109178383600184610e74565b6000805160206125af8339815191526000526002602052600160008051602061256f83398151915255505050565b61095e60026000805160206125af833981519152610bd2565b61097b704c505346545f4953535545525f524f4c4560781b610c26565b6001600160a01b0382166109a457604051626a0d4560e21b8152600060048201526024016104ad565b6109b082826001610ed1565b6000805160206125af8339815191526000526002602052600160008051602061256f833981519152555050565b5050565b6109dd338383610f39565b610a0560026000805160206125af833981519152610bd2565b610a22704c505346545f4953535545525f524f4c4560781b610c26565b6001600160a01b038216610a4b57604051626a0d4560e21b8152600060048201526024016104ad565b8051600003610a6d576040516310bce2b960e31b815260040160405180910390fd5b6000610a798251610c33565b9050610a86838383610ff3565b506000805160206125af8339815191526000526002602052600160008051602061256f833981519152555050565b6001600160a01b0381166000908152600660205260409020606090610ad881611039565b9392505050565b610ae882610526565b610af181610c26565b6105cb8383610df8565b6001600160a01b0391821660009081527f88be536d5240c274a3b1d3a1be54482fd9caa294f08c62a7cde569f49a3c45016020908152604080832093909416825291909152205460ff1690565b336001600160a01b0386168114801590610b695750610b678682610afb565b155b15610b9a5760405163711bec9160e11b81526001600160a01b038083166004830152871660248201526044016104ad565b6105a78686868686611046565b6000610bb2826110cb565b806103c657506001600160e01b03198216634ca4770160e11b1492915050565b60008181526020839052604090205460011901610c11576000610bf4826110f0565b90508060405163b0cd348560e01b81526004016104ad9190611e48565b60009081526020919091526040902060029055565b610c3081336111e8565b50565b60606000826001600160401b03811115610c4f57610c4f611e5b565b604051908082528060200260200182016040528015610c78578160200160208202803683370190505b50905060005b83811015610cad576001828281518110610c9a57610c9a612402565b6020908102919091010152600101610c7e565b5092915050565b6001600160a01b038416610cde57604051632bfa23e760e11b8152600060048201526024016104ad565b6105cb600085858585611221565b6001600160a01b038416610d1657604051632bfa23e760e11b8152600060048201526024016104ad565b6001600160a01b038516610d3f57604051626a0d4560e21b8152600060048201526024016104ad565b610d4c8585858585611221565b5050505050565b600060008051602061258f833981519152610d6e848461086a565b610dee576000848152602082815260408083206001600160a01b03871684529091529020805460ff19166001179055610da43390565b6001600160a01b0316836001600160a01b0316857f2f8788117e7eff1d82e926ec794901d17c78024a50270940304540a733656f0d60405160405180910390a460019150506103c6565b60009150506103c6565b600060008051602061258f833981519152610e13848461086a565b15610dee576000848152602082815260408083206001600160a01b0387168085529252808320805460ff1916905551339287917ff6391f5c32d9c69d2a47ea670b442974b53935d1edc7fd64eb21e047a839171b9190a460019150506103c6565b6001600160a01b038416610e9e57604051632bfa23e760e11b8152600060048201526024016104ad565b604080516001808252602082018690528183019081526060820185905260808201909252906105a7600087848487611221565b6001600160a01b038316610efa57604051626a0d4560e21b8152600060048201526024016104ad565b604080516001808252602082018590528183019081526060820184905260a08201909252600060808201818152919291610d4c91879185908590611221565b7f88be536d5240c274a3b1d3a1be54482fd9caa294f08c62a7cde569f49a3c45006001600160a01b038316610f835760405162ced3e160e81b8152600060048201526024016104ad565b6001600160a01b038481166000818152600184016020908152604080832094881680845294825291829020805460ff191687151590811790915591519182527f17307eab39ab6107e8899845ad3d59bd9653f200f220920489ca2b5937696c31910160405180910390a350505050565b6001600160a01b03831661101c57604051626a0d4560e21b8152600060048201526024016104ad565b610521836000848460405180602001604052806000815250611221565b60606000610ad883611274565b6001600160a01b03841661107057604051632bfa23e760e11b8152600060048201526024016104ad565b6001600160a01b03851661109957604051626a0d4560e21b8152600060048201526024016104ad565b604080516001808252602082018690528183019081526060820185905260808201909252906107958787848487611221565b60006001600160e01b0319821663ab409cf560e01b14806103c657506103c6826112d0565b606060005b60208160ff161080156111295750828160ff166020811061111857611118612402565b1a60f81b6001600160f81b03191615155b1561114057806111388161242e565b9150506110f5565b60008160ff166001600160401b0381111561115d5761115d611e5b565b6040519080825280601f01601f191660200182016040528015611187576020820181803683370190505b50905060005b8260ff168160ff16101561086257848160ff16602081106111b0576111b0612402565b1a60f81b828260ff16815181106111c9576111c9612402565b60200101906001600160f81b031916908160001a90535060010161118d565b6111f2828261086a565b6109dd5760405163e2517d3f60e01b81526001600160a01b0382166004820152602481018390526044016104ad565b61122d85858585611310565b6001600160a01b03841615610d4c5782513390600103611266576020848101519084015161125f83898985858961131c565b50506105a7565b6105a7818787878787611440565b6060816000018054806020026020016040519081016040528092919081815260200182805480156112c457602002820191906000526020600020905b8154815260200190600101908083116112b0575b50505050509050919050565b60006001600160e01b03198216636cdb3d1360e11b148061130157506001600160e01b031982166303a24d0760e21b145b806103c657506103c682611529565b6105cb8484848461155e565b6001600160a01b0384163b156105a75760405163f23a6e6160e01b81526001600160a01b0385169063f23a6e6190611360908990899088908890889060040161244d565b6020604051808303816000875af192505050801561139b575060408051601f3d908101601f1916820190925261139891810190612492565b60015b611404573d8080156113c9576040519150601f19603f3d011682016040523d82523d6000602084013e6113ce565b606091505b5080516000036113fc57604051632bfa23e760e11b81526001600160a01b03861660048201526024016104ad565b805181602001fd5b6001600160e01b0319811663f23a6e6160e01b1461079557604051632bfa23e760e11b81526001600160a01b03861660048201526024016104ad565b6001600160a01b0384163b156105a75760405163bc197c8160e01b81526001600160a01b0385169063bc197c819061148490899089908890889088906004016124af565b6020604051808303816000875af19250505080156114bf575060408051601f3d908101601f191682019092526114bc91810190612492565b60015b6114ed573d8080156113c9576040519150601f19603f3d011682016040523d82523d6000602084013e6113ce565b6001600160e01b0319811663bc197c8160e01b1461079557604051632bfa23e760e11b81526001600160a01b03861660048201526024016104ad565b60006001600160e01b03198216637965db0b60e01b14806103c657506301ffc9a760e01b6001600160e01b03198316146103c6565b61158960007f45524331313535456e756d657261626c654e6f6e5265656e7472616e74000000610bd2565b611593828261195f565b815160005b818110156118ff576020808202850101516001600160a01b0387166116a1576000818152600560205260409020546001600160a01b03161561160d5760405162461bcd60e51b815260206004820152600e60248201526d105b1c9958591e481b5a5b9d195960921b60448201526064016104ad565b600160046000828254611620919061250d565b9091555050600081815260056020908152604080832080546001600160a01b0319166001600160a01b038b1690811790915583526006909152902061166590826119df565b6116a15760405162461bcd60e51b815260206004820152600d60248201526c105b1c9958591e481859191959609a1b60448201526064016104ad565b6001600160a01b038716158015906116c157506001600160a01b03861615155b156117df576000818152600560205260409020546001600160a01b038881169116146116ff5760405162461bcd60e51b81526004016104ad906123db565b600081815260056020908152604080832080546001600160a01b0319166001600160a01b038b8116919091179091558a1683526006909152902061174390826119eb565b6117815760405162461bcd60e51b815260206004820152600f60248201526e105b1c9958591e481c995b5bdd9959608a1b60448201526064016104ad565b6001600160a01b03861660009081526006602052604090206117a390826119df565b6117df5760405162461bcd60e51b815260206004820152600d60248201526c105b1c9958591e481859191959609a1b60448201526064016104ad565b6001600160a01b0386166118f65760006004541161182b5760405162461bcd60e51b81526020600482015260096024820152684e6f20746f6b656e7360b81b60448201526064016104ad565b6000818152600560205260409020546001600160a01b038881169116146118645760405162461bcd60e51b81526004016104ad906123db565b6001600460008282546118779190612520565b9091555050600081815260056020908152604080832080546001600160a01b03191690556001600160a01b038a168352600690915290206118b890826119eb565b6118f65760405162461bcd60e51b815260206004820152600f60248201526e105b1c9958591e481c995b5bdd9959608a1b60448201526064016104ad565b50600101611598565b5061190c858585856119f7565b507f45524331313535456e756d657261626c654e6f6e5265656e7472616e74000000600090815260205260017f796c34628e8c9d17cc016a24fb742dff526bf48eaf46be1d6dc5bc628f518bf9556105cb565b8151815180821461198d57604051635b05999160e01b815260048101839052602481018290526044016104ad565b60005b82811015610d4c57602080820285010151806001146119d657602080830287010151604051631a796ab760e31b81526004810191909152602481018290526044016104ad565b50600101611990565b6000610ad88383611c2e565b6000610ad88383611c7d565b805182517f88be536d5240c274a3b1d3a1be54482fd9caa294f08c62a7cde569f49a3c45009114611a485782518251604051635b05999160e01b8152600481019290925260248201526044016104ad565b3360005b8451811015611b4e576020818102868101820151908601909101516001600160a01b03891615611aff576000828152602086815260408083206001600160a01b038d16845290915290205481811015611ad8576040516303dee4c560e01b81526001600160a01b038b1660048201526024810182905260448101839052606481018490526084016104ad565b6000838152602087815260408083206001600160a01b038e16845290915290209082900390555b6001600160a01b03881615611b44576000828152602086815260408083206001600160a01b038c16845290915281208054839290611b3e90849061250d565b90915550505b5050600101611a4c565b508351600103611bcf5760208401516000906020850151909150866001600160a01b0316886001600160a01b0316846001600160a01b03167fc3d58168c5ae7397731d063d5bbf3d657854427343f4c083240f7aacaa2d0f628585604051611bc0929190918252602082015260400190565b60405180910390a450506105a7565b846001600160a01b0316866001600160a01b0316826001600160a01b03167f4a39dc06d4c0dbc64b70af90fd698a233a518aa5d07e595d983b8c0526c8f7fb8787604051611c1e929190612533565b60405180910390a4505050505050565b6000818152600183016020526040812054611c75575081546001818101845560008481526020808220909301849055845484825282860190935260409020919091556103c6565b5060006103c6565b60008181526001830160205260408120548015610dee576000611ca1600183612520565b8554909150600090611cb590600190612520565b9050808214611d1a576000866000018281548110611cd557611cd5612402565b9060005260206000200154905080876000018481548110611cf857611cf8612402565b6000918252602080832090910192909255918252600188019052604090208390555b8554869080611d2b57611d2b612558565b6001900381819060005260206000200160009055905585600101600086815260200190815260200160002060009055600193505050506103c6565b80356001600160a01b0381168114611d7d57600080fd5b919050565b60008060408385031215611d9557600080fd5b611d9e83611d66565b946020939093013593505050565b6001600160e01b031981168114610c3057600080fd5b600060208284031215611dd457600080fd5b8135610ad881611dac565b600060208284031215611df157600080fd5b5035919050565b60005b83811015611e13578181015183820152602001611dfb565b50506000910152565b60008151808452611e34816020860160208601611df8565b601f01601f19169290920160200192915050565b602081526000610ad86020830184611e1c565b634e487b7160e01b600052604160045260246000fd5b604051601f8201601f191681016001600160401b0381118282101715611e9957611e99611e5b565b604052919050565b60006001600160401b03821115611eba57611eba611e5b565b5060051b60200190565b600082601f830112611ed557600080fd5b8135611ee8611ee382611ea1565b611e71565b8082825260208201915060208360051b860101925085831115611f0a57600080fd5b602085015b83811015611f27578035835260209283019201611f0f565b5095945050505050565b60006001600160401b03821115611f4a57611f4a611e5b565b50601f01601f191660200190565b600082601f830112611f6957600080fd5b8135611f77611ee382611f31565b818152846020838601011115611f8c57600080fd5b816020850160208301376000918101602001919091529392505050565b600080600060608486031215611fbe57600080fd5b611fc784611d66565b925060208401356001600160401b03811115611fe257600080fd5b611fee86828701611ec4565b92505060408401356001600160401b0381111561200a57600080fd5b61201686828701611f58565b9150509250925092565b600080600080600060a0868803121561203857600080fd5b61204186611d66565b945061204f60208701611d66565b935060408601356001600160401b0381111561206a57600080fd5b61207688828901611ec4565b93505060608601356001600160401b0381111561209257600080fd5b61209e88828901611ec4565b92505060808601356001600160401b038111156120ba57600080fd5b6120c688828901611f58565b9150509295509295909350565b600080604083850312156120e657600080fd5b823591506120f660208401611d66565b90509250929050565b6000806040838503121561211257600080fd5b61211b83611d66565b91506120f660208401611d66565b6000806040838503121561213c57600080fd5b82356001600160401b0381111561215257600080fd5b8301601f8101851361216357600080fd5b8035612171611ee382611ea1565b8082825260208201915060208360051b85010192508783111561219357600080fd5b6020840193505b828410156121bc576121ab84611d66565b82526020938401939091019061219a565b945050505060208301356001600160401b038111156121da57600080fd5b6121e685828601611ec4565b9150509250929050565b600081518084526020840193506020830160005b82811015612222578151865260209586019590910190600101612204565b5093949350505050565b602081526000610ad860208301846121f0565b60008060006060848603121561225457600080fd5b61225d84611d66565b92506020840135915060408401356001600160401b0381111561200a57600080fd5b6000806040838503121561229257600080fd5b61229b83611d66565b9150602083013580151581146122b057600080fd5b809150509250929050565b600080604083850312156122ce57600080fd5b6122d783611d66565b915060208301356001600160401b038111156121da57600080fd5b60006020828403121561230457600080fd5b610ad882611d66565b600080600080600060a0868803121561232557600080fd5b61232e86611d66565b945061233c60208701611d66565b9350604086013592506060860135915060808601356001600160401b038111156120ba57600080fd5b60006020828403121561237757600080fd5b81516001600160401b0381111561238d57600080fd5b8201601f8101841361239e57600080fd5b80516123ac611ee382611f31565b8181528560208385010111156123c157600080fd5b6123d2826020830160208601611df8565b95945050505050565b6020808252600d908201526c24b73b30b634b21037bbb732b960991b604082015260600190565b634e487b7160e01b600052603260045260246000fd5b634e487b7160e01b600052601160045260246000fd5b600060ff821660ff810361244457612444612418565b60010192915050565b6001600160a01b03868116825285166020820152604081018490526060810183905260a06080820181905260009061248790830184611e1c565b979650505050505050565b6000602082840312156124a457600080fd5b8151610ad881611dac565b6001600160a01b0386811682528516602082015260a0604082018190526000906124db908301866121f0565b82810360608401526124ed81866121f0565b905082810360808401526125018185611e1c565b98975050505050505050565b808201808211156103c6576103c6612418565b818103818111156103c6576103c6612418565b60408152600061254660408301856121f0565b82810360208401526123d281856121f0565b634e487b7160e01b600052603160045260246000fdfeacb6199a2ec40f6894d5f8aed79cbe5284a65cc986eb05dfbbffcc8a70ff544102dd7bc7dec4dceedda775e58dd541e08a116c6c53815c0bd028192f7b6268004c505346544973737561626c654e6f6e5265656e7472616e7400000000000000a26469706673582212203b6225b1c518bf7fe639279b1919fe18bc65d8e6b390a2cd5de7fa99ddbdf81464736f6c634300081c0033",
  "devdoc": {
    "details": "See https://eips.ethereum.org/EIPS/eip-1155",
    "errors": {
      "AccessControlBadConfirmation()": [
        {
          "details": "The caller of a function is not the expected one. NOTE: Don't confuse with {AccessControlUnauthorizedAccount}."
        }
      ],
      "AccessControlUnauthorizedAccount(address,bytes32)": [
        {
          "details": "The `account` is missing a role."
        }
      ],
      "ERC1155EnumerableInvalidAmount(uint256,uint256)": [
        {
          "details": "Error raised if the amount of an NFT is not 1",
          "params": {
            "amount": "The amount of the NFT token",
            "tokenId": "The ID of the NFT token with an invalid amount"
          }
        }
      ],
      "ERC1155InsufficientBalance(address,uint256,uint256,uint256)": [
        {
          "details": "Indicates an error related to the current `balance` of a `sender`. Used in transfers.",
          "params": {
            "balance": "Current balance for the interacting account.",
            "needed": "Minimum amount required to perform a transfer.",
            "sender": "Address whose tokens are being transferred.",
            "tokenId": "Identifier number of a token."
          }
        }
      ],
      "ERC1155InvalidApprover(address)": [
        {
          "details": "Indicates a failure with the `approver` of a token to be approved. Used in approvals.",
          "params": {
            "approver": "Address initiating an approval operation."
          }
        }
      ],
      "ERC1155InvalidArrayLength(uint256,uint256)": [
        {
          "details": "Indicates an array length mismatch between ids and values in a safeBatchTransferFrom operation. Used in batch transfers.",
          "params": {
            "idsLength": "Length of the array of token identifiers",
            "valuesLength": "Length of the array of token amounts"
          }
        }
      ],
      "ERC1155InvalidOperator(address)": [
        {
          "details": "Indicates a failure with the `operator` to be approved. Used in approvals.",
          "params": {
            "operator": "Address that may be allowed to operate on tokens without being their owner."
          }
        }
      ],
      "ERC1155InvalidReceiver(address)": [
        {
          "details": "Indicates a failure with the token `receiver`. Used in transfers.",
          "params": {
            "receiver": "Address to which tokens are being transferred."
          }
        }
      ],
      "ERC1155InvalidSender(address)": [
        {
          "details": "Indicates a failure with the token `sender`. Used in transfers.",
          "params": {
            "sender": "Address whose tokens are being transferred."
          }
        }
      ],
      "ERC1155MissingApprovalForAll(address,address)": [
        {
          "details": "Indicates a failure with the `operator`s approval. Used in transfers.",
          "params": {
            "operator": "Address that may be allowed to operate on tokens without being their owner.",
            "owner": "Address of the current owner of a token."
          }
        }
      ],
      "InvalidInitialization()": [
        {
          "details": "The contract is already initialized."
        }
      ],
      "LPSFTEmptyArray()": [
        {
          "details": "Indicates an array of length zero was passed for token IDs Used to avoid unnecessary transactions."
        }
      ],
      "NotInitializing()": [
        {
          "details": "The contract is not initializing."
        }
      ],
      "ReentrantCall(string)": [
        {
          "details": "Error for reentrant calls",
          "params": {
            "interfaceId": "The unique identifier for the interface being reentered"
          }
        }
      ]
    },
    "events": {
      "ApprovalForAll(address,address,bool)": {
        "details": "Emitted when `account` grants or revokes permission to `operator` to transfer their tokens, according to `approved`."
      },
      "Initialized(uint64)": {
        "details": "Triggered when the contract has been initialized or reinitialized."
      },
      "RoleAdminChanged(bytes32,bytes32,bytes32)": {
        "details": "Emitted when `newAdminRole` is set as ``role``'s admin role, replacing `previousAdminRole` `DEFAULT_ADMIN_ROLE` is the starting admin for all roles, despite {RoleAdminChanged} not being emitted signaling this."
      },
      "RoleGranted(bytes32,address,address)": {
        "details": "Emitted when `account` is granted `role`. `sender` is the account that originated the contract call. This account bears the admin role (for the granted role). Expected in cases where the role was granted using the internal {AccessControl-_grantRole}."
      },
      "RoleRevoked(bytes32,address,address)": {
        "details": "Emitted when `account` is revoked `role`. `sender` is the account that originated the contract call:   - if using `revokeRole`, it is the admin role bearer   - if using `renounceRole`, it is the role bearer (i.e. `account`)"
      },
      "TransferBatch(address,address,address,uint256[],uint256[])": {
        "details": "Equivalent to multiple {TransferSingle} events, where `operator`, `from` and `to` are the same for all transfers."
      },
      "TransferSingle(address,address,address,uint256,uint256)": {
        "details": "Emitted when `value` amount of tokens of type `id` are transferred from `from` to `to` by `operator`."
      },
      "URI(string,uint256)": {
        "details": "Emitted when the URI for token type `id` changes to `value`, if it is a non-programmatic URI. If an {URI} event was emitted for `id`, the standard https://eips.ethereum.org/EIPS/eip-1155#metadata-extensions[guarantees] that `value` will equal the value returned by {IERC1155MetadataURI-uri}."
      }
    },
    "kind": "dev",
    "methods": {
      "balanceOf(address,uint256)": {
        "details": "See {IERC1155-balanceOf}."
      },
      "balanceOfBatch(address[],uint256[])": {
        "details": "See {IERC1155-balanceOfBatch}. Requirements: - `accounts` and `ids` must have the same length."
      },
      "burn(address,uint256)": {
        "details": "See {ILPSFTIssuable-burn}"
      },
      "burnBatch(address,uint256[])": {
        "details": "See {ILPSFTIssuable-burnBatch}"
      },
      "constructor": {
        "details": "Constructor"
      },
      "getRoleAdmin(bytes32)": {
        "details": "Returns the admin role that controls `role`. See {grantRole} and {revokeRole}. To change a role's admin, use {_setRoleAdmin}."
      },
      "getTokenIds(address)": {
        "details": "See {IERC1155Enumerable-getTokenIds}"
      },
      "grantRole(bytes32,address)": {
        "details": "Grants `role` to `account`. If `account` had not been already granted `role`, emits a {RoleGranted} event. Requirements: - the caller must have ``role``'s admin role. May emit a {RoleGranted} event."
      },
      "hasRole(bytes32,address)": {
        "details": "Returns `true` if `account` has been granted `role`."
      },
      "initialize(address,address)": {
        "details": "Initializes the ERC-1155 contract",
        "params": {
          "lpSft_": "The LP-SFT contract",
          "owner_": "The owner of the ERC-1155 contract"
        }
      },
      "isApprovedForAll(address,address)": {
        "details": "See {IERC1155-isApprovedForAll}."
      },
      "mint(address,uint256,bytes)": {
        "details": "See {ILPSFTIssuable-mint}"
      },
      "mintBatch(address,uint256[],bytes)": {
        "details": "See {ILPSFTIssuable-mintBatch}"
      },
      "ownerOf(uint256)": {
        "details": "See {IERC1155Enumerable-ownerOf}"
      },
      "renounceRole(bytes32,address)": {
        "details": "Revokes `role` from the calling account. Roles are often managed via {grantRole} and {revokeRole}: this function's purpose is to provide a mechanism for accounts to lose their privileges if they are compromised (such as when a trusted device is misplaced). If the calling account had been revoked `role`, emits a {RoleRevoked} event. Requirements: - the caller must be `callerConfirmation`. May emit a {RoleRevoked} event."
      },
      "revokeRole(bytes32,address)": {
        "details": "Revokes `role` from `account`. If `account` had been granted `role`, emits a {RoleRevoked} event. Requirements: - the caller must have ``role``'s admin role. May emit a {RoleRevoked} event."
      },
      "safeBatchTransferFrom(address,address,uint256[],uint256[],bytes)": {
        "details": "See {IERC1155-safeBatchTransferFrom}."
      },
      "safeTransferFrom(address,address,uint256,uint256,bytes)": {
        "details": "See {IERC1155-safeTransferFrom}."
      },
      "setApprovalForAll(address,bool)": {
        "details": "See {IERC1155-setApprovalForAll}."
      },
      "supportsInterface(bytes4)": {
        "details": "See {IERC165-supportsInterface}"
      },
      "totalSupply()": {
        "details": "See {IERC1155Enumerable-totalSupply}"
      },
      "uri(uint256)": {
        "details": "See {IERC1155MetadataURI-uri}"
      }
    },
    "stateVariables": {
      "lpSft": {
        "details": "The LP-SFT contract"
      }
    },
    "title": "ERC-1155: Multi Token Standard implementation",
    "version": 1
  },
  "userdoc": {
    "kind": "user",
    "methods": {},
    "version": 1
  },
  "storageLayout": {
    "storage": [
      {
        "astId": 31692,
        "contract": "contracts/src/token/ERC1155/NOLPSFT.sol:NOLPSFT",
        "label": "_reentrancyStatus",
        "offset": 0,
        "slot": "0",
        "type": "t_struct(ReentrancyStatus)31876_storage"
      },
      {
        "astId": 31740,
        "contract": "contracts/src/token/ERC1155/NOLPSFT.sol:NOLPSFT",
        "label": "_reentrancyStatus",
        "offset": 0,
        "slot": "1",
        "type": "t_struct(ReentrancyStatus)31876_storage"
      },
      {
        "astId": 31788,
        "contract": "contracts/src/token/ERC1155/NOLPSFT.sol:NOLPSFT",
        "label": "_reentrancyStatus",
        "offset": 0,
        "slot": "2",
        "type": "t_struct(ReentrancyStatus)31876_storage"
      },
      {
        "astId": 31836,
        "contract": "contracts/src/token/ERC1155/NOLPSFT.sol:NOLPSFT",
        "label": "_reentrancyStatus",
        "offset": 0,
        "slot": "3",
        "type": "t_struct(ReentrancyStatus)31876_storage"
      },
      {
        "astId": 27246,
        "contract": "contracts/src/token/ERC1155/NOLPSFT.sol:NOLPSFT",
        "label": "_totalSupply",
        "offset": 0,
        "slot": "4",
        "type": "t_uint256"
      },
      {
        "astId": 27251,
        "contract": "contracts/src/token/ERC1155/NOLPSFT.sol:NOLPSFT",
        "label": "_tokenOwner",
        "offset": 0,
        "slot": "5",
        "type": "t_mapping(t_uint256,t_address)"
      },
      {
        "astId": 27257,
        "contract": "contracts/src/token/ERC1155/NOLPSFT.sol:NOLPSFT",
        "label": "_ownedTokens",
        "offset": 0,
        "slot": "6",
        "type": "t_mapping(t_address,t_struct(UintSet)10641_storage)"
      },
      {
        "astId": 27097,
        "contract": "contracts/src/token/ERC1155/NOLPSFT.sol:NOLPSFT",
        "label": "lpSft",
        "offset": 0,
        "slot": "7",
        "type": "t_contract(IERC1155MetadataURI)3668"
      }
    ],
    "types": {
      "t_address": {
        "encoding": "inplace",
        "label": "address",
        "numberOfBytes": "20"
      },
      "t_array(t_bytes32)dyn_storage": {
        "base": "t_bytes32",
        "encoding": "dynamic_array",
        "label": "bytes32[]",
        "numberOfBytes": "32"
      },
      "t_bytes32": {
        "encoding": "inplace",
        "label": "bytes32",
        "numberOfBytes": "32"
      },
      "t_contract(IERC1155MetadataURI)3668": {
        "encoding": "inplace",
        "label": "contract IERC1155MetadataURI",
        "numberOfBytes": "20"
      },
      "t_mapping(t_address,t_struct(UintSet)10641_storage)": {
        "encoding": "mapping",
        "key": "t_address",
        "label": "mapping(address => struct EnumerableSet.UintSet)",
        "numberOfBytes": "32",
        "value": "t_struct(UintSet)10641_storage"
      },
      "t_mapping(t_bytes32,t_uint256)": {
        "encoding": "mapping",
        "key": "t_bytes32",
        "label": "mapping(bytes32 => uint256)",
        "numberOfBytes": "32",
        "value": "t_uint256"
      },
      "t_mapping(t_uint256,t_address)": {
        "encoding": "mapping",
        "key": "t_uint256",
        "label": "mapping(uint256 => address)",
        "numberOfBytes": "32",
        "value": "t_address"
      },
      "t_struct(ReentrancyStatus)31876_storage": {
        "encoding": "inplace",
        "label": "struct ReentrancyLibrary.ReentrancyStatus",
        "members": [
          {
            "astId": 31875,
            "contract": "contracts/src/token/ERC1155/NOLPSFT.sol:NOLPSFT",
            "label": "status",
            "offset": 0,
            "slot": "0",
            "type": "t_mapping(t_bytes32,t_uint256)"
          }
        ],
        "numberOfBytes": "32"
      },
      "t_struct(Set)10169_storage": {
        "encoding": "inplace",
        "label": "struct EnumerableSet.Set",
        "members": [
          {
            "astId": 10164,
            "contract": "contracts/src/token/ERC1155/NOLPSFT.sol:NOLPSFT",
            "label": "_values",
            "offset": 0,
            "slot": "0",
            "type": "t_array(t_bytes32)dyn_storage"
          },
          {
            "astId": 10168,
            "contract": "contracts/src/token/ERC1155/NOLPSFT.sol:NOLPSFT",
            "label": "_positions",
            "offset": 0,
            "slot": "1",
            "type": "t_mapping(t_bytes32,t_uint256)"
          }
        ],
        "numberOfBytes": "64"
      },
      "t_struct(UintSet)10641_storage": {
        "encoding": "inplace",
        "label": "struct EnumerableSet.UintSet",
        "members": [
          {
            "astId": 10640,
            "contract": "contracts/src/token/ERC1155/NOLPSFT.sol:NOLPSFT",
            "label": "_inner",
            "offset": 0,
            "slot": "0",
            "type": "t_struct(Set)10169_storage"
          }
        ],
        "numberOfBytes": "64"
      },
      "t_uint256": {
        "encoding": "inplace",
        "label": "uint256",
        "numberOfBytes": "32"
      }
    }
  }
}