{
  "address": "0x0Da4291075032aD1c9D3838c7A2D51bF30d7E000",
  "abi": [
    {
      "inputs": [
        {
          "internalType": "address",
          "name": "owner_",
          "type": "address"
        }
      ],
      "stateMutability": "nonpayable",
      "type": "constructor"
    },
    {
      "inputs": [],
      "name": "AccessControlBadConfirmation",
      "type": "error"
    },
    {
      "inputs": [
        {
          "internalType": "address",
          "name": "account",
          "type": "address"
        },
        {
          "internalType": "bytes32",
          "name": "neededRole",
          "type": "bytes32"
        }
      ],
      "name": "AccessControlUnauthorizedAccount",
      "type": "error"
    },
    {
      "inputs": [
        {
          "internalType": "address",
          "name": "spender",
          "type": "address"
        },
        {
          "internalType": "uint256",
          "name": "allowance",
          "type": "uint256"
        },
        {
          "internalType": "uint256",
          "name": "needed",
          "type": "uint256"
        }
      ],
      "name": "ERC20InsufficientAllowance",
      "type": "error"
    },
    {
      "inputs": [
        {
          "internalType": "address",
          "name": "sender",
          "type": "address"
        },
        {
          "internalType": "uint256",
          "name": "balance",
          "type": "uint256"
        },
        {
          "internalType": "uint256",
          "name": "needed",
          "type": "uint256"
        }
      ],
      "name": "ERC20InsufficientBalance",
      "type": "error"
    },
    {
      "inputs": [
        {
          "internalType": "address",
          "name": "approver",
          "type": "address"
        }
      ],
      "name": "ERC20InvalidApprover",
      "type": "error"
    },
    {
      "inputs": [
        {
          "internalType": "address",
          "name": "receiver",
          "type": "address"
        }
      ],
      "name": "ERC20InvalidReceiver",
      "type": "error"
    },
    {
      "inputs": [
        {
          "internalType": "address",
          "name": "sender",
          "type": "address"
        }
      ],
      "name": "ERC20InvalidSender",
      "type": "error"
    },
    {
      "inputs": [
        {
          "internalType": "address",
          "name": "spender",
          "type": "address"
        }
      ],
      "name": "ERC20InvalidSpender",
      "type": "error"
    },
    {
      "inputs": [
        {
          "internalType": "address",
          "name": "from",
          "type": "address"
        },
        {
          "internalType": "address",
          "name": "to",
          "type": "address"
        },
        {
          "internalType": "uint256",
          "name": "value",
          "type": "uint256"
        }
      ],
      "name": "ERC20TransferAttempted",
      "type": "error"
    },
    {
      "inputs": [],
      "name": "InvalidInitialization",
      "type": "error"
    },
    {
      "inputs": [],
      "name": "NotInitializing",
      "type": "error"
    },
    {
      "anonymous": false,
      "inputs": [
        {
          "indexed": true,
          "internalType": "address",
          "name": "owner",
          "type": "address"
        },
        {
          "indexed": true,
          "internalType": "address",
          "name": "spender",
          "type": "address"
        },
        {
          "indexed": false,
          "internalType": "uint256",
          "name": "value",
          "type": "uint256"
        }
      ],
      "name": "Approval",
      "type": "event"
    },
    {
      "anonymous": false,
      "inputs": [
        {
          "indexed": false,
          "internalType": "uint64",
          "name": "version",
          "type": "uint64"
        }
      ],
      "name": "Initialized",
      "type": "event"
    },
    {
      "anonymous": false,
      "inputs": [
        {
          "indexed": true,
          "internalType": "bytes32",
          "name": "role",
          "type": "bytes32"
        },
        {
          "indexed": true,
          "internalType": "bytes32",
          "name": "previousAdminRole",
          "type": "bytes32"
        },
        {
          "indexed": true,
          "internalType": "bytes32",
          "name": "newAdminRole",
          "type": "bytes32"
        }
      ],
      "name": "RoleAdminChanged",
      "type": "event"
    },
    {
      "anonymous": false,
      "inputs": [
        {
          "indexed": true,
          "internalType": "bytes32",
          "name": "role",
          "type": "bytes32"
        },
        {
          "indexed": true,
          "internalType": "address",
          "name": "account",
          "type": "address"
        },
        {
          "indexed": true,
          "internalType": "address",
          "name": "sender",
          "type": "address"
        }
      ],
      "name": "RoleGranted",
      "type": "event"
    },
    {
      "anonymous": false,
      "inputs": [
        {
          "indexed": true,
          "internalType": "bytes32",
          "name": "role",
          "type": "bytes32"
        },
        {
          "indexed": true,
          "internalType": "address",
          "name": "account",
          "type": "address"
        },
        {
          "indexed": true,
          "internalType": "address",
          "name": "sender",
          "type": "address"
        }
      ],
      "name": "RoleRevoked",
      "type": "event"
    },
    {
      "anonymous": false,
      "inputs": [
        {
          "indexed": true,
          "internalType": "address",
          "name": "from",
          "type": "address"
        },
        {
          "indexed": true,
          "internalType": "address",
          "name": "to",
          "type": "address"
        },
        {
          "indexed": false,
          "internalType": "uint256",
          "name": "value",
          "type": "uint256"
        }
      ],
      "name": "Transfer",
      "type": "event"
    },
    {
      "inputs": [],
      "name": "DECIMALS",
      "outputs": [
        {
          "internalType": "uint8",
          "name": "",
          "type": "uint8"
        }
      ],
      "stateMutability": "view",
      "type": "function"
    },
    {
      "inputs": [],
      "name": "DEFAULT_ADMIN_ROLE",
      "outputs": [
        {
          "internalType": "bytes32",
          "name": "",
          "type": "bytes32"
        }
      ],
      "stateMutability": "view",
      "type": "function"
    },
    {
      "inputs": [],
      "name": "ERC20_ISSUER_ROLE",
      "outputs": [
        {
          "internalType": "bytes32",
          "name": "",
          "type": "bytes32"
        }
      ],
      "stateMutability": "view",
      "type": "function"
    },
    {
      "inputs": [
        {
          "internalType": "address",
          "name": "owner",
          "type": "address"
        },
        {
          "internalType": "address",
          "name": "spender",
          "type": "address"
        }
      ],
      "name": "allowance",
      "outputs": [
        {
          "internalType": "uint256",
          "name": "",
          "type": "uint256"
        }
      ],
      "stateMutability": "view",
      "type": "function"
    },
    {
      "inputs": [
        {
          "internalType": "address",
          "name": "spender",
          "type": "address"
        },
        {
          "internalType": "uint256",
          "name": "value",
          "type": "uint256"
        }
      ],
      "name": "approve",
      "outputs": [
        {
          "internalType": "bool",
          "name": "",
          "type": "bool"
        }
      ],
      "stateMutability": "nonpayable",
      "type": "function"
    },
    {
      "inputs": [
        {
          "internalType": "address",
          "name": "account",
          "type": "address"
        }
      ],
      "name": "balanceOf",
      "outputs": [
        {
          "internalType": "uint256",
          "name": "",
          "type": "uint256"
        }
      ],
      "stateMutability": "view",
      "type": "function"
    },
    {
      "inputs": [
        {
          "internalType": "address",
          "name": "account",
          "type": "address"
        },
        {
          "internalType": "uint256",
          "name": "amount",
          "type": "uint256"
        }
      ],
      "name": "burn",
      "outputs": [],
      "stateMutability": "nonpayable",
      "type": "function"
    },
    {
      "inputs": [],
      "name": "decimals",
      "outputs": [
        {
          "internalType": "uint8",
          "name": "",
          "type": "uint8"
        }
      ],
      "stateMutability": "pure",
      "type": "function"
    },
    {
      "inputs": [
        {
          "internalType": "bytes32",
          "name": "role",
          "type": "bytes32"
        }
      ],
      "name": "getRoleAdmin",
      "outputs": [
        {
          "internalType": "bytes32",
          "name": "",
          "type": "bytes32"
        }
      ],
      "stateMutability": "view",
      "type": "function"
    },
    {
      "inputs": [
        {
          "internalType": "bytes32",
          "name": "role",
          "type": "bytes32"
        },
        {
          "internalType": "address",
          "name": "account",
          "type": "address"
        }
      ],
      "name": "grantRole",
      "outputs": [],
      "stateMutability": "nonpayable",
      "type": "function"
    },
    {
      "inputs": [
        {
          "internalType": "bytes32",
          "name": "role",
          "type": "bytes32"
        },
        {
          "internalType": "address",
          "name": "account",
          "type": "address"
        }
      ],
      "name": "hasRole",
      "outputs": [
        {
          "internalType": "bool",
          "name": "",
          "type": "bool"
        }
      ],
      "stateMutability": "view",
      "type": "function"
    },
    {
      "inputs": [
        {
          "internalType": "address",
          "name": "owner_",
          "type": "address"
        }
      ],
      "name": "initialize",
      "outputs": [],
      "stateMutability": "nonpayable",
      "type": "function"
    },
    {
      "inputs": [
        {
          "internalType": "address",
          "name": "to",
          "type": "address"
        },
        {
          "internalType": "uint256",
          "name": "amount",
          "type": "uint256"
        }
      ],
      "name": "mint",
      "outputs": [],
      "stateMutability": "nonpayable",
      "type": "function"
    },
    {
      "inputs": [],
      "name": "name",
      "outputs": [
        {
          "internalType": "string",
          "name": "",
          "type": "string"
        }
      ],
      "stateMutability": "view",
      "type": "function"
    },
    {
      "inputs": [
        {
          "internalType": "bytes32",
          "name": "role",
          "type": "bytes32"
        },
        {
          "internalType": "address",
          "name": "callerConfirmation",
          "type": "address"
        }
      ],
      "name": "renounceRole",
      "outputs": [],
      "stateMutability": "nonpayable",
      "type": "function"
    },
    {
      "inputs": [
        {
          "internalType": "bytes32",
          "name": "role",
          "type": "bytes32"
        },
        {
          "internalType": "address",
          "name": "account",
          "type": "address"
        }
      ],
      "name": "revokeRole",
      "outputs": [],
      "stateMutability": "nonpayable",
      "type": "function"
    },
    {
      "inputs": [
        {
          "internalType": "bytes4",
          "name": "interfaceId",
          "type": "bytes4"
        }
      ],
      "name": "supportsInterface",
      "outputs": [
        {
          "internalType": "bool",
          "name": "",
          "type": "bool"
        }
      ],
      "stateMutability": "view",
      "type": "function"
    },
    {
      "inputs": [],
      "name": "symbol",
      "outputs": [
        {
          "internalType": "string",
          "name": "",
          "type": "string"
        }
      ],
      "stateMutability": "view",
      "type": "function"
    },
    {
      "inputs": [],
      "name": "totalSupply",
      "outputs": [
        {
          "internalType": "uint256",
          "name": "",
          "type": "uint256"
        }
      ],
      "stateMutability": "view",
      "type": "function"
    },
    {
      "inputs": [
        {
          "internalType": "address",
          "name": "to",
          "type": "address"
        },
        {
          "internalType": "uint256",
          "name": "value",
          "type": "uint256"
        }
      ],
      "name": "transfer",
      "outputs": [
        {
          "internalType": "bool",
          "name": "",
          "type": "bool"
        }
      ],
      "stateMutability": "nonpayable",
      "type": "function"
    },
    {
      "inputs": [
        {
          "internalType": "address",
          "name": "from",
          "type": "address"
        },
        {
          "internalType": "address",
          "name": "to",
          "type": "address"
        },
        {
          "internalType": "uint256",
          "name": "value",
          "type": "uint256"
        }
      ],
      "name": "transferFrom",
      "outputs": [
        {
          "internalType": "bool",
          "name": "",
          "type": "bool"
        }
      ],
      "stateMutability": "nonpayable",
      "type": "function"
    }
  ],
  "transactionHash": "0x2921d15f3e73a7821a810d0679e1300f770ea7e2e50d70f258b7bd3fa57b7602",
  "args": [
    "0x5Eb8d8a368B1F1A9de0c2E489e270d7AFD389C3C"
  ],
  "numDeployments": 1,
  "solcInputHash": "607dfe4437c93ddfbd36914a2ea77f31",
  "bytecode": "0x608060405234801561001057600080fd5b506040516116cc3803806116cc83398101604081905261002f916103b5565b6100388161003e565b50610542565b7ff0c57e16840df040f15088dc2f81fe391c3923bec73e23a9662efc9c229c6a00805468010000000000000000810460ff1615906001600160401b03166000811580156100885750825b90506000826001600160401b031660011480156100a45750303b155b9050811580156100b2575080155b156100d05760405163f92ee8a960e01b815260040160405180910390fd5b84546001600160401b031916600117855583156100fe57845460ff60401b1916680100000000000000001785555b6001600160a01b0386166101485760405162461bcd60e51b815260206004820152600d60248201526c24b73b30b634b21037bbb732b960991b604482015260640160405180910390fd5b61015061020d565b6101b36040518060400160405280601381526020017f506f77656c6c204e69636b656c73204465627400000000000000000000000000815250604051806040016040528060068152602001654e4f504f573560d01b81525061021760201b60201c565b6101be60008761022d565b50831561020557845460ff60401b19168555604051600181527fc7f505b2f371ae2175ee4913f4499e1f2633a7b5936321eed1cdaeb6115181d29060200160405180910390a15b505050505050565b6102156102fe565b565b61021f6102fe565b610229828261034c565b5050565b60008281527f02dd7bc7dec4dceedda775e58dd541e08a116c6c53815c0bd028192f7b626800602081815260408084206001600160a01b038616855290915282205460ff166102f2576000848152602082815260408083206001600160a01b03871684529091529020805460ff191660011790556102a83390565b6001600160a01b0316836001600160a01b0316857f2f8788117e7eff1d82e926ec794901d17c78024a50270940304540a733656f0d60405160405180910390a460019150506102f8565b60009150505b92915050565b7ff0c57e16840df040f15088dc2f81fe391c3923bec73e23a9662efc9c229c6a005468010000000000000000900460ff1661021557604051631afcd79f60e31b815260040160405180910390fd5b6103546102fe565b7f52c63247e1f47db19d5ce0460030c497f067ca4cebf71ba98eeadabe20bace007f52c63247e1f47db19d5ce0460030c497f067ca4cebf71ba98eeadabe20bace036103a08482610484565b50600481016103af8382610484565b50505050565b6000602082840312156103c757600080fd5b81516001600160a01b03811681146103de57600080fd5b9392505050565b634e487b7160e01b600052604160045260246000fd5b600181811c9082168061040f57607f821691505b60208210810361042f57634e487b7160e01b600052602260045260246000fd5b50919050565b601f82111561047f57806000526020600020601f840160051c8101602085101561045c5750805b601f840160051c820191505b8181101561047c5760008155600101610468565b50505b505050565b81516001600160401b0381111561049d5761049d6103e5565b6104b1816104ab84546103fb565b84610435565b6020601f8211600181146104e557600083156104cd5750848201515b600019600385901b1c1916600184901b17845561047c565b600084815260208120601f198516915b8281101561051557878501518255602094850194600190920191016104f5565b50848210156105335786840151600019600387901b60f8161c191681555b50505050600190811b01905550565b61117b806105516000396000f3fe608060405234801561001057600080fd5b50600436106101375760003560e01c806336568abe116100b85780639dc29fac1161007c5780639dc29fac146102af578063a217fddf146102c2578063a9059cbb146102ca578063c4d66de8146102dd578063d547741f146102f0578063dd62ed3e1461030357600080fd5b806336568abe1461023857806340c10f191461024b57806370a082311461025e57806391d148541461029457806395d89b41146102a757600080fd5b806323b872dd116100ff57806323b872dd146101dc578063248a9ca3146101ef5780632e0f2625146102025780632f2ff15d1461021c578063313ce5671461023157600080fd5b806301ffc9a71461013c57806306fdde0314610164578063095ea7b31461017957806317bef7161461018c57806318160ddd146101b5575b600080fd5b61014f61014a366004610e02565b610316565b60405190151581526020015b60405180910390f35b61016c610378565b60405161015b9190610e33565b61014f610187366004610e9d565b61043b565b6101a77045524332305f4953535545525f524f4c4560781b81565b60405190815260200161015b565b7f52c63247e1f47db19d5ce0460030c497f067ca4cebf71ba98eeadabe20bace02546101a7565b61014f6101ea366004610ec7565b610453565b6101a76101fd366004610f04565b610477565b61020a601081565b60405160ff909116815260200161015b565b61022f61022a366004610f1d565b610499565b005b601061020a565b61022f610246366004610f1d565b6104bb565b61022f610259366004610e9d565b6104f3565b6101a761026c366004610f49565b6001600160a01b03166000908152600080516020611106833981519152602052604090205490565b61014f6102a2366004610f1d565b61051e565b61016c610556565b61022f6102bd366004610e9d565b610595565b6101a7600081565b61014f6102d8366004610e9d565b6105bc565b61022f6102eb366004610f49565b6105ca565b61022f6102fe366004610f1d565b610783565b6101a7610311366004610f64565b61079f565b6000610321826107e9565b8061033c57506001600160e01b031982166336372b0760e01b145b8061035757506001600160e01b0319821663a219a02560e01b145b8061037257506001600160e01b0319821663dd0390b560e01b145b92915050565b7f52c63247e1f47db19d5ce0460030c497f067ca4cebf71ba98eeadabe20bace038054606091600080516020611106833981519152916103b790610f8e565b80601f01602080910402602001604051908101604052809291908181526020018280546103e390610f8e565b80156104305780601f1061040557610100808354040283529160200191610430565b820191906000526020600020905b81548152906001019060200180831161041357829003601f168201915b505050505091505090565b60003361044981858561081e565b5060019392505050565b60003361046185828561082b565b61046c85858561088b565b506001949350505050565b6000908152600080516020611126833981519152602052604090206001015490565b6104a282610477565b6104ab816108ea565b6104b583836108f7565b50505050565b6001600160a01b03811633146104e45760405163334bd91960e11b815260040160405180910390fd5b6104ee828261099c565b505050565b6105107045524332305f4953535545525f524f4c4560781b6108ea565b61051a8282610a18565b5050565b6000918252600080516020611126833981519152602090815260408084206001600160a01b0393909316845291905290205460ff1690565b7f52c63247e1f47db19d5ce0460030c497f067ca4cebf71ba98eeadabe20bace048054606091600080516020611106833981519152916103b790610f8e565b6105b27045524332305f4953535545525f524f4c4560781b6108ea565b61051a8282610a4e565b60003361044981858561088b565b7ff0c57e16840df040f15088dc2f81fe391c3923bec73e23a9662efc9c229c6a008054600160401b810460ff16159067ffffffffffffffff166000811580156106105750825b905060008267ffffffffffffffff16600114801561062d5750303b155b90508115801561063b575080155b156106595760405163f92ee8a960e01b815260040160405180910390fd5b845467ffffffffffffffff19166001178555831561068357845460ff60401b1916600160401b1785555b6001600160a01b0386166106ce5760405162461bcd60e51b815260206004820152600d60248201526c24b73b30b634b21037bbb732b960991b60448201526064015b60405180910390fd5b6106d6610a84565b61072960405180604001604052806013815260200172141bddd95b1b08139a58dad95b1cc81119589d606a1b815250604051806040016040528060068152602001654e4f504f573560d01b815250610a8e565b6107346000876108f7565b50831561077b57845460ff60401b19168555604051600181527fc7f505b2f371ae2175ee4913f4499e1f2633a7b5936321eed1cdaeb6115181d29060200160405180910390a15b505050505050565b61078c82610477565b610795816108ea565b6104b5838361099c565b6001600160a01b0391821660009081527f52c63247e1f47db19d5ce0460030c497f067ca4cebf71ba98eeadabe20bace016020908152604080832093909416825291909152205490565b60006001600160e01b03198216637965db0b60e01b148061037257506301ffc9a760e01b6001600160e01b0319831614610372565b6104ee8383836001610aa0565b6000610837848461079f565b905060001981146104b5578181101561087c57604051637dc7a0d960e11b81526001600160a01b038416600482015260248101829052604481018390526064016106c5565b6104b584848484036000610aa0565b6001600160a01b0383166108b557604051634b637e8f60e11b8152600060048201526024016106c5565b6001600160a01b0382166108df5760405163ec442f0560e01b8152600060048201526024016106c5565b6104ee838383610b88565b6108f48133610b93565b50565b6000600080516020611126833981519152610912848461051e565b610992576000848152602082815260408083206001600160a01b03871684529091529020805460ff191660011790556109483390565b6001600160a01b0316836001600160a01b0316857f2f8788117e7eff1d82e926ec794901d17c78024a50270940304540a733656f0d60405160405180910390a46001915050610372565b6000915050610372565b60006000805160206111268339815191526109b7848461051e565b15610992576000848152602082815260408083206001600160a01b0387168085529252808320805460ff1916905551339287917ff6391f5c32d9c69d2a47ea670b442974b53935d1edc7fd64eb21e047a839171b9190a46001915050610372565b6001600160a01b038216610a425760405163ec442f0560e01b8152600060048201526024016106c5565b61051a60008383610b88565b6001600160a01b038216610a7857604051634b637e8f60e11b8152600060048201526024016106c5565b61051a82600083610b88565b610a8c610bcc565b565b610a96610bcc565b61051a8282610c15565b6000805160206111068339815191526001600160a01b038516610ad95760405163e602df0560e01b8152600060048201526024016106c5565b6001600160a01b038416610b0357604051634a1406b160e11b8152600060048201526024016106c5565b6001600160a01b03808616600090815260018301602090815260408083209388168352929052208390558115610b8157836001600160a01b0316856001600160a01b03167f8c5be1e5ebec7d5bd14f71427d1e84f3dd0314c0f7b2291e5b200ac8c7c3b92585604051610b7891815260200190565b60405180910390a35b5050505050565b6104ee838383610c66565b610b9d828261051e565b61051a5760405163e2517d3f60e01b81526001600160a01b0382166004820152602481018390526044016106c5565b7ff0c57e16840df040f15088dc2f81fe391c3923bec73e23a9662efc9c229c6a0054600160401b900460ff16610a8c57604051631afcd79f60e31b815260040160405180910390fd5b610c1d610bcc565b6000805160206111068339815191527f52c63247e1f47db19d5ce0460030c497f067ca4cebf71ba98eeadabe20bace03610c578482611025565b50600481016104b58382611025565b6001600160a01b03831615801590610c8657506001600160a01b03821615155b15610cbe57604051634fc2012d60e11b81526001600160a01b03808516600483015283166024820152604481018290526064016106c5565b6104ee8383836000805160206111068339815191526001600160a01b038416610d005781816002016000828254610cf591906110e4565b90915550610d729050565b6001600160a01b03841660009081526020829052604090205482811015610d535760405163391434e360e21b81526001600160a01b038616600482015260248101829052604481018490526064016106c5565b6001600160a01b03851660009081526020839052604090209083900390555b6001600160a01b038316610d90576002810180548390039055610daf565b6001600160a01b03831660009081526020829052604090208054830190555b826001600160a01b0316846001600160a01b03167fddf252ad1be2c89b69c2b068fc378daa952ba7f163c4a11628f55a4df523b3ef84604051610df491815260200190565b60405180910390a350505050565b600060208284031215610e1457600080fd5b81356001600160e01b031981168114610e2c57600080fd5b9392505050565b602081526000825180602084015260005b81811015610e615760208186018101516040868401015201610e44565b506000604082850101526040601f19601f83011684010191505092915050565b80356001600160a01b0381168114610e9857600080fd5b919050565b60008060408385031215610eb057600080fd5b610eb983610e81565b946020939093013593505050565b600080600060608486031215610edc57600080fd5b610ee584610e81565b9250610ef360208501610e81565b929592945050506040919091013590565b600060208284031215610f1657600080fd5b5035919050565b60008060408385031215610f3057600080fd5b82359150610f4060208401610e81565b90509250929050565b600060208284031215610f5b57600080fd5b610e2c82610e81565b60008060408385031215610f7757600080fd5b610f8083610e81565b9150610f4060208401610e81565b600181811c90821680610fa257607f821691505b602082108103610fc257634e487b7160e01b600052602260045260246000fd5b50919050565b634e487b7160e01b600052604160045260246000fd5b601f8211156104ee57806000526020600020601f840160051c810160208510156110055750805b601f840160051c820191505b81811015610b815760008155600101611011565b815167ffffffffffffffff81111561103f5761103f610fc8565b6110538161104d8454610f8e565b84610fde565b6020601f821160018114611087576000831561106f5750848201515b600019600385901b1c1916600184901b178455610b81565b600084815260208120601f198516915b828110156110b75787850151825560209485019460019092019101611097565b50848210156110d55786840151600019600387901b60f8161c191681555b50505050600190811b01905550565b8082018082111561037257634e487b7160e01b600052601160045260246000fdfe52c63247e1f47db19d5ce0460030c497f067ca4cebf71ba98eeadabe20bace0002dd7bc7dec4dceedda775e58dd541e08a116c6c53815c0bd028192f7b626800a2646970667358221220ba7448fe2ffa731a1129d6cc8f83aa1bb02b9b2bd0bef5d60253d2ab89a954e564736f6c634300081c0033",
  "devdoc": {
    "details": "See https://eips.ethereum.org/EIPS/eip-20",
    "errors": {
      "AccessControlBadConfirmation()": [
        {
          "details": "The caller of a function is not the expected one. NOTE: Don't confuse with {AccessControlUnauthorizedAccount}."
        }
      ],
      "AccessControlUnauthorizedAccount(address,bytes32)": [
        {
          "details": "The `account` is missing a role."
        }
      ],
      "ERC20InsufficientAllowance(address,uint256,uint256)": [
        {
          "details": "Indicates a failure with the `spender`s `allowance`. Used in transfers.",
          "params": {
            "allowance": "Amount of tokens a `spender` is allowed to operate with.",
            "needed": "Minimum amount required to perform a transfer.",
            "spender": "Address that may be allowed to operate on tokens without being their owner."
          }
        }
      ],
      "ERC20InsufficientBalance(address,uint256,uint256)": [
        {
          "details": "Indicates an error related to the current `balance` of a `sender`. Used in transfers.",
          "params": {
            "balance": "Current balance for the interacting account.",
            "needed": "Minimum amount required to perform a transfer.",
            "sender": "Address whose tokens are being transferred."
          }
        }
      ],
      "ERC20InvalidApprover(address)": [
        {
          "details": "Indicates a failure with the `approver` of a token to be approved. Used in approvals.",
          "params": {
            "approver": "Address initiating an approval operation."
          }
        }
      ],
      "ERC20InvalidReceiver(address)": [
        {
          "details": "Indicates a failure with the token `receiver`. Used in transfers.",
          "params": {
            "receiver": "Address to which tokens are being transferred."
          }
        }
      ],
      "ERC20InvalidSender(address)": [
        {
          "details": "Indicates a failure with the token `sender`. Used in transfers.",
          "params": {
            "sender": "Address whose tokens are being transferred."
          }
        }
      ],
      "ERC20InvalidSpender(address)": [
        {
          "details": "Indicates a failure with the `spender` to be approved. Used in approvals.",
          "params": {
            "spender": "Address that may be allowed to operate on tokens without being their owner."
          }
        }
      ],
      "ERC20TransferAttempted(address,address,uint256)": [
        {
          "details": "Emitted when a transfer is attempted",
          "params": {
            "from": "The sender",
            "to": "The recipient",
            "value": "The amount"
          }
        }
      ],
      "InvalidInitialization()": [
        {
          "details": "The contract is already initialized."
        }
      ],
      "NotInitializing()": [
        {
          "details": "The contract is not initializing."
        }
      ]
    },
    "events": {
      "Approval(address,address,uint256)": {
        "details": "Emitted when the allowance of a `spender` for an `owner` is set by a call to {approve}. `value` is the new allowance."
      },
      "Initialized(uint64)": {
        "details": "Triggered when the contract has been initialized or reinitialized."
      },
      "RoleAdminChanged(bytes32,bytes32,bytes32)": {
        "details": "Emitted when `newAdminRole` is set as ``role``'s admin role, replacing `previousAdminRole` `DEFAULT_ADMIN_ROLE` is the starting admin for all roles, despite {RoleAdminChanged} not being emitted signaling this."
      },
      "RoleGranted(bytes32,address,address)": {
        "details": "Emitted when `account` is granted `role`. `sender` is the account that originated the contract call. This account bears the admin role (for the granted role). Expected in cases where the role was granted using the internal {AccessControl-_grantRole}."
      },
      "RoleRevoked(bytes32,address,address)": {
        "details": "Emitted when `account` is revoked `role`. `sender` is the account that originated the contract call:   - if using `revokeRole`, it is the admin role bearer   - if using `renounceRole`, it is the role bearer (i.e. `account`)"
      },
      "Transfer(address,address,uint256)": {
        "details": "Emitted when `value` tokens are moved from one account (`from`) to another (`to`). Note that `value` may be zero."
      }
    },
    "kind": "dev",
    "methods": {
      "allowance(address,address)": {
        "details": "See {IERC20-allowance}."
      },
      "approve(address,uint256)": {
        "details": "See {IERC20-approve}. NOTE: If `value` is the maximum `uint256`, the allowance is not updated on `transferFrom`. This is semantically equivalent to an infinite approval. Requirements: - `spender` cannot be the zero address."
      },
      "balanceOf(address)": {
        "details": "See {IERC20-balanceOf}."
      },
      "burn(address,uint256)": {
        "details": "See {IERC20Issuable-burn}"
      },
      "constructor": {
        "details": "Constructor"
      },
      "decimals()": {
        "details": "See {IERC20Metadata-decimals}"
      },
      "getRoleAdmin(bytes32)": {
        "details": "Returns the admin role that controls `role`. See {grantRole} and {revokeRole}. To change a role's admin, use {_setRoleAdmin}."
      },
      "grantRole(bytes32,address)": {
        "details": "Grants `role` to `account`. If `account` had not been already granted `role`, emits a {RoleGranted} event. Requirements: - the caller must have ``role``'s admin role. May emit a {RoleGranted} event."
      },
      "hasRole(bytes32,address)": {
        "details": "Returns `true` if `account` has been granted `role`."
      },
      "initialize(address)": {
        "details": "Initializes the ERC-20 token with a name and symbol",
        "params": {
          "owner_": "The owner of the token"
        }
      },
      "mint(address,uint256)": {
        "details": "See {IERC20Issuable-mint}"
      },
      "name()": {
        "details": "Returns the name of the token."
      },
      "renounceRole(bytes32,address)": {
        "details": "Revokes `role` from the calling account. Roles are often managed via {grantRole} and {revokeRole}: this function's purpose is to provide a mechanism for accounts to lose their privileges if they are compromised (such as when a trusted device is misplaced). If the calling account had been revoked `role`, emits a {RoleRevoked} event. Requirements: - the caller must be `callerConfirmation`. May emit a {RoleRevoked} event."
      },
      "revokeRole(bytes32,address)": {
        "details": "Revokes `role` from `account`. If `account` had been granted `role`, emits a {RoleRevoked} event. Requirements: - the caller must have ``role``'s admin role. May emit a {RoleRevoked} event."
      },
      "supportsInterface(bytes4)": {
        "details": "See {IERC165-supportsInterface}"
      },
      "symbol()": {
        "details": "Returns the symbol of the token, usually a shorter version of the name."
      },
      "totalSupply()": {
        "details": "See {IERC20-totalSupply}."
      },
      "transfer(address,uint256)": {
        "details": "See {IERC20-transfer}. Requirements: - `to` cannot be the zero address. - the caller must have a balance of at least `value`."
      },
      "transferFrom(address,address,uint256)": {
        "details": "See {IERC20-transferFrom}. Skips emitting an {Approval} event indicating an allowance update. This is not required by the ERC. See {xref-ERC20-_approve-address-address-uint256-bool-}[_approve]. NOTE: Does not update the allowance if the current allowance is the maximum `uint256`. Requirements: - `from` and `to` cannot be the zero address. - `from` must have a balance of at least `value`. - the caller must have allowance for ``from``'s tokens of at least `value`."
      }
    },
    "stateVariables": {
      "DECIMALS": {
        "details": "The number of decimal places to which the token is divisible"
      },
      "TOKEN_NAME": {
        "details": "The ERC 20 token name used by wallets to identify the token"
      },
      "TOKEN_SYMBOL": {
        "details": "The ERC 20 token symbol used as an abbreviation of the token, such as BTC, ETH, AUG or SJCX."
      }
    },
    "title": "ERC-20: Token Standard implementation",
    "version": 1
  },
  "userdoc": {
    "kind": "user",
    "methods": {},
    "version": 1
  },
  "storageLayout": {
    "storage": [],
    "types": null
  }
}