{
  "address": "0x8a0624eBe1379787c732D184C01d8bD17Cfcf3EF",
  "abi": [
    {
      "inputs": [
        {
          "internalType": "address",
          "name": "owner_",
          "type": "address"
        },
        {
          "internalType": "address",
          "name": "lpSft_",
          "type": "address"
        },
        {
          "internalType": "address",
          "name": "rewardToken_",
          "type": "address"
        },
        {
          "internalType": "address",
          "name": "lpToken_",
          "type": "address"
        },
        {
          "internalType": "uint256",
          "name": "rewardRate_",
          "type": "uint256"
        }
      ],
      "stateMutability": "nonpayable",
      "type": "constructor"
    },
    {
      "inputs": [],
      "name": "AccessControlBadConfirmation",
      "type": "error"
    },
    {
      "inputs": [
        {
          "internalType": "address",
          "name": "account",
          "type": "address"
        },
        {
          "internalType": "bytes32",
          "name": "neededRole",
          "type": "bytes32"
        }
      ],
      "name": "AccessControlUnauthorizedAccount",
      "type": "error"
    },
    {
      "inputs": [],
      "name": "LPNFTInvalidTokenID",
      "type": "error"
    },
    {
      "inputs": [
        {
          "internalType": "uint256",
          "name": "tokenId",
          "type": "uint256"
        }
      ],
      "name": "LPSFTInvalidToken",
      "type": "error"
    },
    {
      "inputs": [],
      "name": "ReentrancyGuardReentrantCall",
      "type": "error"
    },
    {
      "inputs": [
        {
          "internalType": "address",
          "name": "token",
          "type": "address"
        }
      ],
      "name": "SafeERC20FailedOperation",
      "type": "error"
    },
    {
      "anonymous": false,
      "inputs": [
        {
          "indexed": true,
          "internalType": "bytes32",
          "name": "role",
          "type": "bytes32"
        },
        {
          "indexed": true,
          "internalType": "bytes32",
          "name": "previousAdminRole",
          "type": "bytes32"
        },
        {
          "indexed": true,
          "internalType": "bytes32",
          "name": "newAdminRole",
          "type": "bytes32"
        }
      ],
      "name": "RoleAdminChanged",
      "type": "event"
    },
    {
      "anonymous": false,
      "inputs": [
        {
          "indexed": true,
          "internalType": "bytes32",
          "name": "role",
          "type": "bytes32"
        },
        {
          "indexed": true,
          "internalType": "address",
          "name": "account",
          "type": "address"
        },
        {
          "indexed": true,
          "internalType": "address",
          "name": "sender",
          "type": "address"
        }
      ],
      "name": "RoleGranted",
      "type": "event"
    },
    {
      "anonymous": false,
      "inputs": [
        {
          "indexed": true,
          "internalType": "bytes32",
          "name": "role",
          "type": "bytes32"
        },
        {
          "indexed": true,
          "internalType": "address",
          "name": "account",
          "type": "address"
        },
        {
          "indexed": true,
          "internalType": "address",
          "name": "sender",
          "type": "address"
        }
      ],
      "name": "RoleRevoked",
      "type": "event"
    },
    {
      "inputs": [],
      "name": "DEFAULT_ADMIN_ROLE",
      "outputs": [
        {
          "internalType": "bytes32",
          "name": "",
          "type": "bytes32"
        }
      ],
      "stateMutability": "view",
      "type": "function"
    },
    {
      "inputs": [],
      "name": "LPSFT_FARM_OPERATOR_ROLE",
      "outputs": [
        {
          "internalType": "bytes32",
          "name": "",
          "type": "bytes32"
        }
      ],
      "stateMutability": "view",
      "type": "function"
    },
    {
      "inputs": [
        {
          "internalType": "address",
          "name": "account",
          "type": "address"
        }
      ],
      "name": "balanceOf",
      "outputs": [
        {
          "internalType": "uint256",
          "name": "",
          "type": "uint256"
        }
      ],
      "stateMutability": "view",
      "type": "function"
    },
    {
      "inputs": [
        {
          "internalType": "address",
          "name": "account",
          "type": "address"
        }
      ],
      "name": "earned",
      "outputs": [
        {
          "internalType": "uint256",
          "name": "",
          "type": "uint256"
        }
      ],
      "stateMutability": "view",
      "type": "function"
    },
    {
      "inputs": [
        {
          "internalType": "bytes32",
          "name": "role",
          "type": "bytes32"
        }
      ],
      "name": "getRoleAdmin",
      "outputs": [
        {
          "internalType": "bytes32",
          "name": "",
          "type": "bytes32"
        }
      ],
      "stateMutability": "view",
      "type": "function"
    },
    {
      "inputs": [
        {
          "internalType": "bytes32",
          "name": "role",
          "type": "bytes32"
        },
        {
          "internalType": "address",
          "name": "account",
          "type": "address"
        }
      ],
      "name": "grantRole",
      "outputs": [],
      "stateMutability": "nonpayable",
      "type": "function"
    },
    {
      "inputs": [
        {
          "internalType": "bytes32",
          "name": "role",
          "type": "bytes32"
        },
        {
          "internalType": "address",
          "name": "account",
          "type": "address"
        }
      ],
      "name": "hasRole",
      "outputs": [
        {
          "internalType": "bool",
          "name": "",
          "type": "bool"
        }
      ],
      "stateMutability": "view",
      "type": "function"
    },
    {
      "inputs": [
        {
          "internalType": "uint256",
          "name": "tokenId",
          "type": "uint256"
        }
      ],
      "name": "lendLpSft",
      "outputs": [],
      "stateMutability": "nonpayable",
      "type": "function"
    },
    {
      "inputs": [
        {
          "internalType": "uint256[]",
          "name": "tokenIds",
          "type": "uint256[]"
        }
      ],
      "name": "lendLpSftBatch",
      "outputs": [],
      "stateMutability": "nonpayable",
      "type": "function"
    },
    {
      "inputs": [],
      "name": "lpSft",
      "outputs": [
        {
          "internalType": "contract ILPSFT",
          "name": "",
          "type": "address"
        }
      ],
      "stateMutability": "view",
      "type": "function"
    },
    {
      "inputs": [],
      "name": "lpToken",
      "outputs": [
        {
          "internalType": "contract IERC20",
          "name": "",
          "type": "address"
        }
      ],
      "stateMutability": "view",
      "type": "function"
    },
    {
      "inputs": [
        {
          "internalType": "bytes32",
          "name": "role",
          "type": "bytes32"
        },
        {
          "internalType": "address",
          "name": "callerConfirmation",
          "type": "address"
        }
      ],
      "name": "renounceRole",
      "outputs": [],
      "stateMutability": "nonpayable",
      "type": "function"
    },
    {
      "inputs": [
        {
          "internalType": "bytes32",
          "name": "role",
          "type": "bytes32"
        },
        {
          "internalType": "address",
          "name": "account",
          "type": "address"
        }
      ],
      "name": "revokeRole",
      "outputs": [],
      "stateMutability": "nonpayable",
      "type": "function"
    },
    {
      "inputs": [],
      "name": "rewardPerToken",
      "outputs": [
        {
          "internalType": "uint256",
          "name": "",
          "type": "uint256"
        }
      ],
      "stateMutability": "view",
      "type": "function"
    },
    {
      "inputs": [],
      "name": "rewardToken",
      "outputs": [
        {
          "internalType": "contract IERC20",
          "name": "",
          "type": "address"
        }
      ],
      "stateMutability": "view",
      "type": "function"
    },
    {
      "inputs": [
        {
          "internalType": "bytes4",
          "name": "interfaceId",
          "type": "bytes4"
        }
      ],
      "name": "supportsInterface",
      "outputs": [
        {
          "internalType": "bool",
          "name": "",
          "type": "bool"
        }
      ],
      "stateMutability": "view",
      "type": "function"
    },
    {
      "inputs": [],
      "name": "totalLiquidity",
      "outputs": [
        {
          "internalType": "uint256",
          "name": "",
          "type": "uint256"
        }
      ],
      "stateMutability": "view",
      "type": "function"
    },
    {
      "inputs": [
        {
          "internalType": "uint256",
          "name": "tokenId",
          "type": "uint256"
        }
      ],
      "name": "withdrawLpSft",
      "outputs": [],
      "stateMutability": "nonpayable",
      "type": "function"
    },
    {
      "inputs": [
        {
          "internalType": "uint256[]",
          "name": "tokenIds",
          "type": "uint256[]"
        }
      ],
      "name": "withdrawLpSftBatch",
      "outputs": [],
      "stateMutability": "nonpayable",
      "type": "function"
    }
  ],
  "transactionHash": "0x0c74a6d385340d05fed3874438bd032f46d4517345f0d3cef0ef5878d0b50dd6",
  "args": [
    "0x5Eb8d8a368B1F1A9de0c2E489e270d7AFD389C3C",
    "0xd621853d65eA069370efe04fc07846d0af4E2e78",
    "0x3414381EF8d64a2c0E8eC785553534122312787e",
    "0x27a32088D0aA4ba5ac342fdD96b75994219609C6",
    "1000000000000000000"
  ],
  "numDeployments": 1,
  "solcInputHash": "607dfe4437c93ddfbd36914a2ea77f31",
  "bytecode": "0x60e060405234801561001057600080fd5b506040516114a83803806114a883398101604081905261002f91610273565b60016000556001600160a01b03851661007f5760405162461bcd60e51b815260206004820152600d60248201526c24b73b30b634b21037bbb732b960991b60448201526064015b60405180910390fd5b6001600160a01b0384166100c65760405162461bcd60e51b815260206004820152600e60248201526d125b9d985b1a590813140b54d19560921b6044820152606401610076565b6001600160a01b03831661010d5760405162461bcd60e51b815260206004820152600e60248201526d125b9d985b1a59081c995dd85c9960921b6044820152606401610076565b6001600160a01b0382166101505760405162461bcd60e51b815260206004820152600a6024820152690496e76616c6964204c560b41b6044820152606401610076565b6000811161018f5760405162461bcd60e51b815260206004820152600c60248201526b496e76616c6964207261746560a01b6044820152606401610076565b61019a6000866101c2565b506001600160a01b0393841660805291831660a05290911660c05260025550426004556102d1565b60008281526001602090815260408083206001600160a01b038516845290915281205460ff1661024d5760008381526001602081815260408084206001600160a01b0387168086529252808420805460ff19169093179092559051339286917f2f8788117e7eff1d82e926ec794901d17c78024a50270940304540a733656f0d9190a4506001610251565b5060005b92915050565b80516001600160a01b038116811461026e57600080fd5b919050565b600080600080600060a0868803121561028b57600080fd5b61029486610257565b94506102a260208701610257565b93506102b060408701610257565b92506102be60608701610257565b9150608086015190509295509295909350565b60805160a05160c051611162610346600039600081816101da015281816103460152818161058c0152818161069701526109be0152600081816102d70152818161054701526109500152600081816102650152818161045b0152818161075d015281816108690152610ae401526111626000f3fe608060405234801561001057600080fd5b50600436106101205760003560e01c806376cd5fb7116100ad578063b7b8448811610071578063b7b844881461028f578063cd3daf9d146102a4578063d547741f146102ac578063f1cc4346146102bf578063f7c618c1146102d257600080fd5b806376cd5fb7146102275780637a362a451461023a57806391d148541461024d578063a1abfd9514610260578063a217fddf1461028757600080fd5b8063248a9ca3116100f4578063248a9ca31461018b5780632f2ff15d146101af57806336568abe146101c25780635fcbd285146101d557806370a082311461021457600080fd5b80628cc2621461012557806301ffc9a71461014b5780630fdecd7f1461016e57806315770f9214610183575b600080fd5b610138610133366004610ee7565b6102f9565b6040519081526020015b60405180910390f35b61015e610159366004610f0b565b6103c1565b6040519015158152602001610142565b61018161017c366004610f4b565b6103ec565b005b610138610588565b610138610199366004611018565b6000908152600160208190526040909120015490565b6101816101bd366004611031565b610611565b6101816101d0366004611031565b61063d565b6101fc7f000000000000000000000000000000000000000000000000000000000000000081565b6040516001600160a01b039091168152602001610142565b610138610222366004610ee7565b610675565b610181610235366004611018565b610704565b610181610248366004611018565b610810565b61015e61025b366004611031565b610977565b6101fc7f000000000000000000000000000000000000000000000000000000000000000081565b610138600081565b61013860008051602061110d83398151915281565b6101386109a2565b6101816102ba366004611031565b610a4f565b6101816102cd366004610f4b565b610a75565b6101fc7f000000000000000000000000000000000000000000000000000000000000000081565b60006103bb6103066109a2565b6001600160a01b038481166000818152600660209081526040808320546007909252918290205491516370a0823160e01b815260048101939093529290917f0000000000000000000000000000000000000000000000000000000000000000909116906370a0823190602401602060405180830381865afa15801561038f573d6000803e3d6000fd5b505050506040513d601f19601f820116820180604052508101906103b39190611061565b929190610b96565b92915050565b60006103cc82610bdd565b806103bb57506001600160e01b0319821663f2e9fbcb60e01b1492915050565b6103f4610c12565b61040b60008051602061110d833981519152610c3c565b805160005b818110156105795760208082028401015180600003610442576040516333204a0160e11b815260040160405180910390fd5b6040516308bb76a560e01b8152600481018290526000907f00000000000000000000000000000000000000000000000000000000000000006001600160a01b0316906308bb76a590602401602060405180830381865afa1580156104aa573d6000803e3d6000fd5b505050506040513d601f19601f820116820180604052508101906104ce919061107a565b90506001600160a01b0381166104ff5760405163415986a760e01b8152600481018390526024015b60405180910390fd5b61050881610c46565b6001600160a01b038116600090815260076020526040902054801561056e576001600160a01b0380831660009081526007602052604081205561056e907f0000000000000000000000000000000000000000000000000000000000000000168383610c9b565b505050600101610410565b50506105856001600055565b50565b60007f00000000000000000000000000000000000000000000000000000000000000006001600160a01b03166318160ddd6040518163ffffffff1660e01b8152600401602060405180830381865afa1580156105e8573d6000803e3d6000fd5b505050506040513d601f19601f8201168201806040525081019061060c9190611061565b905090565b6000828152600160208190526040909120015461062d81610c3c565b6106378383610ced565b50505050565b6001600160a01b03811633146106665760405163334bd91960e11b815260040160405180910390fd5b6106708282610d66565b505050565b6040516370a0823160e01b81526001600160a01b0382811660048301526000917f0000000000000000000000000000000000000000000000000000000000000000909116906370a0823190602401602060405180830381865afa1580156106e0573d6000803e3d6000fd5b505050506040513d601f19601f820116820180604052508101906103bb9190611061565b61070c610c12565b61072360008051602061110d833981519152610c3c565b80600003610744576040516333204a0160e11b815260040160405180910390fd5b6040516308bb76a560e01b8152600481018290526000907f00000000000000000000000000000000000000000000000000000000000000006001600160a01b0316906308bb76a590602401602060405180830381865afa1580156107ac573d6000803e3d6000fd5b505050506040513d601f19601f820116820180604052508101906107d0919061107a565b90506001600160a01b0381166107fc5760405163415986a760e01b8152600481018390526024016104f6565b61080581610c46565b506105856001600055565b610818610c12565b61082f60008051602061110d833981519152610c3c565b80600003610850576040516333204a0160e11b815260040160405180910390fd5b6040516308bb76a560e01b8152600481018290526000907f00000000000000000000000000000000000000000000000000000000000000006001600160a01b0316906308bb76a590602401602060405180830381865afa1580156108b8573d6000803e3d6000fd5b505050506040513d601f19601f820116820180604052508101906108dc919061107a565b90506001600160a01b0381166109085760405163415986a760e01b8152600481018390526024016104f6565b61091181610c46565b6001600160a01b0381166000908152600760205260409020548015610579576001600160a01b03808316600090815260076020526040812055610579907f0000000000000000000000000000000000000000000000000000000000000000168383610c9b565b60009182526001602090815260408084206001600160a01b0393909316845291905290205460ff1690565b600080600454426109b391906110ad565b9050610a49816002547f00000000000000000000000000000000000000000000000000000000000000006001600160a01b03166318160ddd6040518163ffffffff1660e01b8152600401602060405180830381865afa158015610a1a573d6000803e3d6000fd5b505050506040513d601f19601f82011682018060405250810190610a3e9190611061565b600554929190610dd3565b91505090565b60008281526001602081905260409091200154610a6b81610c3c565b6106378383610d66565b610a7d610c12565b610a9460008051602061110d833981519152610c3c565b805160005b818110156105795760208082028401015180600003610acb576040516333204a0160e11b815260040160405180910390fd5b6040516308bb76a560e01b8152600481018290526000907f00000000000000000000000000000000000000000000000000000000000000006001600160a01b0316906308bb76a590602401602060405180830381865afa158015610b33573d6000803e3d6000fd5b505050506040513d601f19601f82011682018060405250810190610b57919061107a565b90506001600160a01b038116610b835760405163415986a760e01b8152600481018390526024016104f6565b610b8c81610c46565b5050600101610a99565b600080610ba384866110ad565b90506000670de0b6b3a7640000610bba83896110c0565b610bc491906110d7565b9050610bd084826110f9565b925050505b949350505050565b60006001600160e01b03198216637965db0b60e01b14806103bb57506301ffc9a760e01b6001600160e01b03198316146103bb565b600260005403610c3557604051633ee5aeb560e01b815260040160405180910390fd5b6002600055565b6105858133610e24565b610c4e6109a2565b600555426004556001600160a01b0381161561058557610c6d816102f9565b6001600160a01b03821660009081526007602090815260408083209390935560055460069091529190205550565b604080516001600160a01b038416602482015260448082018490528251808303909101815260649091019091526020810180516001600160e01b031663a9059cbb60e01b179052610670908490610e61565b6000610cf98383610977565b610d5e5760008381526001602081815260408084206001600160a01b0387168086529252808420805460ff19169093179092559051339286917f2f8788117e7eff1d82e926ec794901d17c78024a50270940304540a733656f0d9190a45060016103bb565b5060006103bb565b6000610d728383610977565b15610d5e5760008381526001602090815260408083206001600160a01b0386168085529252808320805460ff1916905551339286917ff6391f5c32d9c69d2a47ea670b442974b53935d1edc7fd64eb21e047a839171b9190a45060016103bb565b600081600003610de4575083610bd5565b600082670de0b6b3a7640000610dfa86886110c0565b610e0491906110c0565b610e0e91906110d7565b9050610e1a81876110f9565b9695505050505050565b610e2e8282610977565b610e5d5760405163e2517d3f60e01b81526001600160a01b0382166004820152602481018390526044016104f6565b5050565b600080602060008451602086016000885af180610e84576040513d6000823e3d81fd5b50506000513d91508115610e9c578060011415610ea9565b6001600160a01b0384163b155b1561063757604051635274afe760e01b81526001600160a01b03851660048201526024016104f6565b6001600160a01b038116811461058557600080fd5b600060208284031215610ef957600080fd5b8135610f0481610ed2565b9392505050565b600060208284031215610f1d57600080fd5b81356001600160e01b031981168114610f0457600080fd5b634e487b7160e01b600052604160045260246000fd5b600060208284031215610f5d57600080fd5b813567ffffffffffffffff811115610f7457600080fd5b8201601f81018413610f8557600080fd5b803567ffffffffffffffff811115610f9f57610f9f610f35565b8060051b604051601f19603f830116810181811067ffffffffffffffff82111715610fcc57610fcc610f35565b604052918252602081840181019290810187841115610fea57600080fd5b6020850194505b8385101561100d57843580825260209586019590935001610ff1565b509695505050505050565b60006020828403121561102a57600080fd5b5035919050565b6000806040838503121561104457600080fd5b82359150602083013561105681610ed2565b809150509250929050565b60006020828403121561107357600080fd5b5051919050565b60006020828403121561108c57600080fd5b8151610f0481610ed2565b634e487b7160e01b600052601160045260246000fd5b818103818111156103bb576103bb611097565b80820281158282048414176103bb576103bb611097565b6000826110f457634e487b7160e01b600052601260045260246000fd5b500490565b808201808211156103bb576103bb61109756fe4c505346545f4641524d5f4f50455241544f525f524f4c450000000000000000a26469706673582212200c8c23bbf49e37d0f69424e72187ec7c36041757523050e41b17fe905567397464736f6c634300081c0033",
  "devdoc": {
    "details": "A contract to lend LP-NFTs and earn rewards based on lending duration and liquidity amount Rewards are calculated based on the amount of time and liquidity staked. Rewards are updated on every interaction.",
    "errors": {
      "AccessControlBadConfirmation()": [
        {
          "details": "The caller of a function is not the expected one. NOTE: Don't confuse with {AccessControlUnauthorizedAccount}."
        }
      ],
      "AccessControlUnauthorizedAccount(address,bytes32)": [
        {
          "details": "The `account` is missing a role."
        }
      ],
      "LPNFTInvalidTokenID()": [
        {
          "details": "Error raised if a token ID is 0 Uniswap V3 LP-NFTs start with ID 1, so a token ID of 0 is used to indicate an invalid ID."
        }
      ],
      "LPSFTInvalidToken(uint256)": [
        {
          "details": "Error raised if a token doesn't exist",
          "params": {
            "tokenId": "The token ID that doesn't exist"
          }
        }
      ],
      "ReentrancyGuardReentrantCall()": [
        {
          "details": "Unauthorized reentrant call."
        }
      ],
      "SafeERC20FailedOperation(address)": [
        {
          "details": "An operation with an ERC-20 token failed."
        }
      ]
    },
    "events": {
      "RoleAdminChanged(bytes32,bytes32,bytes32)": {
        "details": "Emitted when `newAdminRole` is set as ``role``'s admin role, replacing `previousAdminRole` `DEFAULT_ADMIN_ROLE` is the starting admin for all roles, despite {RoleAdminChanged} not being emitted signaling this."
      },
      "RoleGranted(bytes32,address,address)": {
        "details": "Emitted when `account` is granted `role`. `sender` is the account that originated the contract call. This account bears the admin role (for the granted role). Expected in cases where the role was granted using the internal {AccessControl-_grantRole}."
      },
      "RoleRevoked(bytes32,address,address)": {
        "details": "Emitted when `account` is revoked `role`. `sender` is the account that originated the contract call:   - if using `revokeRole`, it is the admin role bearer   - if using `renounceRole`, it is the role bearer (i.e. `account`)"
      }
    },
    "kind": "dev",
    "methods": {
      "balanceOf(address)": {
        "details": "See {IFarm-balanceOf}"
      },
      "constructor": {
        "details": "Initializes the lending pool with the lending and reward tokens",
        "params": {
          "lpSft_": "The address of the SFT token",
          "lpToken_": "The address of the LP token used to hold staked balances",
          "owner_": "The owner of the contract",
          "rewardRate_": "The reward rate per second per staked token",
          "rewardToken_": "The address of the reward token"
        }
      },
      "earned(address)": {
        "details": "See {IFarm-earned}"
      },
      "getRoleAdmin(bytes32)": {
        "details": "Returns the admin role that controls `role`. See {grantRole} and {revokeRole}. To change a role's admin, use {_setRoleAdmin}."
      },
      "grantRole(bytes32,address)": {
        "details": "Grants `role` to `account`. If `account` had not been already granted `role`, emits a {RoleGranted} event. Requirements: - the caller must have ``role``'s admin role. May emit a {RoleGranted} event."
      },
      "hasRole(bytes32,address)": {
        "details": "Returns `true` if `account` has been granted `role`."
      },
      "lendLpSft(uint256)": {
        "details": "See {ILPSFTLendFarm-lendLpSft}"
      },
      "lendLpSftBatch(uint256[])": {
        "details": "See {ILPSFTLendFarm-lendLpSftBatch}"
      },
      "renounceRole(bytes32,address)": {
        "details": "Revokes `role` from the calling account. Roles are often managed via {grantRole} and {revokeRole}: this function's purpose is to provide a mechanism for accounts to lose their privileges if they are compromised (such as when a trusted device is misplaced). If the calling account had been revoked `role`, emits a {RoleRevoked} event. Requirements: - the caller must be `callerConfirmation`. May emit a {RoleRevoked} event."
      },
      "revokeRole(bytes32,address)": {
        "details": "Revokes `role` from `account`. If `account` had been granted `role`, emits a {RoleRevoked} event. Requirements: - the caller must have ``role``'s admin role. May emit a {RoleRevoked} event."
      },
      "rewardPerToken()": {
        "details": "See {IFarm-rewardPerToken}"
      },
      "supportsInterface(bytes4)": {
        "details": "See {IERC165-supportsInterface}"
      },
      "totalLiquidity()": {
        "details": "See {IFarm-totalLiquidity}"
      },
      "withdrawLpSft(uint256)": {
        "details": "See {ILPSFTLendFarm-withdrawLpSft}"
      },
      "withdrawLpSftBatch(uint256[])": {
        "details": "See {ILPSFTLendFarm-withdrawLpSftBatch}"
      }
    },
    "stateVariables": {
      "LPSFT_FARM_OPERATOR_ROLE": {
        "details": "LP-SFT operator role"
      },
      "_lastUpdateTime": {
        "details": "Timestamp of the last reward update, used to calculate reward accruals"
      },
      "_rewardPerTokenStored": {
        "details": "Total rewards per token stored Updated upon changes to state that affect reward calculations."
      },
      "_rewardRate": {
        "details": "Reward rate per second per lent liquidity, scaled by 1e18 for precision"
      },
      "_rewards": {
        "details": "Mapping of user addresses to their accrued but not yet claimed rewards"
      },
      "_totalLiquidity": {
        "details": "Total amount of liquidity currently lent to the pool"
      },
      "_userRewardPerTokenPaid": {
        "details": "Mapping of user addresses to the last recorded reward per token paid Used to calculate earned rewards."
      },
      "lpSft": {
        "details": "The LP-SFT token contract used by the pool"
      },
      "lpToken": {
        "details": "The LP token used for lending balances"
      },
      "rewardToken": {
        "details": "The reward token distributed to stakers"
      }
    },
    "version": 1
  },
  "userdoc": {
    "kind": "user",
    "methods": {},
    "version": 1
  },
  "storageLayout": {
    "storage": [
      {
        "astId": 6439,
        "contract": "contracts/src/defi/LPSFTLendFarm.sol:LPSFTLendFarm",
        "label": "_status",
        "offset": 0,
        "slot": "0",
        "type": "t_uint256"
      },
      {
        "astId": 2343,
        "contract": "contracts/src/defi/LPSFTLendFarm.sol:LPSFTLendFarm",
        "label": "_roles",
        "offset": 0,
        "slot": "1",
        "type": "t_mapping(t_bytes32,t_struct(RoleData)2338_storage)"
      },
      {
        "astId": 23259,
        "contract": "contracts/src/defi/LPSFTLendFarm.sol:LPSFTLendFarm",
        "label": "_rewardRate",
        "offset": 0,
        "slot": "2",
        "type": "t_uint256"
      },
      {
        "astId": 23262,
        "contract": "contracts/src/defi/LPSFTLendFarm.sol:LPSFTLendFarm",
        "label": "_totalLiquidity",
        "offset": 0,
        "slot": "3",
        "type": "t_uint256"
      },
      {
        "astId": 23265,
        "contract": "contracts/src/defi/LPSFTLendFarm.sol:LPSFTLendFarm",
        "label": "_lastUpdateTime",
        "offset": 0,
        "slot": "4",
        "type": "t_uint256"
      },
      {
        "astId": 23268,
        "contract": "contracts/src/defi/LPSFTLendFarm.sol:LPSFTLendFarm",
        "label": "_rewardPerTokenStored",
        "offset": 0,
        "slot": "5",
        "type": "t_uint256"
      },
      {
        "astId": 23273,
        "contract": "contracts/src/defi/LPSFTLendFarm.sol:LPSFTLendFarm",
        "label": "_userRewardPerTokenPaid",
        "offset": 0,
        "slot": "6",
        "type": "t_mapping(t_address,t_uint256)"
      },
      {
        "astId": 23278,
        "contract": "contracts/src/defi/LPSFTLendFarm.sol:LPSFTLendFarm",
        "label": "_rewards",
        "offset": 0,
        "slot": "7",
        "type": "t_mapping(t_address,t_uint256)"
      }
    ],
    "types": {
      "t_address": {
        "encoding": "inplace",
        "label": "address",
        "numberOfBytes": "20"
      },
      "t_bool": {
        "encoding": "inplace",
        "label": "bool",
        "numberOfBytes": "1"
      },
      "t_bytes32": {
        "encoding": "inplace",
        "label": "bytes32",
        "numberOfBytes": "32"
      },
      "t_mapping(t_address,t_bool)": {
        "encoding": "mapping",
        "key": "t_address",
        "label": "mapping(address => bool)",
        "numberOfBytes": "32",
        "value": "t_bool"
      },
      "t_mapping(t_address,t_uint256)": {
        "encoding": "mapping",
        "key": "t_address",
        "label": "mapping(address => uint256)",
        "numberOfBytes": "32",
        "value": "t_uint256"
      },
      "t_mapping(t_bytes32,t_struct(RoleData)2338_storage)": {
        "encoding": "mapping",
        "key": "t_bytes32",
        "label": "mapping(bytes32 => struct AccessControl.RoleData)",
        "numberOfBytes": "32",
        "value": "t_struct(RoleData)2338_storage"
      },
      "t_struct(RoleData)2338_storage": {
        "encoding": "inplace",
        "label": "struct AccessControl.RoleData",
        "members": [
          {
            "astId": 2335,
            "contract": "contracts/src/defi/LPSFTLendFarm.sol:LPSFTLendFarm",
            "label": "hasRole",
            "offset": 0,
            "slot": "0",
            "type": "t_mapping(t_address,t_bool)"
          },
          {
            "astId": 2337,
            "contract": "contracts/src/defi/LPSFTLendFarm.sol:LPSFTLendFarm",
            "label": "adminRole",
            "offset": 0,
            "slot": "1",
            "type": "t_bytes32"
          }
        ],
        "numberOfBytes": "64"
      },
      "t_uint256": {
        "encoding": "inplace",
        "label": "uint256",
        "numberOfBytes": "32"
      }
    }
  }
}