{
  "address": "0x31468e38C7F44472d59D56cFA5545Cfc8aB04e8E",
  "abi": [
    {
      "inputs": [
        {
          "internalType": "address",
          "name": "pow5Token_",
          "type": "address"
        },
        {
          "internalType": "address",
          "name": "stableToken_",
          "type": "address"
        },
        {
          "internalType": "address",
          "name": "pow5StablePool_",
          "type": "address"
        },
        {
          "internalType": "address",
          "name": "uniswapV3NftManager_",
          "type": "address"
        }
      ],
      "stateMutability": "nonpayable",
      "type": "constructor"
    },
    {
      "inputs": [],
      "name": "ReentrancyGuardReentrantCall",
      "type": "error"
    },
    {
      "inputs": [
        {
          "internalType": "int256",
          "name": "value",
          "type": "int256"
        }
      ],
      "name": "SafeCastOverflowedIntToUint",
      "type": "error"
    },
    {
      "inputs": [
        {
          "internalType": "uint256",
          "name": "value",
          "type": "uint256"
        }
      ],
      "name": "SafeCastOverflowedUintToInt",
      "type": "error"
    },
    {
      "inputs": [
        {
          "internalType": "address",
          "name": "token",
          "type": "address"
        }
      ],
      "name": "SafeERC20FailedOperation",
      "type": "error"
    },
    {
      "anonymous": false,
      "inputs": [
        {
          "indexed": true,
          "internalType": "address",
          "name": "sender",
          "type": "address"
        },
        {
          "indexed": true,
          "internalType": "address",
          "name": "recipient",
          "type": "address"
        },
        {
          "indexed": true,
          "internalType": "address",
          "name": "gameTokenAddress",
          "type": "address"
        },
        {
          "indexed": false,
          "internalType": "address",
          "name": "assetTokenAddress",
          "type": "address"
        },
        {
          "indexed": false,
          "internalType": "address",
          "name": "nftAddress",
          "type": "address"
        },
        {
          "indexed": false,
          "internalType": "uint256",
          "name": "lpNftTokenId",
          "type": "uint256"
        },
        {
          "indexed": false,
          "internalType": "uint128",
          "name": "liquidityAmount",
          "type": "uint128"
        },
        {
          "indexed": false,
          "internalType": "uint256",
          "name": "gameTokenCollected",
          "type": "uint256"
        },
        {
          "indexed": false,
          "internalType": "uint256",
          "name": "assetTokenCollected",
          "type": "uint256"
        },
        {
          "indexed": false,
          "internalType": "uint256",
          "name": "assetTokenReturned",
          "type": "uint256"
        }
      ],
      "name": "LpNftCollected",
      "type": "event"
    },
    {
      "anonymous": false,
      "inputs": [
        {
          "indexed": true,
          "internalType": "address",
          "name": "sender",
          "type": "address"
        },
        {
          "indexed": true,
          "internalType": "address",
          "name": "recipient",
          "type": "address"
        },
        {
          "indexed": true,
          "internalType": "address",
          "name": "gameTokenAddress",
          "type": "address"
        },
        {
          "indexed": false,
          "internalType": "address",
          "name": "assetTokenAddress",
          "type": "address"
        },
        {
          "indexed": false,
          "internalType": "address",
          "name": "nftAddress",
          "type": "address"
        },
        {
          "indexed": false,
          "internalType": "uint256",
          "name": "lpNftTokenId",
          "type": "uint256"
        },
        {
          "indexed": false,
          "internalType": "uint256",
          "name": "gameTokenShare",
          "type": "uint256"
        },
        {
          "indexed": false,
          "internalType": "uint256",
          "name": "assetTokenShare",
          "type": "uint256"
        },
        {
          "indexed": false,
          "internalType": "uint128",
          "name": "liquidityAmount",
          "type": "uint128"
        }
      ],
      "name": "LpNftMinted",
      "type": "event"
    },
    {
      "inputs": [
        {
          "internalType": "uint256",
          "name": "lpNftTokenId",
          "type": "uint256"
        },
        {
          "internalType": "address",
          "name": "recipient",
          "type": "address"
        }
      ],
      "name": "collectFromLpNft",
      "outputs": [
        {
          "internalType": "uint256",
          "name": "assetTokenReturned",
          "type": "uint256"
        }
      ],
      "stateMutability": "nonpayable",
      "type": "function"
    },
    {
      "inputs": [
        {
          "internalType": "uint256",
          "name": "lpNftTokenId",
          "type": "uint256"
        }
      ],
      "name": "exit",
      "outputs": [
        {
          "internalType": "uint256",
          "name": "assetTokenReturned",
          "type": "uint256"
        }
      ],
      "stateMutability": "nonpayable",
      "type": "function"
    },
    {
      "inputs": [],
      "name": "gameIsToken0",
      "outputs": [
        {
          "internalType": "bool",
          "name": "",
          "type": "bool"
        }
      ],
      "stateMutability": "view",
      "type": "function"
    },
    {
      "inputs": [
        {
          "internalType": "uint256",
          "name": "gameTokenAmount",
          "type": "uint256"
        },
        {
          "internalType": "uint256",
          "name": "assetTokenAmount",
          "type": "uint256"
        },
        {
          "internalType": "address",
          "name": "recipient",
          "type": "address"
        }
      ],
      "name": "mintLpNftImbalance",
      "outputs": [
        {
          "internalType": "uint256",
          "name": "lpNftTokenId",
          "type": "uint256"
        }
      ],
      "stateMutability": "nonpayable",
      "type": "function"
    },
    {
      "inputs": [
        {
          "internalType": "uint256",
          "name": "assetTokenAmount",
          "type": "uint256"
        },
        {
          "internalType": "address",
          "name": "recipient",
          "type": "address"
        }
      ],
      "name": "mintLpNftWithAssetToken",
      "outputs": [
        {
          "internalType": "uint256",
          "name": "lpNftTokenId",
          "type": "uint256"
        }
      ],
      "stateMutability": "nonpayable",
      "type": "function"
    },
    {
      "inputs": [
        {
          "internalType": "uint256",
          "name": "gameTokenAmount",
          "type": "uint256"
        },
        {
          "internalType": "address",
          "name": "recipient",
          "type": "address"
        }
      ],
      "name": "mintLpNftWithGameToken",
      "outputs": [
        {
          "internalType": "uint256",
          "name": "lpNftTokenId",
          "type": "uint256"
        }
      ],
      "stateMutability": "nonpayable",
      "type": "function"
    },
    {
      "inputs": [
        {
          "internalType": "address",
          "name": "",
          "type": "address"
        },
        {
          "internalType": "address",
          "name": "",
          "type": "address"
        },
        {
          "internalType": "uint256",
          "name": "",
          "type": "uint256"
        },
        {
          "internalType": "bytes",
          "name": "",
          "type": "bytes"
        }
      ],
      "name": "onERC721Received",
      "outputs": [
        {
          "internalType": "bytes4",
          "name": "",
          "type": "bytes4"
        }
      ],
      "stateMutability": "nonpayable",
      "type": "function"
    },
    {
      "inputs": [
        {
          "internalType": "int256",
          "name": "amount0Delta",
          "type": "int256"
        },
        {
          "internalType": "int256",
          "name": "amount1Delta",
          "type": "int256"
        },
        {
          "internalType": "bytes",
          "name": "",
          "type": "bytes"
        }
      ],
      "name": "uniswapV3SwapCallback",
      "outputs": [],
      "stateMutability": "nonpayable",
      "type": "function"
    }
  ],
  "transactionHash": "0xa9cb985f2e6044a6ff9b8c4bd3e9a2f4fefdbcb7c9e0bb8dd8881a65b7c537ce",
  "args": [
    "0x7b589E244173CE2d11d76878C053e25Dd72Ea610",
    "0xfFa7B6120aeA3981C53F2e57AD1f92Af370c9439",
    "0x9483CB5C595C41Fd131DFbac2D6Ff6aCF21cCa74",
    "0x17af5Dd8e9a37cF78E9949C7E25D805937cDfbFB"
  ],
  "numDeployments": 1,
  "solcInputHash": "607dfe4437c93ddfbd36914a2ea77f31",
  "bytecode": "0x61012060405234801561001157600080fd5b50604051612cec380380612cec833981016040819052610030916104b4565b6001600055838383838383836001600160a01b03831661008b5760405162461bcd60e51b815260206004820152601160248201527024b73b30b634b210373ab6b2b930ba37b960791b60448201526064015b60405180910390fd5b6001600160a01b0382166100e15760405162461bcd60e51b815260206004820152601360248201527f496e76616c69642064656e6f6d696e61746f72000000000000000000000000006044820152606401610082565b6001600160a01b0381166101265760405162461bcd60e51b815260206004820152600c60248201526b125b9d985b1a59081c1bdbdb60a21b6044820152606401610082565b6000816001600160a01b0316630dfe16816040518163ffffffff1660e01b8152600401602060405180830381865afa158015610166573d6000803e3d6000fd5b505050506040513d601f19601f8201168201806040525081019061018a9190610508565b90506000826001600160a01b031663d21220a76040518163ffffffff1660e01b8152600401602060405180830381865afa1580156101cc573d6000803e3d6000fd5b505050506040513d601f19601f820116820180604052508101906101f09190610508565b90506001600160a01b0382166102395760405162461bcd60e51b815260206004820152600e60248201526d0496e76616c696420746f6b656e360941b6044820152606401610082565b6001600160a01b0381166102805760405162461bcd60e51b815260206004820152600e60248201526d496e76616c696420746f6b656e3160901b6044820152606401610082565b6001600160a01b0385811690831614801561035c57856001600160a01b0316836001600160a01b0316146102f65760405162461bcd60e51b815260206004820152601660248201527f496e76616c696420746f6b656e3020666f72206e756d000000000000000000006044820152606401610082565b846001600160a01b0316826001600160a01b0316146103575760405162461bcd60e51b815260206004820152601860248201527f496e76616c696420746f6b656e3120666f722064656e6f6d00000000000000006044820152606401610082565b61041e565b846001600160a01b0316836001600160a01b0316146103bd5760405162461bcd60e51b815260206004820152601860248201527f496e76616c696420746f6b656e3020666f722064656e6f6d00000000000000006044820152606401610082565b856001600160a01b0316826001600160a01b03161461041e5760405162461bcd60e51b815260206004820152601660248201527f496e76616c696420746f6b656e3120666f72206e756d000000000000000000006044820152606401610082565b6001600160a01b0395861660805293851660a0525050821660c052151560e052811661047e5760405162461bcd60e51b815260206004820152600f60248201526e24b73b30b634b21027232a1036b3b960891b6044820152606401610082565b6001600160a01b0316610100525061052a95505050505050565b80516001600160a01b03811681146104af57600080fd5b919050565b600080600080608085870312156104ca57600080fd5b6104d385610498565b93506104e160208601610498565b92506104ef60408601610498565b91506104fd60608601610498565b905092959194509250565b60006020828403121561051a57600080fd5b61052382610498565b9392505050565b60805160a05160c05160e051610100516125fd6106ef60003960008181610221015281816103160152818161040d015281816104e5015281816107a70152818161087301528181610f3c015281816113950152818161147501528181611b700152611bca01526000818161012801528181610f7701528181610ff20152818161108b015281816110bd01528181611179015281816111a8015281816114e90152818161151801528181611756015281816117c4015281816118820152818161192a015281816119980152611a56015260008181610552015281816109a001528181610a3e01528181610c0a01528181610ca801528181610eb50152818161172d0152818161178a01528181611901015261195e015260008181610200015281816102f5015281816103ec015281816104c4015281816109cb01528181610e7101528181610f9c0152818161103d015281816111f9015281816115e30152818161170b0152611ba80152600081816101a90152818161029e015281816103950152818161046501528181610c3501528181610e3301528181610fc20152818161101701528181611296015281816118df01528181611b4e0152611c0201526125fd6000f3fe608060405234801561001057600080fd5b50600436106100885760003560e01c80637f8661a11161005b5780637f8661a114610110578063c1f5441b14610123578063e15e225414610153578063fa461e331461016657600080fd5b8063150b7a021461008d5780634d8cc562146100c95780636a67d26c146100ea5780637ca5fbe6146100fd575b600080fd5b6100ab61009b366004611f6d565b630a85bd0160e11b949350505050565b6040516001600160e01b031990911681526020015b60405180910390f35b6100dc6100d7366004612055565b61017b565b6040519081526020016100c0565b6100dc6100f836600461208e565b610272565b6100dc61010b36600461208e565b610368565b6100dc61011e3660046120be565b610442565b6040517f0000000000000000000000000000000000000000000000000000000000000000151581526020016100c0565b6100dc61016136600461208e565b610536565b6101796101743660046120d7565b61054f565b005b600061018561068f565b60008060006101958787876106b9565b929650909450925090506001600160a01b037f000000000000000000000000000000000000000000000000000000000000000081169086166101d43390565b6001600160a01b03167ff76fb570798b22308a824b99a110c219963e5151d19370472b465ef8a4c6f1497f00000000000000000000000000000000000000000000000000000000000000007f0000000000000000000000000000000000000000000000000000000000000000898989896040516102569695949392919061215a565b60405180910390a450505061026b6001600055565b9392505050565b600061027c61068f565b600080600061028b8686610766565b9650919450925090506001600160a01b037f000000000000000000000000000000000000000000000000000000000000000081169086166102c93390565b6001600160a01b03167ff0de55f72867115f3b8567e22ea6fc363e56fb745300b1269e953ed04a814fb77f00000000000000000000000000000000000000000000000000000000000000007f00000000000000000000000000000000000000000000000000000000000000008b8989898d60405161034d9796959493929190612198565b60405180910390a45050506103626001600055565b92915050565b600061037261068f565b6000806000610381868661090d565b929650909450925090506001600160a01b037f000000000000000000000000000000000000000000000000000000000000000081169086166103c03390565b6001600160a01b03167ff76fb570798b22308a824b99a110c219963e5151d19370472b465ef8a4c6f1497f00000000000000000000000000000000000000000000000000000000000000007f00000000000000000000000000000000000000000000000000000000000000008989898960405161034d9695949392919061215a565b600061044c61068f565b600080600061045a85610b5b565b9650919450925090507f00000000000000000000000000000000000000000000000000000000000000006001600160a01b0316336001600160a01b0316336001600160a01b03167ff0de55f72867115f3b8567e22ea6fc363e56fb745300b1269e953ed04a814fb77f00000000000000000000000000000000000000000000000000000000000000007f00000000000000000000000000000000000000000000000000000000000000008a8989898d60405161051c9796959493929190612198565b60405180910390a45050506105316001600055565b919050565b600061054061068f565b60008060006103818686610b79565b337f00000000000000000000000000000000000000000000000000000000000000006001600160a01b0316146105bd5760405162461bcd60e51b815260206004820152600e60248201526d24b73b30b634b21031b0b63632b960911b60448201526064015b60405180910390fd5b600084131561063d5761063d3385336001600160a01b0316630dfe16816040518163ffffffff1660e01b8152600401602060405180830381865afa158015610609573d6000803e3d6000fd5b505050506040513d601f19601f8201168201806040525081019061062d91906121ea565b6001600160a01b03169190610dc4565b6000831315610689576106893384336001600160a01b031663d21220a76040518163ffffffff1660e01b8152600401602060405180830381865afa158015610609573d6000803e3d6000fd5b50505050565b6002600054036106b257604051633ee5aeb560e01b815260040160405180910390fd5b6002600055565b60008060008060008711806106ce5750600086115b6107075760405162461bcd60e51b815260206004820152600a6024820152694e6f20616d6f756e747360b01b60448201526064016105b4565b6001600160a01b03851661072d5760405162461bcd60e51b81526004016105b490612207565b61073687610e28565b61073f86610e66565b61074a878787610ea1565b9296509094509250905061075d856111e1565b92969293505050565b60008080806001600160a01b0385166107915760405162461bcd60e51b81526004016105b490612207565b60405163133f757160e31b8152600481018790527f00000000000000000000000000000000000000000000000000000000000000006001600160a01b0316906399fbab889060240161018060405180830381865afa1580156107f7573d6000803e3d6000fd5b505050506040513d601f19601f8201168201806040525081019061081b919061226e565b50929d5061083799508f98508d975061131b9650505050505050565b909350915081831561085f57600061084f853061154e565b905061085b8183612366565b9150505b61086981876115d0565b6001600160a01b037f0000000000000000000000000000000000000000000000000000000000000000166342842e0e336040516001600160e01b031960e084901b1681526001600160a01b0391821660048201529089166024820152604481018a9052606401600060405180830381600087803b1580156108e957600080fd5b505af11580156108fd573d6000803e3d6000fd5b5092935050505092959194509250565b6000806000806000861161095a5760405162461bcd60e51b81526020600482015260146024820152732737903232b737b6b4b730ba37b9103a37b5b2b760611b60448201526064016105b4565b6001600160a01b0385166109805760405162461bcd60e51b81526004016105b490612207565b61098986610e66565b6040516370a0823160e01b81526001600160a01b037f0000000000000000000000000000000000000000000000000000000000000000811660048301526000917f0000000000000000000000000000000000000000000000000000000000000000909116906370a0823190602401602060405180830381865afa158015610a14573d6000803e3d6000fd5b505050506040513d601f19601f82011682018060405250810190610a389190612379565b905060007f00000000000000000000000000000000000000000000000000000000000000006001600160a01b031663ddca3f436040518163ffffffff1660e01b8152600401602060405180830381865afa158015610a9a573d6000803e3d6000fd5b505050506040513d601f19601f82011682018060405250810190610abe9190612392565b90506000610acd838a8461160e565b905088811115610b145760405162461bcd60e51b8152602060048201526012602482015271084c2c840d8d2e2ead2c8d2e8f240dac2e8d60731b60448201526064016105b4565b6000610b1f826116fc565b9050610b2b828b6123ad565b9950610b38818b8b610ea1565b929a5090985096509450610b4b896111e1565b9699969897509295945050505050565b6000808080610b6a8533610766565b92989197509550909350915050565b60008060008060008611610bc45760405162461bcd60e51b8152602060048201526012602482015271273790373ab6b2b930ba37b9103a37b5b2b760711b60448201526064016105b4565b6001600160a01b038516610bea5760405162461bcd60e51b81526004016105b490612207565b610bf386610e28565b6040516370a0823160e01b81526001600160a01b037f0000000000000000000000000000000000000000000000000000000000000000811660048301526000917f0000000000000000000000000000000000000000000000000000000000000000909116906370a0823190602401602060405180830381865afa158015610c7e573d6000803e3d6000fd5b505050506040513d601f19601f82011682018060405250810190610ca29190612379565b905060007f00000000000000000000000000000000000000000000000000000000000000006001600160a01b031663ddca3f436040518163ffffffff1660e01b8152600401602060405180830381865afa158015610d04573d6000803e3d6000fd5b505050506040513d601f19601f82011682018060405250810190610d289190612392565b90506000610d37838a8461160e565b905088811115610d7e5760405162461bcd60e51b8152602060048201526012602482015271084c2c840d8d2e2ead2c8d2e8f240dac2e8d60731b60448201526064016105b4565b6000610d89826118d0565b9050610d95828b6123ad565b9950610da28a828b610ea1565b929a5090985096509450610db5896111e1565b96999697509295945050505050565b6040516001600160a01b03838116602483015260448201839052610e2391859182169063a9059cbb906064015b604051602081830303815290604052915060e01b6020820180516001600160e01b038381831617835250505050611a91565b505050565b8015610e6357610e637f00000000000000000000000000000000000000000000000000000000000000006001600160a01b0316333084611b02565b50565b8015610e6357610e637f00000000000000000000000000000000000000000000000000000000000000006001600160a01b0316333084611b02565b600080600080610eb18787611b3b565b60007f00000000000000000000000000000000000000000000000000000000000000006001600160a01b031663ddca3f436040518163ffffffff1660e01b8152600401602060405180830381865afa158015610f11573d6000803e3d6000fd5b505050506040513d601f19601f82011682018060405250810190610f359190612392565b90506000807f00000000000000000000000000000000000000000000000000000000000000006001600160a01b031663883164566040518061016001604052807f0000000000000000000000000000000000000000000000000000000000000000610fc0577f0000000000000000000000000000000000000000000000000000000000000000610fe2565b7f00000000000000000000000000000000000000000000000000000000000000005b6001600160a01b031681526020017f000000000000000000000000000000000000000000000000000000000000000061103b577f000000000000000000000000000000000000000000000000000000000000000061105d565b7f00000000000000000000000000000000000000000000000000000000000000005b6001600160a01b0316815262ffffff87166020820152620d899f196040820152620d89a060608201526080017f00000000000000000000000000000000000000000000000000000000000000006110b4578c6110b6565b8d5b81526020017f00000000000000000000000000000000000000000000000000000000000000006110e6578d6110e8565b8c5b815260200160008152602001600081526020018b6001600160a01b03168152602001428152506040518263ffffffff1660e01b815260040161112a91906123c0565b6080604051808303816000875af1158015611149573d6000803e3d6000fd5b505050506040513d601f19601f8201168201806040525081019061116d9190612484565b929950909550925090507f00000000000000000000000000000000000000000000000000000000000000006111a257806111a4565b815b95507f00000000000000000000000000000000000000000000000000000000000000006111d157816111d3565b805b945050505093509350935093565b6040516370a0823160e01b81523060048201526000907f00000000000000000000000000000000000000000000000000000000000000006001600160a01b0316906370a0823190602401602060405180830381865afa158015611248573d6000803e3d6000fd5b505050506040513d601f19601f8201168201806040525081019061126c9190612379565b9050801561127e5761127e81836115d0565b6040516370a0823160e01b81523060048201526000907f00000000000000000000000000000000000000000000000000000000000000006001600160a01b0316906370a0823190602401602060405180830381865afa1580156112e5573d6000803e3d6000fd5b505050506040513d601f19601f820116820180604052508101906113099190612379565b90508015610e2357610e238184611bef565b6000806001600160801b0383161561140c576040805160a0810182528581526001600160801b038581166020830190815260008385018181526060850191825242608086019081529551630624e65f60e11b81529451600486015291519092166024840152516044830152516064820152905160848201527f00000000000000000000000000000000000000000000000000000000000000006001600160a01b031690630c49ccbe9060a40160408051808303816000875af11580156113e5573d6000803e3d6000fd5b505050506040513d601f19601f8201168201806040525081019061140991906124c0565b50505b6040805160808101825285815230602082019081526001600160801b0382840181815260608401828152945163fc6f786560e01b81529351600485015291516001600160a01b0390811660248501529151811660448401529251909216606482015260009182917f00000000000000000000000000000000000000000000000000000000000000009091169063fc6f78659060840160408051808303816000875af11580156114bf573d6000803e3d6000fd5b505050506040513d601f19601f820116820180604052508101906114e391906124c0565b915091507f00000000000000000000000000000000000000000000000000000000000000006115125780611514565b815b93507f00000000000000000000000000000000000000000000000000000000000000006115415781611543565b805b925050509250929050565b60008083116115905760405162461bcd60e51b815260206004820152600e60248201526d125b9d985b1a5908185b5bdd5b9d60921b60448201526064016105b4565b6001600160a01b0382166115b65760405162461bcd60e51b81526004016105b490612207565b6115bf83610e28565b6115c8836118d0565b905061036281835b811561160a5761160a6001600160a01b037f0000000000000000000000000000000000000000000000000000000000000000168284610dc4565b5050565b600061162262ffffff8316620f42406123ad565b61162d9060026124e4565b8461164062ffffff8516621e84806123ad565b61164a91906124e4565b6116e0868661166162ffffff8816620f42406123ad565b61166f620f424060046124e4565b61167991906124e4565b61168391906124e4565b61168d91906124e4565b87806116a162ffffff8916621e84806123ad565b6116b362ffffff8a16621e84806123ad565b6116bd91906124e4565b6116c791906124e4565b6116d191906124e4565b6116db9190612366565b611c29565b6116ea91906123ad565b6116f49190612511565b949350505050565b60006117526001600160a01b037f0000000000000000000000000000000000000000000000000000000000000000167f000000000000000000000000000000000000000000000000000000000000000084611d82565b60007f0000000000000000000000000000000000000000000000000000000000000000611780576001611783565b60005b90506000807f00000000000000000000000000000000000000000000000000000000000000006001600160a01b031663128acb0830856117c289611e0c565b7f00000000000000000000000000000000000000000000000000000000000000006117fc576117f76401000276a36001612533565b61181b565b61181b600173fffd8963efd1fc6a506488495d951d5263988d26612552565b6040518563ffffffff1660e01b815260040161183a9493929190612571565b60408051808303816000875af1158015611858573d6000803e3d6000fd5b505050506040513d601f19601f8201168201806040525081019061187c91906124c0565b915091507f00000000000000000000000000000000000000000000000000000000000000006118bb576118b66118b1826125ab565b611e3d565b6118c7565b6118c76118b1836125ab565b95945050505050565b60006119266001600160a01b037f0000000000000000000000000000000000000000000000000000000000000000167f000000000000000000000000000000000000000000000000000000000000000084611d82565b60007f0000000000000000000000000000000000000000000000000000000000000000611954576000611957565b60015b90506000807f00000000000000000000000000000000000000000000000000000000000000006001600160a01b031663128acb08308561199689611e0c565b7f00000000000000000000000000000000000000000000000000000000000000006119df576119da600173fffd8963efd1fc6a506488495d951d5263988d26612552565b6119ef565b6119ef6401000276a36001612533565b6040518563ffffffff1660e01b8152600401611a0e9493929190612571565b60408051808303816000875af1158015611a2c573d6000803e3d6000fd5b505050506040513d601f19601f82011682018060405250810190611a5091906124c0565b915091507f0000000000000000000000000000000000000000000000000000000000000000611a85576118b66118b1836125ab565b6118c76118b1826125ab565b600080602060008451602086016000885af180611ab4576040513d6000823e3d81fd5b50506000513d91508115611acc578060011415611ad9565b6001600160a01b0384163b155b1561068957604051635274afe760e01b81526001600160a01b03851660048201526024016105b4565b6040516001600160a01b0384811660248301528381166044830152606482018390526106899186918216906323b872dd90608401610df1565b8115611b9557611b956001600160a01b037f0000000000000000000000000000000000000000000000000000000000000000167f000000000000000000000000000000000000000000000000000000000000000084611d82565b801561160a5761160a6001600160a01b037f0000000000000000000000000000000000000000000000000000000000000000167f000000000000000000000000000000000000000000000000000000000000000083611d82565b811561160a5761160a6001600160a01b037f0000000000000000000000000000000000000000000000000000000000000000168284610dc4565b600060018211611c37575090565b816001600160801b8210611c505760809190911c9060401b5b680100000000000000008210611c6b5760409190911c9060201b5b6401000000008210611c825760209190911c9060101b5b620100008210611c975760109190911c9060081b5b6101008210611cab5760089190911c9060041b5b60108210611cbe5760049190911c9060021b5b60048210611cca5760011b5b600302600190811c90818581611ce257611ce26124fb565b048201901c90506001818581611cfa57611cfa6124fb565b048201901c90506001818581611d1257611d126124fb565b048201901c90506001818581611d2a57611d2a6124fb565b048201901c90506001818581611d4257611d426124fb565b048201901c90506001818581611d5a57611d5a6124fb565b048201901c9050611d79818581611d7357611d736124fb565b04821190565b90039392505050565b604051636eb1769f60e11b81523060048201526001600160a01b0383811660248301526000919085169063dd62ed3e90604401602060405180830381865afa158015611dd2573d6000803e3d6000fd5b505050506040513d601f19601f82011682018060405250810190611df69190612379565b90506106898484611e078585612366565b611e63565b60006001600160ff1b03821115611e395760405163123baf0360e11b8152600481018390526024016105b4565b5090565b600080821215611e3957604051635467221960e11b8152600481018390526024016105b4565b604080516001600160a01b038416602482015260448082018490528251808303909101815260649091019091526020810180516001600160e01b031663095ea7b360e01b179052611eb48482611ef3565b610689576040516001600160a01b03848116602483015260006044830152611ee991869182169063095ea7b390606401610df1565b6106898482611a91565b6000806000806020600086516020880160008a5af192503d91506000519050828015611f3857508115611f295780600114611f38565b6000866001600160a01b03163b115b9695505050505050565b6001600160a01b0381168114610e6357600080fd5b634e487b7160e01b600052604160045260246000fd5b60008060008060808587031215611f8357600080fd5b8435611f8e81611f42565b93506020850135611f9e81611f42565b925060408501359150606085013567ffffffffffffffff811115611fc157600080fd5b8501601f81018713611fd257600080fd5b803567ffffffffffffffff811115611fec57611fec611f57565b604051601f8201601f19908116603f0116810167ffffffffffffffff8111828210171561201b5761201b611f57565b60405281815282820160200189101561203357600080fd5b8160208401602083013760006020838301015280935050505092959194509250565b60008060006060848603121561206a57600080fd5b8335925060208401359150604084013561208381611f42565b809150509250925092565b600080604083850312156120a157600080fd5b8235915060208301356120b381611f42565b809150509250929050565b6000602082840312156120d057600080fd5b5035919050565b600080600080606085870312156120ed57600080fd5b8435935060208501359250604085013567ffffffffffffffff81111561211257600080fd5b8501601f8101871361212357600080fd5b803567ffffffffffffffff81111561213a57600080fd5b87602082840101111561214c57600080fd5b949793965060200194505050565b6001600160a01b0396871681529490951660208501526040840192909252606083015260808201526001600160801b0390911660a082015260c00190565b6001600160a01b03978816815295909616602086015260408501939093526001600160801b03919091166060840152608083015260a082015260c081019190915260e00190565b805161053181611f42565b6000602082840312156121fc57600080fd5b815161026b81611f42565b602080825260119082015270125b9d985b1a59081c9958da5c1a595b9d607a1b604082015260600190565b805162ffffff8116811461053157600080fd5b8051600281900b811461053157600080fd5b80516001600160801b038116811461053157600080fd5b6000806000806000806000806000806000806101808d8f03121561229157600080fd5b8c516bffffffffffffffffffffffff811681146122ad57600080fd5b9b506122bb60208e016121df565b9a506122c960408e016121df565b99506122d760608e016121df565b98506122e560808e01612232565b97506122f360a08e01612245565b965061230160c08e01612245565b955061230f60e08e01612257565b6101008e01516101208f01519196509450925061232f6101408e01612257565b915061233e6101608e01612257565b90509295989b509295989b509295989b565b634e487b7160e01b600052601160045260246000fd5b8082018082111561036257610362612350565b60006020828403121561238b57600080fd5b5051919050565b6000602082840312156123a457600080fd5b61026b82612232565b8181038181111561036257610362612350565b81516001600160a01b03168152610160810160208301516123ec60208401826001600160a01b03169052565b506040830151612403604084018262ffffff169052565b506060830151612418606084018260020b9052565b50608083015161242d608084018260020b9052565b5060a083015160a083015260c083015160c083015260e083015160e08301526101008301516101008301526101208301516124746101208401826001600160a01b03169052565b5061014092830151919092015290565b6000806000806080858703121561249a57600080fd5b845193506124aa60208601612257565b6040860151606090960151949790965092505050565b600080604083850312156124d357600080fd5b505080516020909101519092909150565b808202811582820484141761036257610362612350565b634e487b7160e01b600052601260045260246000fd5b60008261252e57634e487b7160e01b600052601260045260246000fd5b500490565b6001600160a01b03818116838216019081111561036257610362612350565b6001600160a01b03828116828216039081111561036257610362612350565b6001600160a01b03948516815292151560208401526040830191909152909116606082015260a06080820181905260009082015260c00190565b6000600160ff1b82016125c0576125c0612350565b506000039056fea2646970667358221220710c98c2292cd7c2a22b89514365e66a81ddcc907fcd80e682f1f058e660438d64736f6c634300081c0033",
  "devdoc": {
    "details": "Token router send to liquidity to the Uniswap V3 pool in exchange for      an LP-NFT",
    "errors": {
      "ReentrancyGuardReentrantCall()": [
        {
          "details": "Unauthorized reentrant call."
        }
      ],
      "SafeCastOverflowedIntToUint(int256)": [
        {
          "details": "An int value doesn't fit in an uint of `bits` size."
        }
      ],
      "SafeCastOverflowedUintToInt(uint256)": [
        {
          "details": "An uint value doesn't fit in an int of `bits` size."
        }
      ],
      "SafeERC20FailedOperation(address)": [
        {
          "details": "An operation with an ERC-20 token failed."
        }
      ]
    },
    "events": {
      "LpNftCollected(address,address,address,address,address,uint256,uint128,uint256,uint256,uint256)": {
        "details": "Emitted when liquidity and fees are collected from an LP-NFT.",
        "params": {
          "assetTokenAddress": "The address of the asset token",
          "assetTokenCollected": "The amount of asset token fees collected",
          "assetTokenReturned": "The amount of the asset token returned to the        recipient",
          "gameTokenAddress": "The address of the game token",
          "gameTokenCollected": "The amount of game token fees collected",
          "liquidityAmount": "The amount of liquidity in the NFT before collection",
          "lpNftTokenId": "The ID of the NFT",
          "nftAddress": "The address of the NFT manager contract",
          "recipient": "The address of the recipient of the LP-NFT fees",
          "sender": "The sender of the collection request"
        }
      },
      "LpNftMinted(address,address,address,address,address,uint256,uint256,uint256,uint128)": {
        "details": "Emitted when an LP-NFT is minted",
        "params": {
          "assetTokenAddress": "The address of the asset token",
          "assetTokenShare": "The amount of the asset token in the NFT",
          "gameTokenAddress": "The address of the game token",
          "gameTokenShare": "The amount of the game token in the NFT",
          "liquidityAmount": "The amount of liquidity created",
          "lpNftTokenId": "The ID of the LP-NFT",
          "nftAddress": "The address of the NFT manager contract",
          "recipient": "The address of the recipient of the LP-NFT",
          "sender": "The sender of the assets being paid"
        }
      }
    },
    "kind": "dev",
    "methods": {
      "collectFromLpNft(uint256,address)": {
        "details": "See {IGameTokenPooler-collectFromLpNft}"
      },
      "constructor": {
        "details": "Initializes the contract",
        "params": {
          "pow5StablePool_": "The address of the Uniswap V3 pool contract",
          "pow5Token_": "The address of the POW5 token",
          "stableToken_": "The address of the stable token",
          "uniswapV3NftManager_": "The address of the upstream Uniswap V3 NFT        manager"
        }
      },
      "exit(uint256)": {
        "details": "See {IGameTokenPooler-exit}"
      },
      "gameIsToken0()": {
        "details": "See {IGameTokenPooler-gameIsToken0}"
      },
      "mintLpNftImbalance(uint256,uint256,address)": {
        "details": "See {IGameTokenPooler-mintLpNftImbalance}"
      },
      "mintLpNftWithAssetToken(uint256,address)": {
        "details": "See {IGameTokenPooler-mintLpNftWithAssetToken}"
      },
      "mintLpNftWithGameToken(uint256,address)": {
        "details": "See {IGameTokenPooler-mintLpNftWithGameToken}"
      },
      "onERC721Received(address,address,uint256,bytes)": {
        "details": "See {IERC721Receiver-onERC721Received}. Always returns `IERC721Receiver.onERC721Received.selector`."
      },
      "uniswapV3SwapCallback(int256,int256,bytes)": {
        "details": "See {IUniswapV3SwapCallback-uniswapV3SwapCallback} This function is called to the sender after a swap is executed on Uniswap V3. The pool tokens owed for the swap must be payed. The caller of this method must be checked to be a UniswapV3Pool deployed by the canonical UniswapV3Factory. amount0Delta and amount1Delta can both be 0 if no tokens were swapped."
      }
    },
    "version": 1
  },
  "userdoc": {
    "kind": "user",
    "methods": {},
    "version": 1
  },
  "storageLayout": {
    "storage": [
      {
        "astId": 6439,
        "contract": "contracts/src/token/routes/POW5StablePooler.sol:POW5StablePooler",
        "label": "_status",
        "offset": 0,
        "slot": "0",
        "type": "t_uint256"
      }
    ],
    "types": {
      "t_uint256": {
        "encoding": "inplace",
        "label": "uint256",
        "numberOfBytes": "32"
      }
    }
  }
}