{
  "address": "0x1e75B7c5365690A17750Ed0D67cD26Ee2daCfA9E",
  "abi": [
    {
      "inputs": [
        {
          "internalType": "address",
          "name": "owner_",
          "type": "address"
        },
        {
          "internalType": "address",
          "name": "lpSft_",
          "type": "address"
        },
        {
          "internalType": "address",
          "name": "rewardToken_",
          "type": "address"
        },
        {
          "internalType": "address",
          "name": "uniswapV3Pool_",
          "type": "address"
        },
        {
          "internalType": "address",
          "name": "uniswapV3NftManager_",
          "type": "address"
        },
        {
          "internalType": "address",
          "name": "uniswapV3Staker_",
          "type": "address"
        }
      ],
      "stateMutability": "nonpayable",
      "type": "constructor"
    },
    {
      "inputs": [],
      "name": "AccessControlBadConfirmation",
      "type": "error"
    },
    {
      "inputs": [
        {
          "internalType": "address",
          "name": "account",
          "type": "address"
        },
        {
          "internalType": "bytes32",
          "name": "neededRole",
          "type": "bytes32"
        }
      ],
      "name": "AccessControlUnauthorizedAccount",
      "type": "error"
    },
    {
      "inputs": [],
      "name": "LPNFTInvalidTokenID",
      "type": "error"
    },
    {
      "inputs": [],
      "name": "ReentrancyGuardReentrantCall",
      "type": "error"
    },
    {
      "inputs": [
        {
          "internalType": "address",
          "name": "token",
          "type": "address"
        }
      ],
      "name": "SafeERC20FailedOperation",
      "type": "error"
    },
    {
      "anonymous": false,
      "inputs": [
        {
          "indexed": true,
          "internalType": "bytes32",
          "name": "role",
          "type": "bytes32"
        },
        {
          "indexed": true,
          "internalType": "bytes32",
          "name": "previousAdminRole",
          "type": "bytes32"
        },
        {
          "indexed": true,
          "internalType": "bytes32",
          "name": "newAdminRole",
          "type": "bytes32"
        }
      ],
      "name": "RoleAdminChanged",
      "type": "event"
    },
    {
      "anonymous": false,
      "inputs": [
        {
          "indexed": true,
          "internalType": "bytes32",
          "name": "role",
          "type": "bytes32"
        },
        {
          "indexed": true,
          "internalType": "address",
          "name": "account",
          "type": "address"
        },
        {
          "indexed": true,
          "internalType": "address",
          "name": "sender",
          "type": "address"
        }
      ],
      "name": "RoleGranted",
      "type": "event"
    },
    {
      "anonymous": false,
      "inputs": [
        {
          "indexed": true,
          "internalType": "bytes32",
          "name": "role",
          "type": "bytes32"
        },
        {
          "indexed": true,
          "internalType": "address",
          "name": "account",
          "type": "address"
        },
        {
          "indexed": true,
          "internalType": "address",
          "name": "sender",
          "type": "address"
        }
      ],
      "name": "RoleRevoked",
      "type": "event"
    },
    {
      "inputs": [],
      "name": "DEFAULT_ADMIN_ROLE",
      "outputs": [
        {
          "internalType": "bytes32",
          "name": "",
          "type": "bytes32"
        }
      ],
      "stateMutability": "view",
      "type": "function"
    },
    {
      "inputs": [
        {
          "internalType": "uint256",
          "name": "rewardAmount",
          "type": "uint256"
        }
      ],
      "name": "createIncentive",
      "outputs": [],
      "stateMutability": "nonpayable",
      "type": "function"
    },
    {
      "inputs": [
        {
          "internalType": "uint256",
          "name": "tokenId",
          "type": "uint256"
        }
      ],
      "name": "enter",
      "outputs": [],
      "stateMutability": "nonpayable",
      "type": "function"
    },
    {
      "inputs": [
        {
          "internalType": "uint256",
          "name": "tokenId",
          "type": "uint256"
        }
      ],
      "name": "exit",
      "outputs": [],
      "stateMutability": "nonpayable",
      "type": "function"
    },
    {
      "inputs": [
        {
          "internalType": "bytes32",
          "name": "role",
          "type": "bytes32"
        }
      ],
      "name": "getRoleAdmin",
      "outputs": [
        {
          "internalType": "bytes32",
          "name": "",
          "type": "bytes32"
        }
      ],
      "stateMutability": "view",
      "type": "function"
    },
    {
      "inputs": [
        {
          "internalType": "bytes32",
          "name": "role",
          "type": "bytes32"
        },
        {
          "internalType": "address",
          "name": "account",
          "type": "address"
        }
      ],
      "name": "grantRole",
      "outputs": [],
      "stateMutability": "nonpayable",
      "type": "function"
    },
    {
      "inputs": [
        {
          "internalType": "bytes32",
          "name": "role",
          "type": "bytes32"
        },
        {
          "internalType": "address",
          "name": "account",
          "type": "address"
        }
      ],
      "name": "hasRole",
      "outputs": [
        {
          "internalType": "bool",
          "name": "",
          "type": "bool"
        }
      ],
      "stateMutability": "view",
      "type": "function"
    },
    {
      "inputs": [],
      "name": "isInitialized",
      "outputs": [
        {
          "internalType": "bool",
          "name": "",
          "type": "bool"
        }
      ],
      "stateMutability": "view",
      "type": "function"
    },
    {
      "inputs": [],
      "name": "lpSft",
      "outputs": [
        {
          "internalType": "contract ILPSFT",
          "name": "",
          "type": "address"
        }
      ],
      "stateMutability": "view",
      "type": "function"
    },
    {
      "inputs": [
        {
          "internalType": "address",
          "name": "",
          "type": "address"
        },
        {
          "internalType": "address",
          "name": "",
          "type": "address"
        },
        {
          "internalType": "uint256[]",
          "name": "",
          "type": "uint256[]"
        },
        {
          "internalType": "uint256[]",
          "name": "",
          "type": "uint256[]"
        },
        {
          "internalType": "bytes",
          "name": "",
          "type": "bytes"
        }
      ],
      "name": "onERC1155BatchReceived",
      "outputs": [
        {
          "internalType": "bytes4",
          "name": "",
          "type": "bytes4"
        }
      ],
      "stateMutability": "nonpayable",
      "type": "function"
    },
    {
      "inputs": [
        {
          "internalType": "address",
          "name": "",
          "type": "address"
        },
        {
          "internalType": "address",
          "name": "",
          "type": "address"
        },
        {
          "internalType": "uint256",
          "name": "",
          "type": "uint256"
        },
        {
          "internalType": "uint256",
          "name": "",
          "type": "uint256"
        },
        {
          "internalType": "bytes",
          "name": "",
          "type": "bytes"
        }
      ],
      "name": "onERC1155Received",
      "outputs": [
        {
          "internalType": "bytes4",
          "name": "",
          "type": "bytes4"
        }
      ],
      "stateMutability": "nonpayable",
      "type": "function"
    },
    {
      "inputs": [
        {
          "internalType": "address",
          "name": "",
          "type": "address"
        },
        {
          "internalType": "address",
          "name": "",
          "type": "address"
        },
        {
          "internalType": "uint256",
          "name": "",
          "type": "uint256"
        },
        {
          "internalType": "bytes",
          "name": "",
          "type": "bytes"
        }
      ],
      "name": "onERC721Received",
      "outputs": [
        {
          "internalType": "bytes4",
          "name": "",
          "type": "bytes4"
        }
      ],
      "stateMutability": "nonpayable",
      "type": "function"
    },
    {
      "inputs": [
        {
          "internalType": "bytes32",
          "name": "role",
          "type": "bytes32"
        },
        {
          "internalType": "address",
          "name": "callerConfirmation",
          "type": "address"
        }
      ],
      "name": "renounceRole",
      "outputs": [],
      "stateMutability": "nonpayable",
      "type": "function"
    },
    {
      "inputs": [
        {
          "internalType": "bytes32",
          "name": "role",
          "type": "bytes32"
        },
        {
          "internalType": "address",
          "name": "account",
          "type": "address"
        }
      ],
      "name": "revokeRole",
      "outputs": [],
      "stateMutability": "nonpayable",
      "type": "function"
    },
    {
      "inputs": [],
      "name": "rewardToken",
      "outputs": [
        {
          "internalType": "contract IERC20",
          "name": "",
          "type": "address"
        }
      ],
      "stateMutability": "view",
      "type": "function"
    },
    {
      "inputs": [
        {
          "internalType": "bytes4",
          "name": "interfaceId",
          "type": "bytes4"
        }
      ],
      "name": "supportsInterface",
      "outputs": [
        {
          "internalType": "bool",
          "name": "",
          "type": "bool"
        }
      ],
      "stateMutability": "view",
      "type": "function"
    },
    {
      "inputs": [],
      "name": "uniswapV3NftManager",
      "outputs": [
        {
          "internalType": "contract INonfungiblePositionManager",
          "name": "",
          "type": "address"
        }
      ],
      "stateMutability": "view",
      "type": "function"
    },
    {
      "inputs": [],
      "name": "uniswapV3Pool",
      "outputs": [
        {
          "internalType": "contract IUniswapV3Pool",
          "name": "",
          "type": "address"
        }
      ],
      "stateMutability": "view",
      "type": "function"
    },
    {
      "inputs": [],
      "name": "uniswapV3Staker",
      "outputs": [
        {
          "internalType": "contract IUniswapV3Staker",
          "name": "",
          "type": "address"
        }
      ],
      "stateMutability": "view",
      "type": "function"
    }
  ],
  "transactionHash": "0xaa73ba906b3cb3c2a7e497e6fcdd1a23821962b4116659c64ff98fc08eba2c00",
  "args": [
    "0x5Eb8d8a368B1F1A9de0c2E489e270d7AFD389C3C",
    "0xd621853d65eA069370efe04fc07846d0af4E2e78",
    "0x3414381EF8d64a2c0E8eC785553534122312787e",
    "0x9483CB5C595C41Fd131DFbac2D6Ff6aCF21cCa74",
    "0x17af5Dd8e9a37cF78E9949C7E25D805937cDfbFB",
    "0xA067dB982Dbb51B8C72DD03ceAc4c01E883123a3"
  ],
  "numDeployments": 1,
  "solcInputHash": "607dfe4437c93ddfbd36914a2ea77f31",
  "bytecode": "0x6101206040526002805460ff1916905534801561001b57600080fd5b5060405161219d38038061219d83398101604081905261003a916102b9565b60016000556001600160a01b03851661008e5760405162461bcd60e51b815260206004820152601160248201527024b73b30b634b21029a32a103a37b5b2b760791b60448201526064015b60405180910390fd5b6001600160a01b0384166100e45760405162461bcd60e51b815260206004820152601460248201527f496e76616c69642072657761726420746f6b656e0000000000000000000000006044820152606401610085565b6001600160a01b03831661013a5760405162461bcd60e51b815260206004820152601760248201527f496e76616c696420556e697377617020563320706f6f6c0000000000000000006044820152606401610085565b6001600160a01b0382166101865760405162461bcd60e51b815260206004820152601360248201527224b73b30b634b21027232a1036b0b730b3b2b960691b6044820152606401610085565b6001600160a01b0381166101d25760405162461bcd60e51b815260206004820152601360248201527224b73b30b634b21027232a1036b0b730b3b2b960691b6044820152606401610085565b6101dd600087610208565b506001600160a01b0394851660805292841660a05290831660c052821660e05216610100525061032d565b60008281526001602090815260408083206001600160a01b038516845290915281205460ff166102935760008381526001602081815260408084206001600160a01b0387168086529252808420805460ff19169093179092559051339286917f2f8788117e7eff1d82e926ec794901d17c78024a50270940304540a733656f0d9190a4506001610297565b5060005b92915050565b80516001600160a01b03811681146102b457600080fd5b919050565b60008060008060008060c087890312156102d257600080fd5b6102db8761029d565b95506102e96020880161029d565b94506102f76040880161029d565b93506103056060880161029d565b92506103136080880161029d565b915061032160a0880161029d565b90509295509295509295565b60805160a05160c05160e05161010051611d7d610420600039600081816101530152818161051701528181610553015281816107ac01528181610834015281816108c80152818161094601528181610a0601526111490152600081816102c801528181610a8201528181610b7e01528181610c5901528181610fbc015281816110a4015261111901526000818161032101528181610ccd01528181610d530152611338015260008181610348015281816104b8015281816104f501528181610df601528181610f4a0152611309015260008181610267015281816106610152818161071c01526111dd0152611d7d6000f3fe608060405234801561001057600080fd5b50600436106101215760003560e01c806391d14854116100ad578063c81fcc9511610071578063c81fcc95146102c3578063d547741f146102ea578063f23a6e61146102fd578063f55ebd2a1461031c578063f7c618c11461034357600080fd5b806391d148541461024f578063a1abfd9514610262578063a217fddf14610289578063a59f3e0c14610291578063bc197c81146102a457600080fd5b80632ea1e224116100f45780632ea1e224146101f65780632f2ff15d1461020b57806336568abe1461021e578063392e53cd146102315780637f8661a11461023c57600080fd5b806301ffc9a71461012657806303baa0ea1461014e578063150b7a021461018d578063248a9ca3146101c4575b600080fd5b610139610134366004611745565b61036a565b60405190151581526020015b60405180910390f35b6101757f000000000000000000000000000000000000000000000000000000000000000081565b6040516001600160a01b039091168152602001610145565b6101ab61019b366004611842565b630a85bd0160e11b949350505050565b6040516001600160e01b03199091168152602001610145565b6101e86101d23660046118ae565b6000908152600160208190526040909120015490565b604051908152602001610145565b6102096102043660046118ae565b6103b1565b005b6102096102193660046118c7565b6105ca565b61020961022c3660046118c7565b6105f6565b60025460ff16610139565b61020961024a3660046118ae565b61062e565b61013961025d3660046118c7565b611041565b6101757f000000000000000000000000000000000000000000000000000000000000000081565b6101e8600081565b61020961029f3660046118ae565b61106c565b6101ab6102b2366004611970565b63bc197c8160e01b95945050505050565b6101757f000000000000000000000000000000000000000000000000000000000000000081565b6102096102f83660046118c7565b611252565b6101ab61030b366004611a2a565b63f23a6e6160e01b95945050505050565b6101757f000000000000000000000000000000000000000000000000000000000000000081565b6101757f000000000000000000000000000000000000000000000000000000000000000081565b600061037582611278565b8061039057506001600160e01b03198216630a85bd0160e11b145b806103ab57506001600160e01b03198216633365bb9160e21b145b92915050565b6103b961129d565b6103c360006112c7565b60025460ff161561041b5760405162461bcd60e51b815260206004820152601960248201527f496e63656e7469766520616c726561647920637265617465640000000000000060448201526064015b60405180910390fd5b6002805460ff191660011790556104306112d1565b8051600380546001600160a01b03199081166001600160a01b0393841617825560208085015160048054841691861691909117905560408086015160055560608601516006556080909501516007805490931694169390931790559151610498929101611ac5565b60408051601f1981840301815291905280516020909101206008556104e87f00000000000000000000000000000000000000000000000000000000000000006001600160a01b0316333084611388565b61053c6001600160a01b037f0000000000000000000000000000000000000000000000000000000000000000167f0000000000000000000000000000000000000000000000000000000000000000836113e2565b604051635cc5e3d960e01b81526001600160a01b037f00000000000000000000000000000000000000000000000000000000000000001690635cc5e3d99061058b906003908590600401611ad3565b600060405180830381600087803b1580156105a557600080fd5b505af11580156105b9573d6000803e3d6000fd5b505050506105c76001600055565b50565b600082815260016020819052604090912001546105e6816112c7565b6105f0838361146c565b50505050565b6001600160a01b038116331461061f5760405163334bd91960e11b815260040160405180910390fd5b61062982826114e5565b505050565b61063661129d565b80600003610657576040516333204a0160e11b815260040160405180910390fd5b6001600160a01b037f00000000000000000000000000000000000000000000000000000000000000001663f242432a336040516001600160e01b031960e084901b1681526001600160a01b039091166004820152306024820152604481018490526001606482015260a06084820152600060a482015260c401600060405180830381600087803b1580156106ea57600080fd5b505af11580156106fe573d6000803e3d6000fd5b5050604051632770a7eb60e21b8152306004820152602481018490527f00000000000000000000000000000000000000000000000000000000000000006001600160a01b03169250639dc29fac9150604401600060405180830381600087803b15801561076a57600080fd5b505af115801561077e573d6000803e3d6000fd5b505060035460405163e70b9e2760e01b81526001600160a01b039182166004820152306024820152600093507f0000000000000000000000000000000000000000000000000000000000000000909116915063e70b9e2790604401602060405180830381865afa1580156107f6573d6000803e3d6000fd5b505050506040513d601f19601f8201168201806040525081019061081a9190611aee565b604051637aa4d5a160e11b81529091506001600160a01b037f0000000000000000000000000000000000000000000000000000000000000000169063f549ab429061086c906003908690600401611ad3565b600060405180830381600087803b15801561088657600080fd5b505af115801561089a573d6000803e3d6000fd5b505060035460405163e70b9e2760e01b81526001600160a01b039182166004820152306024820152600093507f0000000000000000000000000000000000000000000000000000000000000000909116915063e70b9e2790604401602060405180830381865afa158015610912573d6000803e3d6000fd5b505050506040513d601f19601f820116820180604052508101906109369190611aee565b6003549091506001600160a01b037f0000000000000000000000000000000000000000000000000000000000000000811691632f2d783d91163061097a8686611b1d565b6040518463ffffffff1660e01b815260040161099893929190611b30565b6020604051808303816000875af11580156109b7573d6000803e3d6000fd5b505050506040513d601f19601f820116820180604052508101906109db9190611aee565b50604051633c423f0b60e01b81526004810184905230602482015260606044820152600060648201527f00000000000000000000000000000000000000000000000000000000000000006001600160a01b031690633c423f0b90608401600060405180830381600087803b158015610a5257600080fd5b505af1158015610a66573d6000803e3d6000fd5b505060405163133f757160e31b815260048101869052600092507f00000000000000000000000000000000000000000000000000000000000000006001600160a01b031691506399fbab889060240161018060405180830381865afa158015610ad3573d6000803e3d6000fd5b505050506040513d601f19601f82011682018060405250810190610af79190611ba0565b505050509750505050505050506000816001600160801b03161115610bf5576040805160a0810182528581526001600160801b038381166020830190815260008385018181526060850191825242608086019081529551630624e65f60e11b81529451600486015291519092166024840152516044830152516064820152905160848201527f00000000000000000000000000000000000000000000000000000000000000006001600160a01b031690630c49ccbe9060a40160408051808303816000875af1158015610bce573d6000803e3d6000fd5b505050506040513d601f19601f82011682018060405250810190610bf29190611c82565b50505b6040805160808101825285815230602082019081526001600160801b0382840181815260608401828152945163fc6f786560e01b81529351600485015291516001600160a01b039081166024850152915181166044840152925190921660648201527f00000000000000000000000000000000000000000000000000000000000000009091169063fc6f78659060840160408051808303816000875af1158015610ca3573d6000803e3d6000fd5b505050506040513d601f19601f82011682018060405250810190610cc79190611c82565b505060007f00000000000000000000000000000000000000000000000000000000000000006001600160a01b0316630dfe16816040518163ffffffff1660e01b8152600401602060405180830381865afa158015610d29573d6000803e3d6000fd5b505050506040513d601f19601f82011682018060405250810190610d4d9190611ca6565b905060007f00000000000000000000000000000000000000000000000000000000000000006001600160a01b031663d21220a76040518163ffffffff1660e01b8152600401602060405180830381865afa158015610daf573d6000803e3d6000fd5b505050506040513d601f19601f82011682018060405250810190610dd39190611ca6565b6040516370a0823160e01b81523060048201529091506000906001600160a01b037f000000000000000000000000000000000000000000000000000000000000000016906370a0823190602401602060405180830381865afa158015610e3d573d6000803e3d6000fd5b505050506040513d601f19601f82011682018060405250810190610e619190611aee565b6040516370a0823160e01b81523060048201529091506000906001600160a01b038516906370a0823190602401602060405180830381865afa158015610eab573d6000803e3d6000fd5b505050506040513d601f19601f82011682018060405250810190610ecf9190611aee565b6040516370a0823160e01b81523060048201529091506000906001600160a01b038516906370a0823190602401602060405180830381865afa158015610f19573d6000803e3d6000fd5b505050506040513d601f19601f82011682018060405250810190610f3d9190611aee565b90508215610f7957610f797f00000000000000000000000000000000000000000000000000000000000000006001600160a01b03163385611552565b8115610f9357610f936001600160a01b0386163384611552565b8015610fad57610fad6001600160a01b0385163383611552565b604051632142170760e11b81527f00000000000000000000000000000000000000000000000000000000000000006001600160a01b0316906342842e0e90610ffd90309033908e90600401611b30565b600060405180830381600087803b15801561101757600080fd5b505af115801561102b573d6000803e3d6000fd5b5050505050505050505050506105c76001600055565b60009182526001602090815260408084206001600160a01b0393909316845291905290205460ff1690565b61107461129d565b80600003611095576040516333204a0160e11b815260040160405180910390fd5b604051632142170760e11b81527f00000000000000000000000000000000000000000000000000000000000000006001600160a01b0316906342842e0e906110e590339030908690600401611b30565b600060405180830381600087803b1580156110ff57600080fd5b505af1158015611113573d6000803e3d6000fd5b505050507f00000000000000000000000000000000000000000000000000000000000000006001600160a01b031663b88d4fde307f000000000000000000000000000000000000000000000000000000000000000084600360405160200161117b9190611ac5565b6040516020818303038152906040526040518563ffffffff1660e01b81526004016111a99493929190611cc3565b600060405180830381600087803b1580156111c357600080fd5b505af11580156111d7573d6000803e3d6000fd5b505050507f00000000000000000000000000000000000000000000000000000000000000006001600160a01b03166394d008ef6112113390565b6040516001600160e01b031960e084901b1681526001600160a01b03909116600482015260248101849052606060448201526000606482015260840161058b565b6000828152600160208190526040909120015461126e816112c7565b6105f083836114e5565b60006001600160e01b03198216630271189760e51b14806103ab57506103ab82611583565b6002600054036112c057604051633ee5aeb560e01b815260040160405180910390fd5b6002600055565b6105c781336115b8565b6040805160a0810182526000808252602082018190529181018290526060810182905260808101919091526040518060a001604052807f00000000000000000000000000000000000000000000000000000000000000006001600160a01b031681526020017f00000000000000000000000000000000000000000000000000000000000000006001600160a01b031681526020014281526020014262093a8061137a9190611d34565b815230602090910152919050565b6105f084856001600160a01b03166323b872dd8686866040516024016113b093929190611b30565b604051602081830303815290604052915060e01b6020820180516001600160e01b0383818316178352505050506115f5565b604051636eb1769f60e11b81523060048201526001600160a01b0383811660248301526000919085169063dd62ed3e90604401602060405180830381865afa158015611432573d6000803e3d6000fd5b505050506040513d601f19601f820116820180604052508101906114569190611aee565b90506105f084846114678585611d34565b611666565b60006114788383611041565b6114dd5760008381526001602081815260408084206001600160a01b0387168086529252808420805460ff19169093179092559051339286917f2f8788117e7eff1d82e926ec794901d17c78024a50270940304540a733656f0d9190a45060016103ab565b5060006103ab565b60006114f18383611041565b156114dd5760008381526001602090815260408083206001600160a01b0386168085529252808320805460ff1916905551339286917ff6391f5c32d9c69d2a47ea670b442974b53935d1edc7fd64eb21e047a839171b9190a45060016103ab565b6040516001600160a01b0383811660248301526044820183905261062991859182169063a9059cbb906064016113b0565b60006001600160e01b03198216637965db0b60e01b14806103ab57506301ffc9a760e01b6001600160e01b03198316146103ab565b6115c28282611041565b6115f15760405163e2517d3f60e01b81526001600160a01b038216600482015260248101839052604401610412565b5050565b600080602060008451602086016000885af180611618576040513d6000823e3d81fd5b50506000513d9150811561163057806001141561163d565b6001600160a01b0384163b155b156105f057604051635274afe760e01b81526001600160a01b0385166004820152602401610412565b604080516001600160a01b038416602482015260448082018490528251808303909101815260649091019091526020810180516001600160e01b031663095ea7b360e01b1790526116b784826116f6565b6105f0576040516001600160a01b038481166024830152600060448301526116ec91869182169063095ea7b3906064016113b0565b6105f084826115f5565b6000806000806020600086516020880160008a5af192503d9150600051905082801561173b5750811561172c578060011461173b565b6000866001600160a01b03163b115b9695505050505050565b60006020828403121561175757600080fd5b81356001600160e01b03198116811461176f57600080fd5b9392505050565b6001600160a01b03811681146105c757600080fd5b634e487b7160e01b600052604160045260246000fd5b604051601f8201601f1916810167ffffffffffffffff811182821017156117ca576117ca61178b565b604052919050565b600082601f8301126117e357600080fd5b813567ffffffffffffffff8111156117fd576117fd61178b565b611810601f8201601f19166020016117a1565b81815284602083860101111561182557600080fd5b816020850160208301376000918101602001919091529392505050565b6000806000806080858703121561185857600080fd5b843561186381611776565b9350602085013561187381611776565b925060408501359150606085013567ffffffffffffffff81111561189657600080fd5b6118a2878288016117d2565b91505092959194509250565b6000602082840312156118c057600080fd5b5035919050565b600080604083850312156118da57600080fd5b8235915060208301356118ec81611776565b809150509250929050565b600082601f83011261190857600080fd5b813567ffffffffffffffff8111156119225761192261178b565b8060051b611932602082016117a1565b9182526020818501810192908101908684111561194e57600080fd5b6020860192505b8383101561173b578235825260209283019290910190611955565b600080600080600060a0868803121561198857600080fd5b853561199381611776565b945060208601356119a381611776565b9350604086013567ffffffffffffffff8111156119bf57600080fd5b6119cb888289016118f7565b935050606086013567ffffffffffffffff8111156119e857600080fd5b6119f4888289016118f7565b925050608086013567ffffffffffffffff811115611a1157600080fd5b611a1d888289016117d2565b9150509295509295909350565b600080600080600060a08688031215611a4257600080fd5b8535611a4d81611776565b94506020860135611a5d81611776565b93506040860135925060608601359150608086013567ffffffffffffffff811115611a1157600080fd5b80546001600160a01b039081168352600182015481166020840152600282015460408401526003820154606084015260049091015416608090910152565b60a081016103ab8284611a87565b60c08101611ae18285611a87565b8260a08301529392505050565b600060208284031215611b0057600080fd5b5051919050565b634e487b7160e01b600052601160045260246000fd5b818103818111156103ab576103ab611b07565b6001600160a01b039384168152919092166020820152604081019190915260600190565b8051611b5f81611776565b919050565b805162ffffff81168114611b5f57600080fd5b8051600281900b8114611b5f57600080fd5b80516001600160801b0381168114611b5f57600080fd5b6000806000806000806000806000806000806101808d8f031215611bc357600080fd5b8c516bffffffffffffffffffffffff81168114611bdf57600080fd5b9b50611bed60208e01611b54565b9a50611bfb60408e01611b54565b9950611c0960608e01611b54565b9850611c1760808e01611b64565b9750611c2560a08e01611b77565b9650611c3360c08e01611b77565b9550611c4160e08e01611b89565b6101008e01516101208f015191965094509250611c616101408e01611b89565b9150611c706101608e01611b89565b90509295989b509295989b509295989b565b60008060408385031215611c9557600080fd5b505080516020909101519092909150565b600060208284031215611cb857600080fd5b815161176f81611776565b6001600160a01b03858116825284166020820152604081018390526080606082018190528251908201819052600090815b81811015611d1157602081860181015160a0868401015201611cf4565b50600060a0828501015260a0601f19601f83011684010191505095945050505050565b808201808211156103ab576103ab611b0756fea2646970667358221220e54a5798ed591f3e991b6af77789f9bba077655a37ed04d1c372d7cf1ae5046a64736f6c634300081c0033",
  "devdoc": {
    "details": "A contract to stake Uniswap V3 LP-NFTs with concentrated liquidity",
    "errors": {
      "AccessControlBadConfirmation()": [
        {
          "details": "The caller of a function is not the expected one. NOTE: Don't confuse with {AccessControlUnauthorizedAccount}."
        }
      ],
      "AccessControlUnauthorizedAccount(address,bytes32)": [
        {
          "details": "The `account` is missing a role."
        }
      ],
      "LPNFTInvalidTokenID()": [
        {
          "details": "Error raised if a token ID is 0 Uniswap V3 LP-NFTs start with ID 1, so a token ID of 0 is used to indicate an invalid ID."
        }
      ],
      "ReentrancyGuardReentrantCall()": [
        {
          "details": "Unauthorized reentrant call."
        }
      ],
      "SafeERC20FailedOperation(address)": [
        {
          "details": "An operation with an ERC-20 token failed."
        }
      ]
    },
    "events": {
      "RoleAdminChanged(bytes32,bytes32,bytes32)": {
        "details": "Emitted when `newAdminRole` is set as ``role``'s admin role, replacing `previousAdminRole` `DEFAULT_ADMIN_ROLE` is the starting admin for all roles, despite {RoleAdminChanged} not being emitted signaling this."
      },
      "RoleGranted(bytes32,address,address)": {
        "details": "Emitted when `account` is granted `role`. `sender` is the account that originated the contract call. This account bears the admin role (for the granted role). Expected in cases where the role was granted using the internal {AccessControl-_grantRole}."
      },
      "RoleRevoked(bytes32,address,address)": {
        "details": "Emitted when `account` is revoked `role`. `sender` is the account that originated the contract call:   - if using `revokeRole`, it is the admin role bearer   - if using `renounceRole`, it is the role bearer (i.e. `account`)"
      }
    },
    "kind": "dev",
    "methods": {
      "constructor": {
        "details": "Initializes the lending pool with the lending and reward tokens",
        "params": {
          "lpSft_": "The address of the SFT token contract",
          "owner_": "The owner of the pool",
          "rewardToken_": "The address of the reward token",
          "uniswapV3NftManager_": "The address of the upstream Uniswap V3 NFT manager",
          "uniswapV3Pool_": "The address of the upstream Uniswap V3 pool",
          "uniswapV3Staker_": "The address of the upstream Uniswap V3 cannonical staker"
        }
      },
      "createIncentive(uint256)": {
        "details": "See {IUniV3StakeFarm-createIncentive}"
      },
      "enter(uint256)": {
        "details": "See {IUniV3StakeFarm-enter}"
      },
      "exit(uint256)": {
        "details": "See {IUniV3StakeFarm-exit}"
      },
      "getRoleAdmin(bytes32)": {
        "details": "Returns the admin role that controls `role`. See {grantRole} and {revokeRole}. To change a role's admin, use {_setRoleAdmin}."
      },
      "grantRole(bytes32,address)": {
        "details": "Grants `role` to `account`. If `account` had not been already granted `role`, emits a {RoleGranted} event. Requirements: - the caller must have ``role``'s admin role. May emit a {RoleGranted} event."
      },
      "hasRole(bytes32,address)": {
        "details": "Returns `true` if `account` has been granted `role`."
      },
      "isInitialized()": {
        "details": "See {IUniV3StakeFarm-isInitialized}"
      },
      "onERC721Received(address,address,uint256,bytes)": {
        "details": "See {IERC721Receiver-onERC721Received}. Always returns `IERC721Receiver.onERC721Received.selector`."
      },
      "renounceRole(bytes32,address)": {
        "details": "Revokes `role` from the calling account. Roles are often managed via {grantRole} and {revokeRole}: this function's purpose is to provide a mechanism for accounts to lose their privileges if they are compromised (such as when a trusted device is misplaced). If the calling account had been revoked `role`, emits a {RoleRevoked} event. Requirements: - the caller must be `callerConfirmation`. May emit a {RoleRevoked} event."
      },
      "revokeRole(bytes32,address)": {
        "details": "Revokes `role` from `account`. If `account` had been granted `role`, emits a {RoleRevoked} event. Requirements: - the caller must have ``role``'s admin role. May emit a {RoleRevoked} event."
      }
    },
    "stateVariables": {
      "_incentiveCreated": {
        "details": "True if the incentive has been created, false otherwise"
      },
      "_incentiveId": {
        "details": "The Uniswap V3 staker incentive ID, calculated when the incentive is created"
      },
      "_incentiveKey": {
        "details": "The Uniswap V3 staker incentive key, calculated when the incentive is created"
      },
      "lpSft": {
        "details": "The LP-SFT token contract used by the pool"
      },
      "rewardToken": {
        "details": "The reward token distributed to stakers"
      },
      "uniswapV3NftManager": {
        "details": "The Uniswap V3 NFT manager"
      },
      "uniswapV3Pool": {
        "details": "The Uniswap V3 pool"
      },
      "uniswapV3Staker": {
        "details": "The Uniswap V3 cannonical staker"
      }
    },
    "version": 1
  },
  "userdoc": {
    "kind": "user",
    "methods": {},
    "version": 1
  },
  "storageLayout": {
    "storage": [
      {
        "astId": 6439,
        "contract": "contracts/src/defi/UniV3StakeFarm.sol:UniV3StakeFarm",
        "label": "_status",
        "offset": 0,
        "slot": "0",
        "type": "t_uint256"
      },
      {
        "astId": 2343,
        "contract": "contracts/src/defi/UniV3StakeFarm.sol:UniV3StakeFarm",
        "label": "_roles",
        "offset": 0,
        "slot": "1",
        "type": "t_mapping(t_bytes32,t_struct(RoleData)2338_storage)"
      },
      {
        "astId": 23891,
        "contract": "contracts/src/defi/UniV3StakeFarm.sol:UniV3StakeFarm",
        "label": "_incentiveCreated",
        "offset": 0,
        "slot": "2",
        "type": "t_bool"
      },
      {
        "astId": 23895,
        "contract": "contracts/src/defi/UniV3StakeFarm.sol:UniV3StakeFarm",
        "label": "_incentiveKey",
        "offset": 0,
        "slot": "3",
        "type": "t_struct(IncentiveKey)16839_storage"
      },
      {
        "astId": 23898,
        "contract": "contracts/src/defi/UniV3StakeFarm.sol:UniV3StakeFarm",
        "label": "_incentiveId",
        "offset": 0,
        "slot": "8",
        "type": "t_bytes32"
      }
    ],
    "types": {
      "t_address": {
        "encoding": "inplace",
        "label": "address",
        "numberOfBytes": "20"
      },
      "t_bool": {
        "encoding": "inplace",
        "label": "bool",
        "numberOfBytes": "1"
      },
      "t_bytes32": {
        "encoding": "inplace",
        "label": "bytes32",
        "numberOfBytes": "32"
      },
      "t_contract(IERC20Minimal)15248": {
        "encoding": "inplace",
        "label": "contract IERC20Minimal",
        "numberOfBytes": "20"
      },
      "t_contract(IUniswapV3Pool)15359": {
        "encoding": "inplace",
        "label": "contract IUniswapV3Pool",
        "numberOfBytes": "20"
      },
      "t_mapping(t_address,t_bool)": {
        "encoding": "mapping",
        "key": "t_address",
        "label": "mapping(address => bool)",
        "numberOfBytes": "32",
        "value": "t_bool"
      },
      "t_mapping(t_bytes32,t_struct(RoleData)2338_storage)": {
        "encoding": "mapping",
        "key": "t_bytes32",
        "label": "mapping(bytes32 => struct AccessControl.RoleData)",
        "numberOfBytes": "32",
        "value": "t_struct(RoleData)2338_storage"
      },
      "t_struct(IncentiveKey)16839_storage": {
        "encoding": "inplace",
        "label": "struct IUniswapV3Staker.IncentiveKey",
        "members": [
          {
            "astId": 16829,
            "contract": "contracts/src/defi/UniV3StakeFarm.sol:UniV3StakeFarm",
            "label": "rewardToken",
            "offset": 0,
            "slot": "0",
            "type": "t_contract(IERC20Minimal)15248"
          },
          {
            "astId": 16832,
            "contract": "contracts/src/defi/UniV3StakeFarm.sol:UniV3StakeFarm",
            "label": "pool",
            "offset": 0,
            "slot": "1",
            "type": "t_contract(IUniswapV3Pool)15359"
          },
          {
            "astId": 16834,
            "contract": "contracts/src/defi/UniV3StakeFarm.sol:UniV3StakeFarm",
            "label": "startTime",
            "offset": 0,
            "slot": "2",
            "type": "t_uint256"
          },
          {
            "astId": 16836,
            "contract": "contracts/src/defi/UniV3StakeFarm.sol:UniV3StakeFarm",
            "label": "endTime",
            "offset": 0,
            "slot": "3",
            "type": "t_uint256"
          },
          {
            "astId": 16838,
            "contract": "contracts/src/defi/UniV3StakeFarm.sol:UniV3StakeFarm",
            "label": "refundee",
            "offset": 0,
            "slot": "4",
            "type": "t_address"
          }
        ],
        "numberOfBytes": "160"
      },
      "t_struct(RoleData)2338_storage": {
        "encoding": "inplace",
        "label": "struct AccessControl.RoleData",
        "members": [
          {
            "astId": 2335,
            "contract": "contracts/src/defi/UniV3StakeFarm.sol:UniV3StakeFarm",
            "label": "hasRole",
            "offset": 0,
            "slot": "0",
            "type": "t_mapping(t_address,t_bool)"
          },
          {
            "astId": 2337,
            "contract": "contracts/src/defi/UniV3StakeFarm.sol:UniV3StakeFarm",
            "label": "adminRole",
            "offset": 0,
            "slot": "1",
            "type": "t_bytes32"
          }
        ],
        "numberOfBytes": "64"
      },
      "t_uint256": {
        "encoding": "inplace",
        "label": "uint256",
        "numberOfBytes": "32"
      }
    }
  }
}