{
  "address": "0xcACdb73557E9a7BE4c08E76f4B36cC928f6c2f21",
  "abi": [
    {
      "inputs": [
        {
          "internalType": "address",
          "name": "pow5Token_",
          "type": "address"
        },
        {
          "internalType": "address",
          "name": "marketToken_",
          "type": "address"
        },
        {
          "internalType": "address",
          "name": "pow5MarketPool_",
          "type": "address"
        }
      ],
      "stateMutability": "nonpayable",
      "type": "constructor"
    },
    {
      "inputs": [],
      "name": "ReentrancyGuardReentrantCall",
      "type": "error"
    },
    {
      "inputs": [
        {
          "internalType": "int256",
          "name": "value",
          "type": "int256"
        }
      ],
      "name": "SafeCastOverflowedIntToUint",
      "type": "error"
    },
    {
      "inputs": [
        {
          "internalType": "uint256",
          "name": "value",
          "type": "uint256"
        }
      ],
      "name": "SafeCastOverflowedUintToInt",
      "type": "error"
    },
    {
      "inputs": [
        {
          "internalType": "address",
          "name": "token",
          "type": "address"
        }
      ],
      "name": "SafeERC20FailedOperation",
      "type": "error"
    },
    {
      "anonymous": false,
      "inputs": [
        {
          "indexed": true,
          "internalType": "address",
          "name": "sender",
          "type": "address"
        },
        {
          "indexed": true,
          "internalType": "address",
          "name": "recipient",
          "type": "address"
        },
        {
          "indexed": true,
          "internalType": "address",
          "name": "gameTokenAddress",
          "type": "address"
        },
        {
          "indexed": false,
          "internalType": "address",
          "name": "assetTokenAddress",
          "type": "address"
        },
        {
          "indexed": false,
          "internalType": "uint256",
          "name": "assetTokenAmount",
          "type": "uint256"
        },
        {
          "indexed": false,
          "internalType": "uint256",
          "name": "pow1Returned",
          "type": "uint256"
        }
      ],
      "name": "GameTokenBought",
      "type": "event"
    },
    {
      "anonymous": false,
      "inputs": [
        {
          "indexed": true,
          "internalType": "address",
          "name": "sender",
          "type": "address"
        },
        {
          "indexed": true,
          "internalType": "address",
          "name": "recipient",
          "type": "address"
        },
        {
          "indexed": true,
          "internalType": "address",
          "name": "gameTokenAddress",
          "type": "address"
        },
        {
          "indexed": false,
          "internalType": "address",
          "name": "assetTokenAddress",
          "type": "address"
        },
        {
          "indexed": false,
          "internalType": "uint256",
          "name": "pow1Amount",
          "type": "uint256"
        },
        {
          "indexed": false,
          "internalType": "uint256",
          "name": "assetTokenReturned",
          "type": "uint256"
        }
      ],
      "name": "GameTokenSold",
      "type": "event"
    },
    {
      "inputs": [
        {
          "internalType": "uint256",
          "name": "assetTokenAmount",
          "type": "uint256"
        },
        {
          "internalType": "address",
          "name": "recipient",
          "type": "address"
        }
      ],
      "name": "buyGameToken",
      "outputs": [
        {
          "internalType": "uint256",
          "name": "gameTokenReturned",
          "type": "uint256"
        }
      ],
      "stateMutability": "nonpayable",
      "type": "function"
    },
    {
      "inputs": [],
      "name": "exit",
      "outputs": [
        {
          "internalType": "uint256",
          "name": "assetTokenReturned",
          "type": "uint256"
        }
      ],
      "stateMutability": "nonpayable",
      "type": "function"
    },
    {
      "inputs": [],
      "name": "gameIsToken0",
      "outputs": [
        {
          "internalType": "bool",
          "name": "",
          "type": "bool"
        }
      ],
      "stateMutability": "view",
      "type": "function"
    },
    {
      "inputs": [
        {
          "internalType": "uint256",
          "name": "gameTokenAmount",
          "type": "uint256"
        },
        {
          "internalType": "address",
          "name": "recipient",
          "type": "address"
        }
      ],
      "name": "sellGameToken",
      "outputs": [
        {
          "internalType": "uint256",
          "name": "assetTokenReturned",
          "type": "uint256"
        }
      ],
      "stateMutability": "nonpayable",
      "type": "function"
    },
    {
      "inputs": [
        {
          "internalType": "int256",
          "name": "amount0Delta",
          "type": "int256"
        },
        {
          "internalType": "int256",
          "name": "amount1Delta",
          "type": "int256"
        },
        {
          "internalType": "bytes",
          "name": "",
          "type": "bytes"
        }
      ],
      "name": "uniswapV3SwapCallback",
      "outputs": [],
      "stateMutability": "nonpayable",
      "type": "function"
    }
  ],
  "transactionHash": "0xa2934fb06f6b27eb735f51831567e1da854a6e0266767f54b25cc8409785bca9",
  "args": [
    "0x7b589E244173CE2d11d76878C053e25Dd72Ea610",
    "0xfFa7B6120aeA3981C53F2e57AD1f92Af370c9439",
    "0x9483CB5C595C41Fd131DFbac2D6Ff6aCF21cCa74"
  ],
  "numDeployments": 1,
  "solcInputHash": "9eaa9fa15edb9065feab4ae045ea31f5",
  "bytecode": "0x61010060405234801561001157600080fd5b5060405161156138038061156183398101604081905261003091610460565b60016000558282826001600160a01b0383166100875760405162461bcd60e51b815260206004820152601160248201527024b73b30b634b210373ab6b2b930ba37b960791b60448201526064015b60405180910390fd5b6001600160a01b0382166100dd5760405162461bcd60e51b815260206004820152601360248201527f496e76616c69642064656e6f6d696e61746f7200000000000000000000000000604482015260640161007e565b6001600160a01b0381166101225760405162461bcd60e51b815260206004820152600c60248201526b125b9d985b1a59081c1bdbdb60a21b604482015260640161007e565b6000816001600160a01b0316630dfe16816040518163ffffffff1660e01b8152600401602060405180830381865afa158015610162573d6000803e3d6000fd5b505050506040513d601f19601f8201168201806040525081019061018691906104a3565b90506000826001600160a01b031663d21220a76040518163ffffffff1660e01b8152600401602060405180830381865afa1580156101c8573d6000803e3d6000fd5b505050506040513d601f19601f820116820180604052508101906101ec91906104a3565b90506001600160a01b0382166102355760405162461bcd60e51b815260206004820152600e60248201526d0496e76616c696420746f6b656e360941b604482015260640161007e565b6001600160a01b03811661027c5760405162461bcd60e51b815260206004820152600e60248201526d496e76616c696420746f6b656e3160901b604482015260640161007e565b6001600160a01b0385811690831614801561035857856001600160a01b0316836001600160a01b0316146102f25760405162461bcd60e51b815260206004820152601660248201527f496e76616c696420746f6b656e3020666f72206e756d00000000000000000000604482015260640161007e565b846001600160a01b0316826001600160a01b0316146103535760405162461bcd60e51b815260206004820152601860248201527f496e76616c696420746f6b656e3120666f722064656e6f6d0000000000000000604482015260640161007e565b61041a565b846001600160a01b0316836001600160a01b0316146103b95760405162461bcd60e51b815260206004820152601860248201527f496e76616c696420746f6b656e3020666f722064656e6f6d0000000000000000604482015260640161007e565b856001600160a01b0316826001600160a01b03161461041a5760405162461bcd60e51b815260206004820152601660248201527f496e76616c696420746f6b656e3120666f72206e756d00000000000000000000604482015260640161007e565b6001600160a01b0395861660805293851660a052505090911660c052151560e052506104c5915050565b80516001600160a01b038116811461045b57600080fd5b919050565b60008060006060848603121561047557600080fd5b61047e84610444565b925061048c60208501610444565b915061049a60408501610444565b90509250925092565b6000602082840312156104b557600080fd5b6104be82610444565b9392505050565b60805160a05160c05160e051610fd261058f60003960008181609a0152818161075e015281816107cc0152818161088a015281816109ab01528181610a190152610ad701526000818161033a01528181610735015281816107920152818161098201526109df01526000818161014101528181610211015281816102c9015281816108eb01528181610921015261096001526000818160fa015281816101ca01528181610288015281816105c2015281816106d1015281816107130152610b250152610fd26000f3fe608060405234801561001057600080fd5b50600436106100575760003560e01c80630ca968481461005c5780636aa8f93514610082578063c1f5441b14610095578063e9fad8ee146100c5578063fa461e33146100cd575b600080fd5b61006f61006a366004610dcb565b6100e2565b6040519081526020015b60405180910390f35b61006f610090366004610dcb565b6101b2565b6040517f000000000000000000000000000000000000000000000000000000000000000015158152602001610079565b61006f61026e565b6100e06100db366004610dfb565b610337565b005b60006100ec610477565b6100f683836104a1565b90507f00000000000000000000000000000000000000000000000000000000000000006001600160a01b0316826001600160a01b03166101333390565b604080516001600160a01b037f000000000000000000000000000000000000000000000000000000000000000081168252602082018990529181018690529116907f853fb39c5c01f1031827766c39f1475f087b492d2bdd496a3d508396a4197dde906060015b60405180910390a46101ac6001600055565b92915050565b60006101bc610477565b6101c6838361054b565b90507f00000000000000000000000000000000000000000000000000000000000000006001600160a01b0316826001600160a01b03166102033390565b604080516001600160a01b037f000000000000000000000000000000000000000000000000000000000000000081168252602082018990529181018690529116907fdc1bad1f0adb87cc5006747d4338143df93e4705c75220867b41c70a96e75fa39060600161019a565b6000610278610477565b60006102826105b5565b925090507f00000000000000000000000000000000000000000000000000000000000000006001600160a01b0316336001600160a01b031633604080516001600160a01b037f000000000000000000000000000000000000000000000000000000000000000081168252602082018790529181018790529116907f853fb39c5c01f1031827766c39f1475f087b492d2bdd496a3d508396a4197dde9060600160405180910390a4506103346001600055565b90565b337f00000000000000000000000000000000000000000000000000000000000000006001600160a01b0316146103a55760405162461bcd60e51b815260206004820152600e60248201526d24b73b30b634b21031b0b63632b960911b60448201526064015b60405180910390fd5b6000841315610425576104253385336001600160a01b0316630dfe16816040518163ffffffff1660e01b8152600401602060405180830381865afa1580156103f1573d6000803e3d6000fd5b505050506040513d601f19601f820116820180604052508101906104159190610e7e565b6001600160a01b03169190610662565b6000831315610471576104713384336001600160a01b031663d21220a76040518163ffffffff1660e01b8152600401602060405180830381865afa1580156103f1573d6000803e3d6000fd5b50505050565b60026000540361049a57604051633ee5aeb560e01b815260040160405180910390fd5b6002600055565b60008083116104e35760405162461bcd60e51b815260206004820152600e60248201526d125b9d985b1a5908185b5bdd5b9d60921b604482015260640161039c565b6001600160a01b03821661052d5760405162461bcd60e51b8152602060048201526011602482015270125b9d985b1a59081c9958da5c1a595b9d607a1b604482015260640161039c565b610536836106c6565b61053f83610704565b90506101ac81836108d8565b60006001600160a01b0382166105975760405162461bcd60e51b8152602060048201526011602482015270125b9d985b1a59081c9958da5c1a595b9d607a1b604482015260640161039c565b6105a083610916565b6105a983610951565b90506101ac8183610b12565b6000806001600160a01b037f0000000000000000000000000000000000000000000000000000000000000000166370a08231336040516001600160e01b031960e084901b1681526001600160a01b039091166004820152602401602060405180830381865afa15801561062c573d6000803e3d6000fd5b505050506040513d601f19601f820116820180604052508101906106509190610ea2565b915061065c82336104a1565b90509091565b6040516001600160a01b038381166024830152604482018390526106c191859182169063a9059cbb906064015b604051602081830303815290604052915060e01b6020820180516001600160e01b038381831617835250505050610b4c565b505050565b8015610701576107017f00000000000000000000000000000000000000000000000000000000000000006001600160a01b0316333084610bbd565b50565b600061075a6001600160a01b037f0000000000000000000000000000000000000000000000000000000000000000167f000000000000000000000000000000000000000000000000000000000000000084610bf6565b60007f000000000000000000000000000000000000000000000000000000000000000061078857600061078b565b60015b90506000807f00000000000000000000000000000000000000000000000000000000000000006001600160a01b031663128acb0830856107ca89610c80565b7f00000000000000000000000000000000000000000000000000000000000000006108135761080e600173fffd8963efd1fc6a506488495d951d5263988d26610ed1565b610823565b6108236401000276a36001610ef0565b6040518563ffffffff1660e01b81526004016108429493929190610f0f565b60408051808303816000875af1158015610860573d6000803e3d6000fd5b505050506040513d601f19601f820116820180604052508101906108849190610f49565b915091507f00000000000000000000000000000000000000000000000000000000000000006108c3576108be6108b983610f6d565b610cb1565b6108cf565b6108cf6108b982610f6d565b95945050505050565b8115610912576109126001600160a01b037f0000000000000000000000000000000000000000000000000000000000000000168284610662565b5050565b8015610701576107017f00000000000000000000000000000000000000000000000000000000000000006001600160a01b0316333084610bbd565b60006109a76001600160a01b037f0000000000000000000000000000000000000000000000000000000000000000167f000000000000000000000000000000000000000000000000000000000000000084610bf6565b60007f00000000000000000000000000000000000000000000000000000000000000006109d55760016109d8565b60005b90506000807f00000000000000000000000000000000000000000000000000000000000000006001600160a01b031663128acb083085610a1789610c80565b7f0000000000000000000000000000000000000000000000000000000000000000610a5157610a4c6401000276a36001610ef0565b610a70565b610a70600173fffd8963efd1fc6a506488495d951d5263988d26610ed1565b6040518563ffffffff1660e01b8152600401610a8f9493929190610f0f565b60408051808303816000875af1158015610aad573d6000803e3d6000fd5b505050506040513d601f19601f82011682018060405250810190610ad19190610f49565b915091507f0000000000000000000000000000000000000000000000000000000000000000610b06576108be6108b982610f6d565b6108cf6108b983610f6d565b8115610912576109126001600160a01b037f0000000000000000000000000000000000000000000000000000000000000000168284610662565b600080602060008451602086016000885af180610b6f576040513d6000823e3d81fd5b50506000513d91508115610b87578060011415610b94565b6001600160a01b0384163b155b1561047157604051635274afe760e01b81526001600160a01b038516600482015260240161039c565b6040516001600160a01b0384811660248301528381166044830152606482018390526104719186918216906323b872dd9060840161068f565b604051636eb1769f60e11b81523060048201526001600160a01b0383811660248301526000919085169063dd62ed3e90604401602060405180830381865afa158015610c46573d6000803e3d6000fd5b505050506040513d601f19601f82011682018060405250810190610c6a9190610ea2565b90506104718484610c7b8585610f89565b610cd7565b60006001600160ff1b03821115610cad5760405163123baf0360e11b81526004810183905260240161039c565b5090565b600080821215610cad57604051635467221960e11b81526004810183905260240161039c565b604080516001600160a01b038416602482015260448082018490528251808303909101815260649091019091526020810180516001600160e01b031663095ea7b360e01b179052610d288482610d67565b610471576040516001600160a01b03848116602483015260006044830152610d5d91869182169063095ea7b39060640161068f565b6104718482610b4c565b6000806000806020600086516020880160008a5af192503d91506000519050828015610dac57508115610d9d5780600114610dac565b6000866001600160a01b03163b115b9695505050505050565b6001600160a01b038116811461070157600080fd5b60008060408385031215610dde57600080fd5b823591506020830135610df081610db6565b809150509250929050565b60008060008060608587031215610e1157600080fd5b8435935060208501359250604085013567ffffffffffffffff811115610e3657600080fd5b8501601f81018713610e4757600080fd5b803567ffffffffffffffff811115610e5e57600080fd5b876020828401011115610e7057600080fd5b949793965060200194505050565b600060208284031215610e9057600080fd5b8151610e9b81610db6565b9392505050565b600060208284031215610eb457600080fd5b5051919050565b634e487b7160e01b600052601160045260246000fd5b6001600160a01b0382811682821603908111156101ac576101ac610ebb565b6001600160a01b0381811683821601908111156101ac576101ac610ebb565b6001600160a01b03948516815292151560208401526040830191909152909116606082015260a06080820181905260009082015260c00190565b60008060408385031215610f5c57600080fd5b505080516020909101519092909150565b6000600160ff1b8201610f8257610f82610ebb565b5060000390565b808201808211156101ac576101ac610ebb56fea26469706673582212208efcb14b538677bdd97f7563bd2a258aede1b3231354428141c115c9601b9c0c64736f6c634300081c0033",
  "devdoc": {
    "details": "Token router to swap between the game token and a yielding asset token",
    "errors": {
      "ReentrancyGuardReentrantCall()": [
        {
          "details": "Unauthorized reentrant call."
        }
      ],
      "SafeCastOverflowedIntToUint(int256)": [
        {
          "details": "An int value doesn't fit in an uint of `bits` size."
        }
      ],
      "SafeCastOverflowedUintToInt(uint256)": [
        {
          "details": "An uint value doesn't fit in an int of `bits` size."
        }
      ],
      "SafeERC20FailedOperation(address)": [
        {
          "details": "An operation with an ERC-20 token failed."
        }
      ]
    },
    "events": {
      "GameTokenBought(address,address,address,address,uint256,uint256)": {
        "details": "Emitted when POW1 is purchased with the asset token or POW5 is purchased with the stable token",
        "params": {
          "assetTokenAddress": "The amount of the asset token being spent",
          "gameTokenAddress": "The address of the POW1 or POW5 token contract",
          "pow1Returned": "The amount of POW1 received",
          "recipient": "The address of the recipient of the POW1",
          "sender": "The sender of the asset token"
        }
      },
      "GameTokenSold(address,address,address,address,uint256,uint256)": {
        "details": "Emitted when POW1 is sold for the asset token or POW5 is sold for the stable token",
        "params": {
          "assetTokenReturned": "The amount of the asset token received",
          "gameTokenAddress": "The address of the POW1 or POW5 token contract",
          "pow1Amount": "The amount of POW1 being spent",
          "recipient": "The address of the recipient of the asset token",
          "sender": "The sender of the game token"
        }
      }
    },
    "kind": "dev",
    "methods": {
      "buyGameToken(uint256,address)": {
        "details": "See {IGameTokenSwapper-buyGameToken}"
      },
      "constructor": {
        "details": "Initializes the contract",
        "params": {
          "marketToken_": "The address of the market token",
          "pow5MarketPool_": "The address of the pool contract for the token pair",
          "pow5Token_": "The address of the POW5 token"
        }
      },
      "exit()": {
        "details": "See {IGameTokenSwapper-exit}"
      },
      "gameIsToken0()": {
        "details": "See {IGameTokenSwapper-gameIsToken0}"
      },
      "sellGameToken(uint256,address)": {
        "details": "See {IGameTokenSwapper-sellGameToken}"
      },
      "uniswapV3SwapCallback(int256,int256,bytes)": {
        "details": "See {IUniswapV3SwapCallback-uniswapV3SwapCallback} This function is called to the sender after a swap is executed on Uniswap V3. The pool tokens owed for the swap must be payed. The caller of this method must be checked to be a UniswapV3Pool deployed by the canonical UniswapV3Factory. amount0Delta and amount1Delta can both be 0 if no tokens were swapped."
      }
    },
    "version": 1
  },
  "userdoc": {
    "kind": "user",
    "methods": {},
    "version": 1
  },
  "storageLayout": {
    "storage": [
      {
        "astId": 6439,
        "contract": "contracts/src/token/routes/POW5StableSwapper.sol:POW5StableSwapper",
        "label": "_status",
        "offset": 0,
        "slot": "0",
        "type": "t_uint256"
      }
    ],
    "types": {
      "t_uint256": {
        "encoding": "inplace",
        "label": "uint256",
        "numberOfBytes": "32"
      }
    }
  }
}