{
  "address": "0xd36dd49e8f79FDdf33a35d1a898E936579c1d586",
  "abi": [
    {
      "inputs": [
        {
          "internalType": "address",
          "name": "factory",
          "type": "address"
        },
        {
          "internalType": "address",
          "name": "tokenA",
          "type": "address"
        },
        {
          "internalType": "address",
          "name": "tokenB",
          "type": "address"
        },
        {
          "internalType": "uint24",
          "name": "swapFee",
          "type": "uint24"
        }
      ],
      "stateMutability": "nonpayable",
      "type": "constructor"
    },
    {
      "inputs": [],
      "name": "uniswapV3Pool",
      "outputs": [
        {
          "internalType": "contract IUniswapV3Pool",
          "name": "",
          "type": "address"
        }
      ],
      "stateMutability": "view",
      "type": "function"
    }
  ],
  "transactionHash": "0x55b23f1306310005065e3d770e6e079608138021be6b71e3c4029e8c382c9440",
  "args": [
    "0xbdF78601d83295421afe6C31225b9a1B5a5AD5e6",
    "0x7b589E244173CE2d11d76878C053e25Dd72Ea610",
    "0xfFa7B6120aeA3981C53F2e57AD1f92Af370c9439",
    10000
  ],
  "numDeployments": 1,
  "solcInputHash": "607dfe4437c93ddfbd36914a2ea77f31",
  "bytecode": "0x60a060405234801561001057600080fd5b506040516102f83803806102f883398101604081905261002f916101bb565b6001600160a01b03841661007c5760405162461bcd60e51b815260206004820152600f60248201526e496e76616c696420666163746f727960881b60448201526064015b60405180910390fd5b6001600160a01b0383166100c35760405162461bcd60e51b815260206004820152600e60248201526d496e76616c696420746f6b656e4160901b6044820152606401610073565b6001600160a01b03821661010a5760405162461bcd60e51b815260206004820152600e60248201526d24b73b30b634b2103a37b5b2b72160911b6044820152606401610073565b60405163a167129560e01b81526001600160a01b038481166004830152838116602483015262ffffff8316604483015285169063a1671295906064016020604051808303816000875af1158015610165573d6000803e3d6000fd5b505050506040513d601f19601f820116820180604052508101906101899190610219565b6001600160a01b03166080525061023b92505050565b80516001600160a01b03811681146101b657600080fd5b919050565b600080600080608085870312156101d157600080fd5b6101da8561019f565b93506101e86020860161019f565b92506101f66040860161019f565b9150606085015162ffffff8116811461020e57600080fd5b939692955090935050565b60006020828403121561022b57600080fd5b6102348261019f565b9392505050565b60805160a561025360003960006031015260a56000f3fe6080604052348015600f57600080fd5b506004361060285760003560e01c8063f55ebd2a14602d575b600080fd5b60537f000000000000000000000000000000000000000000000000000000000000000081565b6040516001600160a01b03909116815260200160405180910390f3fea2646970667358221220ef655e213e6fbdd8e7276b06f1527677a6fa85e99341fab740894941b78dddac64736f6c634300081c0033",
  "devdoc": {
    "details": "Helper contract to create a Uniswap V3 pool using a provided IUniswapV3Factory This is a helper contract for the deployment of dependencies on test networks. The pool is created in the constructor and stored in a member variable so that it can be read back without the deployment system having to store or parse transaction receipts. Note: Because upstream Uniswap sources are mixed with our own, a convention is adopted to distinguish between the two. Uniswap sources are prefixed with \"uniswapV3\" and our own are prefixed with \"uniV3\".",
    "kind": "dev",
    "methods": {
      "constructor": {
        "details": "Construct the test pool instance",
        "params": {
          "factory": "The contract address of the Uniswap V3 factory",
          "swapFee": "The fee collected upon every swap in the pool, denominated                in hundredths of a bip The constructor creates a pool for the given two tokens and fee. tokenA and tokenB may be passed in either order: token0/token1 or token1/token0. token0 is taken to be the lower address (see UniswapV3Factory.sol).",
          "tokenA": "One of the two tokens in the desired pool",
          "tokenB": "The other of the two tokens in the desired pool"
        }
      }
    },
    "stateVariables": {
      "uniswapV3Pool": {
        "details": "The address of the pool for this token pair"
      }
    },
    "version": 1
  },
  "userdoc": {
    "kind": "user",
    "methods": {},
    "version": 1
  },
  "storageLayout": {
    "storage": [],
    "types": null
  }
}