{
  "address": "0xbE8178365C88851CA1BdB326E13CBA2A3bdc64c1",
  "abi": [
    {
      "inputs": [
        {
          "internalType": "address",
          "name": "owner_",
          "type": "address"
        },
        {
          "internalType": "address",
          "name": "rewardToken_",
          "type": "address"
        },
        {
          "internalType": "uint256",
          "name": "rewardRate_",
          "type": "uint256"
        }
      ],
      "stateMutability": "nonpayable",
      "type": "constructor"
    },
    {
      "inputs": [],
      "name": "AccessControlBadConfirmation",
      "type": "error"
    },
    {
      "inputs": [
        {
          "internalType": "address",
          "name": "account",
          "type": "address"
        },
        {
          "internalType": "bytes32",
          "name": "neededRole",
          "type": "bytes32"
        }
      ],
      "name": "AccessControlUnauthorizedAccount",
      "type": "error"
    },
    {
      "inputs": [],
      "name": "ReentrancyGuardReentrantCall",
      "type": "error"
    },
    {
      "inputs": [
        {
          "internalType": "address",
          "name": "token",
          "type": "address"
        }
      ],
      "name": "SafeERC20FailedOperation",
      "type": "error"
    },
    {
      "anonymous": false,
      "inputs": [
        {
          "indexed": true,
          "internalType": "bytes32",
          "name": "role",
          "type": "bytes32"
        },
        {
          "indexed": true,
          "internalType": "bytes32",
          "name": "previousAdminRole",
          "type": "bytes32"
        },
        {
          "indexed": true,
          "internalType": "bytes32",
          "name": "newAdminRole",
          "type": "bytes32"
        }
      ],
      "name": "RoleAdminChanged",
      "type": "event"
    },
    {
      "anonymous": false,
      "inputs": [
        {
          "indexed": true,
          "internalType": "bytes32",
          "name": "role",
          "type": "bytes32"
        },
        {
          "indexed": true,
          "internalType": "address",
          "name": "account",
          "type": "address"
        },
        {
          "indexed": true,
          "internalType": "address",
          "name": "sender",
          "type": "address"
        }
      ],
      "name": "RoleGranted",
      "type": "event"
    },
    {
      "anonymous": false,
      "inputs": [
        {
          "indexed": true,
          "internalType": "bytes32",
          "name": "role",
          "type": "bytes32"
        },
        {
          "indexed": true,
          "internalType": "address",
          "name": "account",
          "type": "address"
        },
        {
          "indexed": true,
          "internalType": "address",
          "name": "sender",
          "type": "address"
        }
      ],
      "name": "RoleRevoked",
      "type": "event"
    },
    {
      "inputs": [],
      "name": "DEFAULT_ADMIN_ROLE",
      "outputs": [
        {
          "internalType": "bytes32",
          "name": "",
          "type": "bytes32"
        }
      ],
      "stateMutability": "view",
      "type": "function"
    },
    {
      "inputs": [],
      "name": "ERC20_FARM_OPERATOR_ROLE",
      "outputs": [
        {
          "internalType": "bytes32",
          "name": "",
          "type": "bytes32"
        }
      ],
      "stateMutability": "view",
      "type": "function"
    },
    {
      "inputs": [
        {
          "internalType": "address",
          "name": "account",
          "type": "address"
        }
      ],
      "name": "balanceOf",
      "outputs": [
        {
          "internalType": "uint256",
          "name": "",
          "type": "uint256"
        }
      ],
      "stateMutability": "view",
      "type": "function"
    },
    {
      "inputs": [
        {
          "internalType": "address",
          "name": "lpSftAddress",
          "type": "address"
        }
      ],
      "name": "claimReward",
      "outputs": [],
      "stateMutability": "nonpayable",
      "type": "function"
    },
    {
      "inputs": [
        {
          "internalType": "address",
          "name": "account",
          "type": "address"
        }
      ],
      "name": "earned",
      "outputs": [
        {
          "internalType": "uint256",
          "name": "",
          "type": "uint256"
        }
      ],
      "stateMutability": "view",
      "type": "function"
    },
    {
      "inputs": [
        {
          "internalType": "bytes32",
          "name": "role",
          "type": "bytes32"
        }
      ],
      "name": "getRoleAdmin",
      "outputs": [
        {
          "internalType": "bytes32",
          "name": "",
          "type": "bytes32"
        }
      ],
      "stateMutability": "view",
      "type": "function"
    },
    {
      "inputs": [
        {
          "internalType": "bytes32",
          "name": "role",
          "type": "bytes32"
        },
        {
          "internalType": "address",
          "name": "account",
          "type": "address"
        }
      ],
      "name": "grantRole",
      "outputs": [],
      "stateMutability": "nonpayable",
      "type": "function"
    },
    {
      "inputs": [
        {
          "internalType": "bytes32",
          "name": "role",
          "type": "bytes32"
        },
        {
          "internalType": "address",
          "name": "account",
          "type": "address"
        }
      ],
      "name": "hasRole",
      "outputs": [
        {
          "internalType": "bool",
          "name": "",
          "type": "bool"
        }
      ],
      "stateMutability": "view",
      "type": "function"
    },
    {
      "inputs": [
        {
          "internalType": "address",
          "name": "lpSftAddress",
          "type": "address"
        },
        {
          "internalType": "uint256",
          "name": "amount",
          "type": "uint256"
        }
      ],
      "name": "recordLoan",
      "outputs": [],
      "stateMutability": "nonpayable",
      "type": "function"
    },
    {
      "inputs": [
        {
          "internalType": "address",
          "name": "lpSftAddress",
          "type": "address"
        },
        {
          "internalType": "uint256",
          "name": "amount",
          "type": "uint256"
        }
      ],
      "name": "recordRepayment",
      "outputs": [],
      "stateMutability": "nonpayable",
      "type": "function"
    },
    {
      "inputs": [
        {
          "internalType": "bytes32",
          "name": "role",
          "type": "bytes32"
        },
        {
          "internalType": "address",
          "name": "callerConfirmation",
          "type": "address"
        }
      ],
      "name": "renounceRole",
      "outputs": [],
      "stateMutability": "nonpayable",
      "type": "function"
    },
    {
      "inputs": [
        {
          "internalType": "bytes32",
          "name": "role",
          "type": "bytes32"
        },
        {
          "internalType": "address",
          "name": "account",
          "type": "address"
        }
      ],
      "name": "revokeRole",
      "outputs": [],
      "stateMutability": "nonpayable",
      "type": "function"
    },
    {
      "inputs": [],
      "name": "rewardPerToken",
      "outputs": [
        {
          "internalType": "uint256",
          "name": "",
          "type": "uint256"
        }
      ],
      "stateMutability": "view",
      "type": "function"
    },
    {
      "inputs": [],
      "name": "rewardToken",
      "outputs": [
        {
          "internalType": "contract IERC20",
          "name": "",
          "type": "address"
        }
      ],
      "stateMutability": "view",
      "type": "function"
    },
    {
      "inputs": [
        {
          "internalType": "bytes4",
          "name": "interfaceId",
          "type": "bytes4"
        }
      ],
      "name": "supportsInterface",
      "outputs": [
        {
          "internalType": "bool",
          "name": "",
          "type": "bool"
        }
      ],
      "stateMutability": "view",
      "type": "function"
    },
    {
      "inputs": [],
      "name": "totalLiquidity",
      "outputs": [
        {
          "internalType": "uint256",
          "name": "",
          "type": "uint256"
        }
      ],
      "stateMutability": "view",
      "type": "function"
    }
  ],
  "transactionHash": "0x6cf3f28c4b39b5341bb8b86fdd33717dfad3e226d8cb84e63be7947b836fcc92",
  "args": [
    "0x5Eb8d8a368B1F1A9de0c2E489e270d7AFD389C3C",
    "0x3414381EF8d64a2c0E8eC785553534122312787e",
    "1000000000000000000"
  ],
  "numDeployments": 1,
  "solcInputHash": "607dfe4437c93ddfbd36914a2ea77f31",
  "bytecode": "0x60a060405234801561001057600080fd5b50604051610e47380380610e4783398101604081905261002f916101fd565b60016000556001600160a01b03831661007f5760405162461bcd60e51b815260206004820152600d60248201526c24b73b30b634b21037bbb732b960991b60448201526064015b60405180910390fd5b6001600160a01b0382166100d55760405162461bcd60e51b815260206004820152601460248201527f496e76616c69642072657761726420746f6b656e0000000000000000000000006044820152606401610076565b600081116101255760405162461bcd60e51b815260206004820152601360248201527f496e76616c6964207265776172642072617465000000000000000000000000006044820152606401610076565b61013060008461014c565b506001600160a01b039091166080526002555042600455610239565b60008281526001602090815260408083206001600160a01b038516845290915281205460ff166101d75760008381526001602081815260408084206001600160a01b0387168086529252808420805460ff19169093179092559051339286917f2f8788117e7eff1d82e926ec794901d17c78024a50270940304540a733656f0d9190a45060016101db565b5060005b92915050565b80516001600160a01b03811681146101f857600080fd5b919050565b60008060006060848603121561021257600080fd5b61021b846101e1565b9250610229602085016101e1565b9150604084015190509250925092565b608051610bec61025b6000396000818161023e015261069f0152610bec6000f3fe608060405234801561001057600080fd5b50600436106100ff5760003560e01c806370a0823111610097578063d279c19111610066578063d279c19114610213578063d547741f14610226578063f7c618c114610239578063fb41ec731461027857600080fd5b806370a08231146101c757806391d14854146101f0578063a217fddf14610203578063cd3daf9d1461020b57600080fd5b8063239c3df8116100d3578063239c3df81461016a578063248a9ca31461017d5780632f2ff15d146101a157806336568abe146101b457600080fd5b80628cc2621461010457806301ffc9a71461012a57806315770f921461014d5780631922bb6f14610155575b600080fd5b610117610112366004610a56565b61029a565b6040519081526020015b60405180910390f35b61013d610138366004610a78565b6102e1565b6040519015158152602001610121565b600354610117565b610168610163366004610aa2565b61030c565b005b610168610178366004610aa2565b610402565b61011761018b366004610acc565b6000908152600160208190526040909120015490565b6101686101af366004610ae5565b610552565b6101686101c2366004610ae5565b61057e565b6101176101d5366004610a56565b6001600160a01b031660009081526006602052604090205490565b61013d6101fe366004610ae5565b6105b6565b610117600081565b6101176105e1565b610168610221366004610a56565b610610565b610168610234366004610ae5565b6106dc565b6102607f000000000000000000000000000000000000000000000000000000000000000081565b6040516001600160a01b039091168152602001610121565b6101177745524332305f4641524d5f4f50455241544f525f524f4c4560401b81565b60006102db6102a76105e1565b6001600160a01b03841660009081526007602090815260408083205460088352818420546006909352922054929190610702565b92915050565b60006102ec82610749565b806102db57506001600160e01b03198216637463a38360e11b1492915050565b61031461077e565b6103387745524332305f4641524d5f4f50455241544f525f524f4c4560401b6107a8565b6001600160a01b0382166103675760405162461bcd60e51b815260040161035e90610b11565b60405180910390fd5b600081116103a85760405162461bcd60e51b815260206004820152600e60248201526d043616e6e6f74207374616b6520360941b604482015260640161035e565b6103b1826107b2565b80600360008282546103c39190610b57565b90915550506001600160a01b038216600090815260066020526040812080548392906103f0908490610b57565b909155505060016000555050565b5050565b61040a61077e565b61042e7745524332305f4641524d5f4f50455241544f525f524f4c4560401b6107a8565b6001600160a01b0382166104545760405162461bcd60e51b815260040161035e90610b11565b600081116104985760405162461bcd60e51b8152602060048201526011602482015270043616e6e6f74207769746864726177203607c1b604482015260640161035e565b6001600160a01b03821660009081526006602052604090205481111561050a5760405162461bcd60e51b815260206004820152602160248201527f5769746864726177616c20616d6f756e7420657863656564732062616c616e636044820152606560f81b606482015260840161035e565b610513826107b2565b80600360008282546105259190610b6a565b90915550506001600160a01b038216600090815260066020526040812080548392906103f0908490610b6a565b6000828152600160208190526040909120015461056e816107a8565b6105788383610807565b50505050565b6001600160a01b03811633146105a75760405163334bd91960e11b815260040160405180910390fd5b6105b18282610880565b505050565b60009182526001602090815260408084206001600160a01b0393909316845291905290205460ff1690565b600080600454426105f29190610b6a565b60025460035460055492935061060a929184916108ed565b91505090565b61061861077e565b61063c7745524332305f4641524d5f4f50455241544f525f524f4c4560401b6107a8565b6001600160a01b0381166106625760405162461bcd60e51b815260040161035e90610b11565b61066b816107b2565b6001600160a01b03811660009081526008602052604090205480156106ce57336000908152600860205260408120556106ce7f00000000000000000000000000000000000000000000000000000000000000006001600160a01b0316838361093e565b506106d96001600055565b50565b600082815260016020819052604090912001546106f8816107a8565b6105788383610880565b60008061070f8486610b6a565b90506000670de0b6b3a76400006107268389610b7d565b6107309190610b94565b905061073c8482610b57565b925050505b949350505050565b60006001600160e01b03198216637965db0b60e01b14806102db57506301ffc9a760e01b6001600160e01b03198316146102db565b6002600054036107a157604051633ee5aeb560e01b815260040160405180910390fd5b6002600055565b6106d98133610990565b6107ba6105e1565b600555426004556001600160a01b038116156106d9576107d98161029a565b6001600160a01b03821660009081526008602090815260408083209390935560055460079091529190205550565b600061081383836105b6565b6108785760008381526001602081815260408084206001600160a01b0387168086529252808420805460ff19169093179092559051339286917f2f8788117e7eff1d82e926ec794901d17c78024a50270940304540a733656f0d9190a45060016102db565b5060006102db565b600061088c83836105b6565b156108785760008381526001602090815260408083206001600160a01b0386168085529252808320805460ff1916905551339286917ff6391f5c32d9c69d2a47ea670b442974b53935d1edc7fd64eb21e047a839171b9190a45060016102db565b6000816000036108fe575083610741565b600082670de0b6b3a76400006109148688610b7d565b61091e9190610b7d565b6109289190610b94565b90506109348187610b57565b9695505050505050565b604080516001600160a01b038416602482015260448082018490528251808303909101815260649091019091526020810180516001600160e01b031663a9059cbb60e01b1790526105b19084906109c9565b61099a82826105b6565b6103fe5760405163e2517d3f60e01b81526001600160a01b03821660048201526024810183905260440161035e565b600080602060008451602086016000885af1806109ec576040513d6000823e3d81fd5b50506000513d91508115610a04578060011415610a11565b6001600160a01b0384163b155b1561057857604051635274afe760e01b81526001600160a01b038516600482015260240161035e565b80356001600160a01b0381168114610a5157600080fd5b919050565b600060208284031215610a6857600080fd5b610a7182610a3a565b9392505050565b600060208284031215610a8a57600080fd5b81356001600160e01b031981168114610a7157600080fd5b60008060408385031215610ab557600080fd5b610abe83610a3a565b946020939093013593505050565b600060208284031215610ade57600080fd5b5035919050565b60008060408385031215610af857600080fd5b82359150610b0860208401610a3a565b90509250929050565b602080825260169082015275496e76616c6964204c502d534654206164647265737360501b604082015260600190565b634e487b7160e01b600052601160045260246000fd5b808201808211156102db576102db610b41565b818103818111156102db576102db610b41565b80820281158282048414176102db576102db610b41565b600082610bb157634e487b7160e01b600052601260045260246000fd5b50049056fea264697066735822122069f8f32b213124e8c241bd76233882dd54612e39550a8e1ef18e0167ba25b23164736f6c634300081c0033",
  "devdoc": {
    "details": "A contract to lend ERC20 tokens and earn rewards based on lending duration and amounts Rewards are calculated based on the amount of time and tokens loaned. Rewards are updated on every interaction.",
    "errors": {
      "AccessControlBadConfirmation()": [
        {
          "details": "The caller of a function is not the expected one. NOTE: Don't confuse with {AccessControlUnauthorizedAccount}."
        }
      ],
      "AccessControlUnauthorizedAccount(address,bytes32)": [
        {
          "details": "The `account` is missing a role."
        }
      ],
      "ReentrancyGuardReentrantCall()": [
        {
          "details": "Unauthorized reentrant call."
        }
      ],
      "SafeERC20FailedOperation(address)": [
        {
          "details": "An operation with an ERC-20 token failed."
        }
      ]
    },
    "events": {
      "RoleAdminChanged(bytes32,bytes32,bytes32)": {
        "details": "Emitted when `newAdminRole` is set as ``role``'s admin role, replacing `previousAdminRole` `DEFAULT_ADMIN_ROLE` is the starting admin for all roles, despite {RoleAdminChanged} not being emitted signaling this."
      },
      "RoleGranted(bytes32,address,address)": {
        "details": "Emitted when `account` is granted `role`. `sender` is the account that originated the contract call. This account bears the admin role (for the granted role). Expected in cases where the role was granted using the internal {AccessControl-_grantRole}."
      },
      "RoleRevoked(bytes32,address,address)": {
        "details": "Emitted when `account` is revoked `role`. `sender` is the account that originated the contract call:   - if using `revokeRole`, it is the admin role bearer   - if using `renounceRole`, it is the role bearer (i.e. `account`)"
      }
    },
    "kind": "dev",
    "methods": {
      "balanceOf(address)": {
        "details": "See {IFarm-balanceOf}"
      },
      "claimReward(address)": {
        "details": "See {IERC20InterestFarm-claimReward}"
      },
      "constructor": {
        "details": "Initializes the staking pool with the staking and reward tokens",
        "params": {
          "owner_": "The owner of the contract",
          "rewardRate_": "The reward rate per second per loaned token",
          "rewardToken_": "The address of the reward token"
        }
      },
      "earned(address)": {
        "details": "See {IFarm-earned}"
      },
      "getRoleAdmin(bytes32)": {
        "details": "Returns the admin role that controls `role`. See {grantRole} and {revokeRole}. To change a role's admin, use {_setRoleAdmin}."
      },
      "grantRole(bytes32,address)": {
        "details": "Grants `role` to `account`. If `account` had not been already granted `role`, emits a {RoleGranted} event. Requirements: - the caller must have ``role``'s admin role. May emit a {RoleGranted} event."
      },
      "hasRole(bytes32,address)": {
        "details": "Returns `true` if `account` has been granted `role`."
      },
      "recordLoan(address,uint256)": {
        "details": "See {IERC20InterestFarm-recordLoan}"
      },
      "recordRepayment(address,uint256)": {
        "details": "See {IERC20InterestFarm-recordRepayment}"
      },
      "renounceRole(bytes32,address)": {
        "details": "Revokes `role` from the calling account. Roles are often managed via {grantRole} and {revokeRole}: this function's purpose is to provide a mechanism for accounts to lose their privileges if they are compromised (such as when a trusted device is misplaced). If the calling account had been revoked `role`, emits a {RoleRevoked} event. Requirements: - the caller must be `callerConfirmation`. May emit a {RoleRevoked} event."
      },
      "revokeRole(bytes32,address)": {
        "details": "Revokes `role` from `account`. If `account` had been granted `role`, emits a {RoleRevoked} event. Requirements: - the caller must have ``role``'s admin role. May emit a {RoleRevoked} event."
      },
      "rewardPerToken()": {
        "details": "See {IFarm-rewardPerToken}"
      },
      "supportsInterface(bytes4)": {
        "details": "See {IERC165-supportsInterface}"
      },
      "totalLiquidity()": {
        "details": "See {IFarm-totalLoaned}"
      }
    },
    "stateVariables": {
      "ERC20_FARM_OPERATOR_ROLE": {
        "details": "Role allowing an address to deposit tokens into the pool"
      },
      "_lastUpdateTime": {
        "details": "Timestamp of the last reward update, used to calculate reward accruals"
      },
      "_rewardPerTokenStored": {
        "details": "Total rewards per token stored, updated upon changes to state affecting reward calculations"
      },
      "_rewardRate": {
        "details": "Reward rate per second per loaned token, scaled by 1e18 for precision"
      },
      "_rewards": {
        "details": "Mapping of user addresses to their accrued but not yet claimed rewards"
      },
      "_totalLoaned": {
        "details": "Total amount of tokens currently loaned in the pool"
      },
      "_userRewardPerTokenPaid": {
        "details": "Mapping of user addresses to the last recorded reward per token paid Used to calculate earned rewards."
      },
      "_userStaked": {
        "details": "Mapping of user addresses to their loaned token amounts"
      },
      "rewardToken": {
        "details": "The reward token distributed to stakers"
      }
    },
    "version": 1
  },
  "userdoc": {
    "kind": "user",
    "methods": {},
    "version": 1
  },
  "storageLayout": {
    "storage": [
      {
        "astId": 6439,
        "contract": "contracts/src/defi/ERC20InterestFarm.sol:ERC20InterestFarm",
        "label": "_status",
        "offset": 0,
        "slot": "0",
        "type": "t_uint256"
      },
      {
        "astId": 2343,
        "contract": "contracts/src/defi/ERC20InterestFarm.sol:ERC20InterestFarm",
        "label": "_roles",
        "offset": 0,
        "slot": "1",
        "type": "t_mapping(t_bytes32,t_struct(RoleData)2338_storage)"
      },
      {
        "astId": 22042,
        "contract": "contracts/src/defi/ERC20InterestFarm.sol:ERC20InterestFarm",
        "label": "_rewardRate",
        "offset": 0,
        "slot": "2",
        "type": "t_uint256"
      },
      {
        "astId": 22045,
        "contract": "contracts/src/defi/ERC20InterestFarm.sol:ERC20InterestFarm",
        "label": "_totalLoaned",
        "offset": 0,
        "slot": "3",
        "type": "t_uint256"
      },
      {
        "astId": 22048,
        "contract": "contracts/src/defi/ERC20InterestFarm.sol:ERC20InterestFarm",
        "label": "_lastUpdateTime",
        "offset": 0,
        "slot": "4",
        "type": "t_uint256"
      },
      {
        "astId": 22051,
        "contract": "contracts/src/defi/ERC20InterestFarm.sol:ERC20InterestFarm",
        "label": "_rewardPerTokenStored",
        "offset": 0,
        "slot": "5",
        "type": "t_uint256"
      },
      {
        "astId": 22056,
        "contract": "contracts/src/defi/ERC20InterestFarm.sol:ERC20InterestFarm",
        "label": "_userStaked",
        "offset": 0,
        "slot": "6",
        "type": "t_mapping(t_address,t_uint256)"
      },
      {
        "astId": 22061,
        "contract": "contracts/src/defi/ERC20InterestFarm.sol:ERC20InterestFarm",
        "label": "_userRewardPerTokenPaid",
        "offset": 0,
        "slot": "7",
        "type": "t_mapping(t_address,t_uint256)"
      },
      {
        "astId": 22066,
        "contract": "contracts/src/defi/ERC20InterestFarm.sol:ERC20InterestFarm",
        "label": "_rewards",
        "offset": 0,
        "slot": "8",
        "type": "t_mapping(t_address,t_uint256)"
      }
    ],
    "types": {
      "t_address": {
        "encoding": "inplace",
        "label": "address",
        "numberOfBytes": "20"
      },
      "t_bool": {
        "encoding": "inplace",
        "label": "bool",
        "numberOfBytes": "1"
      },
      "t_bytes32": {
        "encoding": "inplace",
        "label": "bytes32",
        "numberOfBytes": "32"
      },
      "t_mapping(t_address,t_bool)": {
        "encoding": "mapping",
        "key": "t_address",
        "label": "mapping(address => bool)",
        "numberOfBytes": "32",
        "value": "t_bool"
      },
      "t_mapping(t_address,t_uint256)": {
        "encoding": "mapping",
        "key": "t_address",
        "label": "mapping(address => uint256)",
        "numberOfBytes": "32",
        "value": "t_uint256"
      },
      "t_mapping(t_bytes32,t_struct(RoleData)2338_storage)": {
        "encoding": "mapping",
        "key": "t_bytes32",
        "label": "mapping(bytes32 => struct AccessControl.RoleData)",
        "numberOfBytes": "32",
        "value": "t_struct(RoleData)2338_storage"
      },
      "t_struct(RoleData)2338_storage": {
        "encoding": "inplace",
        "label": "struct AccessControl.RoleData",
        "members": [
          {
            "astId": 2335,
            "contract": "contracts/src/defi/ERC20InterestFarm.sol:ERC20InterestFarm",
            "label": "hasRole",
            "offset": 0,
            "slot": "0",
            "type": "t_mapping(t_address,t_bool)"
          },
          {
            "astId": 2337,
            "contract": "contracts/src/defi/ERC20InterestFarm.sol:ERC20InterestFarm",
            "label": "adminRole",
            "offset": 0,
            "slot": "1",
            "type": "t_bytes32"
          }
        ],
        "numberOfBytes": "64"
      },
      "t_uint256": {
        "encoding": "inplace",
        "label": "uint256",
        "numberOfBytes": "32"
      }
    }
  }
}