{
  "address": "0x8Ce97B1ce0e75e95377fD84B793bBf8B9f85d6f0",
  "abi": [
    {
      "inputs": [
        {
          "internalType": "address",
          "name": "owner_",
          "type": "address"
        },
        {
          "internalType": "address",
          "name": "theReserve_",
          "type": "address"
        }
      ],
      "stateMutability": "nonpayable",
      "type": "constructor"
    },
    {
      "inputs": [],
      "name": "AccessControlBadConfirmation",
      "type": "error"
    },
    {
      "inputs": [
        {
          "internalType": "address",
          "name": "account",
          "type": "address"
        },
        {
          "internalType": "bytes32",
          "name": "neededRole",
          "type": "bytes32"
        }
      ],
      "name": "AccessControlUnauthorizedAccount",
      "type": "error"
    },
    {
      "inputs": [],
      "name": "ReentrancyGuardReentrantCall",
      "type": "error"
    },
    {
      "inputs": [
        {
          "internalType": "address",
          "name": "token",
          "type": "address"
        }
      ],
      "name": "SafeERC20FailedOperation",
      "type": "error"
    },
    {
      "anonymous": false,
      "inputs": [
        {
          "indexed": true,
          "internalType": "bytes32",
          "name": "role",
          "type": "bytes32"
        },
        {
          "indexed": true,
          "internalType": "bytes32",
          "name": "previousAdminRole",
          "type": "bytes32"
        },
        {
          "indexed": true,
          "internalType": "bytes32",
          "name": "newAdminRole",
          "type": "bytes32"
        }
      ],
      "name": "RoleAdminChanged",
      "type": "event"
    },
    {
      "anonymous": false,
      "inputs": [
        {
          "indexed": true,
          "internalType": "bytes32",
          "name": "role",
          "type": "bytes32"
        },
        {
          "indexed": true,
          "internalType": "address",
          "name": "account",
          "type": "address"
        },
        {
          "indexed": true,
          "internalType": "address",
          "name": "sender",
          "type": "address"
        }
      ],
      "name": "RoleGranted",
      "type": "event"
    },
    {
      "anonymous": false,
      "inputs": [
        {
          "indexed": true,
          "internalType": "bytes32",
          "name": "role",
          "type": "bytes32"
        },
        {
          "indexed": true,
          "internalType": "address",
          "name": "account",
          "type": "address"
        },
        {
          "indexed": true,
          "internalType": "address",
          "name": "sender",
          "type": "address"
        }
      ],
      "name": "RoleRevoked",
      "type": "event"
    },
    {
      "inputs": [],
      "name": "DEFAULT_ADMIN_ROLE",
      "outputs": [
        {
          "internalType": "bytes32",
          "name": "",
          "type": "bytes32"
        }
      ],
      "stateMutability": "view",
      "type": "function"
    },
    {
      "inputs": [
        {
          "internalType": "uint256",
          "name": "tokenId",
          "type": "uint256"
        }
      ],
      "name": "exit",
      "outputs": [],
      "stateMutability": "nonpayable",
      "type": "function"
    },
    {
      "inputs": [
        {
          "internalType": "bytes32",
          "name": "role",
          "type": "bytes32"
        }
      ],
      "name": "getRoleAdmin",
      "outputs": [
        {
          "internalType": "bytes32",
          "name": "",
          "type": "bytes32"
        }
      ],
      "stateMutability": "view",
      "type": "function"
    },
    {
      "inputs": [
        {
          "internalType": "bytes32",
          "name": "role",
          "type": "bytes32"
        },
        {
          "internalType": "address",
          "name": "account",
          "type": "address"
        }
      ],
      "name": "grantRole",
      "outputs": [],
      "stateMutability": "nonpayable",
      "type": "function"
    },
    {
      "inputs": [
        {
          "internalType": "bytes32",
          "name": "role",
          "type": "bytes32"
        },
        {
          "internalType": "address",
          "name": "account",
          "type": "address"
        }
      ],
      "name": "hasRole",
      "outputs": [
        {
          "internalType": "bool",
          "name": "",
          "type": "bool"
        }
      ],
      "stateMutability": "view",
      "type": "function"
    },
    {
      "inputs": [
        {
          "internalType": "uint256",
          "name": "pow5Amount",
          "type": "uint256"
        },
        {
          "internalType": "uint256",
          "name": "stableTokenAmount",
          "type": "uint256"
        },
        {
          "internalType": "address",
          "name": "receiver",
          "type": "address"
        }
      ],
      "name": "initialize",
      "outputs": [
        {
          "internalType": "uint256",
          "name": "tokenId",
          "type": "uint256"
        }
      ],
      "stateMutability": "nonpayable",
      "type": "function"
    },
    {
      "inputs": [],
      "name": "lpSft",
      "outputs": [
        {
          "internalType": "contract ILPSFT",
          "name": "",
          "type": "address"
        }
      ],
      "stateMutability": "view",
      "type": "function"
    },
    {
      "inputs": [
        {
          "internalType": "address",
          "name": "",
          "type": "address"
        },
        {
          "internalType": "address",
          "name": "",
          "type": "address"
        },
        {
          "internalType": "uint256[]",
          "name": "",
          "type": "uint256[]"
        },
        {
          "internalType": "uint256[]",
          "name": "",
          "type": "uint256[]"
        },
        {
          "internalType": "bytes",
          "name": "",
          "type": "bytes"
        }
      ],
      "name": "onERC1155BatchReceived",
      "outputs": [
        {
          "internalType": "bytes4",
          "name": "",
          "type": "bytes4"
        }
      ],
      "stateMutability": "nonpayable",
      "type": "function"
    },
    {
      "inputs": [
        {
          "internalType": "address",
          "name": "",
          "type": "address"
        },
        {
          "internalType": "address",
          "name": "",
          "type": "address"
        },
        {
          "internalType": "uint256",
          "name": "",
          "type": "uint256"
        },
        {
          "internalType": "uint256",
          "name": "",
          "type": "uint256"
        },
        {
          "internalType": "bytes",
          "name": "",
          "type": "bytes"
        }
      ],
      "name": "onERC1155Received",
      "outputs": [
        {
          "internalType": "bytes4",
          "name": "",
          "type": "bytes4"
        }
      ],
      "stateMutability": "nonpayable",
      "type": "function"
    },
    {
      "inputs": [
        {
          "internalType": "address",
          "name": "",
          "type": "address"
        },
        {
          "internalType": "address",
          "name": "",
          "type": "address"
        },
        {
          "internalType": "uint256",
          "name": "",
          "type": "uint256"
        },
        {
          "internalType": "bytes",
          "name": "",
          "type": "bytes"
        }
      ],
      "name": "onERC721Received",
      "outputs": [
        {
          "internalType": "bytes4",
          "name": "",
          "type": "bytes4"
        }
      ],
      "stateMutability": "nonpayable",
      "type": "function"
    },
    {
      "inputs": [],
      "name": "pow5LpNftStakeFarm",
      "outputs": [
        {
          "internalType": "contract IUniV3StakeFarm",
          "name": "",
          "type": "address"
        }
      ],
      "stateMutability": "view",
      "type": "function"
    },
    {
      "inputs": [],
      "name": "pow5StablePool",
      "outputs": [
        {
          "internalType": "contract IUniswapV3Pool",
          "name": "",
          "type": "address"
        }
      ],
      "stateMutability": "view",
      "type": "function"
    },
    {
      "inputs": [],
      "name": "pow5StablePooler",
      "outputs": [
        {
          "internalType": "contract IGameTokenPooler",
          "name": "",
          "type": "address"
        }
      ],
      "stateMutability": "view",
      "type": "function"
    },
    {
      "inputs": [],
      "name": "pow5StableSwapper",
      "outputs": [
        {
          "internalType": "contract IGameTokenSwapper",
          "name": "",
          "type": "address"
        }
      ],
      "stateMutability": "view",
      "type": "function"
    },
    {
      "inputs": [],
      "name": "pow5Token",
      "outputs": [
        {
          "internalType": "contract IERC20",
          "name": "",
          "type": "address"
        }
      ],
      "stateMutability": "view",
      "type": "function"
    },
    {
      "inputs": [
        {
          "internalType": "uint256",
          "name": "pow5Amount",
          "type": "uint256"
        },
        {
          "internalType": "uint256",
          "name": "stableTokenAmount",
          "type": "uint256"
        },
        {
          "internalType": "address",
          "name": "receiver",
          "type": "address"
        }
      ],
      "name": "purchase",
      "outputs": [
        {
          "internalType": "uint256",
          "name": "tokenId",
          "type": "uint256"
        }
      ],
      "stateMutability": "nonpayable",
      "type": "function"
    },
    {
      "inputs": [
        {
          "internalType": "bytes32",
          "name": "role",
          "type": "bytes32"
        },
        {
          "internalType": "address",
          "name": "callerConfirmation",
          "type": "address"
        }
      ],
      "name": "renounceRole",
      "outputs": [],
      "stateMutability": "nonpayable",
      "type": "function"
    },
    {
      "inputs": [
        {
          "internalType": "bytes32",
          "name": "role",
          "type": "bytes32"
        },
        {
          "internalType": "address",
          "name": "account",
          "type": "address"
        }
      ],
      "name": "revokeRole",
      "outputs": [],
      "stateMutability": "nonpayable",
      "type": "function"
    },
    {
      "inputs": [],
      "name": "stableToken",
      "outputs": [
        {
          "internalType": "contract IERC20",
          "name": "",
          "type": "address"
        }
      ],
      "stateMutability": "view",
      "type": "function"
    },
    {
      "inputs": [
        {
          "internalType": "bytes4",
          "name": "interfaceId",
          "type": "bytes4"
        }
      ],
      "name": "supportsInterface",
      "outputs": [
        {
          "internalType": "bool",
          "name": "",
          "type": "bool"
        }
      ],
      "stateMutability": "view",
      "type": "function"
    },
    {
      "inputs": [],
      "name": "theReserve",
      "outputs": [
        {
          "internalType": "contract ITheReserve",
          "name": "",
          "type": "address"
        }
      ],
      "stateMutability": "view",
      "type": "function"
    },
    {
      "inputs": [],
      "name": "uniswapV3NftManager",
      "outputs": [
        {
          "internalType": "contract INonfungiblePositionManager",
          "name": "",
          "type": "address"
        }
      ],
      "stateMutability": "view",
      "type": "function"
    }
  ],
  "transactionHash": "0x1e2aa908c56f01bb47d74ff4d0d374a09fde878e202dc8296939d69e56c00b48",
  "args": [
    "0x5Eb8d8a368B1F1A9de0c2E489e270d7AFD389C3C",
    "0xDa87C152723FA5d88D499D1722a2739c5cDaD9Ac"
  ],
  "numDeployments": 1,
  "solcInputHash": "9eaa9fa15edb9065feab4ae045ea31f5",
  "bytecode": "0x6101a060405234801561001157600080fd5b50604051612e1d380380612e1d83398101604081905261003091610653565b60016000556001600160a01b0382166100805760405162461bcd60e51b815260206004820152600d60248201526c24b73b30b634b21037bbb732b960991b60448201526064015b60405180910390fd5b6001600160a01b0381166100d65760405162461bcd60e51b815260206004820152601360248201527f496e76616c6964205468652052657365727665000000000000000000000000006044820152606401610077565b6100e16000836105a6565b506001600160a01b0381166080819052604080516304a4fae960e51b8152905163949f5d20916004808201926020929091908290030181865afa15801561012c573d6000803e3d6000fd5b505050506040513d601f19601f82011682018060405250810190610150919061068d565b6001600160a01b031660a0816001600160a01b031681525050806001600160a01b031663a9d75b2b6040518163ffffffff1660e01b8152600401602060405180830381865afa1580156101a7573d6000803e3d6000fd5b505050506040513d601f19601f820116820180604052508101906101cb919061068d565b6001600160a01b031660c0816001600160a01b031681525050806001600160a01b03166399ba8c0c6040518163ffffffff1660e01b8152600401602060405180830381865afa158015610222573d6000803e3d6000fd5b505050506040513d601f19601f82011682018060405250810190610246919061068d565b6001600160a01b031660e0816001600160a01b031681525050806001600160a01b0316633cc7385b6040518163ffffffff1660e01b8152600401602060405180830381865afa15801561029d573d6000803e3d6000fd5b505050506040513d601f19601f820116820180604052508101906102c1919061068d565b6001600160a01b0316610100816001600160a01b031681525050806001600160a01b0316636361a0d16040518163ffffffff1660e01b8152600401602060405180830381865afa158015610319573d6000803e3d6000fd5b505050506040513d601f19601f8201168201806040525081019061033d919061068d565b6001600160a01b0316610120816001600160a01b031681525050806001600160a01b031663ecfdcb2c6040518163ffffffff1660e01b8152600401602060405180830381865afa158015610395573d6000803e3d6000fd5b505050506040513d601f19601f820116820180604052508101906103b9919061068d565b6001600160a01b0316610140816001600160a01b031681525050806001600160a01b031663a1abfd956040518163ffffffff1660e01b8152600401602060405180830381865afa158015610411573d6000803e3d6000fd5b505050506040513d601f19601f82011682018060405250810190610435919061068d565b6001600160a01b0316610160816001600160a01b031681525050806001600160a01b031663c81fcc956040518163ffffffff1660e01b8152600401602060405180830381865afa15801561048d573d6000803e3d6000fd5b505050506040513d601f19601f820116820180604052508101906104b1919061068d565b6001600160a01b0316610180816001600160a01b031681525050610180516001600160a01b031663a22cb465826001600160a01b031663ecfdcb2c6040518163ffffffff1660e01b8152600401602060405180830381865afa15801561051b573d6000803e3d6000fd5b505050506040513d601f19601f8201168201806040525081019061053f919061068d565b6040516001600160e01b031960e084901b1681526001600160a01b03909116600482015260016024820152604401600060405180830381600087803b15801561058757600080fd5b505af115801561059b573d6000803e3d6000fd5b5050505050506106b1565b60008281526001602090815260408083206001600160a01b038516845290915281205460ff166106315760008381526001602081815260408084206001600160a01b0387168086529252808420805460ff19169093179092559051339286917f2f8788117e7eff1d82e926ec794901d17c78024a50270940304540a733656f0d9190a4506001610635565b5060005b92915050565b6001600160a01b038116811461065057600080fd5b50565b6000806040838503121561066657600080fd5b82516106718161063b565b60208401519092506106828161063b565b809150509250929050565b60006020828403121561069f57600080fd5b81516106aa8161063b565b9392505050565b60805160a05160c05160e051610100516101205161014051610160516101805161259e61087f6000396000818161038e0152610844015260008181610306015281816104de01528181610b2901528181610cb201528181610f140152818161179201526119f40152600081816103db0152818161056801528181610afa01528181610c36015261171601526000818161026b01528181610a6a01528181610abe01528181610ba6015281816115e601528181611640015261168801526000818161020501528181610690015281816106d101528181611294015281816112d50152818161149b01526114dc0152600081816102df0152818161106001528181611177015261137e01526000818161034801528181610760015281816107e001528181610a0b01528181610a9c01528181610e4e01528181610ed601528181611128015281816111a2015281816112720152818161161e0152818161192e01526119b60152600081816102b8015281816105e50152818161066e015281816109d601528181610a4801528181610d8701528181610e0f015281816110ed015281816113a901528181611479015281816115c40152818161186701526118ef01526000610244015261259e6000f3fe608060405234801561001057600080fd5b50600436106101425760003560e01c806399ba8c0c116100b8578063bc197c811161007c578063bc197c811461036a578063c81fcc9514610389578063d547741f146103b0578063ea3bd5df146103c3578063ecfdcb2c146103d6578063f23a6e61146103fd57600080fd5b806399ba8c0c146102da578063a1abfd9514610301578063a217fddf14610328578063a6ab36f214610330578063a9d75b2b1461034357600080fd5b80633cc7385b1161010a5780633cc7385b14610200578063459213a11461023f5780636361a0d1146102665780637f8661a11461028d57806391d14854146102a0578063949f5d20146102b357600080fd5b806301ffc9a714610147578063150b7a021461016f578063248a9ca3146101a65780632f2ff15d146101d857806336568abe146101ed575b600080fd5b61015a6101553660046120d6565b61041c565b60405190151581526020015b60405180910390f35b61018d61017d3660046121cc565b630a85bd0160e11b949350505050565b6040516001600160e01b03199091168152602001610166565b6101ca6101b4366004612238565b6000908152600160208190526040909120015490565b604051908152602001610166565b6101eb6101e6366004612251565b610463565b005b6101eb6101fb366004612251565b61048f565b6102277f000000000000000000000000000000000000000000000000000000000000000081565b6040516001600160a01b039091168152602001610166565b6102277f000000000000000000000000000000000000000000000000000000000000000081565b6102277f000000000000000000000000000000000000000000000000000000000000000081565b6101eb61029b366004612238565b6104c7565b61015a6102ae366004612251565b6108b6565b6102277f000000000000000000000000000000000000000000000000000000000000000081565b6102277f000000000000000000000000000000000000000000000000000000000000000081565b6102277f000000000000000000000000000000000000000000000000000000000000000081565b6101ca600081565b6101ca61033e366004612281565b6108e1565b6102277f000000000000000000000000000000000000000000000000000000000000000081565b61018d610378366004612333565b63bc197c8160e01b95945050505050565b6102277f000000000000000000000000000000000000000000000000000000000000000081565b6101eb6103be366004612251565b610f96565b6101ca6103d1366004612281565b610fbc565b6102277f000000000000000000000000000000000000000000000000000000000000000081565b61018d61040b3660046123ed565b63f23a6e6160e01b95945050505050565b600061042782611a70565b8061044257506001600160e01b03198216630a85bd0160e11b145b8061045d57506001600160e01b03198216630cc5a0a360e21b145b92915050565b6000828152600160208190526040909120015461047f81611a95565b6104898383611a9f565b50505050565b6001600160a01b03811633146104b85760405163334bd91960e11b815260040160405180910390fd5b6104c28282611b18565b505050565b6104cf611b85565b604051637921219560e11b81527f00000000000000000000000000000000000000000000000000000000000000006001600160a01b03169063f242432a906105229033903090869060019060040161244a565b600060405180830381600087803b15801561053c57600080fd5b505af1158015610550573d6000803e3d6000fd5b5050604051637f8661a160e01b8152600481018490527f00000000000000000000000000000000000000000000000000000000000000006001600160a01b03169250637f8661a19150602401600060405180830381600087803b1580156105b657600080fd5b505af11580156105ca573d6000803e3d6000fd5b50506040516370a0823160e01b8152306004820152600092507f00000000000000000000000000000000000000000000000000000000000000006001600160a01b031691506370a0823190602401602060405180830381865afa158015610635573d6000803e3d6000fd5b505050506040513d601f19601f820116820180604052508101906106599190612482565b90508015610748576106b56001600160a01b037f0000000000000000000000000000000000000000000000000000000000000000167f000000000000000000000000000000000000000000000000000000000000000083611baf565b6040516301952d0960e31b8152600481018290523060248201527f00000000000000000000000000000000000000000000000000000000000000006001600160a01b031690630ca96848906044016020604051808303816000875af1158015610722573d6000803e3d6000fd5b505050506040513d601f19601f820116820180604052508101906107469190612482565b505b6040516370a0823160e01b81523060048201526000907f00000000000000000000000000000000000000000000000000000000000000006001600160a01b0316906370a0823190602401602060405180830381865afa1580156107af573d6000803e3d6000fd5b505050506040513d601f19601f820116820180604052508101906107d39190612482565b9050801561080f5761080f7f00000000000000000000000000000000000000000000000000000000000000006001600160a01b03163383611c39565b60408051635c46a7ef60e11b8152306004820152336024820152604481018590526080606482015260006084820181905291517f00000000000000000000000000000000000000000000000000000000000000006001600160a01b03169263b88d4fde9260a4808201939182900301818387803b15801561088f57600080fd5b505af11580156108a3573d6000803e3d6000fd5b5050505050506108b36001600055565b50565b60009182526001602090815260408084206001600160a01b0393909316845291905290205460ff1690565b60006108eb611b85565b6108f56000611a95565b600084116109405760405162461bcd60e51b8152602060048201526013602482015272125b9d985b1a59081413d5cd48185b5bdd5b9d606a1b60448201526064015b60405180910390fd5b600083116109885760405162461bcd60e51b8152602060048201526015602482015274125b9d985b1a59081cdd18589b1948185b5bdd5b9d605a1b6044820152606401610937565b6001600160a01b0382166109d15760405162461bcd60e51b815260206004820152601060248201526f24b73b30b634b2103932b1b2b4bb32b960811b6044820152606401610937565b610a067f00000000000000000000000000000000000000000000000000000000000000006001600160a01b0316333087611c98565b610a3b7f00000000000000000000000000000000000000000000000000000000000000006001600160a01b0316333086611c98565b610a8f6001600160a01b037f0000000000000000000000000000000000000000000000000000000000000000167f000000000000000000000000000000000000000000000000000000000000000086611baf565b610ae36001600160a01b037f0000000000000000000000000000000000000000000000000000000000000000167f000000000000000000000000000000000000000000000000000000000000000085611baf565b60405163a22cb46560e01b81526001600160a01b037f000000000000000000000000000000000000000000000000000000000000000081166004830152600160248301527f0000000000000000000000000000000000000000000000000000000000000000169063a22cb46590604401600060405180830381600087803b158015610b6d57600080fd5b505af1158015610b81573d6000803e3d6000fd5b50506040516326c662b160e11b815260048101879052602481018690523060448201527f00000000000000000000000000000000000000000000000000000000000000006001600160a01b03169250634d8cc56291506064016020604051808303816000875af1158015610bf9573d6000803e3d6000fd5b505050506040513d601f19601f82011682018060405250810190610c1d9190612482565b604051632967cf8360e21b8152600481018290529091507f00000000000000000000000000000000000000000000000000000000000000006001600160a01b03169063a59f3e0c90602401600060405180830381600087803b158015610c8257600080fd5b505af1158015610c96573d6000803e3d6000fd5b50506040516308bb76a560e01b815260048101849052600092507f00000000000000000000000000000000000000000000000000000000000000006001600160a01b031691506308bb76a590602401602060405180830381865afa158015610d02573d6000803e3d6000fd5b505050506040513d601f19601f82011682018060405250810190610d26919061249b565b90506001600160a01b038116610d6f5760405162461bcd60e51b815260206004820152600e60248201526d125b9d985b1a590813140b54d19560921b6044820152606401610937565b6040516370a0823160e01b81523060048201526000907f00000000000000000000000000000000000000000000000000000000000000006001600160a01b0316906370a0823190602401602060405180830381865afa158015610dd6573d6000803e3d6000fd5b505050506040513d601f19601f82011682018060405250810190610dfa9190612482565b90508015610e3657610e366001600160a01b037f0000000000000000000000000000000000000000000000000000000000000000168583611c39565b6040516370a0823160e01b81523060048201526000907f00000000000000000000000000000000000000000000000000000000000000006001600160a01b0316906370a0823190602401602060405180830381865afa158015610e9d573d6000803e3d6000fd5b505050506040513d601f19601f82011682018060405250810190610ec19190612482565b90508015610efd57610efd6001600160a01b037f0000000000000000000000000000000000000000000000000000000000000000168683611c39565b604051637921219560e11b81526001600160a01b037f0000000000000000000000000000000000000000000000000000000000000000169063f242432a90610f509030908990899060019060040161244a565b600060405180830381600087803b158015610f6a57600080fd5b505af1158015610f7e573d6000803e3d6000fd5b50505050505050610f8f6001600055565b9392505050565b60008281526001602081905260409091200154610fb281611a95565b6104898383611b18565b6000610fc6611b85565b6000841180610fd55750600083115b6110135760405162461bcd60e51b815260206004820152600f60248201526e496e76616c696420616d6f756e747360881b6044820152606401610937565b6001600160a01b03821661105c5760405162461bcd60e51b815260206004820152601060248201526f24b73b30b634b2103932b1b2b4bb32b960811b6044820152606401610937565b60007f00000000000000000000000000000000000000000000000000000000000000006001600160a01b031663ddca3f436040518163ffffffff1660e01b8152600401602060405180830381865afa1580156110bc573d6000803e3d6000fd5b505050506040513d601f19601f820116820180604052508101906110e091906124b8565b9050841561111d5761111d7f00000000000000000000000000000000000000000000000000000000000000006001600160a01b0316333088611c98565b8315611158576111587f00000000000000000000000000000000000000000000000000000000000000006001600160a01b0316333087611c98565b8460000361135f576040516370a0823160e01b81526001600160a01b037f0000000000000000000000000000000000000000000000000000000000000000811660048301526000917f0000000000000000000000000000000000000000000000000000000000000000909116906370a0823190602401602060405180830381865afa1580156111eb573d6000803e3d6000fd5b505050506040513d601f19601f8201168201806040525081019061120f9190612482565b9050600061121e828785611cd1565b9050858111156112655760405162461bcd60e51b8152602060048201526012602482015271084c2c840d8d2e2ead2c8d2e8f240dac2e8d60731b6044820152606401610937565b6112b96001600160a01b037f0000000000000000000000000000000000000000000000000000000000000000167f000000000000000000000000000000000000000000000000000000000000000083611baf565b604051636aa8f93560e01b8152600481018290523060248201527f00000000000000000000000000000000000000000000000000000000000000006001600160a01b031690636aa8f935906044016020604051808303816000875af1158015611326573d6000803e3d6000fd5b505050506040513d601f19601f8201168201806040525081019061134a9190612482565b965061135681876124f3565b95505050611562565b83600003611562576040516370a0823160e01b81526001600160a01b037f0000000000000000000000000000000000000000000000000000000000000000811660048301526000917f0000000000000000000000000000000000000000000000000000000000000000909116906370a0823190602401602060405180830381865afa1580156113f2573d6000803e3d6000fd5b505050506040513d601f19601f820116820180604052508101906114169190612482565b90506000611425828885611cd1565b90508681111561146c5760405162461bcd60e51b8152602060048201526012602482015271084c2c840d8d2e2ead2c8d2e8f240dac2e8d60731b6044820152606401610937565b6114c06001600160a01b037f0000000000000000000000000000000000000000000000000000000000000000167f000000000000000000000000000000000000000000000000000000000000000083611baf565b6040516301952d0960e31b8152600481018290523060248201527f00000000000000000000000000000000000000000000000000000000000000006001600160a01b031690630ca96848906044016020604051808303816000875af115801561152d573d6000803e3d6000fd5b505050506040513d601f19601f820116820180604052508101906115519190612482565b955061155d81886124f3565b965050505b60008511806115715750600084115b6115b15760405162461bcd60e51b8152602060048201526011602482015270496e76616c6964206c697175696469747960781b6044820152606401610937565b841561160b5761160b6001600160a01b037f0000000000000000000000000000000000000000000000000000000000000000167f000000000000000000000000000000000000000000000000000000000000000087611baf565b8315611665576116656001600160a01b037f0000000000000000000000000000000000000000000000000000000000000000167f000000000000000000000000000000000000000000000000000000000000000086611baf565b6040516326c662b160e11b815260048101869052602481018590523060448201527f00000000000000000000000000000000000000000000000000000000000000006001600160a01b031690634d8cc562906064016020604051808303816000875af11580156116d9573d6000803e3d6000fd5b505050506040513d601f19601f820116820180604052508101906116fd9190612482565b604051632967cf8360e21b8152600481018290529092507f00000000000000000000000000000000000000000000000000000000000000006001600160a01b03169063a59f3e0c90602401600060405180830381600087803b15801561176257600080fd5b505af1158015611776573d6000803e3d6000fd5b50506040516308bb76a560e01b815260048101859052600092507f00000000000000000000000000000000000000000000000000000000000000006001600160a01b031691506308bb76a590602401602060405180830381865afa1580156117e2573d6000803e3d6000fd5b505050506040513d601f19601f82011682018060405250810190611806919061249b565b90506001600160a01b03811661184f5760405162461bcd60e51b815260206004820152600e60248201526d125b9d985b1a590813140b54d19560921b6044820152606401610937565b6040516370a0823160e01b81523060048201526000907f00000000000000000000000000000000000000000000000000000000000000006001600160a01b0316906370a0823190602401602060405180830381865afa1580156118b6573d6000803e3d6000fd5b505050506040513d601f19601f820116820180604052508101906118da9190612482565b90508015611916576119166001600160a01b037f0000000000000000000000000000000000000000000000000000000000000000168683611c39565b6040516370a0823160e01b81523060048201526000907f00000000000000000000000000000000000000000000000000000000000000006001600160a01b0316906370a0823190602401602060405180830381865afa15801561197d573d6000803e3d6000fd5b505050506040513d601f19601f820116820180604052508101906119a19190612482565b905080156119dd576119dd6001600160a01b037f0000000000000000000000000000000000000000000000000000000000000000168783611c39565b604051637921219560e11b81526001600160a01b037f0000000000000000000000000000000000000000000000000000000000000000169063f242432a90611a309030908a908a9060019060040161244a565b600060405180830381600087803b158015611a4a57600080fd5b505af1158015611a5e573d6000803e3d6000fd5b5050505050505050610f8f6001600055565b60006001600160e01b03198216630271189760e51b148061045d575061045d82611dbf565b6108b38133611df4565b6000611aab83836108b6565b611b105760008381526001602081815260408084206001600160a01b0387168086529252808420805460ff19169093179092559051339286917f2f8788117e7eff1d82e926ec794901d17c78024a50270940304540a733656f0d9190a450600161045d565b50600061045d565b6000611b2483836108b6565b15611b105760008381526001602090815260408083206001600160a01b0386168085529252808320805460ff1916905551339286917ff6391f5c32d9c69d2a47ea670b442974b53935d1edc7fd64eb21e047a839171b9190a450600161045d565b600260005403611ba857604051633ee5aeb560e01b815260040160405180910390fd5b6002600055565b604051636eb1769f60e11b81523060048201526001600160a01b0383811660248301526000919085169063dd62ed3e90604401602060405180830381865afa158015611bff573d6000803e3d6000fd5b505050506040513d601f19601f82011682018060405250810190611c239190612482565b90506104898484611c348585612506565b611e31565b6040516001600160a01b038381166024830152604482018390526104c291859182169063a9059cbb906064015b604051602081830303815290604052915060e01b6020820180516001600160e01b038381831617835250505050611ebd565b6040516001600160a01b0384811660248301528381166044830152606482018390526104899186918216906323b872dd90608401611c66565b6000611ce562ffffff8316620f42406124f3565b611cf0906002612519565b84611d0362ffffff8516621e84806124f3565b611d0d9190612519565b611da38686611d2462ffffff8816620f42406124f3565b611d32620f42406004612519565b611d3c9190612519565b611d469190612519565b611d509190612519565b8780611d6462ffffff8916621e84806124f3565b611d7662ffffff8a16621e84806124f3565b611d809190612519565b611d8a9190612519565b611d949190612519565b611d9e9190612506565b611f2e565b611dad91906124f3565b611db79190612546565b949350505050565b60006001600160e01b03198216637965db0b60e01b148061045d57506301ffc9a760e01b6001600160e01b031983161461045d565b611dfe82826108b6565b611e2d5760405163e2517d3f60e01b81526001600160a01b038216600482015260248101839052604401610937565b5050565b604080516001600160a01b038416602482015260448082018490528251808303909101815260649091019091526020810180516001600160e01b031663095ea7b360e01b179052611e828482612087565b610489576040516001600160a01b03848116602483015260006044830152611eb791869182169063095ea7b390606401611c66565b61048984825b600080602060008451602086016000885af180611ee0576040513d6000823e3d81fd5b50506000513d91508115611ef8578060011415611f05565b6001600160a01b0384163b155b1561048957604051635274afe760e01b81526001600160a01b0385166004820152602401610937565b600060018211611f3c575090565b816001600160801b8210611f555760809190911c9060401b5b680100000000000000008210611f705760409190911c9060201b5b6401000000008210611f875760209190911c9060101b5b620100008210611f9c5760109190911c9060081b5b6101008210611fb05760089190911c9060041b5b60108210611fc35760049190911c9060021b5b60048210611fcf5760011b5b600302600190811c90818581611fe757611fe7612530565b048201901c90506001818581611fff57611fff612530565b048201901c9050600181858161201757612017612530565b048201901c9050600181858161202f5761202f612530565b048201901c9050600181858161204757612047612530565b048201901c9050600181858161205f5761205f612530565b048201901c905061207e81858161207857612078612530565b04821190565b90039392505050565b6000806000806020600086516020880160008a5af192503d915060005190508280156120cc575081156120bd57806001146120cc565b6000866001600160a01b03163b115b9695505050505050565b6000602082840312156120e857600080fd5b81356001600160e01b031981168114610f8f57600080fd5b6001600160a01b03811681146108b357600080fd5b634e487b7160e01b600052604160045260246000fd5b604051601f8201601f1916810167ffffffffffffffff8111828210171561215457612154612115565b604052919050565b600082601f83011261216d57600080fd5b813567ffffffffffffffff81111561218757612187612115565b61219a601f8201601f191660200161212b565b8181528460208386010111156121af57600080fd5b816020850160208301376000918101602001919091529392505050565b600080600080608085870312156121e257600080fd5b84356121ed81612100565b935060208501356121fd81612100565b925060408501359150606085013567ffffffffffffffff81111561222057600080fd5b61222c8782880161215c565b91505092959194509250565b60006020828403121561224a57600080fd5b5035919050565b6000806040838503121561226457600080fd5b82359150602083013561227681612100565b809150509250929050565b60008060006060848603121561229657600080fd5b833592506020840135915060408401356122af81612100565b809150509250925092565b600082601f8301126122cb57600080fd5b813567ffffffffffffffff8111156122e5576122e5612115565b8060051b6122f56020820161212b565b9182526020818501810192908101908684111561231157600080fd5b6020860192505b838310156120cc578235825260209283019290910190612318565b600080600080600060a0868803121561234b57600080fd5b853561235681612100565b9450602086013561236681612100565b9350604086013567ffffffffffffffff81111561238257600080fd5b61238e888289016122ba565b935050606086013567ffffffffffffffff8111156123ab57600080fd5b6123b7888289016122ba565b925050608086013567ffffffffffffffff8111156123d457600080fd5b6123e08882890161215c565b9150509295509295909350565b600080600080600060a0868803121561240557600080fd5b853561241081612100565b9450602086013561242081612100565b93506040860135925060608601359150608086013567ffffffffffffffff8111156123d457600080fd5b6001600160a01b0394851681529290931660208301526040820152606081019190915260a06080820181905260009082015260c00190565b60006020828403121561249457600080fd5b5051919050565b6000602082840312156124ad57600080fd5b8151610f8f81612100565b6000602082840312156124ca57600080fd5b815162ffffff81168114610f8f57600080fd5b634e487b7160e01b600052601160045260246000fd5b8181038181111561045d5761045d6124dd565b8082018082111561045d5761045d6124dd565b808202811582820484141761045d5761045d6124dd565b634e487b7160e01b600052601260045260246000fd5b60008261256357634e487b7160e01b600052601260045260246000fd5b50049056fea2646970667358221220db890fadc02f025ceeb0d9f5f4627e10d333619e2625677f0244864ff80bdbaf64736f6c634300081c0033",
  "devdoc": {
    "errors": {
      "AccessControlBadConfirmation()": [
        {
          "details": "The caller of a function is not the expected one. NOTE: Don't confuse with {AccessControlUnauthorizedAccount}."
        }
      ],
      "AccessControlUnauthorizedAccount(address,bytes32)": [
        {
          "details": "The `account` is missing a role."
        }
      ],
      "ReentrancyGuardReentrantCall()": [
        {
          "details": "Unauthorized reentrant call."
        }
      ],
      "SafeERC20FailedOperation(address)": [
        {
          "details": "An operation with an ERC-20 token failed."
        }
      ]
    },
    "events": {
      "RoleAdminChanged(bytes32,bytes32,bytes32)": {
        "details": "Emitted when `newAdminRole` is set as ``role``'s admin role, replacing `previousAdminRole` `DEFAULT_ADMIN_ROLE` is the starting admin for all roles, despite {RoleAdminChanged} not being emitted signaling this."
      },
      "RoleGranted(bytes32,address,address)": {
        "details": "Emitted when `account` is granted `role`. `sender` is the account that originated the contract call. This account bears the admin role (for the granted role). Expected in cases where the role was granted using the internal {AccessControl-_grantRole}."
      },
      "RoleRevoked(bytes32,address,address)": {
        "details": "Emitted when `account` is revoked `role`. `sender` is the account that originated the contract call:   - if using `revokeRole`, it is the admin role bearer   - if using `renounceRole`, it is the role bearer (i.e. `account`)"
      }
    },
    "kind": "dev",
    "methods": {
      "constructor": {
        "details": "Initializes the Yield Harvest contract",
        "params": {
          "owner_": "The owner of the Dutch Auction",
          "theReserve_": "The Reserve smart contract address"
        }
      },
      "exit(uint256)": {
        "details": "See {IReverseRepo-exit}"
      },
      "getRoleAdmin(bytes32)": {
        "details": "Returns the admin role that controls `role`. See {grantRole} and {revokeRole}. To change a role's admin, use {_setRoleAdmin}."
      },
      "grantRole(bytes32,address)": {
        "details": "Grants `role` to `account`. If `account` had not been already granted `role`, emits a {RoleGranted} event. Requirements: - the caller must have ``role``'s admin role. May emit a {RoleGranted} event."
      },
      "hasRole(bytes32,address)": {
        "details": "Returns `true` if `account` has been granted `role`."
      },
      "initialize(uint256,uint256,address)": {
        "details": "See {IReverseRepo-initialize}"
      },
      "onERC721Received(address,address,uint256,bytes)": {
        "details": "See {IERC721Receiver-onERC721Received}. Always returns `IERC721Receiver.onERC721Received.selector`."
      },
      "purchase(uint256,uint256,address)": {
        "details": "See {IReverseRepo-purchase}"
      },
      "renounceRole(bytes32,address)": {
        "details": "Revokes `role` from the calling account. Roles are often managed via {grantRole} and {revokeRole}: this function's purpose is to provide a mechanism for accounts to lose their privileges if they are compromised (such as when a trusted device is misplaced). If the calling account had been revoked `role`, emits a {RoleRevoked} event. Requirements: - the caller must be `callerConfirmation`. May emit a {RoleRevoked} event."
      },
      "revokeRole(bytes32,address)": {
        "details": "Revokes `role` from `account`. If `account` had been granted `role`, emits a {RoleRevoked} event. Requirements: - the caller must have ``role``'s admin role. May emit a {RoleRevoked} event."
      },
      "supportsInterface(bytes4)": {
        "details": "See {IERC165-supportsInterface}"
      }
    },
    "stateVariables": {
      "lpSft": {
        "details": "The LP-SFT contract"
      },
      "pow5LpNftStakeFarm": {
        "details": "The POW5 LP-NFT stake farm"
      },
      "pow5StablePool": {
        "details": "The upstream Uniswap V3 pool for the POW5/stable token pair"
      },
      "pow5StablePooler": {
        "details": "The token pooler"
      },
      "pow5StableSwapper": {
        "details": "The token swapper"
      },
      "pow5Token": {
        "details": "The POW5 token"
      },
      "stableToken": {
        "details": "The stable token"
      },
      "theReserve": {
        "details": "The Reserve smart contract"
      },
      "uniswapV3NftManager": {
        "details": "The upstream Uniswap V3 NFT manager"
      }
    },
    "title": "Bureau of the Reverse Repo",
    "version": 1
  },
  "userdoc": {
    "kind": "user",
    "methods": {},
    "version": 1
  },
  "storageLayout": {
    "storage": [
      {
        "astId": 6439,
        "contract": "contracts/src/bureaucracy/ReverseRepo.sol:ReverseRepo",
        "label": "_status",
        "offset": 0,
        "slot": "0",
        "type": "t_uint256"
      },
      {
        "astId": 2343,
        "contract": "contracts/src/bureaucracy/ReverseRepo.sol:ReverseRepo",
        "label": "_roles",
        "offset": 0,
        "slot": "1",
        "type": "t_mapping(t_bytes32,t_struct(RoleData)2338_storage)"
      }
    ],
    "types": {
      "t_address": {
        "encoding": "inplace",
        "label": "address",
        "numberOfBytes": "20"
      },
      "t_bool": {
        "encoding": "inplace",
        "label": "bool",
        "numberOfBytes": "1"
      },
      "t_bytes32": {
        "encoding": "inplace",
        "label": "bytes32",
        "numberOfBytes": "32"
      },
      "t_mapping(t_address,t_bool)": {
        "encoding": "mapping",
        "key": "t_address",
        "label": "mapping(address => bool)",
        "numberOfBytes": "32",
        "value": "t_bool"
      },
      "t_mapping(t_bytes32,t_struct(RoleData)2338_storage)": {
        "encoding": "mapping",
        "key": "t_bytes32",
        "label": "mapping(bytes32 => struct AccessControl.RoleData)",
        "numberOfBytes": "32",
        "value": "t_struct(RoleData)2338_storage"
      },
      "t_struct(RoleData)2338_storage": {
        "encoding": "inplace",
        "label": "struct AccessControl.RoleData",
        "members": [
          {
            "astId": 2335,
            "contract": "contracts/src/bureaucracy/ReverseRepo.sol:ReverseRepo",
            "label": "hasRole",
            "offset": 0,
            "slot": "0",
            "type": "t_mapping(t_address,t_bool)"
          },
          {
            "astId": 2337,
            "contract": "contracts/src/bureaucracy/ReverseRepo.sol:ReverseRepo",
            "label": "adminRole",
            "offset": 0,
            "slot": "1",
            "type": "t_bytes32"
          }
        ],
        "numberOfBytes": "64"
      },
      "t_uint256": {
        "encoding": "inplace",
        "label": "uint256",
        "numberOfBytes": "32"
      }
    }
  }
}