{
  "address": "0xDa87C152723FA5d88D499D1722a2739c5cDaD9Ac",
  "abi": [
    {
      "inputs": [
        {
          "components": [
            {
              "internalType": "contract IERC20",
              "name": "pow1Token",
              "type": "address"
            },
            {
              "internalType": "contract IERC20",
              "name": "pow5Token",
              "type": "address"
            },
            {
              "internalType": "contract IERC20",
              "name": "lpPow1Token",
              "type": "address"
            },
            {
              "internalType": "contract IERC20",
              "name": "lpPow5Token",
              "type": "address"
            },
            {
              "internalType": "contract IERC20",
              "name": "noPow5Token",
              "type": "address"
            },
            {
              "internalType": "contract IERC20",
              "name": "marketToken",
              "type": "address"
            },
            {
              "internalType": "contract IERC20",
              "name": "stableToken",
              "type": "address"
            },
            {
              "internalType": "contract ILPSFT",
              "name": "lpSft",
              "type": "address"
            },
            {
              "internalType": "contract INOLPSFT",
              "name": "noLpSft",
              "type": "address"
            },
            {
              "internalType": "contract IUniswapV3Pool",
              "name": "pow1MarketPool",
              "type": "address"
            },
            {
              "internalType": "contract IUniswapV3Pool",
              "name": "pow5StablePool",
              "type": "address"
            },
            {
              "internalType": "contract IUniswapV3Pool",
              "name": "marketStablePool",
              "type": "address"
            },
            {
              "internalType": "contract IGameTokenSwapper",
              "name": "pow1MarketSwapper",
              "type": "address"
            },
            {
              "internalType": "contract IGameTokenSwapper",
              "name": "pow5StableSwapper",
              "type": "address"
            },
            {
              "internalType": "contract IMarketStableSwapper",
              "name": "marketStableSwapper",
              "type": "address"
            },
            {
              "internalType": "contract IGameTokenPooler",
              "name": "pow1MarketPooler",
              "type": "address"
            },
            {
              "internalType": "contract IGameTokenPooler",
              "name": "pow5StablePooler",
              "type": "address"
            },
            {
              "internalType": "contract ILPNFTStakeFarm",
              "name": "pow1LpNftStakeFarm",
              "type": "address"
            },
            {
              "internalType": "contract IUniV3StakeFarm",
              "name": "pow5LpNftStakeFarm",
              "type": "address"
            },
            {
              "internalType": "contract ILPSFTLendFarm",
              "name": "pow1LpSftLendFarm",
              "type": "address"
            },
            {
              "internalType": "contract ILPSFTLendFarm",
              "name": "pow5LpSftLendFarm",
              "type": "address"
            },
            {
              "internalType": "contract IUniswapV3Factory",
              "name": "uniswapV3Factory",
              "type": "address"
            },
            {
              "internalType": "contract INonfungiblePositionManager",
              "name": "uniswapV3NftManager",
              "type": "address"
            }
          ],
          "internalType": "struct ITheReserveRoutes.Routes",
          "name": "routes_",
          "type": "tuple"
        }
      ],
      "stateMutability": "nonpayable",
      "type": "constructor"
    },
    {
      "inputs": [],
      "name": "getRoutes",
      "outputs": [
        {
          "components": [
            {
              "internalType": "contract IERC20",
              "name": "pow1Token",
              "type": "address"
            },
            {
              "internalType": "contract IERC20",
              "name": "pow5Token",
              "type": "address"
            },
            {
              "internalType": "contract IERC20",
              "name": "lpPow1Token",
              "type": "address"
            },
            {
              "internalType": "contract IERC20",
              "name": "lpPow5Token",
              "type": "address"
            },
            {
              "internalType": "contract IERC20",
              "name": "noPow5Token",
              "type": "address"
            },
            {
              "internalType": "contract IERC20",
              "name": "marketToken",
              "type": "address"
            },
            {
              "internalType": "contract IERC20",
              "name": "stableToken",
              "type": "address"
            },
            {
              "internalType": "contract ILPSFT",
              "name": "lpSft",
              "type": "address"
            },
            {
              "internalType": "contract INOLPSFT",
              "name": "noLpSft",
              "type": "address"
            },
            {
              "internalType": "contract IUniswapV3Pool",
              "name": "pow1MarketPool",
              "type": "address"
            },
            {
              "internalType": "contract IUniswapV3Pool",
              "name": "pow5StablePool",
              "type": "address"
            },
            {
              "internalType": "contract IUniswapV3Pool",
              "name": "marketStablePool",
              "type": "address"
            },
            {
              "internalType": "contract IGameTokenSwapper",
              "name": "pow1MarketSwapper",
              "type": "address"
            },
            {
              "internalType": "contract IGameTokenSwapper",
              "name": "pow5StableSwapper",
              "type": "address"
            },
            {
              "internalType": "contract IMarketStableSwapper",
              "name": "marketStableSwapper",
              "type": "address"
            },
            {
              "internalType": "contract IGameTokenPooler",
              "name": "pow1MarketPooler",
              "type": "address"
            },
            {
              "internalType": "contract IGameTokenPooler",
              "name": "pow5StablePooler",
              "type": "address"
            },
            {
              "internalType": "contract ILPNFTStakeFarm",
              "name": "pow1LpNftStakeFarm",
              "type": "address"
            },
            {
              "internalType": "contract IUniV3StakeFarm",
              "name": "pow5LpNftStakeFarm",
              "type": "address"
            },
            {
              "internalType": "contract ILPSFTLendFarm",
              "name": "pow1LpSftLendFarm",
              "type": "address"
            },
            {
              "internalType": "contract ILPSFTLendFarm",
              "name": "pow5LpSftLendFarm",
              "type": "address"
            },
            {
              "internalType": "contract IUniswapV3Factory",
              "name": "uniswapV3Factory",
              "type": "address"
            },
            {
              "internalType": "contract INonfungiblePositionManager",
              "name": "uniswapV3NftManager",
              "type": "address"
            }
          ],
          "internalType": "struct ITheReserveRoutes.Routes",
          "name": "",
          "type": "tuple"
        }
      ],
      "stateMutability": "view",
      "type": "function"
    },
    {
      "inputs": [],
      "name": "lpPow1Token",
      "outputs": [
        {
          "internalType": "contract IERC20",
          "name": "",
          "type": "address"
        }
      ],
      "stateMutability": "view",
      "type": "function"
    },
    {
      "inputs": [],
      "name": "lpPow5Token",
      "outputs": [
        {
          "internalType": "contract IERC20",
          "name": "",
          "type": "address"
        }
      ],
      "stateMutability": "view",
      "type": "function"
    },
    {
      "inputs": [],
      "name": "lpSft",
      "outputs": [
        {
          "internalType": "contract ILPSFT",
          "name": "",
          "type": "address"
        }
      ],
      "stateMutability": "view",
      "type": "function"
    },
    {
      "inputs": [],
      "name": "marketStablePool",
      "outputs": [
        {
          "internalType": "contract IUniswapV3Pool",
          "name": "",
          "type": "address"
        }
      ],
      "stateMutability": "view",
      "type": "function"
    },
    {
      "inputs": [],
      "name": "marketStableSwapper",
      "outputs": [
        {
          "internalType": "contract IMarketStableSwapper",
          "name": "",
          "type": "address"
        }
      ],
      "stateMutability": "view",
      "type": "function"
    },
    {
      "inputs": [],
      "name": "marketToken",
      "outputs": [
        {
          "internalType": "contract IERC20",
          "name": "",
          "type": "address"
        }
      ],
      "stateMutability": "view",
      "type": "function"
    },
    {
      "inputs": [],
      "name": "noLpSft",
      "outputs": [
        {
          "internalType": "contract INOLPSFT",
          "name": "",
          "type": "address"
        }
      ],
      "stateMutability": "view",
      "type": "function"
    },
    {
      "inputs": [],
      "name": "noPow5Token",
      "outputs": [
        {
          "internalType": "contract IERC20",
          "name": "",
          "type": "address"
        }
      ],
      "stateMutability": "view",
      "type": "function"
    },
    {
      "inputs": [],
      "name": "pow1LpNftStakeFarm",
      "outputs": [
        {
          "internalType": "contract ILPNFTStakeFarm",
          "name": "",
          "type": "address"
        }
      ],
      "stateMutability": "view",
      "type": "function"
    },
    {
      "inputs": [],
      "name": "pow1LpSftLendFarm",
      "outputs": [
        {
          "internalType": "contract ILPSFTLendFarm",
          "name": "",
          "type": "address"
        }
      ],
      "stateMutability": "view",
      "type": "function"
    },
    {
      "inputs": [],
      "name": "pow1MarketPool",
      "outputs": [
        {
          "internalType": "contract IUniswapV3Pool",
          "name": "",
          "type": "address"
        }
      ],
      "stateMutability": "view",
      "type": "function"
    },
    {
      "inputs": [],
      "name": "pow1MarketPooler",
      "outputs": [
        {
          "internalType": "contract IGameTokenPooler",
          "name": "",
          "type": "address"
        }
      ],
      "stateMutability": "view",
      "type": "function"
    },
    {
      "inputs": [],
      "name": "pow1MarketSwapper",
      "outputs": [
        {
          "internalType": "contract IGameTokenSwapper",
          "name": "",
          "type": "address"
        }
      ],
      "stateMutability": "view",
      "type": "function"
    },
    {
      "inputs": [],
      "name": "pow1Token",
      "outputs": [
        {
          "internalType": "contract IERC20",
          "name": "",
          "type": "address"
        }
      ],
      "stateMutability": "view",
      "type": "function"
    },
    {
      "inputs": [],
      "name": "pow5LpNftStakeFarm",
      "outputs": [
        {
          "internalType": "contract IUniV3StakeFarm",
          "name": "",
          "type": "address"
        }
      ],
      "stateMutability": "view",
      "type": "function"
    },
    {
      "inputs": [],
      "name": "pow5LpSftLendFarm",
      "outputs": [
        {
          "internalType": "contract ILPSFTLendFarm",
          "name": "",
          "type": "address"
        }
      ],
      "stateMutability": "view",
      "type": "function"
    },
    {
      "inputs": [],
      "name": "pow5StablePool",
      "outputs": [
        {
          "internalType": "contract IUniswapV3Pool",
          "name": "",
          "type": "address"
        }
      ],
      "stateMutability": "view",
      "type": "function"
    },
    {
      "inputs": [],
      "name": "pow5StablePooler",
      "outputs": [
        {
          "internalType": "contract IGameTokenPooler",
          "name": "",
          "type": "address"
        }
      ],
      "stateMutability": "view",
      "type": "function"
    },
    {
      "inputs": [],
      "name": "pow5StableSwapper",
      "outputs": [
        {
          "internalType": "contract IGameTokenSwapper",
          "name": "",
          "type": "address"
        }
      ],
      "stateMutability": "view",
      "type": "function"
    },
    {
      "inputs": [],
      "name": "pow5Token",
      "outputs": [
        {
          "internalType": "contract IERC20",
          "name": "",
          "type": "address"
        }
      ],
      "stateMutability": "view",
      "type": "function"
    },
    {
      "inputs": [],
      "name": "stableToken",
      "outputs": [
        {
          "internalType": "contract IERC20",
          "name": "",
          "type": "address"
        }
      ],
      "stateMutability": "view",
      "type": "function"
    },
    {
      "inputs": [
        {
          "internalType": "bytes4",
          "name": "interfaceId",
          "type": "bytes4"
        }
      ],
      "name": "supportsInterface",
      "outputs": [
        {
          "internalType": "bool",
          "name": "",
          "type": "bool"
        }
      ],
      "stateMutability": "view",
      "type": "function"
    },
    {
      "inputs": [],
      "name": "uniswapV3Factory",
      "outputs": [
        {
          "internalType": "contract IUniswapV3Factory",
          "name": "",
          "type": "address"
        }
      ],
      "stateMutability": "view",
      "type": "function"
    },
    {
      "inputs": [],
      "name": "uniswapV3NftManager",
      "outputs": [
        {
          "internalType": "contract INonfungiblePositionManager",
          "name": "",
          "type": "address"
        }
      ],
      "stateMutability": "view",
      "type": "function"
    }
  ],
  "transactionHash": "0x5b508e4405c8048541c43f58205483717a2b984b2cb9d9da24ab7a6066118b48",
  "args": [
    {
      "pow1Token": "0x3414381EF8d64a2c0E8eC785553534122312787e",
      "pow5Token": "0x7b589E244173CE2d11d76878C053e25Dd72Ea610",
      "lpPow1Token": "0xe52cB492ffac292bd555237f13AA43D3f5481851",
      "lpPow5Token": "0x27a32088D0aA4ba5ac342fdD96b75994219609C6",
      "noPow5Token": "0x0Da4291075032aD1c9D3838c7A2D51bF30d7E000",
      "marketToken": "0x0d600145B104542a2F77944fbF43624d72033741",
      "stableToken": "0xfFa7B6120aeA3981C53F2e57AD1f92Af370c9439",
      "lpSft": "0xd621853d65eA069370efe04fc07846d0af4E2e78",
      "noLpSft": "0xEF311FB81a7A7834B19d4d5EC6C560CE6f35ddB9",
      "pow1MarketPool": "0x46d9B8725ab865D443df4716f145812F27d8Bb4c",
      "pow5StablePool": "0x9483CB5C595C41Fd131DFbac2D6Ff6aCF21cCa74",
      "marketStablePool": "0xA6f1CB939ae89b0a44702bebBE4Cd925c9591028",
      "pow1MarketSwapper": "0x12E13B5C11252Acde2bc88143E5145aE39AAE5BE",
      "pow5StableSwapper": "0xcACdb73557E9a7BE4c08E76f4B36cC928f6c2f21",
      "marketStableSwapper": "0x9774d42AEC62Fc310b7f9f76275A01436872F623",
      "pow1MarketPooler": "0xf2790FAfC7bc867bd6d87c671B2E9f43b425cFa3",
      "pow5StablePooler": "0x31468e38C7F44472d59D56cFA5545Cfc8aB04e8E",
      "pow1LpNftStakeFarm": "0x47C9c84c2D3C5A1F813f7e1a9E561887bfb478d2",
      "pow5LpNftStakeFarm": "0x1e75B7c5365690A17750Ed0D67cD26Ee2daCfA9E",
      "pow1LpSftLendFarm": "0xBd661cFAEF277e41983609e12fb305E46aC60b3b",
      "pow5LpSftLendFarm": "0x8a0624eBe1379787c732D184C01d8bD17Cfcf3EF",
      "uniswapV3Factory": "0xbdF78601d83295421afe6C31225b9a1B5a5AD5e6",
      "uniswapV3NftManager": "0x17af5Dd8e9a37cF78E9949C7E25D805937cDfbFB"
    }
  ],
  "numDeployments": 1,
  "solcInputHash": "9eaa9fa15edb9065feab4ae045ea31f5",
  "bytecode": "0x608060405234801561001057600080fd5b50604051610c6e380380610c6e83398101604081905261002f9161026d565b8051600080546001600160a01b03199081166001600160a01b0393841617909155602083015160018054831691841691909117905560408301516002805483169184169190911790556060830151600380548316918416919091179055608083015160048054831691841691909117905560a083015160058054831691841691909117905560c083015160068054831691841691909117905560e0830151600780548316918416919091179055610100830151600880548316918416919091179055610120830151600980548316918416919091179055610140830151600a80548316918416919091179055610160830151600b80548316918416919091179055610180830151600c805483169184169190911790556101a0830151600d805483169184169190911790556101c0830151600e805483169184169190911790556101e0830151600f805483169184169190911790556102008301516010805483169184169190911790556102208301516011805483169184169190911790556102408301516012805483169184169190911790556102608301516013805483169184169190911790556102808301516014805483169184169190911790556102a08301516015805483169184169190911790556102c090920151601680549093169116179055610430565b6040516102e081016001600160401b038111828210171561024b57634e487b7160e01b600052604160045260246000fd5b60405290565b80516001600160a01b038116811461026857600080fd5b919050565b60006102e082840312801561028157600080fd5b5061028a61021a565b61029383610251565b81526102a160208401610251565b60208201526102b260408401610251565b60408201526102c360608401610251565b60608201526102d460808401610251565b60808201526102e560a08401610251565b60a08201526102f660c08401610251565b60c082015261030760e08401610251565b60e08201526103196101008401610251565b61010082015261032c6101208401610251565b61012082015261033f6101408401610251565b6101408201526103526101608401610251565b6101608201526103656101808401610251565b6101808201526103786101a08401610251565b6101a082015261038b6101c08401610251565b6101c082015261039e6101e08401610251565b6101e08201526103b16102008401610251565b6102008201526103c46102208401610251565b6102208201526103d76102408401610251565b6102408201526103ea6102608401610251565b6102608201526103fd6102808401610251565b6102808201526104106102a08401610251565b6102a08201526104236102c08401610251565b6102c08201529392505050565b61082f8061043f6000396000f3fe608060405234801561001057600080fd5b50600436106101735760003560e01c8063949f5d20116100de578063c1bd2fbb11610097578063de1f52d011610071578063de1f52d0146104cd578063e0299822146104de578063e577046d146104ef578063ecfdcb2c1461050057600080fd5b8063c1bd2fbb1461049a578063c81fcc95146104ab578063cbb43836146104bc57600080fd5b8063949f5d201461043457806399ba8c0c14610445578063a1abfd9514610456578063a9d75b2b14610467578063ad48d61114610478578063b4c7d2ca1461048957600080fd5b80633721d4ae116101305780633721d4ae146102095780633cc7385b1461021a5780635b5491821461022b5780636361a0d11461023c5780637e9280721461024d5780637f5979201461042357600080fd5b806301ffc9a7146101785780630e07cfca146101a057806311e80662146101c557806324d7197a146101d657806325e3a1c1146101e75780632f833182146101f8575b600080fd5b61018b610186366004610540565b610511565b60405190151581526020015b60405180910390f35b6009546001600160a01b03165b6040516001600160a01b039091168152602001610197565b6008546001600160a01b03166101ad565b6011546001600160a01b03166101ad565b6003546001600160a01b03166101ad565b600f546001600160a01b03166101ad565b600e546001600160a01b03166101ad565b600d546001600160a01b03166101ad565b6015546001600160a01b03166101ad565b6010546001600160a01b03166101ad565b610416604080516102e081018252600080825260208201819052918101829052606081018290526080810182905260a0810182905260c0810182905260e08101829052610100810182905261012081018290526101408101829052610160810182905261018081018290526101a081018290526101c081018290526101e08101829052610200810182905261022081018290526102408101829052610260810182905261028081018290526102a081018290526102c081019190915250604080516102e0810182526000546001600160a01b039081168252600154811660208301526002548116928201929092526003548216606082015260045482166080820152600554821660a0820152600654821660c0820152600754821660e082015260085482166101008201526009548216610120820152600a548216610140820152600b548216610160820152600c548216610180820152600d5482166101a0820152600e5482166101c0820152600f5482166101e08201526010548216610200820152601154821661022082015260125482166102408201526013548216610260820152601454821661028082015260155482166102a08201526016549091166102c082015290565b6040516101979190610571565b6004546001600160a01b03166101ad565b6001546001600160a01b03166101ad565b600a546001600160a01b03166101ad565b6007546001600160a01b03166101ad565b6006546001600160a01b03166101ad565b6005546001600160a01b03166101ad565b6014546001600160a01b03166101ad565b600b546001600160a01b03166101ad565b6016546001600160a01b03166101ad565b600c546001600160a01b03166101ad565b6013546001600160a01b03166101ad565b6000546001600160a01b03166101ad565b6002546001600160a01b03166101ad565b6012546001600160a01b03166101ad565b600063ea3cc98760e01b6001600160e01b03198316148061053a57506001600160e01b03198216155b92915050565b60006020828403121561055257600080fd5b81356001600160e01b03198116811461056a57600080fd5b9392505050565b81516001600160a01b031681526102e08101602083015161059d60208401826001600160a01b03169052565b5060408301516105b860408401826001600160a01b03169052565b5060608301516105d360608401826001600160a01b03169052565b5060808301516105ee60808401826001600160a01b03169052565b5060a083015161060960a08401826001600160a01b03169052565b5060c083015161062460c08401826001600160a01b03169052565b5060e083015161063f60e08401826001600160a01b03169052565b5061010083015161065c6101008401826001600160a01b03169052565b506101208301516106796101208401826001600160a01b03169052565b506101408301516106966101408401826001600160a01b03169052565b506101608301516106b36101608401826001600160a01b03169052565b506101808301516106d06101808401826001600160a01b03169052565b506101a08301516106ed6101a08401826001600160a01b03169052565b506101c083015161070a6101c08401826001600160a01b03169052565b506101e08301516107276101e08401826001600160a01b03169052565b506102008301516107446102008401826001600160a01b03169052565b506102208301516107616102208401826001600160a01b03169052565b5061024083015161077e6102408401826001600160a01b03169052565b5061026083015161079b6102608401826001600160a01b03169052565b506102808301516107b86102808401826001600160a01b03169052565b506102a08301516107d56102a08401826001600160a01b03169052565b506102c08301516107f26102c08401826001600160a01b03169052565b509291505056fea26469706673582212209739ca0ccace8d004cb93f0a687f7d88e9fac82ff27f6921afc9f7988fb2746564736f6c634300081c0033",
  "devdoc": {
    "kind": "dev",
    "methods": {
      "constructor": {
        "details": "Initializes The Reserve",
        "params": {
          "routes_": "The routes of The Reserve"
        }
      },
      "getRoutes()": {
        "details": "See {ITheReserveRoutes-getRoutes}"
      },
      "lpPow1Token()": {
        "details": "See {ITheReserveRoutes-lpPow1Token}"
      },
      "lpPow5Token()": {
        "details": "See {ITheReserveRoutes-lpPow5Token}"
      },
      "lpSft()": {
        "details": "See {ITheReserveRoutes-lpSft}"
      },
      "marketStablePool()": {
        "details": "See {ITheReserveRoutes-marketStablePool}"
      },
      "marketStableSwapper()": {
        "details": "See {ITheReserveRoutes-marketStableSwapper}"
      },
      "marketToken()": {
        "details": "See {ITheReserveRoutes-marketToken}"
      },
      "noLpSft()": {
        "details": "See {ITheReserveRoutes-noLpSft}"
      },
      "noPow5Token()": {
        "details": "See {ITheReserveRoutes-noPow5Token}"
      },
      "pow1LpNftStakeFarm()": {
        "details": "See {ITheReserveRoutes-pow1LpNftStakeFarm}"
      },
      "pow1LpSftLendFarm()": {
        "details": "See {ITheReserveRoutes-pow1LpSftLendFarm}"
      },
      "pow1MarketPool()": {
        "details": "See {ITheReserveRoutes-pow1MarketPool}"
      },
      "pow1MarketPooler()": {
        "details": "See {ITheReserveRoutes-pow1MarketPooler}"
      },
      "pow1MarketSwapper()": {
        "details": "See {ITheReserveRoutes-pow1MarketSwapper}"
      },
      "pow1Token()": {
        "details": "See {ITheReserveRoutes-pow1Token}"
      },
      "pow5LpNftStakeFarm()": {
        "details": "See {ITheReserveRoutes-pow5LpNftStakeFarm}"
      },
      "pow5LpSftLendFarm()": {
        "details": "See {ITheReserveRoutes-pow5LpSftLendFarm}"
      },
      "pow5StablePool()": {
        "details": "See {ITheReserveRoutes-pow5StablePool}"
      },
      "pow5StablePooler()": {
        "details": "See {ITheReserveRoutes-pow5StablePooler}"
      },
      "pow5StableSwapper()": {
        "details": "See {ITheReserveRoutes-pow5StableSwapper}"
      },
      "pow5Token()": {
        "details": "See {ITheReserveRoutes-pow5Token}"
      },
      "stableToken()": {
        "details": "See {ITheReserveRoutes-stableToken}"
      },
      "supportsInterface(bytes4)": {
        "details": "See {IERC165-supportsInterface}"
      },
      "uniswapV3Factory()": {
        "details": "See {ITheReserveRoutes-uniswapV3Factory}"
      },
      "uniswapV3NftManager()": {
        "details": "See {ITheReserveRoutes-uniswapV3NftManager}"
      }
    },
    "title": "The Reserve Smart Contract",
    "version": 1
  },
  "userdoc": {
    "kind": "user",
    "methods": {},
    "version": 1
  },
  "storageLayout": {
    "storage": [
      {
        "astId": 19725,
        "contract": "contracts/src/bureaucracy/theReserve/TheReserve.sol:TheReserve",
        "label": "_routes",
        "offset": 0,
        "slot": "0",
        "type": "t_struct(Routes)24273_storage"
      }
    ],
    "types": {
      "t_contract(IERC20)4496": {
        "encoding": "inplace",
        "label": "contract IERC20",
        "numberOfBytes": "20"
      },
      "t_contract(IGameTokenPooler)25132": {
        "encoding": "inplace",
        "label": "contract IGameTokenPooler",
        "numberOfBytes": "20"
      },
      "t_contract(IGameTokenSwapper)25198": {
        "encoding": "inplace",
        "label": "contract IGameTokenSwapper",
        "numberOfBytes": "20"
      },
      "t_contract(ILPNFTStakeFarm)24659": {
        "encoding": "inplace",
        "label": "contract ILPNFTStakeFarm",
        "numberOfBytes": "20"
      },
      "t_contract(ILPSFT)24844": {
        "encoding": "inplace",
        "label": "contract ILPSFT",
        "numberOfBytes": "20"
      },
      "t_contract(ILPSFTLendFarm)24697": {
        "encoding": "inplace",
        "label": "contract ILPSFTLendFarm",
        "numberOfBytes": "20"
      },
      "t_contract(IMarketStableSwapper)25266": {
        "encoding": "inplace",
        "label": "contract IMarketStableSwapper",
        "numberOfBytes": "20"
      },
      "t_contract(INOLPSFT)24860": {
        "encoding": "inplace",
        "label": "contract INOLPSFT",
        "numberOfBytes": "20"
      },
      "t_contract(INonfungiblePositionManager)16087": {
        "encoding": "inplace",
        "label": "contract INonfungiblePositionManager",
        "numberOfBytes": "20"
      },
      "t_contract(IUniV3StakeFarm)24729": {
        "encoding": "inplace",
        "label": "contract IUniV3StakeFarm",
        "numberOfBytes": "20"
      },
      "t_contract(IUniswapV3Factory)15337": {
        "encoding": "inplace",
        "label": "contract IUniswapV3Factory",
        "numberOfBytes": "20"
      },
      "t_contract(IUniswapV3Pool)15359": {
        "encoding": "inplace",
        "label": "contract IUniswapV3Pool",
        "numberOfBytes": "20"
      },
      "t_struct(Routes)24273_storage": {
        "encoding": "inplace",
        "label": "struct ITheReserveRoutes.Routes",
        "members": [
          {
            "astId": 24206,
            "contract": "contracts/src/bureaucracy/theReserve/TheReserve.sol:TheReserve",
            "label": "pow1Token",
            "offset": 0,
            "slot": "0",
            "type": "t_contract(IERC20)4496"
          },
          {
            "astId": 24209,
            "contract": "contracts/src/bureaucracy/theReserve/TheReserve.sol:TheReserve",
            "label": "pow5Token",
            "offset": 0,
            "slot": "1",
            "type": "t_contract(IERC20)4496"
          },
          {
            "astId": 24212,
            "contract": "contracts/src/bureaucracy/theReserve/TheReserve.sol:TheReserve",
            "label": "lpPow1Token",
            "offset": 0,
            "slot": "2",
            "type": "t_contract(IERC20)4496"
          },
          {
            "astId": 24215,
            "contract": "contracts/src/bureaucracy/theReserve/TheReserve.sol:TheReserve",
            "label": "lpPow5Token",
            "offset": 0,
            "slot": "3",
            "type": "t_contract(IERC20)4496"
          },
          {
            "astId": 24218,
            "contract": "contracts/src/bureaucracy/theReserve/TheReserve.sol:TheReserve",
            "label": "noPow5Token",
            "offset": 0,
            "slot": "4",
            "type": "t_contract(IERC20)4496"
          },
          {
            "astId": 24221,
            "contract": "contracts/src/bureaucracy/theReserve/TheReserve.sol:TheReserve",
            "label": "marketToken",
            "offset": 0,
            "slot": "5",
            "type": "t_contract(IERC20)4496"
          },
          {
            "astId": 24224,
            "contract": "contracts/src/bureaucracy/theReserve/TheReserve.sol:TheReserve",
            "label": "stableToken",
            "offset": 0,
            "slot": "6",
            "type": "t_contract(IERC20)4496"
          },
          {
            "astId": 24227,
            "contract": "contracts/src/bureaucracy/theReserve/TheReserve.sol:TheReserve",
            "label": "lpSft",
            "offset": 0,
            "slot": "7",
            "type": "t_contract(ILPSFT)24844"
          },
          {
            "astId": 24230,
            "contract": "contracts/src/bureaucracy/theReserve/TheReserve.sol:TheReserve",
            "label": "noLpSft",
            "offset": 0,
            "slot": "8",
            "type": "t_contract(INOLPSFT)24860"
          },
          {
            "astId": 24233,
            "contract": "contracts/src/bureaucracy/theReserve/TheReserve.sol:TheReserve",
            "label": "pow1MarketPool",
            "offset": 0,
            "slot": "9",
            "type": "t_contract(IUniswapV3Pool)15359"
          },
          {
            "astId": 24236,
            "contract": "contracts/src/bureaucracy/theReserve/TheReserve.sol:TheReserve",
            "label": "pow5StablePool",
            "offset": 0,
            "slot": "10",
            "type": "t_contract(IUniswapV3Pool)15359"
          },
          {
            "astId": 24239,
            "contract": "contracts/src/bureaucracy/theReserve/TheReserve.sol:TheReserve",
            "label": "marketStablePool",
            "offset": 0,
            "slot": "11",
            "type": "t_contract(IUniswapV3Pool)15359"
          },
          {
            "astId": 24242,
            "contract": "contracts/src/bureaucracy/theReserve/TheReserve.sol:TheReserve",
            "label": "pow1MarketSwapper",
            "offset": 0,
            "slot": "12",
            "type": "t_contract(IGameTokenSwapper)25198"
          },
          {
            "astId": 24245,
            "contract": "contracts/src/bureaucracy/theReserve/TheReserve.sol:TheReserve",
            "label": "pow5StableSwapper",
            "offset": 0,
            "slot": "13",
            "type": "t_contract(IGameTokenSwapper)25198"
          },
          {
            "astId": 24248,
            "contract": "contracts/src/bureaucracy/theReserve/TheReserve.sol:TheReserve",
            "label": "marketStableSwapper",
            "offset": 0,
            "slot": "14",
            "type": "t_contract(IMarketStableSwapper)25266"
          },
          {
            "astId": 24251,
            "contract": "contracts/src/bureaucracy/theReserve/TheReserve.sol:TheReserve",
            "label": "pow1MarketPooler",
            "offset": 0,
            "slot": "15",
            "type": "t_contract(IGameTokenPooler)25132"
          },
          {
            "astId": 24254,
            "contract": "contracts/src/bureaucracy/theReserve/TheReserve.sol:TheReserve",
            "label": "pow5StablePooler",
            "offset": 0,
            "slot": "16",
            "type": "t_contract(IGameTokenPooler)25132"
          },
          {
            "astId": 24257,
            "contract": "contracts/src/bureaucracy/theReserve/TheReserve.sol:TheReserve",
            "label": "pow1LpNftStakeFarm",
            "offset": 0,
            "slot": "17",
            "type": "t_contract(ILPNFTStakeFarm)24659"
          },
          {
            "astId": 24260,
            "contract": "contracts/src/bureaucracy/theReserve/TheReserve.sol:TheReserve",
            "label": "pow5LpNftStakeFarm",
            "offset": 0,
            "slot": "18",
            "type": "t_contract(IUniV3StakeFarm)24729"
          },
          {
            "astId": 24263,
            "contract": "contracts/src/bureaucracy/theReserve/TheReserve.sol:TheReserve",
            "label": "pow1LpSftLendFarm",
            "offset": 0,
            "slot": "19",
            "type": "t_contract(ILPSFTLendFarm)24697"
          },
          {
            "astId": 24266,
            "contract": "contracts/src/bureaucracy/theReserve/TheReserve.sol:TheReserve",
            "label": "pow5LpSftLendFarm",
            "offset": 0,
            "slot": "20",
            "type": "t_contract(ILPSFTLendFarm)24697"
          },
          {
            "astId": 24269,
            "contract": "contracts/src/bureaucracy/theReserve/TheReserve.sol:TheReserve",
            "label": "uniswapV3Factory",
            "offset": 0,
            "slot": "21",
            "type": "t_contract(IUniswapV3Factory)15337"
          },
          {
            "astId": 24272,
            "contract": "contracts/src/bureaucracy/theReserve/TheReserve.sol:TheReserve",
            "label": "uniswapV3NftManager",
            "offset": 0,
            "slot": "22",
            "type": "t_contract(INonfungiblePositionManager)16087"
          }
        ],
        "numberOfBytes": "736"
      }
    }
  }
}