{
  "address": "0xA067dB982Dbb51B8C72DD03ceAc4c01E883123a3",
  "abi": [
    {
      "inputs": [
        {
          "internalType": "contract IUniswapV3Factory",
          "name": "_factory",
          "type": "address"
        },
        {
          "internalType": "contract INonfungiblePositionManager",
          "name": "_nonfungiblePositionManager",
          "type": "address"
        },
        {
          "internalType": "uint256",
          "name": "_maxIncentiveStartLeadTime",
          "type": "uint256"
        },
        {
          "internalType": "uint256",
          "name": "_maxIncentiveDuration",
          "type": "uint256"
        }
      ],
      "stateMutability": "nonpayable",
      "type": "constructor"
    },
    {
      "anonymous": false,
      "inputs": [
        {
          "indexed": true,
          "internalType": "uint256",
          "name": "tokenId",
          "type": "uint256"
        },
        {
          "indexed": true,
          "internalType": "address",
          "name": "oldOwner",
          "type": "address"
        },
        {
          "indexed": true,
          "internalType": "address",
          "name": "newOwner",
          "type": "address"
        }
      ],
      "name": "DepositTransferred",
      "type": "event"
    },
    {
      "anonymous": false,
      "inputs": [
        {
          "indexed": true,
          "internalType": "contract IERC20Minimal",
          "name": "rewardToken",
          "type": "address"
        },
        {
          "indexed": true,
          "internalType": "contract IUniswapV3Pool",
          "name": "pool",
          "type": "address"
        },
        {
          "indexed": false,
          "internalType": "uint256",
          "name": "startTime",
          "type": "uint256"
        },
        {
          "indexed": false,
          "internalType": "uint256",
          "name": "endTime",
          "type": "uint256"
        },
        {
          "indexed": false,
          "internalType": "address",
          "name": "refundee",
          "type": "address"
        },
        {
          "indexed": false,
          "internalType": "uint256",
          "name": "reward",
          "type": "uint256"
        }
      ],
      "name": "IncentiveCreated",
      "type": "event"
    },
    {
      "anonymous": false,
      "inputs": [
        {
          "indexed": true,
          "internalType": "bytes32",
          "name": "incentiveId",
          "type": "bytes32"
        },
        {
          "indexed": false,
          "internalType": "uint256",
          "name": "refund",
          "type": "uint256"
        }
      ],
      "name": "IncentiveEnded",
      "type": "event"
    },
    {
      "anonymous": false,
      "inputs": [
        {
          "indexed": true,
          "internalType": "address",
          "name": "to",
          "type": "address"
        },
        {
          "indexed": false,
          "internalType": "uint256",
          "name": "reward",
          "type": "uint256"
        }
      ],
      "name": "RewardClaimed",
      "type": "event"
    },
    {
      "anonymous": false,
      "inputs": [
        {
          "indexed": true,
          "internalType": "uint256",
          "name": "tokenId",
          "type": "uint256"
        },
        {
          "indexed": true,
          "internalType": "bytes32",
          "name": "incentiveId",
          "type": "bytes32"
        },
        {
          "indexed": false,
          "internalType": "uint128",
          "name": "liquidity",
          "type": "uint128"
        }
      ],
      "name": "TokenStaked",
      "type": "event"
    },
    {
      "anonymous": false,
      "inputs": [
        {
          "indexed": true,
          "internalType": "uint256",
          "name": "tokenId",
          "type": "uint256"
        },
        {
          "indexed": true,
          "internalType": "bytes32",
          "name": "incentiveId",
          "type": "bytes32"
        }
      ],
      "name": "TokenUnstaked",
      "type": "event"
    },
    {
      "inputs": [
        {
          "internalType": "contract IERC20Minimal",
          "name": "rewardToken",
          "type": "address"
        },
        {
          "internalType": "address",
          "name": "to",
          "type": "address"
        },
        {
          "internalType": "uint256",
          "name": "amountRequested",
          "type": "uint256"
        }
      ],
      "name": "claimReward",
      "outputs": [
        {
          "internalType": "uint256",
          "name": "reward",
          "type": "uint256"
        }
      ],
      "stateMutability": "nonpayable",
      "type": "function"
    },
    {
      "inputs": [
        {
          "components": [
            {
              "internalType": "contract IERC20Minimal",
              "name": "rewardToken",
              "type": "address"
            },
            {
              "internalType": "contract IUniswapV3Pool",
              "name": "pool",
              "type": "address"
            },
            {
              "internalType": "uint256",
              "name": "startTime",
              "type": "uint256"
            },
            {
              "internalType": "uint256",
              "name": "endTime",
              "type": "uint256"
            },
            {
              "internalType": "address",
              "name": "refundee",
              "type": "address"
            }
          ],
          "internalType": "struct IUniswapV3Staker.IncentiveKey",
          "name": "key",
          "type": "tuple"
        },
        {
          "internalType": "uint256",
          "name": "reward",
          "type": "uint256"
        }
      ],
      "name": "createIncentive",
      "outputs": [],
      "stateMutability": "nonpayable",
      "type": "function"
    },
    {
      "inputs": [
        {
          "internalType": "uint256",
          "name": "",
          "type": "uint256"
        }
      ],
      "name": "deposits",
      "outputs": [
        {
          "internalType": "address",
          "name": "owner",
          "type": "address"
        },
        {
          "internalType": "uint48",
          "name": "numberOfStakes",
          "type": "uint48"
        },
        {
          "internalType": "int24",
          "name": "tickLower",
          "type": "int24"
        },
        {
          "internalType": "int24",
          "name": "tickUpper",
          "type": "int24"
        }
      ],
      "stateMutability": "view",
      "type": "function"
    },
    {
      "inputs": [
        {
          "components": [
            {
              "internalType": "contract IERC20Minimal",
              "name": "rewardToken",
              "type": "address"
            },
            {
              "internalType": "contract IUniswapV3Pool",
              "name": "pool",
              "type": "address"
            },
            {
              "internalType": "uint256",
              "name": "startTime",
              "type": "uint256"
            },
            {
              "internalType": "uint256",
              "name": "endTime",
              "type": "uint256"
            },
            {
              "internalType": "address",
              "name": "refundee",
              "type": "address"
            }
          ],
          "internalType": "struct IUniswapV3Staker.IncentiveKey",
          "name": "key",
          "type": "tuple"
        }
      ],
      "name": "endIncentive",
      "outputs": [
        {
          "internalType": "uint256",
          "name": "refund",
          "type": "uint256"
        }
      ],
      "stateMutability": "nonpayable",
      "type": "function"
    },
    {
      "inputs": [],
      "name": "factory",
      "outputs": [
        {
          "internalType": "contract IUniswapV3Factory",
          "name": "",
          "type": "address"
        }
      ],
      "stateMutability": "view",
      "type": "function"
    },
    {
      "inputs": [
        {
          "components": [
            {
              "internalType": "contract IERC20Minimal",
              "name": "rewardToken",
              "type": "address"
            },
            {
              "internalType": "contract IUniswapV3Pool",
              "name": "pool",
              "type": "address"
            },
            {
              "internalType": "uint256",
              "name": "startTime",
              "type": "uint256"
            },
            {
              "internalType": "uint256",
              "name": "endTime",
              "type": "uint256"
            },
            {
              "internalType": "address",
              "name": "refundee",
              "type": "address"
            }
          ],
          "internalType": "struct IUniswapV3Staker.IncentiveKey",
          "name": "key",
          "type": "tuple"
        },
        {
          "internalType": "uint256",
          "name": "tokenId",
          "type": "uint256"
        }
      ],
      "name": "getRewardInfo",
      "outputs": [
        {
          "internalType": "uint256",
          "name": "reward",
          "type": "uint256"
        },
        {
          "internalType": "uint160",
          "name": "secondsInsideX128",
          "type": "uint160"
        }
      ],
      "stateMutability": "view",
      "type": "function"
    },
    {
      "inputs": [
        {
          "internalType": "bytes32",
          "name": "",
          "type": "bytes32"
        }
      ],
      "name": "incentives",
      "outputs": [
        {
          "internalType": "uint256",
          "name": "totalRewardUnclaimed",
          "type": "uint256"
        },
        {
          "internalType": "uint160",
          "name": "totalSecondsClaimedX128",
          "type": "uint160"
        },
        {
          "internalType": "uint96",
          "name": "numberOfStakes",
          "type": "uint96"
        }
      ],
      "stateMutability": "view",
      "type": "function"
    },
    {
      "inputs": [],
      "name": "maxIncentiveDuration",
      "outputs": [
        {
          "internalType": "uint256",
          "name": "",
          "type": "uint256"
        }
      ],
      "stateMutability": "view",
      "type": "function"
    },
    {
      "inputs": [],
      "name": "maxIncentiveStartLeadTime",
      "outputs": [
        {
          "internalType": "uint256",
          "name": "",
          "type": "uint256"
        }
      ],
      "stateMutability": "view",
      "type": "function"
    },
    {
      "inputs": [
        {
          "internalType": "bytes[]",
          "name": "data",
          "type": "bytes[]"
        }
      ],
      "name": "multicall",
      "outputs": [
        {
          "internalType": "bytes[]",
          "name": "results",
          "type": "bytes[]"
        }
      ],
      "stateMutability": "payable",
      "type": "function"
    },
    {
      "inputs": [],
      "name": "nonfungiblePositionManager",
      "outputs": [
        {
          "internalType": "contract INonfungiblePositionManager",
          "name": "",
          "type": "address"
        }
      ],
      "stateMutability": "view",
      "type": "function"
    },
    {
      "inputs": [
        {
          "internalType": "address",
          "name": "",
          "type": "address"
        },
        {
          "internalType": "address",
          "name": "from",
          "type": "address"
        },
        {
          "internalType": "uint256",
          "name": "tokenId",
          "type": "uint256"
        },
        {
          "internalType": "bytes",
          "name": "data",
          "type": "bytes"
        }
      ],
      "name": "onERC721Received",
      "outputs": [
        {
          "internalType": "bytes4",
          "name": "",
          "type": "bytes4"
        }
      ],
      "stateMutability": "nonpayable",
      "type": "function"
    },
    {
      "inputs": [
        {
          "internalType": "contract IERC20Minimal",
          "name": "",
          "type": "address"
        },
        {
          "internalType": "address",
          "name": "",
          "type": "address"
        }
      ],
      "name": "rewards",
      "outputs": [
        {
          "internalType": "uint256",
          "name": "",
          "type": "uint256"
        }
      ],
      "stateMutability": "view",
      "type": "function"
    },
    {
      "inputs": [
        {
          "components": [
            {
              "internalType": "contract IERC20Minimal",
              "name": "rewardToken",
              "type": "address"
            },
            {
              "internalType": "contract IUniswapV3Pool",
              "name": "pool",
              "type": "address"
            },
            {
              "internalType": "uint256",
              "name": "startTime",
              "type": "uint256"
            },
            {
              "internalType": "uint256",
              "name": "endTime",
              "type": "uint256"
            },
            {
              "internalType": "address",
              "name": "refundee",
              "type": "address"
            }
          ],
          "internalType": "struct IUniswapV3Staker.IncentiveKey",
          "name": "key",
          "type": "tuple"
        },
        {
          "internalType": "uint256",
          "name": "tokenId",
          "type": "uint256"
        }
      ],
      "name": "stakeToken",
      "outputs": [],
      "stateMutability": "nonpayable",
      "type": "function"
    },
    {
      "inputs": [
        {
          "internalType": "uint256",
          "name": "tokenId",
          "type": "uint256"
        },
        {
          "internalType": "bytes32",
          "name": "incentiveId",
          "type": "bytes32"
        }
      ],
      "name": "stakes",
      "outputs": [
        {
          "internalType": "uint160",
          "name": "secondsPerLiquidityInsideInitialX128",
          "type": "uint160"
        },
        {
          "internalType": "uint128",
          "name": "liquidity",
          "type": "uint128"
        }
      ],
      "stateMutability": "view",
      "type": "function"
    },
    {
      "inputs": [
        {
          "internalType": "uint256",
          "name": "tokenId",
          "type": "uint256"
        },
        {
          "internalType": "address",
          "name": "to",
          "type": "address"
        }
      ],
      "name": "transferDeposit",
      "outputs": [],
      "stateMutability": "nonpayable",
      "type": "function"
    },
    {
      "inputs": [
        {
          "components": [
            {
              "internalType": "contract IERC20Minimal",
              "name": "rewardToken",
              "type": "address"
            },
            {
              "internalType": "contract IUniswapV3Pool",
              "name": "pool",
              "type": "address"
            },
            {
              "internalType": "uint256",
              "name": "startTime",
              "type": "uint256"
            },
            {
              "internalType": "uint256",
              "name": "endTime",
              "type": "uint256"
            },
            {
              "internalType": "address",
              "name": "refundee",
              "type": "address"
            }
          ],
          "internalType": "struct IUniswapV3Staker.IncentiveKey",
          "name": "key",
          "type": "tuple"
        },
        {
          "internalType": "uint256",
          "name": "tokenId",
          "type": "uint256"
        }
      ],
      "name": "unstakeToken",
      "outputs": [],
      "stateMutability": "nonpayable",
      "type": "function"
    },
    {
      "inputs": [
        {
          "internalType": "uint256",
          "name": "tokenId",
          "type": "uint256"
        },
        {
          "internalType": "address",
          "name": "to",
          "type": "address"
        },
        {
          "internalType": "bytes",
          "name": "data",
          "type": "bytes"
        }
      ],
      "name": "withdrawToken",
      "outputs": [],
      "stateMutability": "nonpayable",
      "type": "function"
    }
  ],
  "transactionHash": "0xe6eef8ffbd0df2729242a0794a82b85047395aa3b28d4cf9722a51900105515e",
  "args": [
    "0xbdF78601d83295421afe6C31225b9a1B5a5AD5e6",
    "0x17af5Dd8e9a37cF78E9949C7E25D805937cDfbFB",
    0,
    "115792089237316195423570985008687907853269984665640564039457584007913129639935"
  ],
  "numDeployments": 1,
  "solcInputHash": "a8f51c689e1df72063d17565701fd939",
  "bytecode": "0x6101006040523480156200001257600080fd5b50604051620031643803806200316483398101604081905262000035916200005e565b6001600160601b0319606094851b81166080529290931b90911660a05260c05260e052620000c3565b6000806000806080858703121562000074578384fd5b84516200008181620000aa565b60208601519094506200009481620000aa565b6040860151606090960151949790965092505050565b6001600160a01b0381168114620000c057600080fd5b50565b60805160601c60a05160601c60c05160e051613042620001226000398061098b5280610a6052508061039152806109f35250806103c0528061040b52806109165280610cfb5280611455525080610e62528061143452506130426000f3fe6080604052600436106101095760003560e01c8063b02c43d011610095578063c45a015511610064578063c45a0155146102ec578063d953186e14610301578063e70b9e271461032f578063f2d2909b1461034f578063f549ab421461036f57610109565b8063b02c43d01461024c578063b44a27221461027c578063b5ada6e41461029e578063c36c1ea5146102be57610109565b80633c423f0b116100dc5780633c423f0b146101a85780633dc0714b146101c85780635cc5e3d9146101dd57806360777795146101fd578063ac9650d81461022c57610109565b806301b754401461010e578063150b7a021461013957806326bfee04146101665780632f2d783d14610188575b600080fd5b34801561011a57600080fd5b5061012361038f565b6040516101309190612e32565b60405180910390f35b34801561014557600080fd5b50610159610154366004611ec5565b6103b3565b60405161013091906124e0565b34801561017257600080fd5b50610186610181366004612222565b61066e565b005b34801561019457600080fd5b506101236101a33660046120cc565b610729565b3480156101b457600080fd5b506101866101c3366004612246565b6107e0565b3480156101d457600080fd5b50610123610989565b3480156101e957600080fd5b506101866101f83660046121f8565b6109ad565b34801561020957600080fd5b5061021d61021836600461207c565b610b42565b60405161013093929190612e52565b61023f61023a366004611f5f565b610b76565b6040516101309190612480565b34801561025857600080fd5b5061026c61026736600461207c565b610cb6565b604051610130949392919061244c565b34801561028857600080fd5b50610291610cf9565b60405161013091906124f5565b3480156102aa57600080fd5b506101236102b93660046121dd565b610d1d565b3480156102ca57600080fd5b506102de6102d93660046122d8565b610e07565b604051610130929190612e10565b3480156102f857600080fd5b50610291610e60565b34801561030d57600080fd5b5061032161031c3660046121f8565b610e84565b604051610130929190612e3b565b34801561033b57600080fd5b5061012361034a366004612094565b611019565b34801561035b57600080fd5b5061018661036a3660046121f8565b611036565b34801561037b57600080fd5b5061018661038a3660046121f8565b61107a565b7f000000000000000000000000000000000000000000000000000000000000000081565b6000336001600160a01b037f000000000000000000000000000000000000000000000000000000000000000016146104065760405162461bcd60e51b81526004016103fd90612d0a565b60405180910390fd5b6000807f00000000000000000000000000000000000000000000000000000000000000006001600160a01b03166399fbab88876040518263ffffffff1660e01b81526004016104559190612e32565b6101806040518083038186803b15801561046e57600080fd5b505afa158015610482573d6000803e3d6000fd5b505050506040513d601f19601f820116820180604052508101906104a691906122f9565b50505050509650965050505050506040518060800160405280886001600160a01b03168152602001600065ffffffffffff1681526020018360020b81526020018260020b8152506001600088815260200190815260200160002060008201518160000160006101000a8154816001600160a01b0302191690836001600160a01b0316021790555060208201518160000160146101000a81548165ffffffffffff021916908365ffffffffffff160217905550604082015181600001601a6101000a81548162ffffff021916908360020b62ffffff160217905550606082015181600001601d6101000a81548162ffffff021916908360020b62ffffff160217905550905050866001600160a01b031660006001600160a01b0316877fcdfc765b85e1048bee3c6a0f9d1c91fc7c4631f5fe5745a55fc6843db5c3260f60405160405180910390a4831561065a5760a08414156106165761061161060b858701876121dd565b87611362565b61065a565b600061062485870187611fce565b905060005b81518110156106575761064f82828151811061064157fe5b602002602001015189611362565b600101610629565b50505b50630a85bd0160e11b979650505050505050565b6001600160a01b0381166106945760405162461bcd60e51b81526004016103fd90612802565b6000828152600160205260409020546001600160a01b03163381146106cb5760405162461bcd60e51b81526004016103fd90612582565b60008381526001602052604080822080546001600160a01b0319166001600160a01b03868116918217909255915191929084169186917fcdfc765b85e1048bee3c6a0f9d1c91fc7c4631f5fe5745a55fc6843db5c3260f91a4505050565b6001600160a01b0383166000908152600360209081526040808320338452909152902054811580159061075b57508082105b156107635750805b6001600160a01b0384166000908152600360209081526040808320338452909152902080548290039055610798848483611703565b826001600160a01b03167f106f923f993c2149d49b4255ff723acafa1f2d94393f561d3eda32ae348f7241826040516107d19190612e32565b60405180910390a29392505050565b6001600160a01b0382163014156108095760405162461bcd60e51b81526004016103fd90612d5c565b600083815260016020908152604091829020825160808101845290546001600160a01b038116825265ffffffffffff600160a01b820416928201839052600160d01b8104600290810b810b810b94830194909452600160e81b9004830b830b90920b60608301521561088d5760405162461bcd60e51b81526004016103fd906126fd565b80516001600160a01b031633146108b65760405162461bcd60e51b81526004016103fd90612aa2565b600084815260016020526040808220829055825190516001600160a01b039091169086907fcdfc765b85e1048bee3c6a0f9d1c91fc7c4631f5fe5745a55fc6843db5c3260f908490a4604051635c46a7ef60e11b81526001600160a01b037f0000000000000000000000000000000000000000000000000000000000000000169063b88d4fde9061095190309087908990889060040161240f565b600060405180830381600087803b15801561096b57600080fd5b505af115801561097f573d6000803e3d6000fd5b5050505050505050565b7f000000000000000000000000000000000000000000000000000000000000000081565b600081116109cd5760405162461bcd60e51b81526004016103fd90612bcf565b81604001514211156109f15760405162461bcd60e51b81526004016103fd9061285f565b7f0000000000000000000000000000000000000000000000000000000000000000428360400151031115610a375760405162461bcd60e51b81526004016103fd90612c1a565b8160600151826040015110610a5e5760405162461bcd60e51b81526004016103fd90612cb2565b7f000000000000000000000000000000000000000000000000000000000000000082604001518360600151031115610aa85760405162461bcd60e51b81526004016103fd90612c66565b6000610ab383611760565b60008181526020819052604090208054840190558351909150610ad890333085611791565b82602001516001600160a01b031683600001516001600160a01b03167fa876344e28d4b5191ad03bc0d43f740e3695827ab0faccac739930b915ef8b0285604001518660600151876080015187604051610b359493929190612e7a565b60405180910390a3505050565b600060208190529081526040902080546001909101546001600160a01b03811690600160a01b90046001600160601b031683565b60608167ffffffffffffffff81118015610b8f57600080fd5b50604051908082528060200260200182016040528015610bc357816020015b6060815260200190600190039081610bae5790505b50905060005b82811015610caf5760008030868685818110610be157fe5b9050602002810190610bf39190612e9e565b604051610c019291906123ff565b600060405180830381855af49150503d8060008114610c3c576040519150601f19603f3d011682016040523d82523d6000602084013e610c41565b606091505b509150915081610c8d57604481511015610c5a57600080fd5b60048101905080806020019051810190610c749190612165565b60405162461bcd60e51b81526004016103fd919061251d565b80848481518110610c9a57fe5b60209081029190910101525050600101610bc9565b5092915050565b6001602052600090815260409020546001600160a01b0381169065ffffffffffff600160a01b82041690600160d01b8104600290810b91600160e81b9004900b84565b7f000000000000000000000000000000000000000000000000000000000000000081565b60008160600151421015610d435760405162461bcd60e51b81526004016103fd90612641565b6000610d4e83611760565b60008181526020819052604090208054935090915082610d805760405162461bcd60e51b81526004016103fd90612530565b6001810154600160a01b90046001600160601b031615610db25760405162461bcd60e51b81526004016103fd90612aff565b6000815583516080850151610dc8919085611703565b817f65124e6175aa9904f40735e87e2a37c76e87a609b855287bb4d1aba8257d976384604051610df89190612e32565b60405180910390a25050919050565b6000828152600260209081526040808320848452909152902080546001600160a01b038116916001600160601b03600160a01b909204821691821415610e585760018101546001600160801b031691505b509250929050565b7f000000000000000000000000000000000000000000000000000000000000000081565b6000806000610e9285611760565b9050600080610ea18684610e07565b915091506000816001600160801b031611610ece5760405162461bcd60e51b81526004016103fd906125ed565b6000868152600160208181526040808420815160808101835290546001600160a01b038082168352600160a01b80830465ffffffffffff1684870152600160d01b8304600290810b810b810b858701908152600160e81b909404810b810b900b60608086019182528c8a52898852868a2087519182018852805482529098015480841689890152919091046001600160601b031687860152948e01519151945193516351c403f960e11b815292969491169263a38807f292610f94929190600401612509565b60606040518083038186803b158015610fac57600080fd5b505afa158015610fc0573d6000803e3d6000fd5b505050506040513d601f19601f82011682018060405250810190610fe4919061210c565b50915050611008826000015183602001518c604001518d60600151888a87426117f0565b909b909a5098505050505050505050565b600360209081526000928352604080842090915290825290205481565b6000818152600160205260409020546001600160a01b0316331461106c5760405162461bcd60e51b81526004016103fd90612b72565b6110768282611362565b5050565b600081815260016020908152604091829020825160808101845290546001600160a01b038116825265ffffffffffff600160a01b82041692820192909252600160d01b8204600290810b810b810b93820193909352600160e81b909104820b820b90910b60608083019190915283015142101561111a5780516001600160a01b0316331461111a5760405162461bcd60e51b81526004016103fd9061296d565b600061112584611760565b90506000806111348584610e07565b91509150806001600160801b0316600014156111625760405162461bcd60e51b81526004016103fd906126aa565b6000838152602081815260408083208884526001808452828520805460001965ffffffffffff600160a01b80840482168301909116810265ffffffffffff60a01b199093169290921790925591830180546001600160601b0384820481169093019092169092026001600160a01b0391821617909155928a01518883015160608a015193516351c403f960e11b8152929594919091169263a38807f29261120d929190600401612509565b60606040518083038186803b15801561122557600080fd5b505afa158015611239573d6000803e3d6000fd5b505050506040513d601f19601f8201168201806040525081019061125d919061210c565b508354600185015460408c015160608d015193955060009450849361129193926001600160a01b03169190898b89426117f0565b6001860180546001600160a01b031981166001600160a01b039182168401821617909155865483900387558c51811660009081526003602090815260408083208e5190941683529281528282208054860190558d8252600281528282208c8352905290812090815591935091506001600160601b036001600160801b03871610611328576001810180546001600160801b03191690555b60405188908b907fe1ba67e807ae0efa0a9549f9520ddc15c27f0a4dae2bc045e800ca66a940778f90600090a35050505050505050505050565b81604001514210156113865760405162461bcd60e51b81526004016103fd906129e9565b816060015142106113a95760405162461bcd60e51b81526004016103fd906127b6565b60006113b483611760565b6000818152602081905260409020549091506113e25760405162461bcd60e51b81526004016103fd9061291a565b6000828152600260209081526040808320848452909152902054600160a01b90046001600160601b0316156114295760405162461bcd60e51b81526004016103fd90612765565b60008060008061147a7f00000000000000000000000000000000000000000000000000000000000000007f00000000000000000000000000000000000000000000000000000000000000008861184f565b935093509350935086602001516001600160a01b0316846001600160a01b0316146114b75760405162461bcd60e51b81526004016103fd90612a3b565b6000816001600160801b0316116114e05760405162461bcd60e51b81526004016103fd906128bc565b6000868152600160208181526040808420805465ffffffffffff600160a01b80830482168701909116810265ffffffffffff60a01b199092169190911790915589855291849052808420830180546001600160601b0384820481169095019094169092026001600160a01b0393841617909155516351c403f960e11b81529086169063a38807f2906115789087908790600401612509565b60606040518083038186803b15801561159057600080fd5b505afa1580156115a4573d6000803e3d6000fd5b505050506040513d601f19601f820116820180604052508101906115c8919061210c565b509150506001600160601b036001600160801b0383161061167757604080516060810182526001600160a01b0380841682526001600160601b0360208084018281526001600160801b0380891686880190815260008f8152600285528881208f825290945296909220945185549151909316600160a01b029284166001600160a01b031990911617909216178255915160019091018054919092166001600160801b03199091161790556116c0565b6000878152600260209081526040808320898452909152902080546001600160a01b0319166001600160a01b038381169190911716600160a01b6001600160601b038516021790555b85877f3fe90ccd0a34e28f2b4b7a1e8323415ed9dd595f4eec5dfd461d18c2df336dbd846040516116f19190612dfc565b60405180910390a35050505050505050565b611715836001600160a01b031661193e565b6117505760405162461bcd60e51b815260040180806020018281038252603a815260200180612f75603a913960400191505060405180910390fd5b61175b838383611944565b505050565b6000816040516020016117739190612db9565b6040516020818303038152906040528051906020012090505b919050565b6117a3846001600160a01b031661193e565b6117de5760405162461bcd60e51b815260040180806020018281038252603e815260200180612faf603e913960400191505060405180910390fd5b6117ea84848484611a92565b50505050565b600080878310156117fd57fe5b508383036001600160801b0386160260006001600160a01b038a1660808a6118258b88611bea565b03901b03905061183f8b836001600160a01b031683611c03565b9250509850989650505050505050565b6000806000806000806000886001600160a01b03166399fbab88896040518263ffffffff1660e01b8152600401808281526020019150506101806040518083038186803b15801561189f57600080fd5b505afa1580156118b3573d6000803e3d6000fd5b505050506040513d6101808110156118ca57600080fd5b50604080820151606080840151608085015160a086015160c087015160e090970151865194850187526001600160a01b0380871686528416602086015262ffffff8316968501969096529b50949950929750909550909350909150611930908b90611cb2565b965050505093509350935093565b3b151590565b604080516001600160a01b038481166024830152604480830185905283518084039091018152606490920183526020820180516001600160e01b031663a9059cbb60e01b1781529251825160009485949389169392918291908083835b602083106119c05780518252601f1990920191602091820191016119a1565b6001836020036101000a0380198251168184511680821785525050505050509050019150506000604051808303816000865af19150503d8060008114611a22576040519150601f19603f3d011682016040523d82523d6000602084013e611a27565b606091505b5091509150818015611a55575080511580611a555750808060200190516020811015611a5257600080fd5b50515b611a8b576040805162461bcd60e51b815260206004820152600260248201526114d560f21b604482015290519081900360640190fd5b5050505050565b604080516001600160a01b0385811660248301528481166044830152606480830185905283518084039091018152608490920183526020820180516001600160e01b03166323b872dd60e01b178152925182516000948594938a169392918291908083835b60208310611b165780518252601f199092019160209182019101611af7565b6001836020036101000a0380198251168184511680821785525050505050509050019150506000604051808303816000865af19150503d8060008114611b78576040519150601f19603f3d011682016040523d82523d6000602084013e611b7d565b606091505b5091509150818015611bab575080511580611bab5750808060200190516020811015611ba857600080fd5b50515b611be2576040805162461bcd60e51b815260206004820152600360248201526229aa2360e91b604482015290519081900360640190fd5b505050505050565b600081831015611bfa5781611bfc565b825b9392505050565b6000808060001985870986860292508281109083900303905080611c395760008411611c2e57600080fd5b508290049050611bfc565b808411611c4557600080fd5b6000848688096000868103871696879004966002600389028118808a02820302808a02820302808a02820302808a02820302808a02820302808a02909103029181900381900460010186841190950394909402919094039290920491909117919091029150509392505050565b600081602001516001600160a01b031682600001516001600160a01b031610611cda57600080fd5b8282600001518360200151846040015160405160200180846001600160a01b03168152602001836001600160a01b031681526020018262ffffff168152602001935050505060405160208183030381529060405280519060200120846001600160a01b031663554dcae76040518163ffffffff1660e01b815260040160206040518083038186803b158015611d6e57600080fd5b505afa158015611d82573d6000803e3d6000fd5b505050506040513d6020811015611d9857600080fd5b5051604080516001600160f81b031960208083019190915260609590951b6bffffffffffffffffffffffff19166021820152603581019390935260558084019290925280518084039092018252607590920190915280519101209392505050565b805161178c81612f5c565b8051600281900b811461178c57600080fd5b600060a08284031215611e27578081fd5b60405160a0810181811067ffffffffffffffff82111715611e4457fe5b6040529050808235611e5581612f5c565b81526020830135611e6581612f5c565b8060208301525060408301356040820152606083013560608201526080830135611e8e81612f5c565b6080919091015292915050565b80516001600160801b038116811461178c57600080fd5b805162ffffff8116811461178c57600080fd5b600080600080600060808688031215611edc578081fd5b8535611ee781612f5c565b94506020860135611ef781612f5c565b935060408601359250606086013567ffffffffffffffff80821115611f1a578283fd5b818801915088601f830112611f2d578283fd5b813581811115611f3b578384fd5b896020828501011115611f4c578384fd5b9699959850939650602001949392505050565b60008060208385031215611f71578182fd5b823567ffffffffffffffff80821115611f88578384fd5b818501915085601f830112611f9b578384fd5b813581811115611fa9578485fd5b8660208083028501011115611fbc578485fd5b60209290920196919550909350505050565b60006020808385031215611fe0578182fd5b823567ffffffffffffffff80821115611ff7578384fd5b818501915085601f83011261200a578384fd5b81358181111561201657fe5b6120238485830201612eea565b818152848101925083850160a0808402860187018a1015612042578788fd5b8795505b8386101561206e576120588a83611e16565b8552600195909501949386019390810190612046565b509098975050505050505050565b60006020828403121561208d578081fd5b5035919050565b600080604083850312156120a6578182fd5b82356120b181612f5c565b915060208301356120c181612f5c565b809150509250929050565b6000806000606084860312156120e0578081fd5b83356120eb81612f5c565b925060208401356120fb81612f5c565b929592945050506040919091013590565b600080600060608486031215612120578081fd5b83518060060b8114612130578182fd5b602085015190935061214181612f5c565b604085015190925063ffffffff8116811461215a578182fd5b809150509250925092565b600060208284031215612176578081fd5b815167ffffffffffffffff81111561218c578182fd5b8201601f8101841361219c578182fd5b80516121af6121aa82612f0e565b612eea565b8181528560208385010111156121c3578384fd5b6121d4826020830160208601612f30565b95945050505050565b600060a082840312156121ee578081fd5b611bfc8383611e16565b60008060c0838503121561220a578182fd5b6122148484611e16565b9460a0939093013593505050565b60008060408385031215612234578182fd5b8235915060208301356120c181612f5c565b60008060006060848603121561225a578081fd5b83359250602084013561226c81612f5c565b9150604084013567ffffffffffffffff811115612287578182fd5b8401601f81018613612297578182fd5b80356122a56121aa82612f0e565b8181528760208385010111156122b9578384fd5b8160208401602083013783602083830101528093505050509250925092565b600080604083850312156122ea578182fd5b50508035926020909101359150565b6000806000806000806000806000806000806101808d8f03121561231b57898afd5b8c516001600160601b0381168114612331578a8bfd5b9b5061233f60208e01611df9565b9a5061234d60408e01611df9565b995061235b60608e01611df9565b985061236960808e01611eb2565b975061237760a08e01611e04565b965061238560c08e01611e04565b955061239360e08e01611e9b565b94506101008d015193506101208d015192506123b26101408e01611e9b565b91506123c16101608e01611e9b565b90509295989b509295989b509295989b565b600081518084526123eb816020860160208601612f30565b601f01601f19169290920160200192915050565b6000828483379101908152919050565b6001600160a01b0385811682528416602082015260408101839052608060608201819052600090612442908301846123d3565b9695505050505050565b6001600160a01b0394909416845265ffffffffffff929092166020840152600290810b60408401520b606082015260800190565b6000602080830181845280855180835260408601915060408482028701019250838701855b828110156124d357603f198886030184526124c18583516123d3565b945092850192908501906001016124a5565b5092979650505050505050565b6001600160e01b031991909116815260200190565b6001600160a01b0391909116815260200190565b600292830b8152910b602082015260400190565b600060208252611bfc60208301846123d3565b60208082526032908201527f556e697377617056335374616b65723a3a656e64496e63656e746976653a206e6040820152716f20726566756e6420617661696c61626c6560701b606082015260800190565b60208082526045908201527f556e697377617056335374616b65723a3a7472616e736665724465706f73697460408201527f3a2063616e206f6e6c792062652063616c6c6564206279206465706f7369742060608201526437bbb732b960d91b608082015260a00190565b60208082526034908201527f556e697377617056335374616b65723a3a676574526577617264496e666f3a206040820152731cdd185ad948191bd95cc81b9bdd08195e1a5cdd60621b606082015260800190565b60208082526043908201527f556e697377617056335374616b65723a3a656e64496e63656e746976653a206360408201527f616e6e6f7420656e6420696e63656e74697665206265666f726520656e642074606082015262696d6560e81b608082015260a00190565b60208082526033908201527f556e697377617056335374616b65723a3a756e7374616b65546f6b656e3a20736040820152721d185ad948191bd95cc81b9bdd08195e1a5cdd606a1b606082015260800190565b60208082526042908201527f556e697377617056335374616b65723a3a7769746864726177546f6b656e3a2060408201527f63616e6e6f7420776974686472617720746f6b656e207768696c65207374616b606082015261195960f21b608082015260a00190565b60208082526031908201527f556e697377617056335374616b65723a3a7374616b65546f6b656e3a20746f6b604082015270195b88185b1c9958591e481cdd185ad959607a1b606082015260800190565b6020808252602c908201527f556e697377617056335374616b65723a3a7374616b65546f6b656e3a20696e6360408201526b195b9d1a5d9948195b99195960a21b606082015260800190565b6020808252603c908201527f556e697377617056335374616b65723a3a7472616e736665724465706f73697460408201527f3a20696e76616c6964207472616e7366657220726563697069656e7400000000606082015260800190565b6020808252604990820152600080516020612fed83398151915260408201527f3a2073746172742074696d65206d757374206265206e6f77206f7220696e207460608201526868652066757475726560b81b608082015260a00190565b602080825260409082018190527f556e697377617056335374616b65723a3a7374616b65546f6b656e3a2063616e908201527f6e6f74207374616b6520746f6b656e20776974682030206c6971756964697479606082015260800190565b60208082526033908201527f556e697377617056335374616b65723a3a7374616b65546f6b656e3a206e6f6e6040820152722d6578697374656e7420696e63656e7469766560681b606082015260800190565b60208082526056908201527f556e697377617056335374616b65723a3a756e7374616b65546f6b656e3a206f60408201527f6e6c79206f776e65722063616e20776974686472617720746f6b656e206265666060820152756f726520696e63656e7469766520656e642074696d6560501b608082015260a00190565b60208082526032908201527f556e697377617056335374616b65723a3a7374616b65546f6b656e3a20696e63604082015271195b9d1a5d99481b9bdd081cdd185c9d195960721b606082015260800190565b60208082526041908201527f556e697377617056335374616b65723a3a7374616b65546f6b656e3a20746f6b60408201527f656e20706f6f6c206973206e6f742074686520696e63656e7469766520706f6f6060820152601b60fa1b608082015260a00190565b6020808252603d908201527f556e697377617056335374616b65723a3a7769746864726177546f6b656e3a2060408201527f6f6e6c79206f776e65722063616e20776974686472617720746f6b656e000000606082015260800190565b6020808252604d908201527f556e697377617056335374616b65723a3a656e64496e63656e746976653a206360408201527f616e6e6f7420656e6420696e63656e74697665207768696c65206465706f736960608201526c1d1cc8185c99481cdd185ad959609a1b608082015260a00190565b60208082526037908201527f556e697377617056335374616b65723a3a7374616b65546f6b656e3a206f6e6c60408201527f79206f776e65722063616e207374616b6520746f6b656e000000000000000000606082015260800190565b6020808252603990820152600080516020612fed83398151915260408201527f3a20726577617264206d75737420626520706f73697469766500000000000000606082015260800190565b60208082526040908201819052600080516020612fed833981519152908201527f3a2073746172742074696d6520746f6f2066617220696e746f20667574757265606082015260800190565b60208082526040908201819052600080516020612fed833981519152908201527f3a20696e63656e74697665206475726174696f6e20697320746f6f206c6f6e67606082015260800190565b6020808252604490820152600080516020612fed83398151915260408201527f3a2073746172742074696d65206d757374206265206265666f726520656e642060608201526374696d6560e01b608082015260a00190565b60208082526032908201527f556e697377617056335374616b65723a3a6f6e45524337323152656365697665604082015271190e881b9bdd0818481d5b9a5d8cc81b999d60721b606082015260800190565b60208082526039908201527f556e697377617056335374616b65723a3a7769746864726177546f6b656e3a2060408201527f63616e6e6f7420776974686472617720746f207374616b657200000000000000606082015260800190565b81516001600160a01b0390811682526020808401518216908301526040808401519083015260608084015190830152608092830151169181019190915260a00190565b6001600160801b0391909116815260200190565b6001600160a01b039290921682526001600160801b0316602082015260400190565b90815260200190565b9182526001600160a01b0316602082015260400190565b9283526001600160a01b039190911660208301526001600160601b0316604082015260600190565b93845260208401929092526001600160a01b03166040830152606082015260800190565b6000808335601e19843603018112612eb4578283fd5b83018035915067ffffffffffffffff821115612ece578283fd5b602001915036819003821315612ee357600080fd5b9250929050565b60405181810167ffffffffffffffff81118282101715612f0657fe5b604052919050565b600067ffffffffffffffff821115612f2257fe5b50601f01601f191660200190565b60005b83811015612f4b578181015183820152602001612f33565b838111156117ea5750506000910152565b6001600160a01b0381168114612f7157600080fd5b5056fe5472616e7366657248656c706572457874656e6465643a3a736166655472616e736665723a2063616c6c20746f206e6f6e2d636f6e74726163745472616e7366657248656c706572457874656e6465643a3a736166655472616e7366657246726f6d3a2063616c6c20746f206e6f6e2d636f6e7472616374556e697377617056335374616b65723a3a637265617465496e63656e74697665a2646970667358221220aec3ff79a32636efc5f49cbaae32dd76ede9f38dd9affd2cc527ff1d4eff14d664736f6c63430007060033",
  "devdoc": {
    "kind": "dev",
    "methods": {
      "claimReward(address,address,uint256)": {
        "params": {
          "amountRequested": "The amount of reward tokens to claim. Claims entire reward amount if set to 0.",
          "rewardToken": "The token being distributed as a reward",
          "to": "The address where claimed rewards will be sent to"
        },
        "returns": {
          "reward": "The amount of reward tokens claimed"
        }
      },
      "constructor": {
        "params": {
          "_factory": "the Uniswap V3 factory",
          "_maxIncentiveDuration": "the max amount of seconds into the future the incentive startTime can be set",
          "_maxIncentiveStartLeadTime": "the max duration of an incentive in seconds",
          "_nonfungiblePositionManager": "the NFT position manager contract address"
        }
      },
      "createIncentive((address,address,uint256,uint256,address),uint256)": {
        "params": {
          "key": "Details of the incentive to create",
          "reward": "The amount of reward tokens to be distributed"
        }
      },
      "endIncentive((address,address,uint256,uint256,address))": {
        "params": {
          "key": "Details of the incentive to end"
        },
        "returns": {
          "refund": "The remaining reward tokens when the incentive is ended"
        }
      },
      "getRewardInfo((address,address,uint256,uint256,address),uint256)": {
        "params": {
          "key": "The key of the incentive",
          "tokenId": "The ID of the token"
        },
        "returns": {
          "reward": "The reward accrued to the NFT for the given incentive thus far"
        }
      },
      "multicall(bytes[])": {
        "details": "The `msg.value` should not be trusted for any method callable from multicall.",
        "params": {
          "data": "The encoded function data for each of the calls to make to this contract"
        },
        "returns": {
          "results": "The results from each of the calls passed in via data"
        }
      },
      "onERC721Received(address,address,uint256,bytes)": {
        "details": "Whenever an {IERC721} `tokenId` token is transferred to this contract via {IERC721-safeTransferFrom} by `operator` from `from`, this function is called. It must return its Solidity selector to confirm the token transfer. If any other value is returned or the interface is not implemented by the recipient, the transfer will be reverted. The selector can be obtained in Solidity with `IERC721.onERC721Received.selector`."
      },
      "stakeToken((address,address,uint256,uint256,address),uint256)": {
        "params": {
          "key": "The key of the incentive for which to stake the NFT",
          "tokenId": "The ID of the token to stake"
        }
      },
      "stakes(uint256,bytes32)": {
        "params": {
          "incentiveId": "The ID of the incentive for which the token is staked",
          "tokenId": "The ID of the staked token"
        },
        "returns": {
          "liquidity": "The amount of liquidity in the NFT as of the last time the rewards were computed",
          "secondsPerLiquidityInsideInitialX128": "secondsPerLiquidity represented as a UQ32.128"
        }
      },
      "transferDeposit(uint256,address)": {
        "params": {
          "to": "The new owner of the deposit",
          "tokenId": "The ID of the token (and the deposit) to transfer"
        }
      },
      "unstakeToken((address,address,uint256,uint256,address),uint256)": {
        "params": {
          "key": "The key of the incentive for which to unstake the NFT",
          "tokenId": "The ID of the token to unstake"
        }
      },
      "withdrawToken(uint256,address,bytes)": {
        "params": {
          "data": "An optional data array that will be passed along to the `to` address via the NFT safeTransferFrom",
          "to": "The address where the LP token will be sent",
          "tokenId": "The unique identifier of an Uniswap V3 LP token"
        }
      }
    },
    "stateVariables": {
      "_stakes": {
        "details": "stakes[tokenId][incentiveHash] => Stake"
      },
      "deposits": {
        "details": "deposits[tokenId] => Deposit"
      },
      "incentives": {
        "details": "bytes32 refers to the return value of IncentiveId.compute"
      },
      "rewards": {
        "details": "rewards[rewardToken][owner] => uint256",
        "params": {
          "owner": "The owner for which the rewards owed are checked",
          "rewardToken": "The token for which to check rewards"
        },
        "return": "rewardsOwed The amount of the reward token claimable by the owner"
      }
    },
    "title": "Uniswap V3 canonical staking interface",
    "version": 1
  },
  "userdoc": {
    "events": {
      "DepositTransferred(uint256,address,address)": {
        "notice": "Emitted when ownership of a deposit changes"
      },
      "IncentiveCreated(address,address,uint256,uint256,address,uint256)": {
        "notice": "Event emitted when a liquidity mining incentive has been created"
      },
      "IncentiveEnded(bytes32,uint256)": {
        "notice": "Event that can be emitted when a liquidity mining incentive has ended"
      },
      "RewardClaimed(address,uint256)": {
        "notice": "Event emitted when a reward token has been claimed"
      },
      "TokenStaked(uint256,bytes32,uint128)": {
        "notice": "Event emitted when a Uniswap V3 LP token has been staked"
      },
      "TokenUnstaked(uint256,bytes32)": {
        "notice": "Event emitted when a Uniswap V3 LP token has been unstaked"
      }
    },
    "kind": "user",
    "methods": {
      "claimReward(address,address,uint256)": {
        "notice": "Transfers `amountRequested` of accrued `rewardToken` rewards from the contract to the recipient `to`"
      },
      "createIncentive((address,address,uint256,uint256,address),uint256)": {
        "notice": "Creates a new liquidity mining incentive program"
      },
      "endIncentive((address,address,uint256,uint256,address))": {
        "notice": "Ends an incentive after the incentive end time has passed and all stakes have been withdrawn"
      },
      "factory()": {
        "notice": "The Uniswap V3 Factory"
      },
      "getRewardInfo((address,address,uint256,uint256,address),uint256)": {
        "notice": "Calculates the reward amount that will be received for the given stake"
      },
      "maxIncentiveDuration()": {
        "notice": "The max duration of an incentive in seconds"
      },
      "maxIncentiveStartLeadTime()": {
        "notice": "The max amount of seconds into the future the incentive startTime can be set"
      },
      "multicall(bytes[])": {
        "notice": "Call multiple functions in the current contract and return the data from all of them if they all succeed"
      },
      "nonfungiblePositionManager()": {
        "notice": "The nonfungible position manager with which this staking contract is compatible"
      },
      "onERC721Received(address,address,uint256,bytes)": {
        "notice": "Upon receiving a Uniswap V3 ERC721, creates the token deposit setting owner to `from`. Also stakes token in one or more incentives if properly formatted `data` has a length > 0."
      },
      "rewards(address,address)": {
        "notice": "Returns amounts of reward tokens owed to a given address according to the last time all stakes were updated"
      },
      "stakeToken((address,address,uint256,uint256,address),uint256)": {
        "notice": "Stakes a Uniswap V3 LP token"
      },
      "stakes(uint256,bytes32)": {
        "notice": "Returns information about a staked liquidity NFT"
      },
      "transferDeposit(uint256,address)": {
        "notice": "Transfers ownership of a deposit from the sender to the given recipient"
      },
      "unstakeToken((address,address,uint256,uint256,address),uint256)": {
        "notice": "Unstakes a Uniswap V3 LP token"
      },
      "withdrawToken(uint256,address,bytes)": {
        "notice": "Withdraws a Uniswap V3 LP token `tokenId` from this contract to the recipient `to`"
      }
    },
    "version": 1
  },
  "storageLayout": {
    "storage": [
      {
        "astId": 30846,
        "contract": "contracts/depends/uniswap-v3-staker/UniswapV3Staker.sol:UniswapV3Staker",
        "label": "incentives",
        "offset": 0,
        "slot": "0",
        "type": "t_mapping(t_bytes32,t_struct(Incentive)30808_storage)"
      },
      {
        "astId": 30852,
        "contract": "contracts/depends/uniswap-v3-staker/UniswapV3Staker.sol:UniswapV3Staker",
        "label": "deposits",
        "offset": 0,
        "slot": "1",
        "type": "t_mapping(t_uint256,t_struct(Deposit)30817_storage)"
      },
      {
        "astId": 30859,
        "contract": "contracts/depends/uniswap-v3-staker/UniswapV3Staker.sol:UniswapV3Staker",
        "label": "_stakes",
        "offset": 0,
        "slot": "2",
        "type": "t_mapping(t_uint256,t_mapping(t_bytes32,t_struct(Stake)30824_storage))"
      },
      {
        "astId": 30913,
        "contract": "contracts/depends/uniswap-v3-staker/UniswapV3Staker.sol:UniswapV3Staker",
        "label": "rewards",
        "offset": 0,
        "slot": "3",
        "type": "t_mapping(t_contract(IERC20Minimal)32365,t_mapping(t_address,t_uint256))"
      }
    ],
    "types": {
      "t_address": {
        "encoding": "inplace",
        "label": "address",
        "numberOfBytes": "20"
      },
      "t_bytes32": {
        "encoding": "inplace",
        "label": "bytes32",
        "numberOfBytes": "32"
      },
      "t_contract(IERC20Minimal)32365": {
        "encoding": "inplace",
        "label": "contract IERC20Minimal",
        "numberOfBytes": "20"
      },
      "t_int24": {
        "encoding": "inplace",
        "label": "int24",
        "numberOfBytes": "3"
      },
      "t_mapping(t_address,t_uint256)": {
        "encoding": "mapping",
        "key": "t_address",
        "label": "mapping(address => uint256)",
        "numberOfBytes": "32",
        "value": "t_uint256"
      },
      "t_mapping(t_bytes32,t_struct(Incentive)30808_storage)": {
        "encoding": "mapping",
        "key": "t_bytes32",
        "label": "mapping(bytes32 => struct UniswapV3Staker.Incentive)",
        "numberOfBytes": "32",
        "value": "t_struct(Incentive)30808_storage"
      },
      "t_mapping(t_bytes32,t_struct(Stake)30824_storage)": {
        "encoding": "mapping",
        "key": "t_bytes32",
        "label": "mapping(bytes32 => struct UniswapV3Staker.Stake)",
        "numberOfBytes": "32",
        "value": "t_struct(Stake)30824_storage"
      },
      "t_mapping(t_contract(IERC20Minimal)32365,t_mapping(t_address,t_uint256))": {
        "encoding": "mapping",
        "key": "t_contract(IERC20Minimal)32365",
        "label": "mapping(contract IERC20Minimal => mapping(address => uint256))",
        "numberOfBytes": "32",
        "value": "t_mapping(t_address,t_uint256)"
      },
      "t_mapping(t_uint256,t_mapping(t_bytes32,t_struct(Stake)30824_storage))": {
        "encoding": "mapping",
        "key": "t_uint256",
        "label": "mapping(uint256 => mapping(bytes32 => struct UniswapV3Staker.Stake))",
        "numberOfBytes": "32",
        "value": "t_mapping(t_bytes32,t_struct(Stake)30824_storage)"
      },
      "t_mapping(t_uint256,t_struct(Deposit)30817_storage)": {
        "encoding": "mapping",
        "key": "t_uint256",
        "label": "mapping(uint256 => struct UniswapV3Staker.Deposit)",
        "numberOfBytes": "32",
        "value": "t_struct(Deposit)30817_storage"
      },
      "t_struct(Deposit)30817_storage": {
        "encoding": "inplace",
        "label": "struct UniswapV3Staker.Deposit",
        "members": [
          {
            "astId": 30810,
            "contract": "contracts/depends/uniswap-v3-staker/UniswapV3Staker.sol:UniswapV3Staker",
            "label": "owner",
            "offset": 0,
            "slot": "0",
            "type": "t_address"
          },
          {
            "astId": 30812,
            "contract": "contracts/depends/uniswap-v3-staker/UniswapV3Staker.sol:UniswapV3Staker",
            "label": "numberOfStakes",
            "offset": 20,
            "slot": "0",
            "type": "t_uint48"
          },
          {
            "astId": 30814,
            "contract": "contracts/depends/uniswap-v3-staker/UniswapV3Staker.sol:UniswapV3Staker",
            "label": "tickLower",
            "offset": 26,
            "slot": "0",
            "type": "t_int24"
          },
          {
            "astId": 30816,
            "contract": "contracts/depends/uniswap-v3-staker/UniswapV3Staker.sol:UniswapV3Staker",
            "label": "tickUpper",
            "offset": 29,
            "slot": "0",
            "type": "t_int24"
          }
        ],
        "numberOfBytes": "32"
      },
      "t_struct(Incentive)30808_storage": {
        "encoding": "inplace",
        "label": "struct UniswapV3Staker.Incentive",
        "members": [
          {
            "astId": 30803,
            "contract": "contracts/depends/uniswap-v3-staker/UniswapV3Staker.sol:UniswapV3Staker",
            "label": "totalRewardUnclaimed",
            "offset": 0,
            "slot": "0",
            "type": "t_uint256"
          },
          {
            "astId": 30805,
            "contract": "contracts/depends/uniswap-v3-staker/UniswapV3Staker.sol:UniswapV3Staker",
            "label": "totalSecondsClaimedX128",
            "offset": 0,
            "slot": "1",
            "type": "t_uint160"
          },
          {
            "astId": 30807,
            "contract": "contracts/depends/uniswap-v3-staker/UniswapV3Staker.sol:UniswapV3Staker",
            "label": "numberOfStakes",
            "offset": 20,
            "slot": "1",
            "type": "t_uint96"
          }
        ],
        "numberOfBytes": "64"
      },
      "t_struct(Stake)30824_storage": {
        "encoding": "inplace",
        "label": "struct UniswapV3Staker.Stake",
        "members": [
          {
            "astId": 30819,
            "contract": "contracts/depends/uniswap-v3-staker/UniswapV3Staker.sol:UniswapV3Staker",
            "label": "secondsPerLiquidityInsideInitialX128",
            "offset": 0,
            "slot": "0",
            "type": "t_uint160"
          },
          {
            "astId": 30821,
            "contract": "contracts/depends/uniswap-v3-staker/UniswapV3Staker.sol:UniswapV3Staker",
            "label": "liquidityNoOverflow",
            "offset": 20,
            "slot": "0",
            "type": "t_uint96"
          },
          {
            "astId": 30823,
            "contract": "contracts/depends/uniswap-v3-staker/UniswapV3Staker.sol:UniswapV3Staker",
            "label": "liquidityIfOverflow",
            "offset": 0,
            "slot": "1",
            "type": "t_uint128"
          }
        ],
        "numberOfBytes": "64"
      },
      "t_uint128": {
        "encoding": "inplace",
        "label": "uint128",
        "numberOfBytes": "16"
      },
      "t_uint160": {
        "encoding": "inplace",
        "label": "uint160",
        "numberOfBytes": "20"
      },
      "t_uint256": {
        "encoding": "inplace",
        "label": "uint256",
        "numberOfBytes": "32"
      },
      "t_uint48": {
        "encoding": "inplace",
        "label": "uint48",
        "numberOfBytes": "6"
      },
      "t_uint96": {
        "encoding": "inplace",
        "label": "uint96",
        "numberOfBytes": "12"
      }
    }
  }
}