{
  "address": "0x7d49d84221468D1ED0BaB162402EbA19F90e2992",
  "abi": [
    {
      "inputs": [
        {
          "internalType": "address",
          "name": "theReserve_",
          "type": "address"
        },
        {
          "internalType": "address",
          "name": "defiManager_",
          "type": "address"
        }
      ],
      "stateMutability": "nonpayable",
      "type": "constructor"
    },
    {
      "inputs": [
        {
          "internalType": "uint256",
          "name": "tokenId",
          "type": "uint256"
        },
        {
          "internalType": "uint256",
          "name": "amount",
          "type": "uint256"
        }
      ],
      "name": "ERC1155EnumerableInvalidAmount",
      "type": "error"
    },
    {
      "inputs": [
        {
          "internalType": "uint256",
          "name": "idsLength",
          "type": "uint256"
        },
        {
          "internalType": "uint256",
          "name": "valuesLength",
          "type": "uint256"
        }
      ],
      "name": "ERC1155InvalidArrayLength",
      "type": "error"
    },
    {
      "inputs": [],
      "name": "ReentrancyGuardReentrantCall",
      "type": "error"
    },
    {
      "inputs": [],
      "name": "defiManager",
      "outputs": [
        {
          "internalType": "contract IDeFiManager",
          "name": "",
          "type": "address"
        }
      ],
      "stateMutability": "view",
      "type": "function"
    },
    {
      "inputs": [],
      "name": "lpSft",
      "outputs": [
        {
          "internalType": "contract ILPSFT",
          "name": "",
          "type": "address"
        }
      ],
      "stateMutability": "view",
      "type": "function"
    },
    {
      "inputs": [],
      "name": "noLpSft",
      "outputs": [
        {
          "internalType": "contract ILPSFTIssuable",
          "name": "",
          "type": "address"
        }
      ],
      "stateMutability": "view",
      "type": "function"
    },
    {
      "inputs": [
        {
          "internalType": "address",
          "name": "",
          "type": "address"
        },
        {
          "internalType": "address",
          "name": "from",
          "type": "address"
        },
        {
          "internalType": "uint256[]",
          "name": "ids",
          "type": "uint256[]"
        },
        {
          "internalType": "uint256[]",
          "name": "values",
          "type": "uint256[]"
        },
        {
          "internalType": "bytes",
          "name": "data",
          "type": "bytes"
        }
      ],
      "name": "onERC1155BatchReceived",
      "outputs": [
        {
          "internalType": "bytes4",
          "name": "",
          "type": "bytes4"
        }
      ],
      "stateMutability": "nonpayable",
      "type": "function"
    },
    {
      "inputs": [
        {
          "internalType": "address",
          "name": "",
          "type": "address"
        },
        {
          "internalType": "address",
          "name": "from",
          "type": "address"
        },
        {
          "internalType": "uint256",
          "name": "id",
          "type": "uint256"
        },
        {
          "internalType": "uint256",
          "name": "value",
          "type": "uint256"
        },
        {
          "internalType": "bytes",
          "name": "data",
          "type": "bytes"
        }
      ],
      "name": "onERC1155Received",
      "outputs": [
        {
          "internalType": "bytes4",
          "name": "",
          "type": "bytes4"
        }
      ],
      "stateMutability": "nonpayable",
      "type": "function"
    },
    {
      "inputs": [],
      "name": "pow1LpSftLendFarm",
      "outputs": [
        {
          "internalType": "contract ILPSFTLendFarm",
          "name": "",
          "type": "address"
        }
      ],
      "stateMutability": "view",
      "type": "function"
    },
    {
      "inputs": [
        {
          "internalType": "bytes4",
          "name": "interfaceId",
          "type": "bytes4"
        }
      ],
      "name": "supportsInterface",
      "outputs": [
        {
          "internalType": "bool",
          "name": "",
          "type": "bool"
        }
      ],
      "stateMutability": "pure",
      "type": "function"
    },
    {
      "inputs": [],
      "name": "theReserve",
      "outputs": [
        {
          "internalType": "contract ITheReserve",
          "name": "",
          "type": "address"
        }
      ],
      "stateMutability": "view",
      "type": "function"
    }
  ],
  "transactionHash": "0xc8de839f708cface3ac1a640f094fcb1163a4040ff3976e2291fbc87e4ea6646",
  "args": [
    "0xDa87C152723FA5d88D499D1722a2739c5cDaD9Ac",
    "0xe49ebe3Cf0BaA0cae0C03Dd9d19CA855463Cbb41"
  ],
  "numDeployments": 1,
  "solcInputHash": "9eaa9fa15edb9065feab4ae045ea31f5",
  "bytecode": "0x61012060405234801561001157600080fd5b506040516113153803806113158339810160408190526100309161026e565b60016000556001600160a01b0382166100905760405162461bcd60e51b815260206004820152601360248201527f496e76616c69642054686520526573657276650000000000000000000000000060448201526064015b60405180910390fd5b6001600160a01b0381166100d95760405162461bcd60e51b815260206004820152601060248201526f24b73b30b634b2102232a3349036b3b960811b6044820152606401610087565b6001600160a01b03821660808190526040805163a1abfd9560e01b8152905163a1abfd95916004808201926020929091908290030181865afa158015610123573d6000803e3d6000fd5b505050506040513d601f19601f8201168201806040525081019061014791906102a8565b6001600160a01b031660a0816001600160a01b031681525050816001600160a01b03166311e806626040518163ffffffff1660e01b8152600401602060405180830381865afa15801561019e573d6000803e3d6000fd5b505050506040513d601f19601f820116820180604052508101906101c291906102a8565b6001600160a01b031660c0816001600160a01b031681525050816001600160a01b031663de1f52d06040518163ffffffff1660e01b8152600401602060405180830381865afa158015610219573d6000803e3d6000fd5b505050506040513d601f19601f8201168201806040525081019061023d91906102a8565b6001600160a01b0390811660e0521661010052506102cc565b6001600160a01b038116811461026b57600080fd5b50565b6000806040838503121561028157600080fd5b825161028c81610256565b602084015190925061029d81610256565b809150509250929050565b6000602082840312156102ba57600080fd5b81516102c581610256565b9392505050565b60805160a05160c05160e05161010051610f8f6103866000396000818161010201526108120152600081816101a30152818161031c0152818161042101528181610711015261095901526000818160c30152818161020f015281816103980152818161049d015281816105d80152818161078a01526108e1015260008181610150015281816101dd015281816102d70152818161051d015281816105a6015281816106cd01526109d4015260006101290152610f8f6000f3fe608060405234801561001057600080fd5b50600436106100885760003560e01c8063a1abfd951161005b578063a1abfd951461014b578063bc197c8114610172578063de1f52d01461019e578063f23a6e61146101c557600080fd5b806301ffc9a71461008d57806311e80662146100be57806335424224146100fd578063459213a114610124575b600080fd5b6100a961009b366004610ae0565b6001600160e01b0319161590565b60405190151581526020015b60405180910390f35b6100e57f000000000000000000000000000000000000000000000000000000000000000081565b6040516001600160a01b0390911681526020016100b5565b6100e57f000000000000000000000000000000000000000000000000000000000000000081565b6100e57f000000000000000000000000000000000000000000000000000000000000000081565b6100e57f000000000000000000000000000000000000000000000000000000000000000081565b610185610180366004610c67565b6101d8565b6040516001600160e01b031990911681526020016100b5565b6100e57f000000000000000000000000000000000000000000000000000000000000000081565b6101856101d3366004610d1d565b6105a1565b6000337f00000000000000000000000000000000000000000000000000000000000000006001600160a01b031614806102395750337f00000000000000000000000000000000000000000000000000000000000000006001600160a01b0316145b6102845760405162461bcd60e51b815260206004820152601760248201527613db9b1e480a1393ca531414d195081858d8d95c1d1959604a1b60448201526064015b60405180910390fd5b6001600160a01b0385166102cb5760405162461bcd60e51b815260206004820152600e60248201526d24b73b30b634b21039b2b73232b960911b604482015260640161027b565b6102d58484610a59565b7f00000000000000000000000000000000000000000000000000000000000000006001600160a01b0316330361040a576040516378e621a360e11b81526001600160a01b037f0000000000000000000000000000000000000000000000000000000000000000169063f1cc434690610351908790600401610db2565b600060405180830381600087803b15801561036b57600080fd5b505af115801561037f573d6000803e3d6000fd5b5050604051631143124160e11b81526001600160a01b037f0000000000000000000000000000000000000000000000000000000000000000169250632286248291506103d390889088908790600401610e0b565b600060405180830381600087803b1580156103ed57600080fd5b505af1158015610401573d6000803e3d6000fd5b5050505061058f565b604051630fdecd7f60e01b81526001600160a01b037f00000000000000000000000000000000000000000000000000000000000000001690630fdecd7f90610456908790600401610db2565b600060405180830381600087803b15801561047057600080fd5b505af1158015610484573d6000803e3d6000fd5b505060405163b2dc5dc360e01b81526001600160a01b037f000000000000000000000000000000000000000000000000000000000000000016925063b2dc5dc391506104d69030908890600401610e41565b600060405180830381600087803b1580156104f057600080fd5b505af1158015610504573d6000803e3d6000fd5b5050604051631759616b60e11b81526001600160a01b037f0000000000000000000000000000000000000000000000000000000000000000169250632eb2c2d6915061055c9030908990899089908990600401610e6d565b600060405180830381600087803b15801561057657600080fd5b505af115801561058a573d6000803e3d6000fd5b505050505b5063bc197c8160e01b95945050505050565b6000337f00000000000000000000000000000000000000000000000000000000000000006001600160a01b031614806106025750337f00000000000000000000000000000000000000000000000000000000000000006001600160a01b0316145b6106485760405162461bcd60e51b815260206004820152601760248201527613db9b1e480a1393ca531414d195081858d8d95c1d1959604a1b604482015260640161027b565b826001146106845760405162461bcd60e51b81526020600482015260096024820152684f6e6c79204e46547360b81b604482015260640161027b565b6001600160a01b0385166106cb5760405162461bcd60e51b815260206004820152600e60248201526d24b73b30b634b21039b2b73232b960911b604482015260640161027b565b7f00000000000000000000000000000000000000000000000000000000000000006001600160a01b031633036107fc576040516376cd5fb760e01b8152600481018590527f00000000000000000000000000000000000000000000000000000000000000006001600160a01b0316906376cd5fb790602401600060405180830381600087803b15801561075d57600080fd5b505af1158015610771573d6000803e3d6000fd5b50506040516394d008ef60e01b81526001600160a01b037f00000000000000000000000000000000000000000000000000000000000000001692506394d008ef91506107c590889088908790600401610ecb565b600060405180830381600087803b1580156107df57600080fd5b505af11580156107f3573d6000803e3d6000fd5b50505050610a47565b6040516353f9c29160e11b8152600481018590527f00000000000000000000000000000000000000000000000000000000000000006001600160a01b03169063a7f3852290602401602060405180830381865afa158015610861573d6000803e3d6000fd5b505050506040513d601f19601f820116820180604052508101906108859190610efb565b156108c55760405162461bcd60e51b815260206004820152601060248201526f04e4f504f5735206d75737420626520360841b604482015260640161027b565b604051632770a7eb60e21b8152306004820152602481018590527f00000000000000000000000000000000000000000000000000000000000000006001600160a01b031690639dc29fac90604401600060405180830381600087803b15801561092d57600080fd5b505af1158015610941573d6000803e3d6000fd5b5050604051637a362a4560e01b8152600481018790527f00000000000000000000000000000000000000000000000000000000000000006001600160a01b03169250637a362a459150602401600060405180830381600087803b1580156109a757600080fd5b505af11580156109bb573d6000803e3d6000fd5b5050604051637921219560e11b81526001600160a01b037f000000000000000000000000000000000000000000000000000000000000000016925063f242432a9150610a14903090899089906001908990600401610f14565b600060405180830381600087803b158015610a2e57600080fd5b505af1158015610a42573d6000803e3d6000fd5b505050505b5063f23a6e6160e01b95945050505050565b81518151808214610a8757604051635b05999160e01b8152600481018390526024810182905260440161027b565b60005b82811015610ad95760208082028501015180600114610ad057602080830287010151604051631a796ab760e31b815260048101919091526024810182905260440161027b565b50600101610a8a565b5050505050565b600060208284031215610af257600080fd5b81356001600160e01b031981168114610b0a57600080fd5b9392505050565b80356001600160a01b0381168114610b2857600080fd5b919050565b634e487b7160e01b600052604160045260246000fd5b604051601f8201601f1916810167ffffffffffffffff81118282101715610b6c57610b6c610b2d565b604052919050565b600082601f830112610b8557600080fd5b813567ffffffffffffffff811115610b9f57610b9f610b2d565b8060051b610baf60208201610b43565b91825260208185018101929081019086841115610bcb57600080fd5b6020860192505b83831015610bed578235825260209283019290910190610bd2565b9695505050505050565b600082601f830112610c0857600080fd5b813567ffffffffffffffff811115610c2257610c22610b2d565b610c35601f8201601f1916602001610b43565b818152846020838601011115610c4a57600080fd5b816020850160208301376000918101602001919091529392505050565b600080600080600060a08688031215610c7f57600080fd5b610c8886610b11565b9450610c9660208701610b11565b9350604086013567ffffffffffffffff811115610cb257600080fd5b610cbe88828901610b74565b935050606086013567ffffffffffffffff811115610cdb57600080fd5b610ce788828901610b74565b925050608086013567ffffffffffffffff811115610d0457600080fd5b610d1088828901610bf7565b9150509295509295909350565b600080600080600060a08688031215610d3557600080fd5b610d3e86610b11565b9450610d4c60208701610b11565b93506040860135925060608601359150608086013567ffffffffffffffff811115610d0457600080fd5b600081518084526020840193506020830160005b82811015610da8578151865260209586019590910190600101610d8a565b5093949350505050565b602081526000610b0a6020830184610d76565b6000815180845260005b81811015610deb57602081850181015186830182015201610dcf565b506000602082860101526020601f19601f83011685010191505092915050565b6001600160a01b0384168152606060208201819052600090610e2f90830185610d76565b8281036040840152610bed8185610dc5565b6001600160a01b0383168152604060208201819052600090610e6590830184610d76565b949350505050565b6001600160a01b0386811682528516602082015260a060408201819052600090610e9990830186610d76565b8281036060840152610eab8186610d76565b90508281036080840152610ebf8185610dc5565b98975050505050505050565b60018060a01b0384168152826020820152606060408201526000610ef26060830184610dc5565b95945050505050565b600060208284031215610f0d57600080fd5b5051919050565b6001600160a01b03868116825285166020820152604081018490526060810183905260a060808201819052600090610f4e90830184610dc5565b97965050505050505056fea2646970667358221220307a607a4d2f43548e9adca1a7c4a1ee38b412ef981d4df1101e7edb0ab6b74f64736f6c634300081c0033",
  "devdoc": {
    "errors": {
      "ERC1155EnumerableInvalidAmount(uint256,uint256)": [
        {
          "details": "Error raised if the amount of an NFT is not 1",
          "params": {
            "amount": "The amount of the NFT token",
            "tokenId": "The ID of the NFT token with an invalid amount"
          }
        }
      ],
      "ERC1155InvalidArrayLength(uint256,uint256)": [
        {
          "details": "Indicates an array length mismatch between ids and values in a safeBatchTransferFrom operation. Used in batch transfers.",
          "params": {
            "idsLength": "Length of the array of token identifiers",
            "valuesLength": "Length of the array of token amounts"
          }
        }
      ],
      "ReentrancyGuardReentrantCall()": [
        {
          "details": "Unauthorized reentrant call."
        }
      ]
    },
    "kind": "dev",
    "methods": {
      "constructor": {
        "details": "Initializes the Yield Harvest contract",
        "params": {
          "defiManager_": "The address of the LP-SFT DeFi manager",
          "theReserve_": "The address of The Reserve smart contract"
        }
      },
      "onERC1155BatchReceived(address,address,uint256[],uint256[],bytes)": {
        "details": "See {IERC1155Receiver-onERC1155BatchReceived}"
      },
      "onERC1155Received(address,address,uint256,uint256,bytes)": {
        "details": "See {IERC1155Receiver-onERC1155Received}"
      },
      "supportsInterface(bytes4)": {
        "details": "See {IERC165-supportsInterface}"
      }
    },
    "stateVariables": {
      "defiManager": {
        "details": "The DeFi interface for LP-SFTs"
      },
      "lpSft": {
        "details": "The LP-SFT contract"
      },
      "noLpSft": {
        "details": "The LP-SFT debt contract"
      },
      "pow1LpSftLendFarm": {
        "details": "The POW1 LP-SFT lend farm"
      },
      "theReserve": {
        "details": "The Reserve smart contract"
      }
    },
    "title": "Bureau of the Yield Harvest",
    "version": 1
  },
  "userdoc": {
    "kind": "user",
    "methods": {},
    "version": 1
  },
  "storageLayout": {
    "storage": [
      {
        "astId": 6439,
        "contract": "contracts/src/bureaucracy/yieldHarvest/YieldHarvest.sol:YieldHarvest",
        "label": "_status",
        "offset": 0,
        "slot": "0",
        "type": "t_uint256"
      }
    ],
    "types": {
      "t_uint256": {
        "encoding": "inplace",
        "label": "uint256",
        "numberOfBytes": "32"
      }
    }
  }
}